{
  "address": "0xCD2bb7785f2Eeb3ebC2D9c9cc28709678128F24c",
  "abi": [
    {
      "anonymous": false,
      "inputs": [
        {
          "indexed": false,
          "internalType": "address",
          "name": "account",
          "type": "address"
        }
      ],
      "name": "Paused",
      "type": "event"
    },
    {
      "anonymous": false,
      "inputs": [
        {
          "indexed": true,
          "internalType": "bytes32",
          "name": "role",
          "type": "bytes32"
        },
        {
          "indexed": true,
          "internalType": "bytes32",
          "name": "previousAdminRole",
          "type": "bytes32"
        },
        {
          "indexed": true,
          "internalType": "bytes32",
          "name": "newAdminRole",
          "type": "bytes32"
        }
      ],
      "name": "RoleAdminChanged",
      "type": "event"
    },
    {
      "anonymous": false,
      "inputs": [
        {
          "indexed": true,
          "internalType": "bytes32",
          "name": "role",
          "type": "bytes32"
        },
        {
          "indexed": true,
          "internalType": "address",
          "name": "account",
          "type": "address"
        },
        {
          "indexed": true,
          "internalType": "address",
          "name": "sender",
          "type": "address"
        }
      ],
      "name": "RoleGranted",
      "type": "event"
    },
    {
      "anonymous": false,
      "inputs": [
        {
          "indexed": true,
          "internalType": "bytes32",
          "name": "role",
          "type": "bytes32"
        },
        {
          "indexed": true,
          "internalType": "address",
          "name": "account",
          "type": "address"
        },
        {
          "indexed": true,
          "internalType": "address",
          "name": "sender",
          "type": "address"
        }
      ],
      "name": "RoleRevoked",
      "type": "event"
    },
    {
      "anonymous": false,
      "inputs": [
        {
          "indexed": false,
          "internalType": "address",
          "name": "account",
          "type": "address"
        }
      ],
      "name": "Unpaused",
      "type": "event"
    },
    {
      "anonymous": false,
      "inputs": [
        {
          "indexed": false,
          "internalType": "address",
          "name": "token",
          "type": "address"
        },
        {
          "indexed": false,
          "internalType": "bytes",
          "name": "from",
          "type": "bytes"
        },
        {
          "indexed": true,
          "internalType": "address",
          "name": "to",
          "type": "address"
        },
        {
          "indexed": false,
          "internalType": "bytes32",
          "name": "orderId",
          "type": "bytes32"
        },
        {
          "indexed": false,
          "internalType": "uint256",
          "name": "amount",
          "type": "uint256"
        },
        {
          "indexed": false,
          "internalType": "uint256",
          "name": "fromChain",
          "type": "uint256"
        }
      ],
      "name": "mapDepositIn",
      "type": "event"
    },
    {
      "anonymous": false,
      "inputs": [
        {
          "indexed": false,
          "internalType": "bytes32",
          "name": "tokenID",
          "type": "bytes32"
        },
        {
          "indexed": false,
          "internalType": "address",
          "name": "token",
          "type": "address"
        }
      ],
      "name": "mapTokenRegister",
      "type": "event"
    },
    {
      "anonymous": false,
      "inputs": [
        {
          "indexed": true,
          "internalType": "address",
          "name": "token",
          "type": "address"
        },
        {
          "indexed": true,
          "internalType": "bytes",
          "name": "from",
          "type": "bytes"
        },
        {
          "indexed": true,
          "internalType": "bytes32",
          "name": "orderId",
          "type": "bytes32"
        },
        {
          "indexed": false,
          "internalType": "uint256",
          "name": "fromChain",
          "type": "uint256"
        },
        {
          "indexed": false,
          "internalType": "uint256",
          "name": "toChain",
          "type": "uint256"
        },
        {
          "indexed": false,
          "internalType": "address",
          "name": "to",
          "type": "address"
        },
        {
          "indexed": false,
          "internalType": "uint256",
          "name": "amount",
          "type": "uint256"
        }
      ],
      "name": "mapTransferIn",
      "type": "event"
    },
    {
      "anonymous": false,
      "inputs": [
        {
          "indexed": false,
          "internalType": "bytes",
          "name": "token",
          "type": "bytes"
        },
        {
          "indexed": false,
          "internalType": "bytes",
          "name": "from",
          "type": "bytes"
        },
        {
          "indexed": false,
          "internalType": "bytes32",
          "name": "orderId",
          "type": "bytes32"
        },
        {
          "indexed": false,
          "internalType": "uint256",
          "name": "fromChain",
          "type": "uint256"
        },
        {
          "indexed": false,
          "internalType": "uint256",
          "name": "toChain",
          "type": "uint256"
        },
        {
          "indexed": false,
          "internalType": "bytes",
          "name": "to",
          "type": "bytes"
        },
        {
          "indexed": false,
          "internalType": "uint256",
          "name": "amount",
          "type": "uint256"
        },
        {
          "indexed": false,
          "internalType": "bytes",
          "name": "toChainToken",
          "type": "bytes"
        }
      ],
      "name": "mapTransferOut",
      "type": "event"
    },
    {
      "inputs": [],
      "name": "DEFAULT_ADMIN_ROLE",
      "outputs": [
        {
          "internalType": "bytes32",
          "name": "",
          "type": "bytes32"
        }
      ],
      "stateMutability": "view",
      "type": "function"
    },
    {
      "inputs": [],
      "name": "MANAGER_ROLE",
      "outputs": [
        {
          "internalType": "bytes32",
          "name": "",
          "type": "bytes32"
        }
      ],
      "stateMutability": "view",
      "type": "function"
    },
    {
      "inputs": [
        {
          "internalType": "address",
          "name": "self",
          "type": "address"
        }
      ],
      "name": "_addressToBytes",
      "outputs": [
        {
          "internalType": "bytes",
          "name": "b",
          "type": "bytes"
        }
      ],
      "stateMutability": "pure",
      "type": "function"
    },
    {
      "inputs": [
        {
          "internalType": "bytes",
          "name": "bys",
          "type": "bytes"
        }
      ],
      "name": "_bytesToAddress",
      "outputs": [
        {
          "internalType": "address",
          "name": "addr",
          "type": "address"
        }
      ],
      "stateMutability": "pure",
      "type": "function"
    },
    {
      "inputs": [
        {
          "internalType": "address[]",
          "name": "token",
          "type": "address[]"
        }
      ],
      "name": "addAuthToken",
      "outputs": [],
      "stateMutability": "nonpayable",
      "type": "function"
    },
    {
      "inputs": [
        {
          "internalType": "address",
          "name": "manager",
          "type": "address"
        }
      ],
      "name": "addManager",
      "outputs": [],
      "stateMutability": "nonpayable",
      "type": "function"
    },
    {
      "inputs": [
        {
          "internalType": "address",
          "name": "",
          "type": "address"
        }
      ],
      "name": "authToken",
      "outputs": [
        {
          "internalType": "bool",
          "name": "",
          "type": "bool"
        }
      ],
      "stateMutability": "view",
      "type": "function"
    },
    {
      "inputs": [
        {
          "internalType": "uint256",
          "name": "",
          "type": "uint256"
        }
      ],
      "name": "chainGasFee",
      "outputs": [
        {
          "internalType": "uint256",
          "name": "",
          "type": "uint256"
        }
      ],
      "stateMutability": "view",
      "type": "function"
    },
    {
      "inputs": [],
      "name": "chainGasFees",
      "outputs": [
        {
          "internalType": "uint256",
          "name": "",
          "type": "uint256"
        }
      ],
      "stateMutability": "view",
      "type": "function"
    },
    {
      "inputs": [
        {
          "internalType": "uint256",
          "name": "amount",
          "type": "uint256"
        },
        {
          "internalType": "address",
          "name": "token",
          "type": "address"
        }
      ],
      "name": "collectChainFee",
      "outputs": [],
      "stateMutability": "nonpayable",
      "type": "function"
    },
    {
      "inputs": [
        {
          "internalType": "bytes",
          "name": "logsHash",
          "type": "bytes"
        }
      ],
      "name": "decodeNearLog",
      "outputs": [
        {
          "internalType": "bytes",
          "name": "executorId",
          "type": "bytes"
        },
        {
          "components": [
            {
              "internalType": "bytes",
              "name": "token",
              "type": "bytes"
            },
            {
              "internalType": "bytes",
              "name": "from",
              "type": "bytes"
            },
            {
              "internalType": "bytes",
              "name": "order_id",
              "type": "bytes"
            },
            {
              "internalType": "uint256",
              "name": "from_chain",
              "type": "uint256"
            },
            {
              "internalType": "uint256",
              "name": "to_chain",
              "type": "uint256"
            },
            {
              "internalType": "bytes",
              "name": "to",
              "type": "bytes"
            },
            {
              "internalType": "uint256",
              "name": "amount",
              "type": "uint256"
            },
            {
              "internalType": "bytes",
              "name": "to_chain_token",
              "type": "bytes"
            }
          ],
          "internalType": "struct MAPCrossChainServiceRelay.nearTransferOutEvent",
          "name": "_outEvent",
          "type": "tuple"
        }
      ],
      "stateMutability": "view",
      "type": "function"
    },
    {
      "inputs": [
        {
          "internalType": "bytes",
          "name": "logsHash",
          "type": "bytes"
        }
      ],
      "name": "decodeTxLog",
      "outputs": [
        {
          "components": [
            {
              "internalType": "address",
              "name": "addr",
              "type": "address"
            },
            {
              "internalType": "bytes[]",
              "name": "topics",
              "type": "bytes[]"
            },
            {
              "internalType": "bytes",
              "name": "data",
              "type": "bytes"
            }
          ],
          "internalType": "struct MAPCrossChainServiceRelay.txLog[]",
          "name": "_txLogs",
          "type": "tuple[]"
        }
      ],
      "stateMutability": "pure",
      "type": "function"
    },
    {
      "inputs": [
        {
          "internalType": "uint256",
          "name": "_fromChain",
          "type": "uint256"
        },
        {
          "internalType": "bytes",
          "name": "receiptProof",
          "type": "bytes"
        }
      ],
      "name": "depositIn",
      "outputs": [],
      "stateMutability": "payable",
      "type": "function"
    },
    {
      "inputs": [],
      "name": "feeCenter",
      "outputs": [
        {
          "internalType": "contract IFeeCenter",
          "name": "",
          "type": "address"
        }
      ],
      "stateMutability": "view",
      "type": "function"
    },
    {
      "inputs": [
        {
          "internalType": "uint256",
          "name": "toChainId",
          "type": "uint256"
        },
        {
          "internalType": "address",
          "name": "token",
          "type": "address"
        },
        {
          "internalType": "uint256",
          "name": "amount",
          "type": "uint256"
        }
      ],
      "name": "getChainFee",
      "outputs": [
        {
          "internalType": "uint256",
          "name": "out",
          "type": "uint256"
        }
      ],
      "stateMutability": "view",
      "type": "function"
    },
    {
      "inputs": [
        {
          "internalType": "uint256",
          "name": "amount",
          "type": "uint256"
        },
        {
          "internalType": "uint256",
          "name": "rate",
          "type": "uint256"
        }
      ],
      "name": "getFeeValue",
      "outputs": [
        {
          "internalType": "uint256",
          "name": "",
          "type": "uint256"
        }
      ],
      "stateMutability": "pure",
      "type": "function"
    },
    {
      "inputs": [
        {
          "internalType": "address",
          "name": "token",
          "type": "address"
        },
        {
          "internalType": "address",
          "name": "from",
          "type": "address"
        },
        {
          "internalType": "bytes",
          "name": "to",
          "type": "bytes"
        },
        {
          "internalType": "uint256",
          "name": "amount",
          "type": "uint256"
        },
        {
          "internalType": "uint256",
          "name": "toChainID",
          "type": "uint256"
        }
      ],
      "name": "getOrderID",
      "outputs": [
        {
          "internalType": "bytes32",
          "name": "",
          "type": "bytes32"
        }
      ],
      "stateMutability": "nonpayable",
      "type": "function"
    },
    {
      "inputs": [
        {
          "internalType": "bytes32",
          "name": "role",
          "type": "bytes32"
        }
      ],
      "name": "getRoleAdmin",
      "outputs": [
        {
          "internalType": "bytes32",
          "name": "",
          "type": "bytes32"
        }
      ],
      "stateMutability": "view",
      "type": "function"
    },
    {
      "inputs": [
        {
          "internalType": "bytes32",
          "name": "role",
          "type": "bytes32"
        },
        {
          "internalType": "address",
          "name": "account",
          "type": "address"
        }
      ],
      "name": "grantRole",
      "outputs": [],
      "stateMutability": "nonpayable",
      "type": "function"
    },
    {
      "inputs": [
        {
          "internalType": "bytes32",
          "name": "role",
          "type": "bytes32"
        },
        {
          "internalType": "address",
          "name": "account",
          "type": "address"
        }
      ],
      "name": "hasRole",
      "outputs": [
        {
          "internalType": "bool",
          "name": "",
          "type": "bool"
        }
      ],
      "stateMutability": "view",
      "type": "function"
    },
    {
      "inputs": [
        {
          "internalType": "bytes",
          "name": "_hexStr",
          "type": "bytes"
        }
      ],
      "name": "hexStrToBytes",
      "outputs": [
        {
          "internalType": "bytes",
          "name": "",
          "type": "bytes"
        }
      ],
      "stateMutability": "pure",
      "type": "function"
    },
    {
      "inputs": [
        {
          "internalType": "address",
          "name": "_wToken",
          "type": "address"
        },
        {
          "internalType": "address",
          "name": "_mapToken",
          "type": "address"
        },
        {
          "internalType": "address",
          "name": "_managerAddress",
          "type": "address"
        }
      ],
      "name": "initialize",
      "outputs": [],
      "stateMutability": "nonpayable",
      "type": "function"
    },
    {
      "inputs": [],
      "name": "lightClientManager",
      "outputs": [
        {
          "internalType": "contract ILightClientManager",
          "name": "",
          "type": "address"
        }
      ],
      "stateMutability": "view",
      "type": "function"
    },
    {
      "inputs": [],
      "name": "mapDepositOutTopic",
      "outputs": [
        {
          "internalType": "bytes32",
          "name": "",
          "type": "bytes32"
        }
      ],
      "stateMutability": "view",
      "type": "function"
    },
    {
      "inputs": [],
      "name": "mapToken",
      "outputs": [
        {
          "internalType": "contract IERC20",
          "name": "",
          "type": "address"
        }
      ],
      "stateMutability": "view",
      "type": "function"
    },
    {
      "inputs": [],
      "name": "mapTransferOutTopic",
      "outputs": [
        {
          "internalType": "bytes32",
          "name": "",
          "type": "bytes32"
        }
      ],
      "stateMutability": "view",
      "type": "function"
    },
    {
      "inputs": [],
      "name": "nearDepositOut",
      "outputs": [
        {
          "internalType": "bytes32",
          "name": "",
          "type": "bytes32"
        }
      ],
      "stateMutability": "view",
      "type": "function"
    },
    {
      "inputs": [],
      "name": "nearTransferOut",
      "outputs": [
        {
          "internalType": "bytes32",
          "name": "",
          "type": "bytes32"
        }
      ],
      "stateMutability": "view",
      "type": "function"
    },
    {
      "inputs": [],
      "name": "nonce",
      "outputs": [
        {
          "internalType": "uint256",
          "name": "",
          "type": "uint256"
        }
      ],
      "stateMutability": "view",
      "type": "function"
    },
    {
      "inputs": [
        {
          "internalType": "bytes32",
          "name": "",
          "type": "bytes32"
        }
      ],
      "name": "orderList",
      "outputs": [
        {
          "internalType": "bool",
          "name": "",
          "type": "bool"
        }
      ],
      "stateMutability": "view",
      "type": "function"
    },
    {
      "inputs": [],
      "name": "paused",
      "outputs": [
        {
          "internalType": "bool",
          "name": "",
          "type": "bool"
        }
      ],
      "stateMutability": "view",
      "type": "function"
    },
    {
      "inputs": [
        {
          "internalType": "address[]",
          "name": "token",
          "type": "address[]"
        }
      ],
      "name": "removeAuthToken",
      "outputs": [],
      "stateMutability": "nonpayable",
      "type": "function"
    },
    {
      "inputs": [
        {
          "internalType": "address",
          "name": "manager",
          "type": "address"
        }
      ],
      "name": "removeManager",
      "outputs": [],
      "stateMutability": "nonpayable",
      "type": "function"
    },
    {
      "inputs": [
        {
          "internalType": "bytes32",
          "name": "role",
          "type": "bytes32"
        },
        {
          "internalType": "address",
          "name": "account",
          "type": "address"
        }
      ],
      "name": "renounceRole",
      "outputs": [],
      "stateMutability": "nonpayable",
      "type": "function"
    },
    {
      "inputs": [
        {
          "internalType": "bytes32",
          "name": "role",
          "type": "bytes32"
        },
        {
          "internalType": "address",
          "name": "account",
          "type": "address"
        }
      ],
      "name": "revokeRole",
      "outputs": [],
      "stateMutability": "nonpayable",
      "type": "function"
    },
    {
      "inputs": [],
      "name": "selfChainId",
      "outputs": [
        {
          "internalType": "uint256",
          "name": "",
          "type": "uint256"
        }
      ],
      "stateMutability": "view",
      "type": "function"
    },
    {
      "inputs": [
        {
          "internalType": "uint256",
          "name": "_chainId",
          "type": "uint256"
        },
        {
          "internalType": "bytes",
          "name": "_addr",
          "type": "bytes"
        }
      ],
      "name": "setBridgeAddress",
      "outputs": [],
      "stateMutability": "nonpayable",
      "type": "function"
    },
    {
      "inputs": [
        {
          "internalType": "address",
          "name": "fee",
          "type": "address"
        }
      ],
      "name": "setFeeCenter",
      "outputs": [],
      "stateMutability": "nonpayable",
      "type": "function"
    },
    {
      "inputs": [
        {
          "internalType": "uint256",
          "name": "_chainId",
          "type": "uint256"
        },
        {
          "internalType": "uint256",
          "name": "_id",
          "type": "uint256"
        }
      ],
      "name": "setIdTable",
      "outputs": [],
      "stateMutability": "nonpayable",
      "type": "function"
    },
    {
      "inputs": [
        {
          "internalType": "address",
          "name": "_managerAddress",
          "type": "address"
        }
      ],
      "name": "setLightClientManager",
      "outputs": [],
      "stateMutability": "nonpayable",
      "type": "function"
    },
    {
      "inputs": [
        {
          "internalType": "bytes32",
          "name": "_hash",
          "type": "bytes32"
        }
      ],
      "name": "setNearHash",
      "outputs": [],
      "stateMutability": "nonpayable",
      "type": "function"
    },
    {
      "inputs": [],
      "name": "setPause",
      "outputs": [],
      "stateMutability": "nonpayable",
      "type": "function"
    },
    {
      "inputs": [
        {
          "internalType": "bytes",
          "name": "selfToken",
          "type": "bytes"
        },
        {
          "internalType": "uint256",
          "name": "chainId",
          "type": "uint256"
        },
        {
          "internalType": "uint256",
          "name": "decimals",
          "type": "uint256"
        }
      ],
      "name": "setTokenOtherChainDecimals",
      "outputs": [],
      "stateMutability": "nonpayable",
      "type": "function"
    },
    {
      "inputs": [
        {
          "internalType": "address",
          "name": "_register",
          "type": "address"
        }
      ],
      "name": "setTokenRegister",
      "outputs": [],
      "stateMutability": "nonpayable",
      "type": "function"
    },
    {
      "inputs": [],
      "name": "setUnpause",
      "outputs": [],
      "stateMutability": "nonpayable",
      "type": "function"
    },
    {
      "inputs": [
        {
          "internalType": "uint256",
          "name": "tochain",
          "type": "uint256"
        },
        {
          "internalType": "address",
          "name": "token",
          "type": "address"
        },
        {
          "internalType": "uint256",
          "name": "amount",
          "type": "uint256"
        }
      ],
      "name": "setVaultBalance",
      "outputs": [],
      "stateMutability": "nonpayable",
      "type": "function"
    },
    {
      "inputs": [
        {
          "internalType": "bytes",
          "name": "extra",
          "type": "bytes"
        }
      ],
      "name": "splitExtra",
      "outputs": [
        {
          "internalType": "bytes",
          "name": "newExtra",
          "type": "bytes"
        }
      ],
      "stateMutability": "pure",
      "type": "function"
    },
    {
      "inputs": [
        {
          "internalType": "bytes4",
          "name": "interfaceId",
          "type": "bytes4"
        }
      ],
      "name": "supportsInterface",
      "outputs": [
        {
          "internalType": "bool",
          "name": "",
          "type": "bool"
        }
      ],
      "stateMutability": "view",
      "type": "function"
    },
    {
      "inputs": [],
      "name": "tokenRegister",
      "outputs": [
        {
          "internalType": "contract ITokenRegister",
          "name": "",
          "type": "address"
        }
      ],
      "stateMutability": "view",
      "type": "function"
    },
    {
      "inputs": [],
      "name": "transferFee",
      "outputs": [
        {
          "internalType": "uint256",
          "name": "",
          "type": "uint256"
        }
      ],
      "stateMutability": "view",
      "type": "function"
    },
    {
      "inputs": [
        {
          "internalType": "address",
          "name": "",
          "type": "address"
        }
      ],
      "name": "transferFeeList",
      "outputs": [
        {
          "internalType": "uint256",
          "name": "",
          "type": "uint256"
        }
      ],
      "stateMutability": "view",
      "type": "function"
    },
    {
      "inputs": [
        {
          "internalType": "uint256",
          "name": "chainId",
          "type": "uint256"
        },
        {
          "internalType": "bytes",
          "name": "receiptProof",
          "type": "bytes"
        }
      ],
      "name": "transferIn",
      "outputs": [],
      "stateMutability": "nonpayable",
      "type": "function"
    },
    {
      "inputs": [
        {
          "internalType": "address",
          "name": "toContract",
          "type": "address"
        },
        {
          "internalType": "uint256",
          "name": "toChain",
          "type": "uint256"
        },
        {
          "internalType": "bytes",
          "name": "data",
          "type": "bytes"
        }
      ],
      "name": "transferOut",
      "outputs": [],
      "stateMutability": "nonpayable",
      "type": "function"
    },
    {
      "inputs": [
        {
          "internalType": "bytes",
          "name": "to",
          "type": "bytes"
        },
        {
          "internalType": "uint256",
          "name": "toChainId",
          "type": "uint256"
        }
      ],
      "name": "transferOutNative",
      "outputs": [],
      "stateMutability": "payable",
      "type": "function"
    },
    {
      "inputs": [
        {
          "internalType": "address",
          "name": "token",
          "type": "address"
        },
        {
          "internalType": "bytes",
          "name": "to",
          "type": "bytes"
        },
        {
          "internalType": "uint256",
          "name": "amount",
          "type": "uint256"
        },
        {
          "internalType": "uint256",
          "name": "toChainId",
          "type": "uint256"
        }
      ],
      "name": "transferOutToken",
      "outputs": [],
      "stateMutability": "nonpayable",
      "type": "function"
    },
    {
      "inputs": [
        {
          "internalType": "uint256",
          "name": "",
          "type": "uint256"
        },
        {
          "internalType": "address",
          "name": "",
          "type": "address"
        }
      ],
      "name": "vaultBalance",
      "outputs": [
        {
          "internalType": "uint256",
          "name": "",
          "type": "uint256"
        }
      ],
      "stateMutability": "view",
      "type": "function"
    },
    {
      "inputs": [
        {
          "internalType": "uint256",
          "name": "chainId",
          "type": "uint256"
        },
        {
          "internalType": "bytes",
          "name": "receiptProof",
          "type": "bytes"
        }
      ],
      "name": "verify",
      "outputs": [
        {
          "internalType": "bool",
          "name": "",
          "type": "bool"
        }
      ],
      "stateMutability": "view",
      "type": "function"
    },
    {
      "inputs": [],
      "name": "wToken",
      "outputs": [
        {
          "internalType": "address",
          "name": "",
          "type": "address"
        }
      ],
      "stateMutability": "view",
      "type": "function"
    },
    {
      "inputs": [
        {
          "internalType": "address",
          "name": "token",
          "type": "address"
        },
        {
          "internalType": "address payable",
          "name": "receiver",
          "type": "address"
        },
        {
          "internalType": "uint256",
          "name": "amount",
          "type": "uint256"
        }
      ],
      "name": "withdraw",
      "outputs": [],
      "stateMutability": "nonpayable",
      "type": "function"
    },
    {
      "stateMutability": "payable",
      "type": "receive"
    }
  ],
  "transactionHash": "0x8dbab67e8c2b8fea4d448c7d62f5d21cdebd39a632cd89b2727a25227ed33ae1",
  "args": [],
  "numDeployments": 5,
  "solcInputHash": "04c3fb235e43b6b1651c85285187c233",
  "bytecode": "0x60806040523480156200001157600080fd5b506001600090815562000025903362000063565b620000517f241ecf16d79d0f8dbfb92cbc07fe17840425976cf0667f022fe9877caa831b083362000063565b6002805462ff000019169055620000fb565b6200006f828262000073565b5050565b60008281526001602090815260408083206001600160a01b038516845290915290205460ff166200006f5760008281526001602081815260408084206001600160a01b0386168086529252808420805460ff19169093179092559051339285917f2f8788117e7eff1d82e926ec794901d17c78024a50270940304540a733656f0d9190a45050565b6156c7806200010b6000396000f3fe6080604052600436106103905760003560e01c8063882940e3116101dc578063bca6760c11610102578063d24c6944116100a0578063e3257fc71161006f578063e3257fc714610b0e578063e5ff943314610b2e578063e6984f8d14610b4e578063ec87621c14610b6457600080fd5b8063d24c694414610a99578063d431b1ac14610ab9578063d547741f14610ace578063d9caed1214610aee57600080fd5b8063c3543b5c116100dc578063c3543b5c14610a2d578063c6725e3b14610a43578063cb0ff83414610a63578063cc9e3e8914610a8357600080fd5b8063bca6760c146109cd578063bf5765ff146109ed578063c0c53b8b14610a0d57600080fd5b8063a8f8c2931161017a578063af65363611610149578063af6536361461093a578063affed0e01461096a578063b2f177b314610980578063bbe35948146109ad57600080fd5b8063a8f8c2931461089f578063ab41a6ce146108cc578063ac18de4314610904578063acb2ad6f1461092457600080fd5b80639485d293116101b65780639485d2931461081c578063981aff4e1461083c578063a217fddf1461085c578063a3b209311461087157600080fd5b8063882940e3146107c65780638bc67517146107dc57806391d14854146107fc57600080fd5b8063367cf0d4116102c15780636b7ca9f31161025f57806378f88fd61161022e57806378f88fd61461074f578063835850f91461076f578063848cb5c61461079157806385852ce4146107a657600080fd5b80636b7ca9f3146106d9578063721d839e146106ef57806375b2e6b91461070f578063789728251461072f57600080fd5b80633ea549a21161029b5780633ea549a21461064b5780634dd045fe1461066b5780635c975abb1461068b5780636af6400d146106a957600080fd5b8063367cf0d4146105f857806338c6cc4c146106185780633d4a2f6e1461063857600080fd5b80632e7ec23f1161032e578063306bda9f11610308578063306bda9f1461057557806332a579001461058b5780633383b99f146105ab57806336568abe146105d857600080fd5b80632e7ec23f146105225780632f2ff15d146105355780632f5c5d5e1461055557600080fd5b8063248a9ca31161036a578063248a9ca3146104835780632982edbe146104c25780632d06177a146104e25780632dd56e911461050257600080fd5b806301ffc9a7146103e95780630babd8641461041e57806311d17f531461045657600080fd5b366103e4576008546001600160a01b031633146103e25760405162461bcd60e51b815260206004820152600b60248201526a37b7363c903baa37b5b2b760a91b60448201526064015b60405180910390fd5b005b600080fd5b3480156103f557600080fd5b50610409610404366004614ba3565b610b86565b60405190151581526020015b60405180910390f35b34801561042a57600080fd5b5060085461043e906001600160a01b031681565b6040516001600160a01b039091168152602001610415565b34801561046257600080fd5b50610476610471366004614bcd565b610bbd565b6040516104159190615066565b34801561048f57600080fd5b506104b461049e366004614b41565b6000908152600160208190526040909120015490565b604051908152602001610415565b3480156104ce57600080fd5b506104b46104dd366004614d99565b610c5e565b3480156104ee57600080fd5b506103e26104fd36600461475b565b610d12565b34801561050e57600080fd5b506103e261051d36600461475b565b610d3a565b6103e2610530366004614dc0565b610d90565b34801561054157600080fd5b506103e2610550366004614b73565b6110c1565b34801561056157600080fd5b506103e261057036600461475b565b6110e8565b34801561058157600080fd5b506104b460175481565b34801561059757600080fd5b506103e26105a6366004614e06565b61113e565b3480156105b757600080fd5b506105cb6105c6366004614bcd565b611183565b6040516104159190614f8a565b3480156105e457600080fd5b506103e26105f3366004614b73565b611410565b34801561060457600080fd5b506104b4610613366004614896565b61148a565b34801561062457600080fd5b50610476610633366004614bcd565b6114de565b6103e2610646366004614d08565b6119c6565b34801561065757600080fd5b5060055461043e906001600160a01b031681565b34801561067757600080fd5b506103e2610686366004614dc0565b611c64565b34801561069757600080fd5b5060025462010000900460ff16610409565b3480156106b557600080fd5b506104096106c4366004614b41565b600b6020526000908152604090205460ff1681565b3480156106e557600080fd5b506104b460165481565b3480156106fb57600080fd5b506103e261070a36600461475b565b611cbd565b34801561071b57600080fd5b5060075461043e906001600160a01b031681565b34801561073b57600080fd5b5060065461043e906001600160a01b031681565b34801561075b57600080fd5b506104b461076a366004614e06565b611d13565b34801561077b57600080fd5b5061043e61078a366004614bcd565b6014015190565b34801561079d57600080fd5b506103e2611d2c565b3480156107b257600080fd5b506104096107c1366004614dc0565b611d6a565b3480156107d257600080fd5b506104b460155481565b3480156107e857600080fd5b506103e26107f73660046149ee565b611e06565b34801561080857600080fd5b50610409610817366004614b73565b611ea2565b34801561082857600080fd5b5060045461043e906001600160a01b031681565b34801561084857600080fd5b506103e2610857366004614909565b611ecd565b34801561086857600080fd5b506104b4600081565b34801561087d57600080fd5b5061089161088c366004614bcd565b6121d5565b6040516104159291906150f0565b3480156108ab57600080fd5b506104b46108ba36600461475b565b600e6020526000908152604090205481565b3480156108d857600080fd5b506104b46108e7366004614b73565b601060209081526000928352604080842090915290825290205481565b34801561091057600080fd5b506103e261091f36600461475b565b6124f0565b34801561093057600080fd5b506104b4600d5481565b34801561094657600080fd5b5061040961095536600461475b565b600f6020526000908152604090205460ff1681565b34801561097657600080fd5b506104b460035481565b34801561098c57600080fd5b506104b461099b366004614b41565b600a6020526000908152604090205481565b3480156109b957600080fd5b506103e26109c83660046149ee565b612514565b3480156109d957600080fd5b506103e26109e8366004614d4c565b6125b0565b3480156109f957600080fd5b506103e2610a08366004614996565b505050565b348015610a1957600080fd5b506103e2610a2836600461484b565b61261d565b348015610a3957600080fd5b506104b460145481565b348015610a4f57600080fd5b506103e2610a5e366004614b41565b6127b3565b348015610a6f57600080fd5b50610476610a7e36600461475b565b6127ec565b348015610a8f57600080fd5b506104b460095481565b348015610aa557600080fd5b506103e2610ab4366004614dc0565b612822565b348015610ac557600080fd5b506103e2612cc5565b348015610ada57600080fd5b506103e2610ae9366004614b73565b612d01565b348015610afa57600080fd5b506103e2610b0936600461480a565b612d28565b348015610b1a57600080fd5b506103e2610b29366004614d99565b612e09565b348015610b3a57600080fd5b506103e2610b49366004614b73565b612e63565b348015610b5a57600080fd5b506104b4600c5481565b348015610b7057600080fd5b506104b460008051602061562b83398151915281565b60006001600160e01b03198216637965db0b60e01b1480610bb757506301ffc9a760e01b6001600160e01b03198316145b92915050565b6040805181815260608181018352916020820181803683370190505090506000805b8351811015610c57576040811015610c3857838181518110610c0357610c036155b4565b602001015160f81c60f81b838381518110610c2057610c206155b4565b60200101906001600160f81b031916908160001a9053505b610c4382600161533c565b915080610c4f81615559565b915050610bdf565b5050919050565b60006001600160a01b038316610c7d576008546001600160a01b031692505b600754604051638ee6bebb60e01b8152600481018690526001600160a01b0385811660248301526044820185905290911690638ee6bebb9060640160206040518083038186803b158015610cd057600080fd5b505afa158015610ce4573d6000803e3d6000fd5b505050506040513d601f19601f82011682018060405250810190610d089190614b5a565b90505b9392505050565b6000610d1e8133613011565b610d3660008051602061562b83398151915283613075565b5050565b610d5260008051602061562b83398151915233611ea2565b610d6e5760405162461bcd60e51b81526004016103d9906151dc565b600580546001600160a01b0319166001600160a01b0392909216919091179055565b60026000541415610db35760405162461bcd60e51b81526004016103d99061526c565b600260008190555462010000900460ff1615610de15760405162461bcd60e51b81526004016103d990615213565b600654604051637c55b7bd60e11b8152600091829182916001600160a01b03169063f8ab6f7a90610e1890889088906004016152a3565b60006040518083038186803b158015610e3057600080fd5b505afa158015610e44573d6000803e3d6000fd5b505050506040513d6000823e601f3d908101601f19168201604052610e6c9190810190614ac1565b925092509250828290610e925760405162461bcd60e51b81526004016103d99190615066565b50600160005260126020527f71a67924699a20698523213e55fe499d539379d7769cd5567e2c45d583f815a354851415610ecb576110b5565b6000610ed682611183565b905060005b81518110156110b257601654828281518110610ef957610ef96155b4565b602002602001015160200151600081518110610f1757610f176155b4565b6020026020010151806020019051810190610f329190614b5a565b14156110a05760006011610f62848481518110610f5157610f516155b4565b6020026020010151600001516127ec565b604051610f6f9190614e54565b90815260200160405180910390205411610f9b5760405162461bcd60e51b81526004016103d9906151a5565b6000806000806000868681518110610fb557610fb56155b4565b602002602001015160400151806020019051810190610fd49190614795565b9398509196509450925090508b6000610fec876127ec565b60055460095460405163c0b5dc6760e01b81529293506001600160a01b039091169163c0b5dc679161102491869186916004016152bc565b60006040518083038186803b15801561103c57600080fd5b505afa158015611050573d6000803e3d6000fd5b505050506040513d6000823e601f3d908101601f191682016040526110789190810190614c01565b90506000611087826014015190565b905061109781888887898861307f565b50505050505050505b806110aa81615559565b915050610edb565b50505b50506001600055505050565b600082815260016020819052604090912001546110de8133613011565b610a08838361338d565b61110060008051602061562b83398151915233611ea2565b61111c5760405162461bcd60e51b81526004016103d9906151dc565b600680546001600160a01b0319166001600160a01b0392909216919091179055565b61115660008051602061562b83398151915233611ea2565b6111725760405162461bcd60e51b81526004016103d9906151dc565b600090815260126020526040902055565b606060006111c06111bb8460408051808201825260008082526020918201528151808301909252825182529182019181019190915290565b6133f8565b905080516001600160401b038111156111db576111db6155ca565b60405190808252806020026020018201604052801561123957816020015b611226604051806060016040528060006001600160a01b0316815260200160608152602001606081525090565b8152602001906001900390816111f95790505b50915060005b8151811015610c5757600061128161126f848481518110611262576112626155b4565b60200260200101516133f8565b600181518110611262576112626155b4565b516001600160401b03811115611299576112996155ca565b6040519080825280602002602001820160405280156112cc57816020015b60608152602001906001900390816112b75790505b50905060005b6112ea61126f858581518110611262576112626155b4565b5181101561135b5761132b61130d61126f868681518110611262576112626155b4565b828151811061131e5761131e6155b4565b602002602001015161350d565b82828151811061133d5761133d6155b4565b6020026020010181905250808061135390615559565b9150506112d2565b50604051806060016040528061139e61137f868681518110611262576112626155b4565b600081518110611391576113916155b4565b602002602001015161358a565b6001600160a01b031681526020018281526020016113dc6113ca868681518110611262576112626155b4565b60028151811061131e5761131e6155b4565b8152508483815181106113f1576113f16155b4565b602002602001018190525050808061140890615559565b91505061123f565b6001600160a01b03811633146114805760405162461bcd60e51b815260206004820152602f60248201527f416363657373436f6e74726f6c3a2063616e206f6e6c792072656e6f756e636560448201526e103937b632b9903337b91039b2b63360891b60648201526084016103d9565b610d3682826135a4565b600380546000918261149b83615559565b9190505585858886600954876040516020016114bd9796959493929190614ee5565b60405160208183030381529060405280519060200120905095945050505050565b6060600282516114ee9190615574565b1515806114fc575060048251105b156115495760405162461bcd60e51b815260206004820152601c60248201527f686578537472546f42797465733a20696e76616c696420696e7075740000000060448201526064016103d9565b600060206002845161155b9190615379565b61156591906154b8565b6001600160401b0381111561157c5761157c6155ca565b6040519080825280601f01601f1916602001820160405280156115a6576020820181803683370190505b50905060405b83518110156119bf57835160109081906030908790859081106115d1576115d16155b4565b016020015160f81c10801590611601575060398684815181106115f6576115f66155b4565b016020015160f81c11155b1561162f57603086848151811061161a5761161a6155b4565b016020015161162c919060f81c6154cf565b91505b60308661163d85600161533c565b8151811061164d5761164d6155b4565b016020015160f81c10801590611687575060398661166c85600161533c565b8151811061167c5761167c6155b4565b016020015160f81c11155b156116bf5760308661169a85600161533c565b815181106116aa576116aa6155b4565b01602001516116bc919060f81c6154cf565b90505b60418684815181106116d3576116d36155b4565b016020015160f81c10801590611703575060468684815181106116f8576116f86155b4565b016020015160f81c11155b1561173c57604186848151811061171c5761171c6155b4565b016020015161172e919060f81c6154cf565b61173990600a615354565b91505b60418661174a85600161533c565b8151811061175a5761175a6155b4565b016020015160f81c10801590611794575060468661177985600161533c565b81518110611789576117896155b4565b016020015160f81c11155b156117d7576041866117a785600161533c565b815181106117b7576117b76155b4565b01602001516117c9919060f81c6154cf565b6117d490600a615354565b90505b60618684815181106117eb576117eb6155b4565b016020015160f81c1080159061181b57506066868481518110611810576118106155b4565b016020015160f81c11155b15611854576061868481518110611834576118346155b4565b0160200151611846919060f81c6154cf565b61185190600a615354565b91505b60618661186285600161533c565b81518110611872576118726155b4565b016020015160f81c108015906118ac575060668661189185600161533c565b815181106118a1576118a16155b4565b016020015160f81c11155b156118ef576061866118bf85600161533c565b815181106118cf576118cf6155b4565b01602001516118e1919060f81c6154cf565b6118ec90600a615354565b90505b8160ff166010148061190457508060ff166010145b156119515760405162461bcd60e51b815260206004820152601c60248201527f686578537472546f42797465733a20696e76616c696420696e7075740000000060448201526064016103d9565b8061195d836010615497565b6119679190615354565b60f81b846020611978600287615379565b61198291906154b8565b81518110611992576119926155b4565b60200101906001600160f81b031916908160001a90535050506002816119b8919061533c565b90506115ac565b5092915050565b60025462010000900460ff16156119ef5760405162461bcd60e51b81526004016103d990615213565b3480611a345760405162461bcd60e51b815260206004820152601460248201527376616c75652063616e6e6f74206265207a65726f60601b60448201526064016103d9565b600860009054906101000a90046001600160a01b03166001600160a01b031663d0e30db0826040518263ffffffff1660e01b81526004016000604051808303818588803b158015611a8457600080fd5b505af1158015611a98573d6000803e3d6000fd5b50505050506000611aab83600084610c5e565b90506000611ab9838361360b565b9050611ac6826000612e63565b60008052600e6020527fe710864318d4a32f37d6ce54cb3fadbef648dd12d8dbdf53973564d56b7f881c54611b07908290611b019086613617565b9061360b565b6000808052600e6020527fe710864318d4a32f37d6ce54cb3fadbef648dd12d8dbdf53973564d56b7f881c91909155611b43813388858961148a565b9050611b5484600954876000613623565b6005546009546000916001600160a01b03169063c0b5dc6790611b76846127ec565b896040518463ffffffff1660e01b8152600401611b95939291906152bc565b60006040518083038186803b158015611bad57600080fd5b505afa158015611bc1573d6000803e3d6000fd5b505050506040513d6000823e601f3d908101601f19168201604052611be99190810190614c01565b9050611c02611bf860006127ec565b60095488866136aa565b92507faca0a1067548270e80c1209ec69b5381d80bdaf345ad70cf7f00af9c6ed3f9b4611c2f60006127ec565b611c38336127ec565b600954604051611c5393929187918c908e908b908a90615079565b60405180910390a150505050505050565b611c7c60008051602061562b83398151915233611ea2565b611c985760405162461bcd60e51b81526004016103d9906151dc565b81601182604051611ca99190614e54565b908152604051908190036020019020555050565b611cd560008051602061562b83398151915233611ea2565b611cf15760405162461bcd60e51b81526004016103d9906151dc565b600780546001600160a01b0319166001600160a01b0392909216919091179055565b6000610d0b620f4240611d268585613734565b90613740565b611d4460008051602061562b83398151915233611ea2565b611d605760405162461bcd60e51b81526004016103d9906151dc565b611d6861374c565b565b600654604051637c55b7bd60e11b81526000918291829182916001600160a01b039091169063f8ab6f7a90611da590899089906004016152a3565b60006040518083038186803b158015611dbd57600080fd5b505afa158015611dd1573d6000803e3d6000fd5b505050506040513d6000823e601f3d908101601f19168201604052611df99190810190614ac1565b5090979650505050505050565b611e1e60008051602061562b83398151915233611ea2565b611e3a5760405162461bcd60e51b81526004016103d9906151dc565b60005b8151811015610d36576000600f6000848481518110611e5e57611e5e6155b4565b6020908102919091018101516001600160a01b03168252810191909152604001600020805460ff191691151591909117905580611e9a81615559565b915050611e3d565b60009182526001602090815260408084206001600160a01b0393909316845291905290205460ff1690565b60025462010000900460ff1615611ef65760405162461bcd60e51b81526004016103d990615213565b6040516370a0823160e01b815233600482015282906001600160a01b038616906370a082319060240160206040518083038186803b158015611f3757600080fd5b505afa158015611f4b573d6000803e3d6000fd5b505050506040513d601f19601f82011682018060405250810190611f6f9190614b5a565b1015611faf5760405162461bcd60e51b815260206004820152600f60248201526e62616c616e636520746f6f206c6f7760881b60448201526064016103d9565b611fbb843330856137e7565b6000611fc8828685610c5e565b90506000611fd6848361360b565b9050611ffa866001600160a01b03166000908152600f602052604090205460ff1690565b1561205a57604051630852cd8d60e31b8152600481018290526001600160a01b038716906342966c6890602401600060405180830381600087803b15801561204157600080fd5b505af1158015612055573d6000803e3d6000fd5b505050505b6120648287612e63565b6001600160a01b0386166000908152600e602052604090205461208d908290611b019087613617565b6001600160a01b0387166000908152600e60205260408120919091556120b6873388858861148a565b90506120c685600954868a613623565b6005546009546000916001600160a01b03169063c0b5dc67906120e88b6127ec565b886040518463ffffffff1660e01b8152600401612107939291906152bc565b60006040518083038186803b15801561211f57600080fd5b505afa158015612133573d6000803e3d6000fd5b505050506040513d6000823e601f3d908101601f1916820160405261215b9190810190614c01565b9050612173612169896127ec565b60095487866136aa565b92507faca0a1067548270e80c1209ec69b5381d80bdaf345ad70cf7f00af9c6ed3f9b461219f896127ec565b6121a8336127ec565b6009546040516121c393929187918b908e908b908a90615079565b60405180910390a15050505050505050565b606061221f60405180610100016040528060608152602001606081526020016060815260200160008152602001600081526020016060815260200160008152602001606081525090565b60006122556111bb8560408051808201825260008082526020918201528151808301909252825182529182019181019190915290565b905061226d8160008151811061131e5761131e6155b4565b9250600061228782600181518110611262576112626155b4565b516001600160401b0381111561229f5761229f6155ca565b6040519080825280602002602001820160405280156122d257816020015b60608152602001906001900390816122bd5790505b50905060005b6122ee83600181518110611262576112626155b4565b5181101561233f5761230f61130d84600181518110611262576112626155b4565b828281518110612321576123216155b4565b6020026020010181905250808061233790615559565b9150506122d8565b50606060005b82518110156123bd576000612372848381518110612365576123656155b4565b6020026020010151610bbd565b9050601554818051906020012014156123aa576123a784838151811061239a5761239a6155b4565b60200260200101516114de565b92505b50806123b581615559565b915050612345565b5060006123f46111bb8360408051808201825260008082526020918201528151808301909252825182529182019181019190915290565b90506040518061010001604052806124188360008151811061131e5761131e6155b4565b81526020016124338360018151811061131e5761131e6155b4565b815260200161244e8360028151811061131e5761131e6155b4565b815260200161247683600381518110612469576124696155b4565b6020026020010151613917565b815260200161249183600481518110612469576124696155b4565b81526020016124ac8360058151811061131e5761131e6155b4565b81526020016124c783600681518110612469576124696155b4565b81526020016124e28360078151811061131e5761131e6155b4565b815250945050505050915091565b60006124fc8133613011565b610d3660008051602061562b833981519152836135a4565b61252c60008051602061562b83398151915233611ea2565b6125485760405162461bcd60e51b81526004016103d9906151dc565b60005b8151811015610d36576001600f600084848151811061256c5761256c6155b4565b6020908102919091018101516001600160a01b03168252810191909152604001600020805460ff1916911515919091179055806125a881615559565b91505061254b565b6125c860008051602061562b83398151915233611ea2565b6125e45760405162461bcd60e51b81526004016103d9906151dc565b806013846040516125f59190614e54565b9081526020016040518091039020600084815260200190815260200160002081905550505050565b600254610100900460ff166126385760025460ff161561263c565b303b155b61269f5760405162461bcd60e51b815260206004820152602e60248201527f496e697469616c697a61626c653a20636f6e747261637420697320616c72656160448201526d191e481a5b9a5d1a585b1a5e995960921b60648201526084016103d9565b600254610100900460ff161580156126c1576002805461ffff19166101011790555b466009819055600880546001600160a01b038088166001600160a01b0319928316179092556004805487841690831617905560068054928616929091169190911790556040805160808101909152604780825261564b6020830139805190602001206014819055506040518060600160405280603281526020016155f96032913980516020909101206016557f4e87426fdd31a6df84975ed344b2c3fbd45109085f1557dff1156b300f135df8601555600060178190556127829033613075565b61279a60008051602061562b83398151915233613075565b5080156127ad576002805461ff00191690555b50505050565b6127cb60008051602061562b83398151915233611ea2565b6127e75760405162461bcd60e51b81526004016103d9906151dc565b601555565b604051606082811b6bffffffffffffffffffffffff19166020830152906034016040516020818303038152906040529050919050565b600654604051637c55b7bd60e11b8152600091829182916001600160a01b03169063f8ab6f7a9061285990889088906004016152a3565b60006040518083038186803b15801561287157600080fd5b505afa158015612885573d6000803e3d6000fd5b505050506040513d6000823e601f3d908101601f191682016040526128ad9190810190614ac1565b925092509250826128f05760405162461bcd60e51b815260206004820152600d60248201526c1d995c9a599e4819985a5b1959609a1b60448201526064016103d9565b600160005260126020527f71a67924699a20698523213e55fe499d539379d7769cd5567e2c45d583f815a354851415612aba5760008061292f836121d5565b9150915060006011836040516129459190614e54565b908152602001604051809103902054116129715760405162461bcd60e51b81526004016103d9906151a5565b60055460608201518251608084015160405163c0b5dc6760e01b81526000946001600160a01b03169363c0b5dc67936129b19391929091906004016152bc565b60006040518083038186803b1580156129c957600080fd5b505afa1580156129dd573d6000803e3d6000fd5b505050506040513d6000823e601f3d908101601f19168201604052612a059190810190614c01565b90506000612a258360000151846060015185608001518660c00151613965565b905060095483608001511415612a80576000612a468460a001516014015190565b9050612a7a612a56846014015190565b856020015183858860400151612a6b906154f2565b89606001518a6080015161398a565b50612ab1565b612ab1836000015184602001518560a00151848760400151612aa1906154f2565b8860600151896080015189613c61565b50505050612cbe565b6000612ac582611183565b905060005b8151811015612cbb576000828281518110612ae757612ae76155b4565b6020026020010151905060008160200151600081518110612b0a57612b0a6155b4565b6020026020010151806020019051810190612b259190614b5a565b90506000612b3683600001516127ec565b9050601454821415612ca5576000601182604051612b549190614e54565b90815260200160405180910390205411612b805760405162461bcd60e51b81526004016103d9906151a5565b60008060008060008060008960400151806020019051810190612ba39190614c35565b5060055460405163c0b5dc6760e01b8152979e50959c50939a509198509650945092506000916001600160a01b039091169063c0b5dc6790612bed9088908c9089906004016152bc565b60006040518083038186803b158015612c0557600080fd5b505afa158015612c19573d6000803e3d6000fd5b505050506040513d6000823e601f3d908101601f19168201604052612c419190810190614c01565b90506000612c5189878786613965565b9050600954851415612c8b576000612c6a856014015190565b9050612c85612c7a846014015190565b8a83858c8c8c61398a565b50612c9b565b612c9b898986848b8b8b89613c61565b5050505050505050505b5050508080612cb390615559565b915050612aca565b50505b5050505050565b612cdd60008051602061562b83398151915233611ea2565b612cf95760405162461bcd60e51b81526004016103d9906151dc565b611d68613e7e565b60008281526001602081905260409091200154612d1e8133613011565b610a0883836135a4565b612d4060008051602061562b83398151915233611ea2565b612d5c5760405162461bcd60e51b81526004016103d9906151dc565b6001600160a01b038316612dfe57600854604051632e1a7d4d60e01b8152600481018390526001600160a01b0390911690632e1a7d4d90602401600060405180830381600087803b158015612db057600080fd5b505af1158015612dc4573d6000803e3d6000fd5b50506040516001600160a01b038516925083156108fc02915083906000818181858888f193505050501580156127ad573d6000803e3d6000fd5b610a08838383613ee0565b612e2160008051602061562b83398151915233611ea2565b612e3d5760405162461bcd60e51b81526004016103d9906151dc565b60009283526010602090815260408085206001600160a01b039094168552929052912055565b806001600160a01b038116612e8057506008546001600160a01b03165b8280156127ad5760075460405163116d92c960e11b81526000600482018190526001600160a01b038681166024840152909283929116906322db259290604401604080518083038186803b158015612ed757600080fd5b505afa158015612eeb573d6000803e3d6000fd5b505050506040513d601f19601f82011682018060405250810190612f0f9190614968565b915091506000612f1f8783611d13565b90506001600160a01b03831615612f4857612f3b858483613ee0565b612f4581856154b8565b93505b60075460405163116d92c960e11b8152600160048201526001600160a01b038881166024830152909116906322db259290604401604080518083038186803b158015612f9357600080fd5b505afa158015612fa7573d6000803e3d6000fd5b505050506040513d601f19601f82011682018060405250810190612fcb9190614968565b9093509150612fda8783611d13565b9050612fe7858483613ee0565b612ff181856154b8565b93508315612cbb57600754612cbb9086906001600160a01b031686613ee0565b61301b8282611ea2565b610d3657613033816001600160a01b03166014613ff4565b61303e836020613ff4565b60405160200161304f929190614e70565b60408051601f198184030181529082905262461bcd60e51b82526103d991600401615066565b610d36828261338d565b6000828152600b6020526040902054829060ff16156130b05760405162461bcd60e51b81526004016103d99061523d565b6000818152600b60205260409020805460ff191660011790556001600160a01b03871661314157600860009054906101000a90046001600160a01b03166001600160a01b031663d0e30db0856040518263ffffffff1660e01b81526004016000604051808303818588803b15801561312757600080fd5b505af115801561313b573d6000803e3d6000fd5b50505050505b600754604051639dc6108f60e01b81526001600160a01b0389811660048301526000921690639dc6108f9060240160206040518083038186803b15801561318757600080fd5b505afa15801561319b573d6000803e3d6000fd5b505050506040513d601f19601f820116820180604052508101906131bf9190614778565b90506001600160a01b03811661320a5760405162461bcd60e51b815260206004820152601060248201526f37b7363c903b30bab63a103a37b5b2b760811b60448201526064016103d9565b6001600160a01b0388166000908152600f602052604090205460ff1615613292576040516340c10f1960e01b81526001600160a01b038281166004830152602482018790528916906340c10f1990604401600060405180830381600087803b15801561327557600080fd5b505af1158015613289573d6000803e3d6000fd5b5050505061329d565b61329d888287613ee0565b604051631020440360e31b8152600481018690526001600160a01b038781166024830152821690638102201890604401600060405180830381600087803b1580156132e757600080fd5b505af11580156132fb573d6000803e3d6000fd5b50505060008481526010602090815260408083206001600160a01b038d1684529091528120805488935090919061333390849061533c565b92505081905550856001600160a01b03167f8970038805646cbb7b520ce18a27fe39b9701296f884d4022ad41b2a8dd4e833898987898860405161337b959493929190614f49565b60405180910390a25050505050505050565b6133978282611ea2565b610d365760008281526001602081815260408084206001600160a01b0386168086529252808420805460ff19169093179092559051339285917f2f8788117e7eff1d82e926ec794901d17c78024a50270940304540a733656f0d9190a45050565b60606134038261418f565b61340c57600080fd5b6000613417836141c8565b90506000816001600160401b03811115613433576134336155ca565b60405190808252806020026020018201604052801561347857816020015b60408051808201909152600080825260208201528152602001906001900390816134515790505b509050600061348a856020015161424b565b8560200151613499919061533c565b90506000805b84811015613502576134b0836142cc565b91506040518060400160405280838152602001848152508482815181106134d9576134d96155b4565b60209081029190910101526134ee828461533c565b9250806134fa81615559565b91505061349f565b509195945050505050565b805160609061351b57600080fd5b60008061352784614370565b915091506000816001600160401b03811115613545576135456155ca565b6040519080825280601f01601f19166020018201604052801561356f576020820181803683370190505b509050602081016135818482856143b7565b50949350505050565b805160009060151461359b57600080fd5b610bb782613917565b6135ae8282611ea2565b15610d365760008281526001602090815260408083206001600160a01b0385168085529252808320805460ff1916905551339285917ff6391f5c32d9c69d2a47ea670b442974b53935d1edc7fd64eb21e047a839171b9190a45050565b6000610d0b82846154b8565b6000610d0b828461533c565b60095483146136645760008381526010602090815260408083206001600160a01b03851684529091528120805486929061365e90849061533c565b90915550505b60095482146127ad5760008281526010602090815260408083206001600160a01b03851684529091528120805486929061369f9084906154b8565b909155505050505050565b6000806013866040516136bd9190614e54565b9081526040805160209281900383018120600089815293529082205492506013906136e9908990614e54565b908152604080516020928190038301902060008881529252902054905061372961371483600a6153d0565b611d2661372284600a6153d0565b8790613734565b979650505050505050565b6000610d0b8284615478565b6000610d0b8284615379565b60025462010000900460ff1661379b5760405162461bcd60e51b815260206004820152601460248201527314185d5cd8589b194e881b9bdd081c185d5cd95960621b60448201526064016103d9565b6002805462ff0000191690557f5db9ee0a495bf2e6ff9c91a7834c1ba4fdd244a5e8aa4e537bd38aeae4b073aa335b6040516001600160a01b03909116815260200160405180910390a1565b604080516001600160a01b0385811660248301528481166044830152606480830185905283518084039091018152608490920183526020820180516001600160e01b03166323b872dd60e01b179052915160009283929088169161384b9190614e54565b6000604051808303816000865af19150503d8060008114613888576040519150601f19603f3d011682016040523d82523d6000602084013e61388d565b606091505b50915091508180156138b75750805115806138b75750808060200190518101906138b79190614aa6565b61390f5760405162461bcd60e51b8152602060048201526024808201527f5472616e7366657248656c7065723a205452414e534645525f46524f4d5f46416044820152631253115160e21b60648201526084016103d9565b505050505050565b80516000901580159061392c57508151602110155b61393557600080fd5b60008061394184614370565b81519193509150602082101561395d5760208290036101000a90045b949350505050565b6000806139728686614436565b9050613980818686866136aa565b9695505050505050565b6000838152600b6020526040902054839060ff16156139bb5760405162461bcd60e51b81526004016103d99061523d565b6000818152600b60205260408120805460ff1916600117905554600214156139f55760405162461bcd60e51b81526004016103d99061526c565b600260008190555462010000900460ff1615613a235760405162461bcd60e51b81526004016103d990615213565b6000613a30838a88610c5e565b90506000613a3e878361360b565b9050600954841415613c44576001600160a01b038a16613a7d57600854613a6e906001600160a01b0316826144c1565b613a7888826145d7565b613bcd565b6001600160a01b038a166000908152600f602052604090205460ff1615613b09576040516340c10f1960e01b8152306004820152602481018890526001600160a01b038b16906340c10f1990604401600060405180830381600087803b158015613ae657600080fd5b505af1158015613afa573d6000803e3d6000fd5b50505050613a788a8989613ee0565b6040516370a0823160e01b815230600482015287906001600160a01b038c16906370a082319060240160206040518083038186803b158015613b4a57600080fd5b505afa158015613b5e573d6000803e3d6000fd5b505050506040513d601f19601f82011682018060405250810190613b829190614b5a565b1015613bc25760405162461bcd60e51b815260206004820152600f60248201526e62616c616e636520746f6f206c6f7760881b60448201526064016103d9565b613bcd8a8983613ee0565b613bd7828b612e63565b8589604051613be69190614e54565b60408051918290038220888352602083018890526001600160a01b038c8116848401526060840186905291519092918e16917fd9fedc891b9a6aebd6a4e09cedbcbb83091a18befe79e2f5a26ec3409469cc8d919081900360800190a45b613c508786868d613623565b505060016000555050505050505050565b6000848152600b6020526040902054849060ff1615613c925760405162461bcd60e51b81526004016103d99061523d565b6000818152600b60205260408120805460ff191660011790555460021415613ccc5760405162461bcd60e51b81526004016103d99061526c565b600260008190555462010000900460ff1615613cfa5760405162461bcd60e51b81526004016103d990615213565b6000613d07836014015190565b90506000613d1685838a610c5e565b90506000613d24898361360b565b9050613d48836001600160a01b03166000908152600f602052604090205460ff1690565b15613e08576040516340c10f1960e01b8152306004820152602481018a90526001600160a01b038416906340c10f1990604401600060405180830381600087803b158015613d9557600080fd5b505af1158015613da9573d6000803e3d6000fd5b5050604051630852cd8d60e31b8152600481018490526001600160a01b03861692506342966c689150602401600060405180830381600087803b158015613def57600080fd5b505af1158015613e03573d6000803e3d6000fd5b505050505b7faca0a1067548270e80c1209ec69b5381d80bdaf345ad70cf7f00af9c6ed3f9b48c8c8a8a8a8f878c604051613e45989796959493929190615079565b60405180910390a16000613e5c61078a8e8a614436565b9050613e6a8a898984613623565b505060016000555050505050505050505050565b60025462010000900460ff1615613ea75760405162461bcd60e51b81526004016103d990615213565b6002805462ff00001916620100001790557f62e78cea01bee320cd4e420270b5ea74000d11b0c9f74754ebdbfc544b05a2586137ca3390565b604080516001600160a01b038481166024830152604480830185905283518084039091018152606490920183526020820180516001600160e01b031663a9059cbb60e01b1790529151600092839290871691613f3c9190614e54565b6000604051808303816000865af19150503d8060008114613f79576040519150601f19603f3d011682016040523d82523d6000602084013e613f7e565b606091505b5091509150818015613fa8575080511580613fa8575080806020019051810190613fa89190614aa6565b612cbe5760405162461bcd60e51b815260206004820152601f60248201527f5472616e7366657248656c7065723a205452414e534645525f4641494c45440060448201526064016103d9565b60606000614003836002615478565b61400e90600261533c565b6001600160401b03811115614025576140256155ca565b6040519080825280601f01601f19166020018201604052801561404f576020820181803683370190505b509050600360fc1b8160008151811061406a5761406a6155b4565b60200101906001600160f81b031916908160001a905350600f60fb1b81600181518110614099576140996155b4565b60200101906001600160f81b031916908160001a90535060006140bd846002615478565b6140c890600161533c565b90505b6001811115614140576f181899199a1a9b1b9c1cb0b131b232b360811b85600f16601081106140fc576140fc6155b4565b1a60f81b828281518110614112576141126155b4565b60200101906001600160f81b031916908160001a90535060049490941c9361413981615542565b90506140cb565b508315610d0b5760405162461bcd60e51b815260206004820181905260248201527f537472696e67733a20686578206c656e67746820696e73756666696369656e7460448201526064016103d9565b80516000906141a057506000919050565b6020820151805160001a9060c08210156141be575060009392505050565b5060019392505050565b80516000906141d957506000919050565b6000806141e9846020015161424b565b84602001516141f8919061533c565b9050600084600001518560200151614210919061533c565b90505b8082101561424257614224826142cc565b61422e908361533c565b91508261423a81615559565b935050614213565b50909392505050565b8051600090811a60808110156142645750600092915050565b60b881108061427f575060c0811080159061427f575060f881105b1561428d5750600192915050565b60c08110156142ba576142a2600160b86154cf565b6142af9060ff16826154b8565b610d0b90600161533c565b6142a2600160f86154cf565b50919050565b80516000908190811a60808110156142e757600191506119bf565b60b881101561430d576142fb6080826154b8565b61430690600161533c565b91506119bf565b60c081101561433a5760b78103600185019450806020036101000a855104600182018101935050506119bf565b60f881101561434e576142fb60c0826154b8565b60019390930151602084900360f7016101000a900490920160f5190192915050565b6000806000614382846020015161424b565b90506000818560200151614396919061533c565b905060008286600001516143aa91906154b8565b9196919550909350505050565b806143c157505050565b602081106143f957825182526143d860208461533c565b92506143e560208361533c565b91506143f26020826154b8565b90506143c1565b8015610a08576000600161440e8360206154b8565b61441a906101006153d0565b61442491906154b8565b84518451821691191617835250505050565b60055460095460405163c0b5dc6760e01b81526060926001600160a01b03169163c0b5dc679161446d9186918891906004016152bc565b60006040518083038186803b15801561448557600080fd5b505afa158015614499573d6000803e3d6000fd5b505050506040513d6000823e601f3d908101601f19168201604052610d0b9190810190614c01565b600080836001600160a01b0316632e1a7d4d846040516024016144e691815260200190565b6040516020818303038152906040529060e01b6020820180516001600160e01b03838183161783525050505060405161451f9190614e54565b6000604051808303816000865af19150503d806000811461455c576040519150601f19603f3d011682016040523d82523d6000602084013e614561565b606091505b509150915081801561458b57508051158061458b57508080602001905181019061458b9190614aa6565b6127ad5760405162461bcd60e51b815260206004820152601f60248201527f5472616e7366657248656c7065723a2057695448445241575f4641494c45440060448201526064016103d9565b604080516000808252602082019092526001600160a01b0384169083906040516146019190614e54565b60006040518083038185875af1925050503d806000811461463e576040519150601f19603f3d011682016040523d82523d6000602084013e614643565b606091505b5050905080610a085760405162461bcd60e51b815260206004820152602360248201527f5472616e7366657248656c7065723a204554485f5452414e534645525f46414960448201526213115160ea1b60648201526084016103d9565b60006146b36146ae84615315565b6152e5565b90508281528383830111156146c757600080fd5b610d0b836020830184615516565b805180151581146146e557600080fd5b919050565b600082601f8301126146fb57600080fd5b81356147096146ae82615315565b81815284602083860101111561471e57600080fd5b816020850160208301376000918101602001919091529392505050565b600082601f83011261474c57600080fd5b610d0b838351602085016146a0565b60006020828403121561476d57600080fd5b8135610d0b816155e0565b60006020828403121561478a57600080fd5b8151610d0b816155e0565b600080600080600060a086880312156147ad57600080fd5b85516147b8816155e0565b60208701519095506001600160401b038111156147d457600080fd5b6147e08882890161473b565b94505060408601516147f1816155e0565b6060870151608090970151959894975095949392505050565b60008060006060848603121561481f57600080fd5b833561482a816155e0565b9250602084013561483a816155e0565b929592945050506040919091013590565b60008060006060848603121561486057600080fd5b833561486b816155e0565b9250602084013561487b816155e0565b9150604084013561488b816155e0565b809150509250925092565b600080600080600060a086880312156148ae57600080fd5b85356148b9816155e0565b945060208601356148c9816155e0565b935060408601356001600160401b038111156148e457600080fd5b6148f0888289016146ea565b9598949750949560608101359550608001359392505050565b6000806000806080858703121561491f57600080fd5b843561492a816155e0565b935060208501356001600160401b0381111561494557600080fd5b614951878288016146ea565b949794965050505060408301359260600135919050565b6000806040838503121561497b57600080fd5b8251614986816155e0565b6020939093015192949293505050565b6000806000606084860312156149ab57600080fd5b83356149b6816155e0565b92506020840135915060408401356001600160401b038111156149d857600080fd5b6149e4868287016146ea565b9150509250925092565b60006020808385031215614a0157600080fd5b82356001600160401b0380821115614a1857600080fd5b818501915085601f830112614a2c57600080fd5b813581811115614a3e57614a3e6155ca565b8060051b9150614a4f8483016152e5565b8181528481019084860184860187018a1015614a6a57600080fd5b600095505b83861015614a995780359450614a84856155e0565b84835260019590950194918601918601614a6f565b5098975050505050505050565b600060208284031215614ab857600080fd5b610d0b826146d5565b600080600060608486031215614ad657600080fd5b614adf846146d5565b925060208401516001600160401b0380821115614afb57600080fd5b818601915086601f830112614b0f57600080fd5b614b1e878351602085016146a0565b93506040860151915080821115614b3457600080fd5b506149e48682870161473b565b600060208284031215614b5357600080fd5b5035919050565b600060208284031215614b6c57600080fd5b5051919050565b60008060408385031215614b8657600080fd5b823591506020830135614b98816155e0565b809150509250929050565b600060208284031215614bb557600080fd5b81356001600160e01b031981168114610d0b57600080fd5b600060208284031215614bdf57600080fd5b81356001600160401b03811115614bf557600080fd5b61395d848285016146ea565b600060208284031215614c1357600080fd5b81516001600160401b03811115614c2957600080fd5b61395d8482850161473b565b600080600080600080600080610100898b031215614c5257600080fd5b88516001600160401b0380821115614c6957600080fd5b614c758c838d0161473b565b995060208b0151915080821115614c8b57600080fd5b614c978c838d0161473b565b985060408b0151975060608b0151965060808b0151955060a08b0151915080821115614cc257600080fd5b614cce8c838d0161473b565b945060c08b0151935060e08b0151915080821115614ceb57600080fd5b50614cf88b828c0161473b565b9150509295985092959890939650565b60008060408385031215614d1b57600080fd5b82356001600160401b03811115614d3157600080fd5b614d3d858286016146ea565b95602094909401359450505050565b600080600060608486031215614d6157600080fd5b83356001600160401b03811115614d7757600080fd5b614d83868287016146ea565b9660208601359650604090950135949350505050565b600080600060608486031215614dae57600080fd5b83359250602084013561483a816155e0565b60008060408385031215614dd357600080fd5b8235915060208301356001600160401b03811115614df057600080fd5b614dfc858286016146ea565b9150509250929050565b60008060408385031215614e1957600080fd5b50508035926020909101359150565b60008151808452614e40816020860160208601615516565b601f01601f19169290920160200192915050565b60008251614e66818460208701615516565b9190910192915050565b7f416363657373436f6e74726f6c3a206163636f756e7420000000000000000000815260008351614ea8816017850160208801615516565b7001034b99036b4b9b9b4b733903937b6329607d1b6017918401918201528351614ed9816028840160208801615516565b01602801949350505050565b87815260006bffffffffffffffffffffffff19808960601b1660208401528751614f16816034860160208c01615516565b60609790971b1691909501603481019190915260488101939093526068830191909152608882015260a801949350505050565b6001600160a01b038616815260a060208201819052600090614f6d90830187614e28565b604083019590955250606081019290925260809091015292915050565b602080825282518282018190526000919060409081850190600581811b8701840188860187805b85811015615056578a8403603f19018752825180516001600160a01b031685528981015160608b87018190528151908701819052608080880192828a1b890190910191908d0190865b8181101561502857607f198a8503018552615016848451614e28565b948f01949350918e0191600101614ffa565b505050918a0151868303878c0152916150418184614e28565b998c0199965050509289019250600101614fb1565b50919a9950505050505050505050565b602081526000610d0b6020830184614e28565b600061010080835261508d8184018c614e28565b905082810360208401526150a1818b614e28565b905088604084015287606084015286608084015282810360a08401526150c78187614e28565b90508460c084015282810360e08401526150e18185614e28565b9b9a5050505050505050505050565b6040815260006151036040830185614e28565b8281036020840152610100845181835261511f82840182614e28565b915050602085015182820360208401526151398282614e28565b915050604085015182820360408401526151538282614e28565b915050606085015160608301526080850151608083015260a085015182820360a08401526151818282614e28565b91505060c085015160c083015260e085015182820360e08401526137298282614e28565b60208082526018908201527f496c6c6567616c206163726f73732074686520636861696e0000000000000000604082015260600190565b60208082526017908201527f43616c6c6572206973206e6f742061206d616e61676572000000000000000000604082015260600190565b60208082526010908201526f14185d5cd8589b194e881c185d5cd95960821b604082015260600190565b6020808252601590820152741bdc99195c88185b1c9958591e48195e1a5cdd1959605a1b604082015260600190565b6020808252601f908201527f5265656e7472616e637947756172643a207265656e7472616e742063616c6c00604082015260600190565b828152604060208201526000610d086040830184614e28565b8381526060602082015260006152d56060830185614e28565b9050826040830152949350505050565b604051601f8201601f191681016001600160401b038111828210171561530d5761530d6155ca565b604052919050565b60006001600160401b0382111561532e5761532e6155ca565b50601f01601f191660200190565b6000821982111561534f5761534f615588565b500190565b600060ff821660ff84168060ff0382111561537157615371615588565b019392505050565b6000826153885761538861559e565b500490565b600181815b808511156153c85781600019048211156153ae576153ae615588565b808516156153bb57918102915b93841c9390800290615392565b509250929050565b6000610d0b83836000826153e657506001610bb7565b816153f357506000610bb7565b816001811461540957600281146154135761542f565b6001915050610bb7565b60ff84111561542457615424615588565b50506001821b610bb7565b5060208310610133831016604e8410600b8410161715615452575081810a610bb7565b61545c838361538d565b806000190482111561547057615470615588565b029392505050565b600081600019048311821515161561549257615492615588565b500290565b600060ff821660ff84168160ff048111821515161561547057615470615588565b6000828210156154ca576154ca615588565b500390565b600060ff821660ff8416808210156154e9576154e9615588565b90039392505050565b805160208083015191908110156142c65760001960209190910360031b1b16919050565b60005b83811015615531578181015183820152602001615519565b838111156127ad5750506000910152565b60008161555157615551615588565b506000190190565b600060001982141561556d5761556d615588565b5060010190565b6000826155835761558361559e565b500690565b634e487b7160e01b600052601160045260246000fd5b634e487b7160e01b600052601260045260246000fd5b634e487b7160e01b600052603260045260246000fd5b634e487b7160e01b600052604160045260246000fd5b6001600160a01b03811681146155f557600080fd5b5056fe6d61704465706f7369744f75742862797465732c616464726573732c62797465732c627974657333322c75696e7432353629241ecf16d79d0f8dbfb92cbc07fe17840425976cf0667f022fe9877caa831b086d61705472616e736665724f75742862797465732c62797465732c627974657333322c75696e743235362c75696e743235362c62797465732c75696e743235362c627974657329a2646970667358221220131323595eac58eb75fe7515672c5b38743339b7712e6689d59de98ee058c98a64736f6c63430008070033",
  "devdoc": {
    "kind": "dev",
    "methods": {
      "getRoleAdmin(bytes32)": {
        "details": "Returns the admin role that controls `role`. See {grantRole} and {revokeRole}. To change a role's admin, use {_setRoleAdmin}."
      },
      "grantRole(bytes32,address)": {
        "details": "Grants `role` to `account`. If `account` had not been already granted `role`, emits a {RoleGranted} event. Requirements: - the caller must have ``role``'s admin role."
      },
      "hasRole(bytes32,address)": {
        "details": "Returns `true` if `account` has been granted `role`."
      },
      "paused()": {
        "details": "Returns true if the contract is paused, and false otherwise."
      },
      "renounceRole(bytes32,address)": {
        "details": "Revokes `role` from the calling account. Roles are often managed via {grantRole} and {revokeRole}: this function's purpose is to provide a mechanism for accounts to lose their privileges if they are compromised (such as when a trusted device is misplaced). If the calling account had been revoked `role`, emits a {RoleRevoked} event. Requirements: - the caller must be `account`."
      },
      "revokeRole(bytes32,address)": {
        "details": "Revokes `role` from `account`. If `account` had been granted `role`, emits a {RoleRevoked} event. Requirements: - the caller must have ``role``'s admin role."
      },
      "supportsInterface(bytes4)": {
        "details": "See {IERC165-supportsInterface}."
      }
    },
    "version": 1
  },
  "userdoc": {
    "kind": "user",
    "methods": {},
    "version": 1
  },
  "storageLayout": {
    "storage": [
      {
        "astId": 663,
        "contract": "contracts/MAPCrossChainServiceRelay.sol:MAPCrossChainServiceRelay",
        "label": "_status",
        "offset": 0,
        "slot": "0",
        "type": "t_uint256"
      },
      {
        "astId": 24,
        "contract": "contracts/MAPCrossChainServiceRelay.sol:MAPCrossChainServiceRelay",
        "label": "_roles",
        "offset": 0,
        "slot": "1",
        "type": "t_mapping(t_bytes32,t_struct(RoleData)19_storage)"
      },
      {
        "astId": 493,
        "contract": "contracts/MAPCrossChainServiceRelay.sol:MAPCrossChainServiceRelay",
        "label": "_initialized",
        "offset": 0,
        "slot": "2",
        "type": "t_bool"
      },
      {
        "astId": 496,
        "contract": "contracts/MAPCrossChainServiceRelay.sol:MAPCrossChainServiceRelay",
        "label": "_initializing",
        "offset": 1,
        "slot": "2",
        "type": "t_bool"
      },
      {
        "astId": 578,
        "contract": "contracts/MAPCrossChainServiceRelay.sol:MAPCrossChainServiceRelay",
        "label": "_paused",
        "offset": 2,
        "slot": "2",
        "type": "t_bool"
      },
      {
        "astId": 2254,
        "contract": "contracts/MAPCrossChainServiceRelay.sol:MAPCrossChainServiceRelay",
        "label": "nonce",
        "offset": 0,
        "slot": "3",
        "type": "t_uint256"
      },
      {
        "astId": 2257,
        "contract": "contracts/MAPCrossChainServiceRelay.sol:MAPCrossChainServiceRelay",
        "label": "mapToken",
        "offset": 0,
        "slot": "4",
        "type": "t_contract(IERC20)1316"
      },
      {
        "astId": 2260,
        "contract": "contracts/MAPCrossChainServiceRelay.sol:MAPCrossChainServiceRelay",
        "label": "tokenRegister",
        "offset": 0,
        "slot": "5",
        "type": "t_contract(ITokenRegister)5063"
      },
      {
        "astId": 2263,
        "contract": "contracts/MAPCrossChainServiceRelay.sol:MAPCrossChainServiceRelay",
        "label": "lightClientManager",
        "offset": 0,
        "slot": "6",
        "type": "t_contract(ILightClientManager)4940"
      },
      {
        "astId": 2266,
        "contract": "contracts/MAPCrossChainServiceRelay.sol:MAPCrossChainServiceRelay",
        "label": "feeCenter",
        "offset": 0,
        "slot": "7",
        "type": "t_contract(IFeeCenter)4910"
      },
      {
        "astId": 2268,
        "contract": "contracts/MAPCrossChainServiceRelay.sol:MAPCrossChainServiceRelay",
        "label": "wToken",
        "offset": 0,
        "slot": "8",
        "type": "t_address"
      },
      {
        "astId": 2270,
        "contract": "contracts/MAPCrossChainServiceRelay.sol:MAPCrossChainServiceRelay",
        "label": "selfChainId",
        "offset": 0,
        "slot": "9",
        "type": "t_uint256"
      },
      {
        "astId": 2274,
        "contract": "contracts/MAPCrossChainServiceRelay.sol:MAPCrossChainServiceRelay",
        "label": "chainGasFee",
        "offset": 0,
        "slot": "10",
        "type": "t_mapping(t_uint256,t_uint256)"
      },
      {
        "astId": 2278,
        "contract": "contracts/MAPCrossChainServiceRelay.sol:MAPCrossChainServiceRelay",
        "label": "orderList",
        "offset": 0,
        "slot": "11",
        "type": "t_mapping(t_bytes32,t_bool)"
      },
      {
        "astId": 2280,
        "contract": "contracts/MAPCrossChainServiceRelay.sol:MAPCrossChainServiceRelay",
        "label": "chainGasFees",
        "offset": 0,
        "slot": "12",
        "type": "t_uint256"
      },
      {
        "astId": 2282,
        "contract": "contracts/MAPCrossChainServiceRelay.sol:MAPCrossChainServiceRelay",
        "label": "transferFee",
        "offset": 0,
        "slot": "13",
        "type": "t_uint256"
      },
      {
        "astId": 2286,
        "contract": "contracts/MAPCrossChainServiceRelay.sol:MAPCrossChainServiceRelay",
        "label": "transferFeeList",
        "offset": 0,
        "slot": "14",
        "type": "t_mapping(t_address,t_uint256)"
      },
      {
        "astId": 2290,
        "contract": "contracts/MAPCrossChainServiceRelay.sol:MAPCrossChainServiceRelay",
        "label": "authToken",
        "offset": 0,
        "slot": "15",
        "type": "t_mapping(t_address,t_bool)"
      },
      {
        "astId": 2296,
        "contract": "contracts/MAPCrossChainServiceRelay.sol:MAPCrossChainServiceRelay",
        "label": "vaultBalance",
        "offset": 0,
        "slot": "16",
        "type": "t_mapping(t_uint256,t_mapping(t_address,t_uint256))"
      },
      {
        "astId": 2300,
        "contract": "contracts/MAPCrossChainServiceRelay.sol:MAPCrossChainServiceRelay",
        "label": "bridgeAddress",
        "offset": 0,
        "slot": "17",
        "type": "t_mapping(t_bytes_memory_ptr,t_uint256)"
      },
      {
        "astId": 2304,
        "contract": "contracts/MAPCrossChainServiceRelay.sol:MAPCrossChainServiceRelay",
        "label": "ChainIdTable",
        "offset": 0,
        "slot": "18",
        "type": "t_mapping(t_uint256,t_uint256)"
      },
      {
        "astId": 2310,
        "contract": "contracts/MAPCrossChainServiceRelay.sol:MAPCrossChainServiceRelay",
        "label": "tokenOtherChainDecimals",
        "offset": 0,
        "slot": "19",
        "type": "t_mapping(t_bytes_memory_ptr,t_mapping(t_uint256,t_uint256))"
      },
      {
        "astId": 2391,
        "contract": "contracts/MAPCrossChainServiceRelay.sol:MAPCrossChainServiceRelay",
        "label": "mapTransferOutTopic",
        "offset": 0,
        "slot": "20",
        "type": "t_bytes32"
      },
      {
        "astId": 2393,
        "contract": "contracts/MAPCrossChainServiceRelay.sol:MAPCrossChainServiceRelay",
        "label": "nearTransferOut",
        "offset": 0,
        "slot": "21",
        "type": "t_bytes32"
      },
      {
        "astId": 2395,
        "contract": "contracts/MAPCrossChainServiceRelay.sol:MAPCrossChainServiceRelay",
        "label": "mapDepositOutTopic",
        "offset": 0,
        "slot": "22",
        "type": "t_bytes32"
      },
      {
        "astId": 2397,
        "contract": "contracts/MAPCrossChainServiceRelay.sol:MAPCrossChainServiceRelay",
        "label": "nearDepositOut",
        "offset": 0,
        "slot": "23",
        "type": "t_bytes32"
      }
    ],
    "types": {
      "t_address": {
        "encoding": "inplace",
        "label": "address",
        "numberOfBytes": "20"
      },
      "t_bool": {
        "encoding": "inplace",
        "label": "bool",
        "numberOfBytes": "1"
      },
      "t_bytes32": {
        "encoding": "inplace",
        "label": "bytes32",
        "numberOfBytes": "32"
      },
      "t_bytes_memory_ptr": {
        "encoding": "bytes",
        "label": "bytes",
        "numberOfBytes": "32"
      },
      "t_contract(IERC20)1316": {
        "encoding": "inplace",
        "label": "contract IERC20",
        "numberOfBytes": "20"
      },
      "t_contract(IFeeCenter)4910": {
        "encoding": "inplace",
        "label": "contract IFeeCenter",
        "numberOfBytes": "20"
      },
      "t_contract(ILightClientManager)4940": {
        "encoding": "inplace",
        "label": "contract ILightClientManager",
        "numberOfBytes": "20"
      },
      "t_contract(ITokenRegister)5063": {
        "encoding": "inplace",
        "label": "contract ITokenRegister",
        "numberOfBytes": "20"
      },
      "t_mapping(t_address,t_bool)": {
        "encoding": "mapping",
        "key": "t_address",
        "label": "mapping(address => bool)",
        "numberOfBytes": "32",
        "value": "t_bool"
      },
      "t_mapping(t_address,t_uint256)": {
        "encoding": "mapping",
        "key": "t_address",
        "label": "mapping(address => uint256)",
        "numberOfBytes": "32",
        "value": "t_uint256"
      },
      "t_mapping(t_bytes32,t_bool)": {
        "encoding": "mapping",
        "key": "t_bytes32",
        "label": "mapping(bytes32 => bool)",
        "numberOfBytes": "32",
        "value": "t_bool"
      },
      "t_mapping(t_bytes32,t_struct(RoleData)19_storage)": {
        "encoding": "mapping",
        "key": "t_bytes32",
        "label": "mapping(bytes32 => struct AccessControl.RoleData)",
        "numberOfBytes": "32",
        "value": "t_struct(RoleData)19_storage"
      },
      "t_mapping(t_bytes_memory_ptr,t_mapping(t_uint256,t_uint256))": {
        "encoding": "mapping",
        "key": "t_bytes_memory_ptr",
        "label": "mapping(bytes => mapping(uint256 => uint256))",
        "numberOfBytes": "32",
        "value": "t_mapping(t_uint256,t_uint256)"
      },
      "t_mapping(t_bytes_memory_ptr,t_uint256)": {
        "encoding": "mapping",
        "key": "t_bytes_memory_ptr",
        "label": "mapping(bytes => uint256)",
        "numberOfBytes": "32",
        "value": "t_uint256"
      },
      "t_mapping(t_uint256,t_mapping(t_address,t_uint256))": {
        "encoding": "mapping",
        "key": "t_uint256",
        "label": "mapping(uint256 => mapping(address => uint256))",
        "numberOfBytes": "32",
        "value": "t_mapping(t_address,t_uint256)"
      },
      "t_mapping(t_uint256,t_uint256)": {
        "encoding": "mapping",
        "key": "t_uint256",
        "label": "mapping(uint256 => uint256)",
        "numberOfBytes": "32",
        "value": "t_uint256"
      },
      "t_struct(RoleData)19_storage": {
        "encoding": "inplace",
        "label": "struct AccessControl.RoleData",
        "members": [
          {
            "astId": 16,
            "contract": "contracts/MAPCrossChainServiceRelay.sol:MAPCrossChainServiceRelay",
            "label": "members",
            "offset": 0,
            "slot": "0",
            "type": "t_mapping(t_address,t_bool)"
          },
          {
            "astId": 18,
            "contract": "contracts/MAPCrossChainServiceRelay.sol:MAPCrossChainServiceRelay",
            "label": "adminRole",
            "offset": 0,
            "slot": "1",
            "type": "t_bytes32"
          }
        ],
        "numberOfBytes": "64"
      },
      "t_uint256": {
        "encoding": "inplace",
        "label": "uint256",
        "numberOfBytes": "32"
      }
    }
  }
}