{
  "address": "0x3dD192C87716Cd402f437c8a452691B2F9fEf6f8",
  "abi": [
    {
      "inputs": [],
      "stateMutability": "nonpayable",
      "type": "constructor"
    },
    {
      "anonymous": false,
      "inputs": [
        {
          "indexed": true,
          "internalType": "bytes32",
          "name": "role",
          "type": "bytes32"
        },
        {
          "indexed": true,
          "internalType": "bytes32",
          "name": "previousAdminRole",
          "type": "bytes32"
        },
        {
          "indexed": true,
          "internalType": "bytes32",
          "name": "newAdminRole",
          "type": "bytes32"
        }
      ],
      "name": "RoleAdminChanged",
      "type": "event"
    },
    {
      "anonymous": false,
      "inputs": [
        {
          "indexed": true,
          "internalType": "bytes32",
          "name": "role",
          "type": "bytes32"
        },
        {
          "indexed": true,
          "internalType": "address",
          "name": "account",
          "type": "address"
        },
        {
          "indexed": true,
          "internalType": "address",
          "name": "sender",
          "type": "address"
        }
      ],
      "name": "RoleGranted",
      "type": "event"
    },
    {
      "anonymous": false,
      "inputs": [
        {
          "indexed": true,
          "internalType": "bytes32",
          "name": "role",
          "type": "bytes32"
        },
        {
          "indexed": true,
          "internalType": "address",
          "name": "account",
          "type": "address"
        },
        {
          "indexed": true,
          "internalType": "address",
          "name": "sender",
          "type": "address"
        }
      ],
      "name": "RoleRevoked",
      "type": "event"
    },
    {
      "inputs": [],
      "name": "DEFAULT_ADMIN_ROLE",
      "outputs": [
        {
          "internalType": "bytes32",
          "name": "",
          "type": "bytes32"
        }
      ],
      "stateMutability": "view",
      "type": "function"
    },
    {
      "inputs": [],
      "name": "MANAGER_ROLE",
      "outputs": [
        {
          "internalType": "bytes32",
          "name": "",
          "type": "bytes32"
        }
      ],
      "stateMutability": "view",
      "type": "function"
    },
    {
      "inputs": [
        {
          "internalType": "address",
          "name": "manager",
          "type": "address"
        }
      ],
      "name": "addManager",
      "outputs": [],
      "stateMutability": "nonpayable",
      "type": "function"
    },
    {
      "inputs": [],
      "name": "chainID",
      "outputs": [
        {
          "internalType": "uint256",
          "name": "",
          "type": "uint256"
        }
      ],
      "stateMutability": "view",
      "type": "function"
    },
    {
      "inputs": [
        {
          "internalType": "bytes32",
          "name": "role",
          "type": "bytes32"
        }
      ],
      "name": "getRoleAdmin",
      "outputs": [
        {
          "internalType": "bytes32",
          "name": "",
          "type": "bytes32"
        }
      ],
      "stateMutability": "view",
      "type": "function"
    },
    {
      "inputs": [
        {
          "internalType": "uint256",
          "name": "sourceChain",
          "type": "uint256"
        },
        {
          "internalType": "bytes",
          "name": "sourceToken",
          "type": "bytes"
        },
        {
          "internalType": "uint256",
          "name": "targetChain",
          "type": "uint256"
        }
      ],
      "name": "getTargetToken",
      "outputs": [
        {
          "internalType": "bytes",
          "name": "mapToken",
          "type": "bytes"
        }
      ],
      "stateMutability": "view",
      "type": "function"
    },
    {
      "inputs": [
        {
          "internalType": "bytes32",
          "name": "role",
          "type": "bytes32"
        },
        {
          "internalType": "address",
          "name": "account",
          "type": "address"
        }
      ],
      "name": "grantRole",
      "outputs": [],
      "stateMutability": "nonpayable",
      "type": "function"
    },
    {
      "inputs": [
        {
          "internalType": "bytes32",
          "name": "role",
          "type": "bytes32"
        },
        {
          "internalType": "address",
          "name": "account",
          "type": "address"
        }
      ],
      "name": "hasRole",
      "outputs": [
        {
          "internalType": "bool",
          "name": "",
          "type": "bool"
        }
      ],
      "stateMutability": "view",
      "type": "function"
    },
    {
      "inputs": [
        {
          "internalType": "uint256",
          "name": "",
          "type": "uint256"
        },
        {
          "internalType": "bytes",
          "name": "",
          "type": "bytes"
        }
      ],
      "name": "mapCorrespond",
      "outputs": [
        {
          "internalType": "bytes",
          "name": "",
          "type": "bytes"
        }
      ],
      "stateMutability": "view",
      "type": "function"
    },
    {
      "inputs": [
        {
          "internalType": "uint256",
          "name": "sourceChain",
          "type": "uint256"
        },
        {
          "internalType": "bytes",
          "name": "sourceMapToken",
          "type": "bytes"
        },
        {
          "internalType": "bytes",
          "name": "mapToken",
          "type": "bytes"
        }
      ],
      "name": "regToken",
      "outputs": [],
      "stateMutability": "nonpayable",
      "type": "function"
    },
    {
      "inputs": [
        {
          "internalType": "bytes",
          "name": "sourceToken",
          "type": "bytes"
        },
        {
          "internalType": "bytes",
          "name": "sourceMapToken",
          "type": "bytes"
        }
      ],
      "name": "regTokenSource",
      "outputs": [],
      "stateMutability": "nonpayable",
      "type": "function"
    },
    {
      "inputs": [
        {
          "internalType": "address",
          "name": "manager",
          "type": "address"
        }
      ],
      "name": "removeManager",
      "outputs": [],
      "stateMutability": "nonpayable",
      "type": "function"
    },
    {
      "inputs": [
        {
          "internalType": "bytes32",
          "name": "role",
          "type": "bytes32"
        },
        {
          "internalType": "address",
          "name": "account",
          "type": "address"
        }
      ],
      "name": "renounceRole",
      "outputs": [],
      "stateMutability": "nonpayable",
      "type": "function"
    },
    {
      "inputs": [
        {
          "internalType": "bytes32",
          "name": "role",
          "type": "bytes32"
        },
        {
          "internalType": "address",
          "name": "account",
          "type": "address"
        }
      ],
      "name": "revokeRole",
      "outputs": [],
      "stateMutability": "nonpayable",
      "type": "function"
    },
    {
      "inputs": [
        {
          "internalType": "uint256",
          "name": "",
          "type": "uint256"
        },
        {
          "internalType": "bytes",
          "name": "",
          "type": "bytes"
        }
      ],
      "name": "sourceBinding",
      "outputs": [
        {
          "internalType": "bytes",
          "name": "",
          "type": "bytes"
        }
      ],
      "stateMutability": "view",
      "type": "function"
    },
    {
      "inputs": [
        {
          "internalType": "uint256",
          "name": "",
          "type": "uint256"
        },
        {
          "internalType": "bytes",
          "name": "",
          "type": "bytes"
        }
      ],
      "name": "sourceCorrespond",
      "outputs": [
        {
          "internalType": "bytes",
          "name": "",
          "type": "bytes"
        }
      ],
      "stateMutability": "view",
      "type": "function"
    },
    {
      "inputs": [
        {
          "internalType": "bytes4",
          "name": "interfaceId",
          "type": "bytes4"
        }
      ],
      "name": "supportsInterface",
      "outputs": [
        {
          "internalType": "bool",
          "name": "",
          "type": "bool"
        }
      ],
      "stateMutability": "view",
      "type": "function"
    }
  ],
  "transactionHash": "0x05c2b71dc6b844c4b80191923eae9a3c49a28a0a5881be73db9095d00a1de71f",
  "args": [],
  "numDeployments": 1,
  "solcInputHash": "455e02f90d417fcee804d6dd31b69ce7",
  "bytecode": "0x608060405234801561001057600080fd5b5061001c60003361004f565b6100467f241ecf16d79d0f8dbfb92cbc07fe17840425976cf0667f022fe9877caa831b083361004f565b466001556100fb565b610059828261005d565b5050565b6000828152602081815260408083206001600160a01b038516845290915290205460ff16610059576000828152602081815260408083206001600160a01b03851684529091529020805460ff191660011790556100b73390565b6001600160a01b0316816001600160a01b0316837f2f8788117e7eff1d82e926ec794901d17c78024a50270940304540a733656f0d60405160405180910390a45050565b6111528061010a6000396000f3fe608060405234801561001057600080fd5b506004361061010b5760003560e01c806391d14854116100a2578063ac18de4311610071578063ac18de431461022b578063adc879e91461023e578063c0b5dc6714610247578063d547741f1461025a578063ec87621c1461026d57600080fd5b806391d14854146101ea57806393be8399146101fd578063a217fddf14610210578063a2a7b8211461021857600080fd5b806336568abe116100de57806336568abe146101915780633a3da3b2146101a45780634bbf7e2d146101c4578063757aaad2146101d757600080fd5b806301ffc9a714610110578063248a9ca3146101385780632d06177a146101695780632f2ff15d1461017e575b600080fd5b61012361011e366004610d11565b610282565b60405190151581526020015b60405180910390f35b61015b610146366004610ccc565b60009081526020819052604090206001015490565b60405190815260200161012f565b61017c610177366004610cb1565b6102b9565b005b61017c61018c366004610ce5565b6102e1565b61017c61019f366004610ce5565b61030c565b6101b76101b2366004610d9f565b61038b565b60405161012f9190610ff2565b61017c6101d2366004610ddc565b610441565b6101b76101e5366004610d9f565b61052c565b6101236101f8366004610ce5565b610561565b61017c61020b366004610d3b565b61058a565b61015b600081565b6101b7610226366004610d9f565b61062d565b61017c610239366004610cb1565b610662565b61015b60015481565b6101b7610255366004610e49565b610686565b61017c610268366004610ce5565b61085a565b61015b6000805160206110fd83398151915281565b60006001600160e01b03198216637965db0b60e01b14806102b357506301ffc9a760e01b6001600160e01b03198316145b92915050565b60006102c58133610880565b6102dd6000805160206110fd833981519152836108e4565b5050565b6000828152602081905260409020600101546102fd8133610880565b61030783836108ea565b505050565b6001600160a01b03811633146103815760405162461bcd60e51b815260206004820152602f60248201527f416363657373436f6e74726f6c3a2063616e206f6e6c792072656e6f756e636560448201526e103937b632b9903337b91039b2b63360891b60648201526084015b60405180910390fd5b6102dd828261096e565b60036020908152600092835260409092208151808301840180519281529084019290930191909120915280546103c09061107f565b80601f01602080910402602001604051908101604052809291908181526020018280546103ec9061107f565b80156104395780601f1061040e57610100808354040283529160200191610439565b820191906000526020600020905b81548152906001019060200180831161041c57829003601f168201915b505050505081565b6104596000805160206110fd83398151915233610561565b61049f5760405162461bcd60e51b815260206004820152601760248201527621b0b63632b91034b9903737ba10309036b0b730b3b2b960491b6044820152606401610378565b8060026000858152602001908152602001600020836040516104c19190610ec5565b908152602001604051809103902090805190602001906104e2929190610b6f565b508160036000858152602001908152602001600020826040516105059190610ec5565b90815260200160405180910390209080519060200190610526929190610b6f565b50505050565b60026020908152600092835260409092208151808301840180519281529084019290930191909120915280546103c09061107f565b6000918252602082815260408084206001600160a01b0393909316845291905290205460ff1690565b6105a26000805160206110fd83398151915233610561565b6105e85760405162461bcd60e51b815260206004820152601760248201527621b0b63632b91034b9903737ba10309036b0b730b3b2b960491b6044820152606401610378565b816004600060015481526020019081526020016000208260405161060c9190610ec5565b90815260200160405180910390209080519060200190610307929190610b6f565b60046020908152600092835260409092208151808301840180519281529084019290930191909120915280546103c09061107f565b600061066e8133610880565b6102dd6000805160206110fd8339815191528361096e565b606060015482141561074d576000848152600260205260409081902090516106af908590610ec5565b908152602001604051809103902080546106c89061107f565b80601f01602080910402602001604051908101604052809291908181526020018280546106f49061107f565b80156107415780601f1061071657610100808354040283529160200191610741565b820191906000526020600020905b81548152906001019060200180831161072457829003601f168201915b50505050509050610853565b600154841415610774576000828152600360205260409081902090516106af908590610ec5565b600082815260036020908152604080832087845260029092529182902091519091906107a1908690610ec5565b9081526040519081900360200181206107b991610ee1565b908152602001604051809103902080546107d29061107f565b80601f01602080910402602001604051908101604052809291908181526020018280546107fe9061107f565b801561084b5780601f106108205761010080835404028352916020019161084b565b820191906000526020600020905b81548152906001019060200180831161082e57829003601f168201915b505050505090505b9392505050565b6000828152602081905260409020600101546108768133610880565b610307838361096e565b61088a8282610561565b6102dd576108a2816001600160a01b031660146109d3565b6108ad8360206109d3565b6040516020016108be929190610f7d565b60408051601f198184030181529082905262461bcd60e51b825261037891600401610ff2565b6102dd82825b6108f48282610561565b6102dd576000828152602081815260408083206001600160a01b03851684529091529020805460ff1916600117905561092a3390565b6001600160a01b0316816001600160a01b0316837f2f8788117e7eff1d82e926ec794901d17c78024a50270940304540a733656f0d60405160405180910390a45050565b6109788282610561565b156102dd576000828152602081815260408083206001600160a01b0385168085529252808320805460ff1916905551339285917ff6391f5c32d9c69d2a47ea670b442974b53935d1edc7fd64eb21e047a839171b9190a45050565b606060006109e283600261101d565b6109ed906002611005565b67ffffffffffffffff811115610a0557610a056110e6565b6040519080825280601f01601f191660200182016040528015610a2f576020820181803683370190505b509050600360fc1b81600081518110610a4a57610a4a6110d0565b60200101906001600160f81b031916908160001a905350600f60fb1b81600181518110610a7957610a796110d0565b60200101906001600160f81b031916908160001a9053506000610a9d84600261101d565b610aa8906001611005565b90505b6001811115610b20576f181899199a1a9b1b9c1cb0b131b232b360811b85600f1660108110610adc57610adc6110d0565b1a60f81b828281518110610af257610af26110d0565b60200101906001600160f81b031916908160001a90535060049490941c93610b1981611068565b9050610aab565b5083156108535760405162461bcd60e51b815260206004820181905260248201527f537472696e67733a20686578206c656e67746820696e73756666696369656e746044820152606401610378565b828054610b7b9061107f565b90600052602060002090601f016020900481019282610b9d5760008555610be3565b82601f10610bb657805160ff1916838001178555610be3565b82800160010185558215610be3579182015b82811115610be3578251825591602001919060010190610bc8565b50610bef929150610bf3565b5090565b5b80821115610bef5760008155600101610bf4565b80356001600160a01b0381168114610c1f57600080fd5b919050565b600082601f830112610c3557600080fd5b813567ffffffffffffffff80821115610c5057610c506110e6565b604051601f8301601f19908116603f01168101908282118183101715610c7857610c786110e6565b81604052838152866020858801011115610c9157600080fd5b836020870160208301376000602085830101528094505050505092915050565b600060208284031215610cc357600080fd5b61085382610c08565b600060208284031215610cde57600080fd5b5035919050565b60008060408385031215610cf857600080fd5b82359150610d0860208401610c08565b90509250929050565b600060208284031215610d2357600080fd5b81356001600160e01b03198116811461085357600080fd5b60008060408385031215610d4e57600080fd5b823567ffffffffffffffff80821115610d6657600080fd5b610d7286838701610c24565b93506020850135915080821115610d8857600080fd5b50610d9585828601610c24565b9150509250929050565b60008060408385031215610db257600080fd5b82359150602083013567ffffffffffffffff811115610dd057600080fd5b610d9585828601610c24565b600080600060608486031215610df157600080fd5b83359250602084013567ffffffffffffffff80821115610e1057600080fd5b610e1c87838801610c24565b93506040860135915080821115610e3257600080fd5b50610e3f86828701610c24565b9150509250925092565b600080600060608486031215610e5e57600080fd5b83359250602084013567ffffffffffffffff811115610e7c57600080fd5b610e8886828701610c24565b925050604084013590509250925092565b60008151808452610eb181602086016020860161103c565b601f01601f19169290920160200192915050565b60008251610ed781846020870161103c565b9190910192915050565b600080835481600182811c915080831680610efd57607f831692505b6020808410821415610f1d57634e487b7160e01b86526022600452602486fd5b818015610f315760018114610f4257610f6f565b60ff19861689528489019650610f6f565b60008a81526020902060005b86811015610f675781548b820152908501908301610f4e565b505084890196505b509498975050505050505050565b7f416363657373436f6e74726f6c3a206163636f756e7420000000000000000000815260008351610fb581601785016020880161103c565b7001034b99036b4b9b9b4b733903937b6329607d1b6017918401918201528351610fe681602884016020880161103c565b01602801949350505050565b6020815260006108536020830184610e99565b60008219821115611018576110186110ba565b500190565b6000816000190483118215151615611037576110376110ba565b500290565b60005b8381101561105757818101518382015260200161103f565b838111156105265750506000910152565b600081611077576110776110ba565b506000190190565b600181811c9082168061109357607f821691505b602082108114156110b457634e487b7160e01b600052602260045260246000fd5b50919050565b634e487b7160e01b600052601160045260246000fd5b634e487b7160e01b600052603260045260246000fd5b634e487b7160e01b600052604160045260246000fdfe241ecf16d79d0f8dbfb92cbc07fe17840425976cf0667f022fe9877caa831b08a2646970667358221220522f758183fcfd7d702538a23c6296e6a3daa7aa3cf6d5d544e2d94b5d9d4d6c64736f6c63430008070033",
  "devdoc": {
    "kind": "dev",
    "methods": {
      "getRoleAdmin(bytes32)": {
        "details": "Returns the admin role that controls `role`. See {grantRole} and {revokeRole}. To change a role's admin, use {_setRoleAdmin}."
      },
      "grantRole(bytes32,address)": {
        "details": "Grants `role` to `account`. If `account` had not been already granted `role`, emits a {RoleGranted} event. Requirements: - the caller must have ``role``'s admin role."
      },
      "hasRole(bytes32,address)": {
        "details": "Returns `true` if `account` has been granted `role`."
      },
      "renounceRole(bytes32,address)": {
        "details": "Revokes `role` from the calling account. Roles are often managed via {grantRole} and {revokeRole}: this function's purpose is to provide a mechanism for accounts to lose their privileges if they are compromised (such as when a trusted device is misplaced). If the calling account had been revoked `role`, emits a {RoleRevoked} event. Requirements: - the caller must be `account`."
      },
      "revokeRole(bytes32,address)": {
        "details": "Revokes `role` from `account`. If `account` had been granted `role`, emits a {RoleRevoked} event. Requirements: - the caller must have ``role``'s admin role."
      },
      "supportsInterface(bytes4)": {
        "details": "See {IERC165-supportsInterface}."
      }
    },
    "version": 1
  },
  "userdoc": {
    "kind": "user",
    "methods": {},
    "version": 1
  },
  "storageLayout": {
    "storage": [
      {
        "astId": 24,
        "contract": "contracts/TokenRegister.sol:TokenRegister",
        "label": "_roles",
        "offset": 0,
        "slot": "0",
        "type": "t_mapping(t_bytes32,t_struct(RoleData)19_storage)"
      },
      {
        "astId": 8217,
        "contract": "contracts/TokenRegister.sol:TokenRegister",
        "label": "chainID",
        "offset": 0,
        "slot": "1",
        "type": "t_uint256"
      },
      {
        "astId": 8235,
        "contract": "contracts/TokenRegister.sol:TokenRegister",
        "label": "sourceCorrespond",
        "offset": 0,
        "slot": "2",
        "type": "t_mapping(t_uint256,t_mapping(t_bytes_memory_ptr,t_bytes_storage))"
      },
      {
        "astId": 8241,
        "contract": "contracts/TokenRegister.sol:TokenRegister",
        "label": "mapCorrespond",
        "offset": 0,
        "slot": "3",
        "type": "t_mapping(t_uint256,t_mapping(t_bytes_memory_ptr,t_bytes_storage))"
      },
      {
        "astId": 8247,
        "contract": "contracts/TokenRegister.sol:TokenRegister",
        "label": "sourceBinding",
        "offset": 0,
        "slot": "4",
        "type": "t_mapping(t_uint256,t_mapping(t_bytes_memory_ptr,t_bytes_storage))"
      }
    ],
    "types": {
      "t_address": {
        "encoding": "inplace",
        "label": "address",
        "numberOfBytes": "20"
      },
      "t_bool": {
        "encoding": "inplace",
        "label": "bool",
        "numberOfBytes": "1"
      },
      "t_bytes32": {
        "encoding": "inplace",
        "label": "bytes32",
        "numberOfBytes": "32"
      },
      "t_bytes_memory_ptr": {
        "encoding": "bytes",
        "label": "bytes",
        "numberOfBytes": "32"
      },
      "t_bytes_storage": {
        "encoding": "bytes",
        "label": "bytes",
        "numberOfBytes": "32"
      },
      "t_mapping(t_address,t_bool)": {
        "encoding": "mapping",
        "key": "t_address",
        "label": "mapping(address => bool)",
        "numberOfBytes": "32",
        "value": "t_bool"
      },
      "t_mapping(t_bytes32,t_struct(RoleData)19_storage)": {
        "encoding": "mapping",
        "key": "t_bytes32",
        "label": "mapping(bytes32 => struct AccessControl.RoleData)",
        "numberOfBytes": "32",
        "value": "t_struct(RoleData)19_storage"
      },
      "t_mapping(t_bytes_memory_ptr,t_bytes_storage)": {
        "encoding": "mapping",
        "key": "t_bytes_memory_ptr",
        "label": "mapping(bytes => bytes)",
        "numberOfBytes": "32",
        "value": "t_bytes_storage"
      },
      "t_mapping(t_uint256,t_mapping(t_bytes_memory_ptr,t_bytes_storage))": {
        "encoding": "mapping",
        "key": "t_uint256",
        "label": "mapping(uint256 => mapping(bytes => bytes))",
        "numberOfBytes": "32",
        "value": "t_mapping(t_bytes_memory_ptr,t_bytes_storage)"
      },
      "t_struct(RoleData)19_storage": {
        "encoding": "inplace",
        "label": "struct AccessControl.RoleData",
        "members": [
          {
            "astId": 16,
            "contract": "contracts/TokenRegister.sol:TokenRegister",
            "label": "members",
            "offset": 0,
            "slot": "0",
            "type": "t_mapping(t_address,t_bool)"
          },
          {
            "astId": 18,
            "contract": "contracts/TokenRegister.sol:TokenRegister",
            "label": "adminRole",
            "offset": 0,
            "slot": "1",
            "type": "t_bytes32"
          }
        ],
        "numberOfBytes": "64"
      },
      "t_uint256": {
        "encoding": "inplace",
        "label": "uint256",
        "numberOfBytes": "32"
      }
    }
  }
}