{
  "address": "0x15445027Aa62C51B4F6E0C5560d2109288aF1699",
  "abi": [
    {
      "anonymous": false,
      "inputs": [
        {
          "indexed": false,
          "internalType": "address",
          "name": "previousAdmin",
          "type": "address"
        },
        {
          "indexed": false,
          "internalType": "address",
          "name": "newAdmin",
          "type": "address"
        }
      ],
      "name": "AdminChanged",
      "type": "event"
    },
    {
      "anonymous": false,
      "inputs": [
        {
          "indexed": true,
          "internalType": "address",
          "name": "beacon",
          "type": "address"
        }
      ],
      "name": "BeaconUpgraded",
      "type": "event"
    },
    {
      "anonymous": false,
      "inputs": [
        {
          "indexed": false,
          "internalType": "address",
          "name": "account",
          "type": "address"
        }
      ],
      "name": "Paused",
      "type": "event"
    },
    {
      "anonymous": false,
      "inputs": [
        {
          "indexed": false,
          "internalType": "address",
          "name": "account",
          "type": "address"
        }
      ],
      "name": "Unpaused",
      "type": "event"
    },
    {
      "anonymous": false,
      "inputs": [
        {
          "indexed": true,
          "internalType": "address",
          "name": "implementation",
          "type": "address"
        }
      ],
      "name": "Upgraded",
      "type": "event"
    },
    {
      "anonymous": false,
      "inputs": [
        {
          "indexed": true,
          "internalType": "uint256",
          "name": "fromChain",
          "type": "uint256"
        },
        {
          "indexed": true,
          "internalType": "uint256",
          "name": "toChain",
          "type": "uint256"
        },
        {
          "indexed": false,
          "internalType": "bytes32",
          "name": "orderId",
          "type": "bytes32"
        },
        {
          "indexed": false,
          "internalType": "address",
          "name": "token",
          "type": "address"
        },
        {
          "indexed": false,
          "internalType": "bytes",
          "name": "from",
          "type": "bytes"
        },
        {
          "indexed": false,
          "internalType": "address",
          "name": "to",
          "type": "address"
        },
        {
          "indexed": false,
          "internalType": "uint256",
          "name": "amount",
          "type": "uint256"
        }
      ],
      "name": "mapDepositOut",
      "type": "event"
    },
    {
      "anonymous": false,
      "inputs": [
        {
          "indexed": true,
          "internalType": "uint256",
          "name": "fromChain",
          "type": "uint256"
        },
        {
          "indexed": true,
          "internalType": "uint256",
          "name": "toChain",
          "type": "uint256"
        },
        {
          "indexed": true,
          "internalType": "address",
          "name": "from",
          "type": "address"
        }
      ],
      "name": "mapSwapExecute",
      "type": "event"
    },
    {
      "anonymous": false,
      "inputs": [
        {
          "indexed": true,
          "internalType": "uint256",
          "name": "fromChain",
          "type": "uint256"
        },
        {
          "indexed": true,
          "internalType": "uint256",
          "name": "toChain",
          "type": "uint256"
        },
        {
          "indexed": true,
          "internalType": "bytes32",
          "name": "orderId",
          "type": "bytes32"
        },
        {
          "indexed": false,
          "internalType": "address",
          "name": "token",
          "type": "address"
        },
        {
          "indexed": false,
          "internalType": "bytes",
          "name": "from",
          "type": "bytes"
        },
        {
          "indexed": false,
          "internalType": "address",
          "name": "toAddress",
          "type": "address"
        },
        {
          "indexed": false,
          "internalType": "uint256",
          "name": "amountOut",
          "type": "uint256"
        }
      ],
      "name": "mapSwapIn",
      "type": "event"
    },
    {
      "anonymous": false,
      "inputs": [
        {
          "indexed": true,
          "internalType": "uint256",
          "name": "fromChain",
          "type": "uint256"
        },
        {
          "indexed": true,
          "internalType": "uint256",
          "name": "toChain",
          "type": "uint256"
        },
        {
          "indexed": false,
          "internalType": "bytes32",
          "name": "orderId",
          "type": "bytes32"
        },
        {
          "indexed": false,
          "internalType": "bytes",
          "name": "token",
          "type": "bytes"
        },
        {
          "indexed": false,
          "internalType": "bytes",
          "name": "from",
          "type": "bytes"
        },
        {
          "indexed": false,
          "internalType": "bytes",
          "name": "to",
          "type": "bytes"
        },
        {
          "indexed": false,
          "internalType": "uint256",
          "name": "amount",
          "type": "uint256"
        },
        {
          "indexed": false,
          "internalType": "bytes",
          "name": "swapData",
          "type": "bytes"
        }
      ],
      "name": "mapSwapOut",
      "type": "event"
    },
    {
      "anonymous": false,
      "inputs": [
        {
          "indexed": true,
          "internalType": "uint256",
          "name": "fromChain",
          "type": "uint256"
        },
        {
          "indexed": true,
          "internalType": "uint256",
          "name": "toChain",
          "type": "uint256"
        },
        {
          "indexed": true,
          "internalType": "address",
          "name": "from",
          "type": "address"
        }
      ],
      "name": "mapTransferExecute",
      "type": "event"
    },
    {
      "anonymous": false,
      "inputs": [
        {
          "indexed": true,
          "internalType": "uint256",
          "name": "fromChain",
          "type": "uint256"
        },
        {
          "indexed": true,
          "internalType": "uint256",
          "name": "toChain",
          "type": "uint256"
        },
        {
          "indexed": false,
          "internalType": "bytes32",
          "name": "orderId",
          "type": "bytes32"
        },
        {
          "indexed": false,
          "internalType": "address",
          "name": "token",
          "type": "address"
        },
        {
          "indexed": false,
          "internalType": "bytes",
          "name": "from",
          "type": "bytes"
        },
        {
          "indexed": false,
          "internalType": "address",
          "name": "to",
          "type": "address"
        },
        {
          "indexed": false,
          "internalType": "uint256",
          "name": "amount",
          "type": "uint256"
        }
      ],
      "name": "mapTransferIn",
      "type": "event"
    },
    {
      "anonymous": false,
      "inputs": [
        {
          "indexed": true,
          "internalType": "uint256",
          "name": "fromChain",
          "type": "uint256"
        },
        {
          "indexed": true,
          "internalType": "uint256",
          "name": "toChain",
          "type": "uint256"
        },
        {
          "indexed": false,
          "internalType": "bytes32",
          "name": "orderId",
          "type": "bytes32"
        },
        {
          "indexed": false,
          "internalType": "bytes",
          "name": "token",
          "type": "bytes"
        },
        {
          "indexed": false,
          "internalType": "bytes",
          "name": "from",
          "type": "bytes"
        },
        {
          "indexed": false,
          "internalType": "bytes",
          "name": "to",
          "type": "bytes"
        },
        {
          "indexed": false,
          "internalType": "uint256",
          "name": "amount",
          "type": "uint256"
        },
        {
          "indexed": false,
          "internalType": "bytes",
          "name": "toChainToken",
          "type": "bytes"
        }
      ],
      "name": "mapTransferOut",
      "type": "event"
    },
    {
      "inputs": [
        {
          "internalType": "address[]",
          "name": "_token",
          "type": "address[]"
        }
      ],
      "name": "addMintableToken",
      "outputs": [],
      "stateMutability": "nonpayable",
      "type": "function"
    },
    {
      "inputs": [],
      "name": "butterCore",
      "outputs": [
        {
          "internalType": "address",
          "name": "",
          "type": "address"
        }
      ],
      "stateMutability": "view",
      "type": "function"
    },
    {
      "inputs": [
        {
          "internalType": "address",
          "name": "_admin",
          "type": "address"
        }
      ],
      "name": "changeAdmin",
      "outputs": [],
      "stateMutability": "nonpayable",
      "type": "function"
    },
    {
      "inputs": [
        {
          "internalType": "address",
          "name": "_to",
          "type": "address"
        }
      ],
      "name": "depositNative",
      "outputs": [],
      "stateMutability": "payable",
      "type": "function"
    },
    {
      "inputs": [
        {
          "internalType": "address",
          "name": "_token",
          "type": "address"
        },
        {
          "internalType": "address",
          "name": "_to",
          "type": "address"
        },
        {
          "internalType": "uint256",
          "name": "_amount",
          "type": "uint256"
        }
      ],
      "name": "depositToken",
      "outputs": [],
      "stateMutability": "nonpayable",
      "type": "function"
    },
    {
      "inputs": [
        {
          "internalType": "address",
          "name": "_token",
          "type": "address"
        },
        {
          "internalType": "address payable",
          "name": "_receiver",
          "type": "address"
        },
        {
          "internalType": "uint256",
          "name": "_amount",
          "type": "uint256"
        }
      ],
      "name": "emergencyWithdraw",
      "outputs": [],
      "stateMutability": "nonpayable",
      "type": "function"
    },
    {
      "inputs": [],
      "name": "getAdmin",
      "outputs": [
        {
          "internalType": "address",
          "name": "",
          "type": "address"
        }
      ],
      "stateMutability": "view",
      "type": "function"
    },
    {
      "inputs": [],
      "name": "getImplementation",
      "outputs": [
        {
          "internalType": "address",
          "name": "",
          "type": "address"
        }
      ],
      "stateMutability": "view",
      "type": "function"
    },
    {
      "inputs": [
        {
          "internalType": "address",
          "name": "_wToken",
          "type": "address"
        },
        {
          "internalType": "address",
          "name": "_lightNode",
          "type": "address"
        }
      ],
      "name": "initialize",
      "outputs": [],
      "stateMutability": "nonpayable",
      "type": "function"
    },
    {
      "inputs": [
        {
          "internalType": "address",
          "name": "_token",
          "type": "address"
        },
        {
          "internalType": "uint256",
          "name": "_toChain",
          "type": "uint256"
        }
      ],
      "name": "isBridgeable",
      "outputs": [
        {
          "internalType": "bool",
          "name": "",
          "type": "bool"
        }
      ],
      "stateMutability": "view",
      "type": "function"
    },
    {
      "inputs": [
        {
          "internalType": "address",
          "name": "_token",
          "type": "address"
        }
      ],
      "name": "isMintable",
      "outputs": [
        {
          "internalType": "bool",
          "name": "",
          "type": "bool"
        }
      ],
      "stateMutability": "view",
      "type": "function"
    },
    {
      "inputs": [],
      "name": "lightNode",
      "outputs": [
        {
          "internalType": "contract ILightNode",
          "name": "",
          "type": "address"
        }
      ],
      "stateMutability": "view",
      "type": "function"
    },
    {
      "inputs": [
        {
          "internalType": "address",
          "name": "",
          "type": "address"
        }
      ],
      "name": "mintableTokens",
      "outputs": [
        {
          "internalType": "bool",
          "name": "",
          "type": "bool"
        }
      ],
      "stateMutability": "view",
      "type": "function"
    },
    {
      "inputs": [],
      "name": "nonce",
      "outputs": [
        {
          "internalType": "uint256",
          "name": "",
          "type": "uint256"
        }
      ],
      "stateMutability": "view",
      "type": "function"
    },
    {
      "inputs": [
        {
          "internalType": "bytes32",
          "name": "",
          "type": "bytes32"
        }
      ],
      "name": "orderList",
      "outputs": [
        {
          "internalType": "bool",
          "name": "",
          "type": "bool"
        }
      ],
      "stateMutability": "view",
      "type": "function"
    },
    {
      "inputs": [],
      "name": "paused",
      "outputs": [
        {
          "internalType": "bool",
          "name": "",
          "type": "bool"
        }
      ],
      "stateMutability": "view",
      "type": "function"
    },
    {
      "inputs": [
        {
          "internalType": "address",
          "name": "_token",
          "type": "address"
        },
        {
          "internalType": "uint256",
          "name": "_toChain",
          "type": "uint256"
        },
        {
          "internalType": "bool",
          "name": "_enable",
          "type": "bool"
        }
      ],
      "name": "registerToken",
      "outputs": [],
      "stateMutability": "nonpayable",
      "type": "function"
    },
    {
      "inputs": [],
      "name": "relayChainId",
      "outputs": [
        {
          "internalType": "uint256",
          "name": "",
          "type": "uint256"
        }
      ],
      "stateMutability": "view",
      "type": "function"
    },
    {
      "inputs": [],
      "name": "relayContract",
      "outputs": [
        {
          "internalType": "address",
          "name": "",
          "type": "address"
        }
      ],
      "stateMutability": "view",
      "type": "function"
    },
    {
      "inputs": [
        {
          "internalType": "address[]",
          "name": "_token",
          "type": "address[]"
        }
      ],
      "name": "removeMintableToken",
      "outputs": [],
      "stateMutability": "nonpayable",
      "type": "function"
    },
    {
      "inputs": [],
      "name": "selfChainId",
      "outputs": [
        {
          "internalType": "uint256",
          "name": "",
          "type": "uint256"
        }
      ],
      "stateMutability": "view",
      "type": "function"
    },
    {
      "inputs": [
        {
          "internalType": "address",
          "name": "_butterCoreAddress",
          "type": "address"
        }
      ],
      "name": "setButterCoreAddress",
      "outputs": [],
      "stateMutability": "nonpayable",
      "type": "function"
    },
    {
      "inputs": [
        {
          "internalType": "address",
          "name": "_lightNode",
          "type": "address"
        }
      ],
      "name": "setLightClient",
      "outputs": [],
      "stateMutability": "nonpayable",
      "type": "function"
    },
    {
      "inputs": [],
      "name": "setPause",
      "outputs": [],
      "stateMutability": "nonpayable",
      "type": "function"
    },
    {
      "inputs": [
        {
          "internalType": "uint256",
          "name": "_chainId",
          "type": "uint256"
        },
        {
          "internalType": "address",
          "name": "_relay",
          "type": "address"
        }
      ],
      "name": "setRelayContract",
      "outputs": [],
      "stateMutability": "nonpayable",
      "type": "function"
    },
    {
      "inputs": [],
      "name": "setUnpause",
      "outputs": [],
      "stateMutability": "nonpayable",
      "type": "function"
    },
    {
      "inputs": [
        {
          "internalType": "uint256",
          "name": "_chainId",
          "type": "uint256"
        },
        {
          "internalType": "bytes",
          "name": "_receiptProof",
          "type": "bytes"
        }
      ],
      "name": "swapIn",
      "outputs": [],
      "stateMutability": "nonpayable",
      "type": "function"
    },
    {
      "inputs": [
        {
          "internalType": "bytes",
          "name": "_to",
          "type": "bytes"
        },
        {
          "internalType": "uint256",
          "name": "_toChain",
          "type": "uint256"
        },
        {
          "internalType": "bytes",
          "name": "swapData",
          "type": "bytes"
        }
      ],
      "name": "swapOutNative",
      "outputs": [],
      "stateMutability": "payable",
      "type": "function"
    },
    {
      "inputs": [
        {
          "internalType": "address",
          "name": "_token",
          "type": "address"
        },
        {
          "internalType": "bytes",
          "name": "_to",
          "type": "bytes"
        },
        {
          "internalType": "uint256",
          "name": "_amount",
          "type": "uint256"
        },
        {
          "internalType": "uint256",
          "name": "_toChain",
          "type": "uint256"
        },
        {
          "internalType": "bytes",
          "name": "swapData",
          "type": "bytes"
        }
      ],
      "name": "swapOutToken",
      "outputs": [],
      "stateMutability": "nonpayable",
      "type": "function"
    },
    {
      "inputs": [
        {
          "internalType": "uint256",
          "name": "",
          "type": "uint256"
        },
        {
          "internalType": "address",
          "name": "",
          "type": "address"
        }
      ],
      "name": "tokenMappingList",
      "outputs": [
        {
          "internalType": "bool",
          "name": "",
          "type": "bool"
        }
      ],
      "stateMutability": "view",
      "type": "function"
    },
    {
      "inputs": [
        {
          "internalType": "uint256",
          "name": "_chainId",
          "type": "uint256"
        },
        {
          "internalType": "bytes",
          "name": "_receiptProof",
          "type": "bytes"
        }
      ],
      "name": "transferIn",
      "outputs": [],
      "stateMutability": "nonpayable",
      "type": "function"
    },
    {
      "inputs": [
        {
          "internalType": "bytes",
          "name": "_to",
          "type": "bytes"
        },
        {
          "internalType": "uint256",
          "name": "_toChain",
          "type": "uint256"
        }
      ],
      "name": "transferOutNative",
      "outputs": [],
      "stateMutability": "payable",
      "type": "function"
    },
    {
      "inputs": [
        {
          "internalType": "address",
          "name": "_token",
          "type": "address"
        },
        {
          "internalType": "bytes",
          "name": "_to",
          "type": "bytes"
        },
        {
          "internalType": "uint256",
          "name": "_amount",
          "type": "uint256"
        },
        {
          "internalType": "uint256",
          "name": "_toChain",
          "type": "uint256"
        }
      ],
      "name": "transferOutToken",
      "outputs": [],
      "stateMutability": "nonpayable",
      "type": "function"
    },
    {
      "inputs": [
        {
          "internalType": "address",
          "name": "newImplementation",
          "type": "address"
        }
      ],
      "name": "upgradeTo",
      "outputs": [],
      "stateMutability": "nonpayable",
      "type": "function"
    },
    {
      "inputs": [
        {
          "internalType": "address",
          "name": "newImplementation",
          "type": "address"
        },
        {
          "internalType": "bytes",
          "name": "data",
          "type": "bytes"
        }
      ],
      "name": "upgradeToAndCall",
      "outputs": [],
      "stateMutability": "payable",
      "type": "function"
    },
    {
      "inputs": [],
      "name": "wToken",
      "outputs": [
        {
          "internalType": "address",
          "name": "",
          "type": "address"
        }
      ],
      "stateMutability": "view",
      "type": "function"
    },
    {
      "stateMutability": "payable",
      "type": "receive"
    }
  ],
  "transactionHash": "0xf325cddeb4c08f5c7b44b30dd1df2cdfc25ea4678992ca510016315937776a46",
  "args": [],
  "solcInputHash": "abbc1a2b704d71b844fb6c4f334a109c",
  "bytecode": "0x60c06040523060601b6080524660a05234801561001b57600080fd5b5060016000819055805462ff00001916905560805160601c60a0516152946100e1600039600081816105a30152818161084601528181610a0801528181610bb201528181610d9801528181610eb9015281816113c4015281816114f4015281816116d30152818161187e01528181611bba01528181611c0701528181611e6701528181611eb40152818161213d0152818161231801528181612f1f0152613065015260008181610c3d01528181610c7d01528181611107015261114701526152946000f3fe6080604052600436106102135760003560e01c80636af6400d11610118578063bdff6d1e116100a0578063d33a28a21161006f578063d33a28a214610605578063d431b1ac14610625578063e63ea4081461063a578063ee9592b91461065a578063fb0f97a81461069557600080fd5b8063bdff6d1e14610571578063cc9e3e8914610591578063ccb3f442146105c5578063d24c6944146105e557600080fd5b80638df0dcde116100e75780638df0dcde146104e25780638f28397014610506578063981aff4e14610526578063aaf10f4214610546578063affed0e01461055b57600080fd5b80636af6400d146104755780636d5ff479146104a55780636e9960c3146104b8578063848cb5c6146104cd57600080fd5b806345711d481161019b57806355b355601161016a57806355b35560146103d757806355d35a40146103f75780635c550ac2146104175780635c975abb146104375780635f670bd31461045557600080fd5b806345711d4814610354578063485cc955146103845780634f1ef286146103a457806352edfcdf146103b757600080fd5b80632f12d7ef116101e25780632f12d7ef146102ce57806333bb7f91146102ee5780633659cfe6146103015780633d4a2f6e146103215780633e553bab1461033457600080fd5b80630babd8641461021f5780631a19a6281461025c578063222b15fb1461027e5780632b585db4146102ae57600080fd5b3661021a57005b600080fd5b34801561022b57600080fd5b5060035461023f906001600160a01b031681565b6040516001600160a01b0390911681526020015b60405180910390f35b34801561026857600080fd5b5061027c61027736600461447d565b6106b5565b005b34801561028a57600080fd5b5061029e61029936600461423b565b610762565b6040519015158152602001610253565b3480156102ba57600080fd5b5061029e6102c936600461440f565b610780565b3480156102da57600080fd5b5061027c6102e9366004614380565b6107ad565b61027c6102fc36600461423b565b610a8a565b34801561030d57600080fd5b5061027c61031c36600461423b565b610c32565b61027c61032f36600461489e565b610cfb565b34801561034057600080fd5b5061027c61034f36600461423b565b610f36565b34801561036057600080fd5b5061029e61036f36600461423b565b60086020526000908152604090205460ff1681565b34801561039057600080fd5b5061027c61039f366004614258565b610fb8565b61027c6103b23660046142d2565b6110fc565b3480156103c357600080fd5b5061027c6103d236600461423b565b6111b2565b3480156103e357600080fd5b5061027c6103f236600461443b565b611234565b34801561040357600080fd5b5061027c610412366004614951565b6112a2565b34801561042357600080fd5b5060045461023f906001600160a01b031681565b34801561044357600080fd5b5060015462010000900460ff1661029e565b34801561046157600080fd5b5060065461023f906001600160a01b031681565b34801561048157600080fd5b5061029e6104903660046147ae565b60076020526000908152604090205460ff1681565b61027c6104b33660046148e2565b611327565b3480156104c457600080fd5b5061023f611581565b3480156104d957600080fd5b5061027c611590565b3480156104ee57600080fd5b506104f860055481565b604051908152602001610253565b34801561051257600080fd5b5061027c61052136600461423b565b6115d2565b34801561053257600080fd5b5061027c610541366004614321565b61163a565b34801561055257600080fd5b5061023f611905565b34801561056757600080fd5b506104f860025481565b34801561057d57600080fd5b50600a5461023f906001600160a01b031681565b34801561059d57600080fd5b506104f87f000000000000000000000000000000000000000000000000000000000000000081565b3480156105d157600080fd5b5061027c6105e036600461447d565b61190f565b3480156105f157600080fd5b5061027c610600366004614976565b6119af565b34801561061157600080fd5b5061027c610620366004614976565b611c5c565b34801561063157600080fd5b5061027c611f09565b34801561064657600080fd5b5061027c610655366004614291565b611f49565b34801561066657600080fd5b5061029e610675366004614951565b600960209081526000928352604080842090915290825290205460ff1681565b3480156106a157600080fd5b5061027c6106b0366004614291565b61200c565b6106bd61219b565b6001600160a01b0316336001600160a01b0316146106f65760405162461bcd60e51b81526004016106ed90614d8a565b60405180910390fd5b60005b815181101561075e5760006008600084848151811061071a5761071a61515e565b6020908102919091018101516001600160a01b03168252810191909152604001600020805460ff1916911515919091179055806107568161512d565b9150506106f9565b5050565b6001600160a01b031660009081526008602052604090205460ff1690565b60008181526009602090815260408083206001600160a01b038616845290915290205460ff165b92915050565b600260005414156107d05760405162461bcd60e51b81526004016106ed90614db5565b600260005560015462010000900460ff16156107fe5760405162461bcd60e51b81526004016106ed90614d60565b60008381526009602090815260408083206001600160a01b038a1684529091529020548690849060ff166108445760405162461bcd60e51b81526004016106ed90614cbd565b7f00000000000000000000000000000000000000000000000000000000000000008514156108b05760405162461bcd60e51b815260206004820152601960248201527821b0b73737ba1039bbb0b8103a379039b2b6331031b430b4b760391b60448201526064016106ed565b6040516370a0823160e01b815233600482015286906001600160a01b038a16906370a082319060240160206040518083038186803b1580156108f157600080fd5b505afa158015610905573d6000803e3d6000fd5b505050506040513d601f19601f8201168201806040525081019061092991906147c7565b10156109775760405162461bcd60e51b815260206004820152601a60248201527f496e73756666696369656e7420746f6b656e2062616c616e636500000000000060448201526064016106ed565b61098088610762565b156109ea5760405163079cc67960e41b8152336004820152602481018790526001600160a01b038916906379cc679090604401600060405180830381600087803b1580156109cd57600080fd5b505af11580156109e1573d6000803e3d6000fd5b505050506109f6565b6109f6883330896121ce565b6000610a033389886122fe565b9050857f00000000000000000000000000000000000000000000000000000000000000007fca1cf8cebf88499429cca8f87cbca15ab8dafd06702259a5344ddce89ef3f3a583610a528d61236f565b610a5b3361236f565b8d8d8c8c604051610a729796959493929190614b7a565b60405180910390a35050600160005550505050505050565b60026000541415610aad5760405162461bcd60e51b81526004016106ed90614db5565b600260005560015462010000900460ff1615610adb5760405162461bcd60e51b81526004016106ed90614d60565b60035460055460008181526009602090815260408083206001600160a01b039095168084529490915290205460ff16610b265760405162461bcd60e51b81526004016106ed90614cbd565b33346000610b3f83610b378861236f565b6005546122fe565b9050600360009054906101000a90046001600160a01b03166001600160a01b031663d0e30db0836040518263ffffffff1660e01b81526004016000604051808303818588803b158015610b9157600080fd5b505af1158015610ba5573d6000803e3d6000fd5b50506005546003549093507f000000000000000000000000000000000000000000000000000000000000000092507fb7100086a8e13ebae772a0f09b07046e389a6b036406d22b86f2d2e5b860a8d9915084906001600160a01b0316610c0a8861236f565b8b88604051610c1d959493929190614b3f565b60405180910390a35050600160005550505050565b306001600160a01b037f0000000000000000000000000000000000000000000000000000000000000000161415610c7b5760405162461bcd60e51b81526004016106ed90614c71565b7f00000000000000000000000000000000000000000000000000000000000000006001600160a01b0316610cad6123a5565b6001600160a01b031614610cd35760405162461bcd60e51b81526004016106ed90614ceb565b610cdc816123cd565b60408051600080825260208201909252610cf891839190612449565b50565b60026000541415610d1e5760405162461bcd60e51b81526004016106ed90614db5565b600260005560015462010000900460ff1615610d4c5760405162461bcd60e51b81526004016106ed90614d60565b60035460008281526009602090815260408083206001600160a01b0390941680845293909152902054829060ff16610d965760405162461bcd60e51b81526004016106ed90614cbd565b7f0000000000000000000000000000000000000000000000000000000000000000831415610df95760405162461bcd60e51b815260206004820152601060248201526f37b7363c9037ba3432b91031b430b4b760811b60448201526064016106ed565b3480610e395760405162461bcd60e51b815260206004820152600f60248201526e62616c616e6365206973207a65726f60881b60448201526064016106ed565b600360009054906101000a90046001600160a01b03166001600160a01b031663d0e30db0826040518263ffffffff1660e01b81526004016000604051808303818588803b158015610e8957600080fd5b505af1158015610e9d573d6000803e3d6000fd5b50505050506000610eaf3387876122fe565b60035490915085907f0000000000000000000000000000000000000000000000000000000000000000907f44ff77018688dad4b245e8ab97358ed57ed92269952ece7ffd321366ce078622908490610f0f906001600160a01b031661236f565b610f183361236f565b8b88610f24600061236f565b604051610c1d96959493929190614bf8565b610f3e61219b565b6001600160a01b0316336001600160a01b031614610f6e5760405162461bcd60e51b81526004016106ed90614d8a565b806001600160a01b038116610f955760405162461bcd60e51b81526004016106ed90614d37565b50600680546001600160a01b0319166001600160a01b0392909216919091179055565b600154610100900460ff16610fd35760015460ff1615610fd7565b303b155b61103a5760405162461bcd60e51b815260206004820152602e60248201527f496e697469616c697a61626c653a20636f6e747261637420697320616c72656160448201526d191e481a5b9a5d1a585b1a5e995960921b60648201526084016106ed565b600154610100900460ff1615801561105c576001805461ffff19166101011790555b826001600160a01b0381166110835760405162461bcd60e51b81526004016106ed90614d37565b826001600160a01b0381166110aa5760405162461bcd60e51b81526004016106ed90614d37565b600380546001600160a01b038088166001600160a01b03199283161790925560068054928716929091169190911790556110e333612594565b505080156110f7576001805461ff00191690555b505050565b306001600160a01b037f00000000000000000000000000000000000000000000000000000000000000001614156111455760405162461bcd60e51b81526004016106ed90614c71565b7f00000000000000000000000000000000000000000000000000000000000000006001600160a01b03166111776123a5565b6001600160a01b03161461119d5760405162461bcd60e51b81526004016106ed90614ceb565b6111a6826123cd565b61075e82826001612449565b6111ba61219b565b6001600160a01b0316336001600160a01b0316146111ea5760405162461bcd60e51b81526004016106ed90614d8a565b806001600160a01b0381166112115760405162461bcd60e51b81526004016106ed90614d37565b50600a80546001600160a01b0319166001600160a01b0392909216919091179055565b61123c61219b565b6001600160a01b0316336001600160a01b03161461126c5760405162461bcd60e51b81526004016106ed90614d8a565b60009182526009602090815260408084206001600160a01b03959095168452939052919020805460ff1916911515919091179055565b6112aa61219b565b6001600160a01b0316336001600160a01b0316146112da5760405162461bcd60e51b81526004016106ed90614d8a565b806001600160a01b0381166113015760405162461bcd60e51b81526004016106ed90614d37565b50600480546001600160a01b0319166001600160a01b0392909216919091179055600555565b6002600054141561134a5760405162461bcd60e51b81526004016106ed90614db5565b600260005560015462010000900460ff16156113785760405162461bcd60e51b81526004016106ed90614d60565b60035460008481526009602090815260408083206001600160a01b0390941680845293909152902054849060ff166113c25760405162461bcd60e51b81526004016106ed90614cbd565b7f000000000000000000000000000000000000000000000000000000000000000085141561142e5760405162461bcd60e51b815260206004820152601960248201527821b0b73737ba1039bbb0b8103a379039b2b6331031b430b4b760391b60448201526064016106ed565b34806114745760405162461bcd60e51b815260206004820152601560248201527453656e64696e672076616c7565206973207a65726f60581b60448201526064016106ed565b600360009054906101000a90046001600160a01b03166001600160a01b031663d0e30db0826040518263ffffffff1660e01b81526004016000604051808303818588803b1580156114c457600080fd5b505af11580156114d8573d6000803e3d6000fd5b505050505060006114ea3389896122fe565b60035490915087907f0000000000000000000000000000000000000000000000000000000000000000907fca1cf8cebf88499429cca8f87cbca15ab8dafd06702259a5344ddce89ef3f3a590849061154a906001600160a01b031661236f565b6115533361236f565b8d888d8d60405161156a9796959493929190614b7a565b60405180910390a350506001600055505050505050565b600061158b61219b565b905090565b61159861219b565b6001600160a01b0316336001600160a01b0316146115c85760405162461bcd60e51b81526004016106ed90614d8a565b6115d06125e8565b565b6115da61219b565b6001600160a01b0316336001600160a01b03161461160a5760405162461bcd60e51b81526004016106ed90614d8a565b806001600160a01b0381166116315760405162461bcd60e51b81526004016106ed90614d37565b61075e82612594565b6002600054141561165d5760405162461bcd60e51b81526004016106ed90614db5565b600260005560015462010000900460ff161561168b5760405162461bcd60e51b81526004016106ed90614d60565b60008181526009602090815260408083206001600160a01b03881684529091529020548490829060ff166116d15760405162461bcd60e51b81526004016106ed90614cbd565b7f00000000000000000000000000000000000000000000000000000000000000008314156117345760405162461bcd60e51b815260206004820152601060248201526f37b7363c9037ba3432b91031b430b4b760811b60448201526064016106ed565b6040516370a0823160e01b815233600482015284906001600160a01b038816906370a082319060240160206040518083038186803b15801561177557600080fd5b505afa158015611789573d6000803e3d6000fd5b505050506040513d601f19601f820116820180604052508101906117ad91906147c7565b10156117ed5760405162461bcd60e51b815260206004820152600f60248201526e62616c616e636520746f6f206c6f7760881b60448201526064016106ed565b6117f686610762565b156118605760405163079cc67960e41b8152336004820152602481018590526001600160a01b038716906379cc679090604401600060405180830381600087803b15801561184357600080fd5b505af1158015611857573d6000803e3d6000fd5b5050505061186c565b61186c863330876121ce565b60006118793387866122fe565b9050837f00000000000000000000000000000000000000000000000000000000000000007f44ff77018688dad4b245e8ab97358ed57ed92269952ece7ffd321366ce078622836118c88b61236f565b6118d13361236f565b8b8b6118dd600061236f565b6040516118ef96959493929190614bf8565b60405180910390a3505060016000555050505050565b600061158b6123a5565b61191761219b565b6001600160a01b0316336001600160a01b0316146119475760405162461bcd60e51b81526004016106ed90614d8a565b60005b815181101561075e5760016008600084848151811061196b5761196b61515e565b6020908102919091018101516001600160a01b03168252810191909152604001600020805460ff1916911515919091179055806119a78161512d565b91505061194a565b600260005414156119d25760405162461bcd60e51b81526004016106ed90614db5565b600260005560015462010000900460ff1615611a005760405162461bcd60e51b81526004016106ed90614d60565b6005548214611a445760405162461bcd60e51b815260206004820152601060248201526f1a5b9d985b1a590818da185a5b881a5960821b60448201526064016106ed565b60065460405163016dc52760e41b8152600091829182916001600160a01b0316906316dc527090611a79908790600401614c5e565b600060405180830381600087803b158015611a9357600080fd5b505af1158015611aa7573d6000803e3d6000fd5b505050506040513d6000823e601f3d908101601f19168201604052611acf9190810190614721565b925092509250828290611af55760405162461bcd60e51b81526004016106ed9190614c5e565b506000611b0182612683565b905060005b8151811015611bff576000828281518110611b2357611b2361515e565b6020026020010151905060008160200151600081518110611b4657611b4661515e565b6020026020010151806020019051810190611b6191906147c7565b90506040518060800160405280604781526020016151ae604791398051906020012081148015611ba0575081516004546001600160a01b039081169116145b15611bea576000611bb083612913565b91505080608001517f00000000000000000000000000000000000000000000000000000000000000001415611be857611be881612a17565b505b50508080611bf79061512d565b915050611b06565b5060405133907f00000000000000000000000000000000000000000000000000000000000000009088907f8c991a6f7ef9e9e8c0cc7f34d5ce0b20ff23538ec4d944e9d065b833982fc78390600090a45050600160005550505050565b60026000541415611c7f5760405162461bcd60e51b81526004016106ed90614db5565b600260005560015462010000900460ff1615611cad5760405162461bcd60e51b81526004016106ed90614d60565b6005548214611cf15760405162461bcd60e51b815260206004820152601060248201526f1a5b9d985b1a590818da185a5b881a5960821b60448201526064016106ed565b60065460405163016dc52760e41b8152600091829182916001600160a01b0316906316dc527090611d26908790600401614c5e565b600060405180830381600087803b158015611d4057600080fd5b505af1158015611d54573d6000803e3d6000fd5b505050506040513d6000823e601f3d908101601f19168201604052611d7c9190810190614721565b925092509250828290611da25760405162461bcd60e51b81526004016106ed9190614c5e565b506000611dae82612683565b905060005b8151811015611eac576000828281518110611dd057611dd061515e565b6020026020010151905060008160200151600081518110611df357611df361515e565b6020026020010151806020019051810190611e0e91906147c7565b905060405180608001604052806043815260200161521c604391398051906020012081148015611e4d575081516004546001600160a01b039081169116145b15611e97576000611e5d83612bc2565b91505080602001517f00000000000000000000000000000000000000000000000000000000000000001415611e9557611e9581612cc9565b505b50508080611ea49061512d565b915050611db3565b5060405133907f00000000000000000000000000000000000000000000000000000000000000009088907f8131e5b107f7021b0773c1108755872d7b94bb31532fdf2256e0a3ef2c890a3d90600090a45050600160005550505050565b611f1161219b565b6001600160a01b0316336001600160a01b031614611f415760405162461bcd60e51b81526004016106ed90614d8a565b6115d06130d4565b611f5161219b565b6001600160a01b0316336001600160a01b031614611f815760405162461bcd60e51b81526004016106ed90614d8a565b816001600160a01b038116611fa85760405162461bcd60e51b81526004016106ed90614d37565b6003546001600160a01b0385811691161415611fe357600354611fd4906001600160a01b031683613136565b611fde838361324c565b612006565b6001600160a01b038416611ffb57611fde838361324c565b612006848484613315565b50505050565b6002600054141561202f5760405162461bcd60e51b81526004016106ed90614db5565b600260005560015462010000900460ff161561205d5760405162461bcd60e51b81526004016106ed90614d60565b60055460008181526009602090815260408083206001600160a01b038816845290915290205484919060ff166120a55760405162461bcd60e51b81526004016106ed90614cbd565b336120af86610762565b1561211b5760405163079cc67960e41b81526001600160a01b038281166004830152602482018690528716906379cc679090604401600060405180830381600087803b1580156120fe57600080fd5b505af1158015612112573d6000803e3d6000fd5b50505050612127565b612127868230876121ce565b600061213682610b378861236f565b90506005547f00000000000000000000000000000000000000000000000000000000000000007fb7100086a8e13ebae772a0f09b07046e389a6b036406d22b86f2d2e5b860a8d9838a6121888761236f565b8b8b6040516118ef959493929190614b3f565b60007fb53127684a568b3173ae13b9f8a6016e243e63b6e8ee1178d6a717850b5d61035b546001600160a01b0316919050565b604080516001600160a01b0385811660248301528481166044830152606480830185905283518084039091018152608490920183526020820180516001600160e01b03166323b872dd60e01b17905291516000928392908816916122329190614aef565b6000604051808303816000865af19150503d806000811461226f576040519150601f19603f3d011682016040523d82523d6000602084013e612274565b606091505b509150915081801561229e57508051158061229e57508080602001905181019061229e9190614704565b6122f65760405162461bcd60e51b8152602060048201526024808201527f5472616e7366657248656c7065723a205452414e534645525f46524f4d5f46416044820152631253115160e21b60648201526084016106ed565b505050505050565b60028054600091309190836123128361512d565b919050557f000000000000000000000000000000000000000000000000000000000000000084878760405160200161234f96959493929190614a94565b6040516020818303038152906040528051906020012090505b9392505050565b604051606082811b6bffffffffffffffffffffffff19166020830152906034016040516020818303038152906040529050919050565b60007f360894a13ba1a3210667c828492db98dca3e2076cc3735a920a3ca505d382bbc6121bf565b6123d561219b565b6001600160a01b0316336001600160a01b031614610cf85760405162461bcd60e51b815260206004820152602b60248201527f4d41504f6d6e69636861696e536572766963653a206f6e6c792041646d696e2060448201526a63616e207570677261646560a81b60648201526084016106ed565b60006124536123a5565b905061245e84613429565b60008351118061246b5750815b1561247c5761247a84846134d1565b505b7f4910fdfa16fed3260ed0e7147f7cc6da11a60208b5b9406d12a635614ffd9143805460ff1661258d57805460ff191660011781556040516001600160a01b03831660248201526124fb90869060440160408051601f198184030181529190526020810180516001600160e01b0316631b2ce7f360e11b1790526134d1565b50805460ff1916815561250c6123a5565b6001600160a01b0316826001600160a01b0316146125845760405162461bcd60e51b815260206004820152602f60248201527f45524331393637557067726164653a207570677261646520627265616b73206660448201526e75727468657220757067726164657360881b60648201526084016106ed565b61258d856134f6565b5050505050565b7f7e644d79422f17c01e4894b5f4f588d331ebfa28653d42ae832dc59e38c9798f6125bd61219b565b604080516001600160a01b03928316815291841660208301520160405180910390a1610cf881613536565b60015462010000900460ff166126375760405162461bcd60e51b815260206004820152601460248201527314185d5cd8589b194e881b9bdd081c185d5cd95960621b60448201526064016106ed565b6001805462ff0000191690557f5db9ee0a495bf2e6ff9c91a7834c1ba4fdd244a5e8aa4e537bd38aeae4b073aa335b6040516001600160a01b03909116815260200160405180910390a1565b606060006126c06126bb8460408051808201825260008082526020918201528151808301909252825182529182019181019190915290565b6135c2565b905080516001600160401b038111156126db576126db615174565b60405190808252806020026020018201604052801561273957816020015b612726604051806060016040528060006001600160a01b0316815260200160608152602001606081525090565b8152602001906001900390816126f95790505b50915060005b815181101561290c57600061276c83838151811061275f5761275f61515e565b60200260200101516135c2565b90506003815110156127b45760405162461bcd60e51b81526020600482015260116024820152706c6f67206c656e67746820746f206c6f7760781b60448201526064016106ed565b60006127cc8260018151811061275f5761275f61515e565b9050600081516001600160401b038111156127e9576127e9615174565b60405190808252806020026020018201604052801561281c57816020015b60608152602001906001900390816128075790505b50905060005b825181101561287d5761284d8382815181106128405761284061515e565b6020026020010151613709565b82828151811061285f5761285f61515e565b602002602001018190525080806128759061512d565b915050612822565b5060405180606001604052806128ac8560008151811061289f5761289f61515e565b60200260200101516137bc565b6001600160a01b031681526020018281526020016128d6856002815181106128405761284061515e565b8152508685815181106128eb576128eb61515e565b602002602001018190525050505080806129049061512d565b91505061273f565b5050919050565b606061296060405180610100016040528060608152602001606081526020016000801916815260200160008152602001600081526020016060815260200160008152602001606081525090565b825161296b9061236f565b915082602001516001815181106129845761298461515e565b602002602001015180602001905181019061299f91906147c7565b60608201526020830151805160029081106129bc576129bc61515e565b60200260200101518060200190518101906129d791906147c7565b6080820152604083015180516129f5916020918101820191016147e0565b60e087015260c086015260a08501526020840152825260408201529092909150565b60408082015160008181526007602052919091205460ff1615612a6a5760405162461bcd60e51b815260206004820152600b60248201526a1bdc99195c88195e1a5cdd60aa1b60448201526064016106ed565b6000818152600760205260408120805460ff1916600117905560e0830151612a93906014015190565b90506000612aa68460a001516014015190565b60c0850151600354919250906001600160a01b0384811691161415612aea57600354612adb906001600160a01b031682613136565b612ae5828261324c565b612b6a565b612af383610762565b15612b5f576040516340c10f1960e01b81526001600160a01b038381166004830152602482018390528416906340c10f1990604401600060405180830381600087803b158015612b4257600080fd5b505af1158015612b56573d6000803e3d6000fd5b50505050612b6a565b612b6a838383613315565b846080015185606001517f3790accbe9ce42658f962f7e7cfa0e6ae7acbb46014c6e01e1219a087816137587604001518689602001518787604051612bb3959493929190614b3f565b60405180910390a35050505050565b6060612c0f60405180610100016040528060008152602001600081526020016000801916815260200160608152602001606081526020016060815260200160008152602001606081525090565b8251612c1a9061236f565b91508260200151600181518110612c3357612c3361515e565b6020026020010151806020019051810190612c4e91906147c7565b8152602083015180516002908110612c6857612c6861515e565b6020026020010151806020019051810190612c8391906147c7565b8160200181815250508260400151806020019051810190612ca491906147e0565b60e087015260c086015260a08501526080840152606083015260408201529092909150565b60408082015160008181526007602052919091205460ff1615612d1c5760405162461bcd60e51b815260206004820152600b60248201526a1bdc99195c88195e1a5cdd60aa1b60448201526064016106ed565b6000818152600760205260408120805460ff191660011790556060830151612d45906014015190565b9050612d746040518060600160405280606081526020016060815260200160006001600160a01b031681525090565b8360e00151806020019051810190612d8c91906145b1565b6001600160a01b0316604084015260208301819052908252601401516000612db98660a001516014015190565b60c087015184518051929350909115612f9857612dd586610762565b15612e3b576040516340c10f1960e01b8152306004820152602481018390526001600160a01b038716906340c10f1990604401600060405180830381600087803b158015612e2257600080fd5b505af1158015612e36573d6000803e3d6000fd5b505050505b6000612e468261380e565b90506000612e5b8885848d60a001518b61385e565b600a54909150612e769089906001600160a01b031686613ba3565b600a546040516000916001600160a01b031690612e97908490602401614dec565b60408051601f198184030181529181526020820180516001600160e01b0316630856506160e31b17905251612ecc9190614aef565b6000604051808303816000865af19150503d8060008114612f09576040519150601f19603f3d011682016040523d82523d6000602084013e612f0e565b606091505b505090508015612f91578a604001517f00000000000000000000000000000000000000000000000000000000000000008c600001517f2a945137b011d4aadec6425788c652197d107fc33f6cdccbb0c269273be9c1c98a8f608001518b8b604051612f7c9493929190614b0b565b60405180910390a45050505050505050505050565b8896505050505b6003546001600160a01b0385811691161415612fd357600354612fc4906001600160a01b031683613136565b612fce838361324c565b61305e565b612fdc84610762565b8015612fe757508051155b15613053576040516340c10f1960e01b81526001600160a01b038481166004830152602482018490528516906340c10f1990604401600060405180830381600087803b15801561303657600080fd5b505af115801561304a573d6000803e3d6000fd5b5050505061305e565b61305e848484613315565b87604001517f000000000000000000000000000000000000000000000000000000000000000089600001517f2a945137b011d4aadec6425788c652197d107fc33f6cdccbb0c269273be9c1c9878c6080015188886040516130c29493929190614b0b565b60405180910390a45050505050505050565b60015462010000900460ff16156130fd5760405162461bcd60e51b81526004016106ed90614d60565b6001805462ff00001916620100001790557f62e78cea01bee320cd4e420270b5ea74000d11b0c9f74754ebdbfc544b05a2586126663390565b600080836001600160a01b0316632e1a7d4d8460405160240161315b91815260200190565b6040516020818303038152906040529060e01b6020820180516001600160e01b0383818316178352505050506040516131949190614aef565b6000604051808303816000865af19150503d80600081146131d1576040519150601f19603f3d011682016040523d82523d6000602084013e6131d6565b606091505b50915091508180156132005750805115806132005750808060200190518101906132009190614704565b6120065760405162461bcd60e51b815260206004820152601f60248201527f5472616e7366657248656c7065723a2057495448445241575f4641494c45440060448201526064016106ed565b604080516000808252602082019092526001600160a01b0384169083906040516132769190614aef565b60006040518083038185875af1925050503d80600081146132b3576040519150601f19603f3d011682016040523d82523d6000602084013e6132b8565b606091505b50509050806110f75760405162461bcd60e51b815260206004820152602360248201527f5472616e7366657248656c7065723a204554485f5452414e534645525f46414960448201526213115160ea1b60648201526084016106ed565b604080516001600160a01b038481166024830152604480830185905283518084039091018152606490920183526020820180516001600160e01b031663a9059cbb60e01b17905291516000928392908716916133719190614aef565b6000604051808303816000865af19150503d80600081146133ae576040519150601f19603f3d011682016040523d82523d6000602084013e6133b3565b606091505b50915091508180156133dd5750805115806133dd5750808060200190518101906133dd9190614704565b61258d5760405162461bcd60e51b815260206004820152601f60248201527f5472616e7366657248656c7065723a205452414e534645525f4641494c45440060448201526064016106ed565b803b61348d5760405162461bcd60e51b815260206004820152602d60248201527f455243313936373a206e657720696d706c656d656e746174696f6e206973206e60448201526c1bdd08184818dbdb9d1c9858dd609a1b60648201526084016106ed565b807f360894a13ba1a3210667c828492db98dca3e2076cc3735a920a3ca505d382bbc5b80546001600160a01b0319166001600160a01b039290921691909117905550565b606061236883836040518060600160405280602781526020016151f560279139613cb7565b6134ff81613429565b6040516001600160a01b038216907fbc7cd75a20ee27fd9adebab32041f755214dbc6bffa90cc0225b39da2e5c2d3b90600090a250565b6001600160a01b03811661359b5760405162461bcd60e51b815260206004820152602660248201527f455243313936373a206e65772061646d696e20697320746865207a65726f206160448201526564647265737360d01b60648201526084016106ed565b807fb53127684a568b3173ae13b9f8a6016e243e63b6e8ee1178d6a717850b5d61036134b0565b60606135cd82613d8b565b6136085760405162461bcd60e51b815260206004820152600c60248201526b1a5cc81b1a5cdd0819985a5b60a21b60448201526064016106ed565b600061361383613dc4565b90506000816001600160401b0381111561362f5761362f615174565b60405190808252806020026020018201604052801561367457816020015b604080518082019091526000808252602082015281526020019060019003908161364d5790505b50905060006136868560200151613e47565b85602001516136959190614fc4565b90506000805b848110156136fe576136ac83613ec2565b91506040518060400160405280838152602001848152508482815181106136d5576136d561515e565b60209081029190910101526136ea8284614fc4565b9250806136f68161512d565b91505061369b565b509195945050505050565b805160609061374d5760405162461bcd60e51b815260206004820152601060248201526f6974656d206c656e206973207a65726f60801b60448201526064016106ed565b60008061375984613f6b565b915091506000816001600160401b0381111561377757613777615174565b6040519080825280601f01601f1916602001820160405280156137a1576020820181803683370190505b509050602081016137b3848285613fb2565b50949350505050565b80516000906015146138055760405162461bcd60e51b81526020600482015260126024820152716974656d206c656e206973206e6f7420323160701b60448201526064016106ed565b6107a782614031565b6000805b82518110156138585782818151811061382d5761382d61515e565b602002602001015160000151826138449190614fc4565b9150806138508161512d565b915050613812565b50919050565b6138666140f2565b815180516000906001600160401b0381111561388457613884615174565b6040519080825280602002602001820160405280156138ad578160200160208202803683370190505b509050600082516001600160401b038111156138cb576138cb615174565b6040519080825280602002602001820160405280156138fe57816020015b60608152602001906001900390816138e95790505b509050600083516001600160401b0381111561391c5761391c615174565b604051908082528060200260200182016040528015613945578160200160208202803683370190505b50905087891061398c57613959888a6150c7565b8460008151811061396c5761396c61515e565b60200260200101516000018181516139849190614fc4565b9052506139c5565b61399689896150c7565b846000815181106139a9576139a961515e565b60200260200101516000018181516139c191906150c7565b9052505b60005b8451811015613b35578481815181106139e3576139e361515e565b602002602001015160000151848281518110613a0157613a0161515e565b602002602001018181525050848181518110613a1f57613a1f61515e565b602002602001015160600151828281518110613a3d57613a3d61515e565b602002602001019063ffffffff16908163ffffffff1681525050838181518110613a6957613a6961515e565b6020026020010151858281518110613a8357613a8361515e565b602002602001015160200151868381518110613aa157613aa161515e565b602002602001015160400151806020019051810190613ac0919061451d565b60148b0151613ad0426064614fc4565b8f613ae08d602001516014015190565b604051602001613af69796959493929190614e8c565b604051602081830303815290604052838281518110613b1757613b1761515e565b60200260200101819052508080613b2d9061512d565b9150506139c8565b506000604051806080016040528085815260200184815260200183815260200160405180604001604052808e6001600160a01b03166001600160a01b03168152602001613b878b602001516014015190565b6001600160a01b0316905290529b9a5050505050505050505050565b604080516001600160a01b038481166024830152604480830185905283518084039091018152606490920183526020820180516001600160e01b031663095ea7b360e01b1790529151600092839290871691613bff9190614aef565b6000604051808303816000865af19150503d8060008114613c3c576040519150601f19603f3d011682016040523d82523d6000602084013e613c41565b606091505b5091509150818015613c6b575080511580613c6b575080806020019051810190613c6b9190614704565b61258d5760405162461bcd60e51b815260206004820152601e60248201527f5472616e7366657248656c7065723a20415050524f56455f4641494c4544000060448201526064016106ed565b6060833b613d165760405162461bcd60e51b815260206004820152602660248201527f416464726573733a2064656c65676174652063616c6c20746f206e6f6e2d636f6044820152651b9d1c9858dd60d21b60648201526084016106ed565b600080856001600160a01b031685604051613d319190614aef565b600060405180830381855af49150503d8060008114613d6c576040519150601f19603f3d011682016040523d82523d6000602084013e613d71565b606091505b5091509150613d818282866140b9565b9695505050505050565b8051600090613d9c57506000919050565b6020820151805160001a9060c0821015613dba575060009392505050565b5060019392505050565b8051600090613dd557506000919050565b600080613de58460200151613e47565b8460200151613df49190614fc4565b9050600084600001518560200151613e0c9190614fc4565b90505b80821015613e3e57613e2082613ec2565b613e2a9083614fc4565b915082613e368161512d565b935050613e0f565b50909392505050565b8051600090811a6080811015613e605750600092915050565b60b8811080613e7b575060c08110801590613e7b575060f881105b15613e895750600192915050565b60c0811015613eb657613e9e600160b86150de565b613eab9060ff16826150c7565b612368906001614fc4565b613e9e600160f86150de565b80516000908190811a6080811015613edd5760019150613f64565b60b8811015613f0357613ef16080826150c7565b613efc906001614fc4565b9150613f64565b60c0811015613f305760b78103600185019450806020036101000a85510460018201810193505050613f64565b60f8811015613f4457613ef160c0826150c7565b60f78103600185019450806020036101000a855104600182018101935050505b5092915050565b6000806000613f7d8460200151613e47565b90506000818560200151613f919190614fc4565b90506000828660000151613fa591906150c7565b9196919550909350505050565b80613fbc57505050565b60208110613ff45782518252613fd3602084614fc4565b9250613fe0602083614fc4565b9150613fed6020826150c7565b9050613fbc565b80156110f757600060016140098360206150c7565b6140159061010061501f565b61401f91906150c7565b84518451821691191617835250505050565b80516000901580159061404657508151602110155b6140895760405162461bcd60e51b81526020600482015260146024820152731a5d195b481b195b881a5cc81b9bdd081d5a5b9d60621b60448201526064016106ed565b60008061409584613f6b565b8151919350915060208210156140b15760208290036101000a90045b949350505050565b606083156140c8575081612368565b8251156140d85782518084602001fd5b8160405162461bcd60e51b81526004016106ed9190614c5e565b604051806080016040528060608152602001606081526020016060815260200161411a61411f565b905290565b60405180604001604052806002906020820280368337509192915050565b600061415061414b84614f9d565b614f4a565b905082815283838301111561416457600080fd5b612368836020830184615101565b805161417d8161518a565b919050565b60008083601f84011261419457600080fd5b5081356001600160401b038111156141ab57600080fd5b6020830191508360208285010111156141c357600080fd5b9250929050565b600082601f8301126141db57600080fd5b81356141e961414b82614f9d565b8181528460208386010111156141fe57600080fd5b816020850160208301376000918101602001919091529392505050565b600082601f83011261422c57600080fd5b6123688383516020850161413d565b60006020828403121561424d57600080fd5b81356123688161518a565b6000806040838503121561426b57600080fd5b82356142768161518a565b915060208301356142868161518a565b809150509250929050565b6000806000606084860312156142a657600080fd5b83356142b18161518a565b925060208401356142c18161518a565b929592945050506040919091013590565b600080604083850312156142e557600080fd5b82356142f08161518a565b915060208301356001600160401b0381111561430b57600080fd5b614317858286016141ca565b9150509250929050565b6000806000806080858703121561433757600080fd5b84356143428161518a565b935060208501356001600160401b0381111561435d57600080fd5b614369878288016141ca565b949794965050505060408301359260600135919050565b60008060008060008060a0878903121561439957600080fd5b86356143a48161518a565b955060208701356001600160401b03808211156143c057600080fd5b6143cc8a838b016141ca565b9650604089013595506060890135945060808901359150808211156143f057600080fd5b506143fd89828a01614182565b979a9699509497509295939492505050565b6000806040838503121561442257600080fd5b823561442d8161518a565b946020939093013593505050565b60008060006060848603121561445057600080fd5b833561445b8161518a565b92506020840135915060408401356144728161519f565b809150509250925092565b6000602080838503121561449057600080fd5b82356001600160401b038111156144a657600080fd5b8301601f810185136144b757600080fd5b80356144c561414b82614f7a565b80828252848201915084840188868560051b87010111156144e557600080fd5b600094505b838510156145115780356144fd8161518a565b8352600194909401939185019185016144ea565b50979650505050505050565b6000602080838503121561453057600080fd5b82516001600160401b0381111561454657600080fd5b8301601f8101851361455757600080fd5b805161456561414b82614f7a565b80828252848201915084840188868560051b870101111561458557600080fd5b600094505b8385101561451157805161459d8161518a565b83526001949094019391850191850161458a565b6000806000606084860312156145c657600080fd5b83516001600160401b03808211156145dd57600080fd5b818601915086601f8301126145f157600080fd5b81516145ff61414b82614f7a565b80828252602082019150602085018a60208560051b880101111561462257600080fd5b60005b848110156146c45781518681111561463c57600080fd5b87016080818e03601f1901121561465257600080fd5b61465a614f22565b602082015181526040820151602082015260608201518881111561467d57600080fd5b61468c8f60208386010161421b565b6040830152506080820151915087821682146146a757600080fd5b606081019190915284526020938401939190910190600101614625565b5050602089015190975093505050808211156146df57600080fd5b506146ec8682870161421b565b9250506146fb60408501614172565b90509250925092565b60006020828403121561471657600080fd5b81516123688161519f565b60008060006060848603121561473657600080fd5b83516147418161519f565b60208501519093506001600160401b038082111561475e57600080fd5b818601915086601f83011261477257600080fd5b6147818783516020850161413d565b9350604086015191508082111561479757600080fd5b506147a48682870161421b565b9150509250925092565b6000602082840312156147c057600080fd5b5035919050565b6000602082840312156147d957600080fd5b5051919050565b60008060008060008060c087890312156147f957600080fd5b8651955060208701516001600160401b038082111561481757600080fd5b6148238a838b0161421b565b9650604089015191508082111561483957600080fd5b6148458a838b0161421b565b9550606089015191508082111561485b57600080fd5b6148678a838b0161421b565b94506080890151935060a089015191508082111561488457600080fd5b5061489189828a0161421b565b9150509295509295509295565b600080604083850312156148b157600080fd5b82356001600160401b038111156148c757600080fd5b6148d3858286016141ca565b95602094909401359450505050565b600080600080606085870312156148f857600080fd5b84356001600160401b038082111561490f57600080fd5b61491b888389016141ca565b955060208701359450604087013591508082111561493857600080fd5b5061494587828801614182565b95989497509550505050565b6000806040838503121561496457600080fd5b8235915060208301356142868161518a565b6000806040838503121561498957600080fd5b8235915060208301356001600160401b0381111561430b57600080fd5b8060005b60028110156120065781516001600160a01b03168452602093840193909101906001016149aa565b600081518084526020808501808196508360051b8101915082860160005b85811015614a1a578284038952614a08848351614a68565b988501989350908401906001016149f0565b5091979650505050505050565b600081518084526020808501945080840160005b83811015614a5d57815163ffffffff1687529582019590820190600101614a3b565b509495945050505050565b60008151808452614a80816020860160208601615101565b601f01601f19169290920160200192915050565b60006bffffffffffffffffffffffff19808960601b168352876014840152866034840152856054840152808560601b166074840152508251614add816088850160208701615101565b91909101608801979650505050505050565b60008251614b01818460208701615101565b9190910192915050565b600060018060a01b03808716835260806020840152614b2d6080840187614a68565b94166040830152506060015292915050565b858152600060018060a01b03808716602084015260a06040840152614b6760a0840187614a68565b9416606083015250608001529392505050565b87815260c060208201526000614b9360c0830189614a68565b8281036040840152614ba58189614a68565b90508281036060840152614bb98188614a68565b905085608084015282810360a0840152838152838560208301376000602085830101526020601f19601f86011682010191505098975050505050505050565b86815260c060208201526000614c1160c0830188614a68565b8281036040840152614c238188614a68565b90508281036060840152614c378187614a68565b905084608084015282810360a0840152614c518185614a68565b9998505050505050505050565b6020815260006123686020830184614a68565b6020808252602c908201527f46756e6374696f6e206d7573742062652063616c6c6564207468726f7567682060408201526b19195b1959d85d1958d85b1b60a21b606082015260800190565b6020808252601490820152731d1bdad95b881b9bdd081c9959da5cdd195c995960621b604082015260600190565b6020808252602c908201527f46756e6374696f6e206d7573742062652063616c6c6564207468726f7567682060408201526b6163746976652070726f787960a01b606082015260800190565b6020808252600f908201526e61646472657373206973207a65726f60881b604082015260600190565b60208082526010908201526f14185d5cd8589b194e881c185d5cd95960821b604082015260600190565b60208082526011908201527036b7b9901d1d1037b7363c9030b236b4b760791b604082015260600190565b6020808252601f908201527f5265656e7472616e637947756172643a207265656e7472616e742063616c6c00604082015260600190565b6020808252825160a083830152805160c0840181905260009291820190839060e08601905b80831015614e315783518252928401926001929092019190840190614e11565b50838701519350601f19925082868203016040870152614e5181856149d2565b93505050604085015181858403016060860152614e6e8382614a27565b925050506060840151614e8460808501826149a6565b509392505050565b600060e082018983526020898185015260e0604085015281895180845261010086019150828b01935060005b81811015614edd5784516001600160a01b031683529383019391830191600101614eb8565b50506001600160a01b03898116606087015260808601899052871660a08601529250614f07915050565b6001600160a01b03831660c083015298975050505050505050565b604051608081016001600160401b0381118282101715614f4457614f44615174565b60405290565b604051601f8201601f191681016001600160401b0381118282101715614f7257614f72615174565b604052919050565b60006001600160401b03821115614f9357614f93615174565b5060051b60200190565b60006001600160401b03821115614fb657614fb6615174565b50601f01601f191660200190565b60008219821115614fd757614fd7615148565b500190565b600181815b80851115615017578160001904821115614ffd57614ffd615148565b8085161561500a57918102915b93841c9390800290614fe1565b509250929050565b60006123688383600082615035575060016107a7565b81615042575060006107a7565b816001811461505857600281146150625761507e565b60019150506107a7565b60ff84111561507357615073615148565b50506001821b6107a7565b5060208310610133831016604e8410600b84101617156150a1575081810a6107a7565b6150ab8383614fdc565b80600019048211156150bf576150bf615148565b029392505050565b6000828210156150d9576150d9615148565b500390565b600060ff821660ff8416808210156150f8576150f8615148565b90039392505050565b60005b8381101561511c578181015183820152602001615104565b838111156120065750506000910152565b600060001982141561514157615141615148565b5060010190565b634e487b7160e01b600052601160045260246000fd5b634e487b7160e01b600052603260045260246000fd5b634e487b7160e01b600052604160045260246000fd5b6001600160a01b0381168114610cf857600080fd5b8015158114610cf857600080fdfe6d61705472616e736665724f75742875696e743235362c75696e743235362c627974657333322c62797465732c62797465732c62797465732c75696e743235362c627974657329416464726573733a206c6f772d6c6576656c2064656c65676174652063616c6c206661696c65646d6170537761704f75742875696e743235362c75696e743235362c627974657333322c62797465732c62797465732c62797465732c75696e743235362c627974657329a2646970667358221220ee78e2c88496cb663867fa7bb8f682f1348d4031a4c96fae1f15f4d261e2a9cd64736f6c63430008070033",
  "devdoc": {
    "kind": "dev",
    "methods": {
      "paused()": {
        "details": "Returns true if the contract is paused, and false otherwise."
      },
      "upgradeTo(address)": {
        "details": "Upgrade the implementation of the proxy to `newImplementation`. Calls {_authorizeUpgrade}. Emits an {Upgraded} event."
      },
      "upgradeToAndCall(address,bytes)": {
        "details": "Upgrade the implementation of the proxy to `newImplementation`, and subsequently execute the function call encoded in `data`. Calls {_authorizeUpgrade}. Emits an {Upgraded} event."
      }
    },
    "version": 1
  },
  "userdoc": {
    "kind": "user",
    "methods": {},
    "version": 1
  },
  "storageLayout": {
    "storage": [
      {
        "astId": 1003,
        "contract": "contracts/MAPOmnichainServiceV2.sol:MAPOmnichainServiceV2",
        "label": "_status",
        "offset": 0,
        "slot": "0",
        "type": "t_uint256"
      },
      {
        "astId": 747,
        "contract": "contracts/MAPOmnichainServiceV2.sol:MAPOmnichainServiceV2",
        "label": "_initialized",
        "offset": 0,
        "slot": "1",
        "type": "t_bool"
      },
      {
        "astId": 750,
        "contract": "contracts/MAPOmnichainServiceV2.sol:MAPOmnichainServiceV2",
        "label": "_initializing",
        "offset": 1,
        "slot": "1",
        "type": "t_bool"
      },
      {
        "astId": 918,
        "contract": "contracts/MAPOmnichainServiceV2.sol:MAPOmnichainServiceV2",
        "label": "_paused",
        "offset": 2,
        "slot": "1",
        "type": "t_bool"
      },
      {
        "astId": 5136,
        "contract": "contracts/MAPOmnichainServiceV2.sol:MAPOmnichainServiceV2",
        "label": "nonce",
        "offset": 0,
        "slot": "2",
        "type": "t_uint256"
      },
      {
        "astId": 5138,
        "contract": "contracts/MAPOmnichainServiceV2.sol:MAPOmnichainServiceV2",
        "label": "wToken",
        "offset": 0,
        "slot": "3",
        "type": "t_address"
      },
      {
        "astId": 5140,
        "contract": "contracts/MAPOmnichainServiceV2.sol:MAPOmnichainServiceV2",
        "label": "relayContract",
        "offset": 0,
        "slot": "4",
        "type": "t_address"
      },
      {
        "astId": 5142,
        "contract": "contracts/MAPOmnichainServiceV2.sol:MAPOmnichainServiceV2",
        "label": "relayChainId",
        "offset": 0,
        "slot": "5",
        "type": "t_uint256"
      },
      {
        "astId": 5145,
        "contract": "contracts/MAPOmnichainServiceV2.sol:MAPOmnichainServiceV2",
        "label": "lightNode",
        "offset": 0,
        "slot": "6",
        "type": "t_contract(ILightNode)7443"
      },
      {
        "astId": 5149,
        "contract": "contracts/MAPOmnichainServiceV2.sol:MAPOmnichainServiceV2",
        "label": "orderList",
        "offset": 0,
        "slot": "7",
        "type": "t_mapping(t_bytes32,t_bool)"
      },
      {
        "astId": 5153,
        "contract": "contracts/MAPOmnichainServiceV2.sol:MAPOmnichainServiceV2",
        "label": "mintableTokens",
        "offset": 0,
        "slot": "8",
        "type": "t_mapping(t_address,t_bool)"
      },
      {
        "astId": 5159,
        "contract": "contracts/MAPOmnichainServiceV2.sol:MAPOmnichainServiceV2",
        "label": "tokenMappingList",
        "offset": 0,
        "slot": "9",
        "type": "t_mapping(t_uint256,t_mapping(t_address,t_bool))"
      },
      {
        "astId": 5161,
        "contract": "contracts/MAPOmnichainServiceV2.sol:MAPOmnichainServiceV2",
        "label": "butterCore",
        "offset": 0,
        "slot": "10",
        "type": "t_address"
      }
    ],
    "types": {
      "t_address": {
        "encoding": "inplace",
        "label": "address",
        "numberOfBytes": "20"
      },
      "t_bool": {
        "encoding": "inplace",
        "label": "bool",
        "numberOfBytes": "1"
      },
      "t_bytes32": {
        "encoding": "inplace",
        "label": "bytes32",
        "numberOfBytes": "32"
      },
      "t_contract(ILightNode)7443": {
        "encoding": "inplace",
        "label": "contract ILightNode",
        "numberOfBytes": "20"
      },
      "t_mapping(t_address,t_bool)": {
        "encoding": "mapping",
        "key": "t_address",
        "label": "mapping(address => bool)",
        "numberOfBytes": "32",
        "value": "t_bool"
      },
      "t_mapping(t_bytes32,t_bool)": {
        "encoding": "mapping",
        "key": "t_bytes32",
        "label": "mapping(bytes32 => bool)",
        "numberOfBytes": "32",
        "value": "t_bool"
      },
      "t_mapping(t_uint256,t_mapping(t_address,t_bool))": {
        "encoding": "mapping",
        "key": "t_uint256",
        "label": "mapping(uint256 => mapping(address => bool))",
        "numberOfBytes": "32",
        "value": "t_mapping(t_address,t_bool)"
      },
      "t_uint256": {
        "encoding": "inplace",
        "label": "uint256",
        "numberOfBytes": "32"
      }
    }
  }
}