{
  "address": "0x9cD44eC7D0a5626a7F5243FccC19189E7139b12E",
  "abi": [
    {
      "anonymous": false,
      "inputs": [
        {
          "indexed": false,
          "internalType": "address",
          "name": "previousAdmin",
          "type": "address"
        },
        {
          "indexed": false,
          "internalType": "address",
          "name": "newAdmin",
          "type": "address"
        }
      ],
      "name": "AdminChanged",
      "type": "event"
    },
    {
      "anonymous": false,
      "inputs": [
        {
          "indexed": true,
          "internalType": "address",
          "name": "beacon",
          "type": "address"
        }
      ],
      "name": "BeaconUpgraded",
      "type": "event"
    },
    {
      "anonymous": false,
      "inputs": [
        {
          "indexed": false,
          "internalType": "address",
          "name": "account",
          "type": "address"
        }
      ],
      "name": "Paused",
      "type": "event"
    },
    {
      "anonymous": false,
      "inputs": [
        {
          "indexed": false,
          "internalType": "address",
          "name": "account",
          "type": "address"
        }
      ],
      "name": "Unpaused",
      "type": "event"
    },
    {
      "anonymous": false,
      "inputs": [
        {
          "indexed": true,
          "internalType": "address",
          "name": "implementation",
          "type": "address"
        }
      ],
      "name": "Upgraded",
      "type": "event"
    },
    {
      "anonymous": false,
      "inputs": [
        {
          "indexed": true,
          "internalType": "uint256",
          "name": "fromChain",
          "type": "uint256"
        },
        {
          "indexed": true,
          "internalType": "uint256",
          "name": "toChain",
          "type": "uint256"
        },
        {
          "indexed": true,
          "internalType": "address",
          "name": "token",
          "type": "address"
        },
        {
          "indexed": false,
          "internalType": "bytes32",
          "name": "orderId",
          "type": "bytes32"
        },
        {
          "indexed": false,
          "internalType": "bytes",
          "name": "from",
          "type": "bytes"
        },
        {
          "indexed": false,
          "internalType": "address",
          "name": "to",
          "type": "address"
        },
        {
          "indexed": false,
          "internalType": "uint256",
          "name": "amount",
          "type": "uint256"
        }
      ],
      "name": "mapDepositIn",
      "type": "event"
    },
    {
      "anonymous": false,
      "inputs": [
        {
          "indexed": true,
          "internalType": "uint256",
          "name": "fromChain",
          "type": "uint256"
        },
        {
          "indexed": true,
          "internalType": "uint256",
          "name": "toChain",
          "type": "uint256"
        },
        {
          "indexed": false,
          "internalType": "bytes32",
          "name": "orderId",
          "type": "bytes32"
        },
        {
          "indexed": false,
          "internalType": "address",
          "name": "token",
          "type": "address"
        },
        {
          "indexed": false,
          "internalType": "bytes",
          "name": "from",
          "type": "bytes"
        },
        {
          "indexed": false,
          "internalType": "address",
          "name": "to",
          "type": "address"
        },
        {
          "indexed": false,
          "internalType": "uint256",
          "name": "amount",
          "type": "uint256"
        }
      ],
      "name": "mapDepositOut",
      "type": "event"
    },
    {
      "anonymous": false,
      "inputs": [
        {
          "indexed": true,
          "internalType": "uint256",
          "name": "fromChain",
          "type": "uint256"
        },
        {
          "indexed": true,
          "internalType": "uint256",
          "name": "toChain",
          "type": "uint256"
        },
        {
          "indexed": true,
          "internalType": "address",
          "name": "from",
          "type": "address"
        }
      ],
      "name": "mapSwapExecute",
      "type": "event"
    },
    {
      "anonymous": false,
      "inputs": [
        {
          "indexed": true,
          "internalType": "uint256",
          "name": "fromChain",
          "type": "uint256"
        },
        {
          "indexed": true,
          "internalType": "uint256",
          "name": "toChain",
          "type": "uint256"
        },
        {
          "indexed": true,
          "internalType": "bytes32",
          "name": "orderId",
          "type": "bytes32"
        },
        {
          "indexed": false,
          "internalType": "address",
          "name": "token",
          "type": "address"
        },
        {
          "indexed": false,
          "internalType": "bytes",
          "name": "from",
          "type": "bytes"
        },
        {
          "indexed": false,
          "internalType": "address",
          "name": "toAddress",
          "type": "address"
        },
        {
          "indexed": false,
          "internalType": "uint256",
          "name": "amountOut",
          "type": "uint256"
        }
      ],
      "name": "mapSwapIn",
      "type": "event"
    },
    {
      "anonymous": false,
      "inputs": [
        {
          "indexed": true,
          "internalType": "uint256",
          "name": "fromChain",
          "type": "uint256"
        },
        {
          "indexed": true,
          "internalType": "uint256",
          "name": "toChain",
          "type": "uint256"
        },
        {
          "indexed": false,
          "internalType": "bytes32",
          "name": "orderId",
          "type": "bytes32"
        },
        {
          "indexed": false,
          "internalType": "bytes",
          "name": "token",
          "type": "bytes"
        },
        {
          "indexed": false,
          "internalType": "bytes",
          "name": "from",
          "type": "bytes"
        },
        {
          "indexed": false,
          "internalType": "bytes",
          "name": "to",
          "type": "bytes"
        },
        {
          "indexed": false,
          "internalType": "uint256",
          "name": "amount",
          "type": "uint256"
        },
        {
          "indexed": false,
          "internalType": "bytes",
          "name": "swapData",
          "type": "bytes"
        }
      ],
      "name": "mapSwapOut",
      "type": "event"
    },
    {
      "anonymous": false,
      "inputs": [
        {
          "indexed": true,
          "internalType": "uint256",
          "name": "fromChain",
          "type": "uint256"
        },
        {
          "indexed": true,
          "internalType": "uint256",
          "name": "toChain",
          "type": "uint256"
        },
        {
          "indexed": true,
          "internalType": "address",
          "name": "from",
          "type": "address"
        }
      ],
      "name": "mapTransferExecute",
      "type": "event"
    },
    {
      "anonymous": false,
      "inputs": [
        {
          "indexed": true,
          "internalType": "uint256",
          "name": "fromChain",
          "type": "uint256"
        },
        {
          "indexed": true,
          "internalType": "uint256",
          "name": "toChain",
          "type": "uint256"
        },
        {
          "indexed": false,
          "internalType": "bytes32",
          "name": "orderId",
          "type": "bytes32"
        },
        {
          "indexed": false,
          "internalType": "address",
          "name": "token",
          "type": "address"
        },
        {
          "indexed": false,
          "internalType": "bytes",
          "name": "from",
          "type": "bytes"
        },
        {
          "indexed": false,
          "internalType": "address",
          "name": "to",
          "type": "address"
        },
        {
          "indexed": false,
          "internalType": "uint256",
          "name": "amount",
          "type": "uint256"
        }
      ],
      "name": "mapTransferIn",
      "type": "event"
    },
    {
      "anonymous": false,
      "inputs": [
        {
          "indexed": true,
          "internalType": "uint256",
          "name": "fromChain",
          "type": "uint256"
        },
        {
          "indexed": true,
          "internalType": "uint256",
          "name": "toChain",
          "type": "uint256"
        },
        {
          "indexed": false,
          "internalType": "bytes32",
          "name": "orderId",
          "type": "bytes32"
        },
        {
          "indexed": false,
          "internalType": "bytes",
          "name": "token",
          "type": "bytes"
        },
        {
          "indexed": false,
          "internalType": "bytes",
          "name": "from",
          "type": "bytes"
        },
        {
          "indexed": false,
          "internalType": "bytes",
          "name": "to",
          "type": "bytes"
        },
        {
          "indexed": false,
          "internalType": "uint256",
          "name": "amount",
          "type": "uint256"
        },
        {
          "indexed": false,
          "internalType": "bytes",
          "name": "toChainToken",
          "type": "bytes"
        }
      ],
      "name": "mapTransferOut",
      "type": "event"
    },
    {
      "anonymous": false,
      "inputs": [
        {
          "indexed": true,
          "internalType": "uint256",
          "name": "fromChain",
          "type": "uint256"
        },
        {
          "indexed": true,
          "internalType": "uint256",
          "name": "toChain",
          "type": "uint256"
        },
        {
          "indexed": false,
          "internalType": "bytes32",
          "name": "orderId",
          "type": "bytes32"
        },
        {
          "indexed": false,
          "internalType": "address",
          "name": "token",
          "type": "address"
        },
        {
          "indexed": false,
          "internalType": "bytes",
          "name": "from",
          "type": "bytes"
        },
        {
          "indexed": false,
          "internalType": "bytes",
          "name": "to",
          "type": "bytes"
        },
        {
          "indexed": false,
          "internalType": "uint256",
          "name": "amount",
          "type": "uint256"
        }
      ],
      "name": "mapTransferRelay",
      "type": "event"
    },
    {
      "inputs": [
        {
          "internalType": "uint256",
          "name": "",
          "type": "uint256"
        }
      ],
      "name": "chainTypes",
      "outputs": [
        {
          "internalType": "enum MAPOmnichainServiceRelayV2.chainType",
          "name": "",
          "type": "uint8"
        }
      ],
      "stateMutability": "view",
      "type": "function"
    },
    {
      "inputs": [
        {
          "internalType": "address",
          "name": "_admin",
          "type": "address"
        }
      ],
      "name": "changeAdmin",
      "outputs": [],
      "stateMutability": "nonpayable",
      "type": "function"
    },
    {
      "inputs": [
        {
          "internalType": "uint256",
          "name": "_chainId",
          "type": "uint256"
        },
        {
          "internalType": "bytes",
          "name": "_receiptProof",
          "type": "bytes"
        }
      ],
      "name": "depositIn",
      "outputs": [],
      "stateMutability": "payable",
      "type": "function"
    },
    {
      "inputs": [
        {
          "internalType": "address",
          "name": "_to",
          "type": "address"
        }
      ],
      "name": "depositNative",
      "outputs": [],
      "stateMutability": "payable",
      "type": "function"
    },
    {
      "inputs": [
        {
          "internalType": "address",
          "name": "_token",
          "type": "address"
        },
        {
          "internalType": "address",
          "name": "_to",
          "type": "address"
        },
        {
          "internalType": "uint256",
          "name": "_amount",
          "type": "uint256"
        }
      ],
      "name": "depositToken",
      "outputs": [],
      "stateMutability": "nonpayable",
      "type": "function"
    },
    {
      "inputs": [
        {
          "internalType": "uint256",
          "name": "",
          "type": "uint256"
        }
      ],
      "name": "distributeRate",
      "outputs": [
        {
          "internalType": "address",
          "name": "receiver",
          "type": "address"
        },
        {
          "internalType": "uint256",
          "name": "rate",
          "type": "uint256"
        }
      ],
      "stateMutability": "view",
      "type": "function"
    },
    {
      "inputs": [
        {
          "internalType": "address",
          "name": "_token",
          "type": "address"
        },
        {
          "internalType": "address payable",
          "name": "_receiver",
          "type": "address"
        },
        {
          "internalType": "uint256",
          "name": "_amount",
          "type": "uint256"
        }
      ],
      "name": "emergencyWithdraw",
      "outputs": [],
      "stateMutability": "nonpayable",
      "type": "function"
    },
    {
      "inputs": [],
      "name": "getAdmin",
      "outputs": [
        {
          "internalType": "address",
          "name": "",
          "type": "address"
        }
      ],
      "stateMutability": "view",
      "type": "function"
    },
    {
      "inputs": [
        {
          "internalType": "uint256",
          "name": "_id",
          "type": "uint256"
        },
        {
          "internalType": "uint256",
          "name": "_amount",
          "type": "uint256"
        }
      ],
      "name": "getFee",
      "outputs": [
        {
          "internalType": "uint256",
          "name": "",
          "type": "uint256"
        },
        {
          "internalType": "address",
          "name": "",
          "type": "address"
        }
      ],
      "stateMutability": "view",
      "type": "function"
    },
    {
      "inputs": [],
      "name": "getImplementation",
      "outputs": [
        {
          "internalType": "address",
          "name": "",
          "type": "address"
        }
      ],
      "stateMutability": "view",
      "type": "function"
    },
    {
      "inputs": [
        {
          "internalType": "address",
          "name": "_wToken",
          "type": "address"
        },
        {
          "internalType": "address",
          "name": "_managerAddress",
          "type": "address"
        }
      ],
      "name": "initialize",
      "outputs": [],
      "stateMutability": "nonpayable",
      "type": "function"
    },
    {
      "inputs": [],
      "name": "lightClientManager",
      "outputs": [
        {
          "internalType": "contract ILightClientManager",
          "name": "",
          "type": "address"
        }
      ],
      "stateMutability": "view",
      "type": "function"
    },
    {
      "inputs": [
        {
          "internalType": "uint256",
          "name": "",
          "type": "uint256"
        }
      ],
      "name": "mosContracts",
      "outputs": [
        {
          "internalType": "bytes",
          "name": "",
          "type": "bytes"
        }
      ],
      "stateMutability": "view",
      "type": "function"
    },
    {
      "inputs": [],
      "name": "nonce",
      "outputs": [
        {
          "internalType": "uint256",
          "name": "",
          "type": "uint256"
        }
      ],
      "stateMutability": "view",
      "type": "function"
    },
    {
      "inputs": [
        {
          "internalType": "bytes32",
          "name": "",
          "type": "bytes32"
        }
      ],
      "name": "orderList",
      "outputs": [
        {
          "internalType": "bool",
          "name": "",
          "type": "bool"
        }
      ],
      "stateMutability": "view",
      "type": "function"
    },
    {
      "inputs": [],
      "name": "paused",
      "outputs": [
        {
          "internalType": "bool",
          "name": "",
          "type": "bool"
        }
      ],
      "stateMutability": "view",
      "type": "function"
    },
    {
      "inputs": [
        {
          "internalType": "uint256",
          "name": "_chainId",
          "type": "uint256"
        },
        {
          "internalType": "bytes",
          "name": "_address",
          "type": "bytes"
        },
        {
          "internalType": "enum MAPOmnichainServiceRelayV2.chainType",
          "name": "_type",
          "type": "uint8"
        }
      ],
      "name": "registerChain",
      "outputs": [],
      "stateMutability": "nonpayable",
      "type": "function"
    },
    {
      "inputs": [],
      "name": "selfChainId",
      "outputs": [
        {
          "internalType": "uint256",
          "name": "",
          "type": "uint256"
        }
      ],
      "stateMutability": "view",
      "type": "function"
    },
    {
      "inputs": [
        {
          "internalType": "uint256",
          "name": "_id",
          "type": "uint256"
        },
        {
          "internalType": "address",
          "name": "_to",
          "type": "address"
        },
        {
          "internalType": "uint256",
          "name": "_rate",
          "type": "uint256"
        }
      ],
      "name": "setDistributeRate",
      "outputs": [],
      "stateMutability": "nonpayable",
      "type": "function"
    },
    {
      "inputs": [
        {
          "internalType": "address",
          "name": "_managerAddress",
          "type": "address"
        }
      ],
      "name": "setLightClientManager",
      "outputs": [],
      "stateMutability": "nonpayable",
      "type": "function"
    },
    {
      "inputs": [],
      "name": "setPause",
      "outputs": [],
      "stateMutability": "nonpayable",
      "type": "function"
    },
    {
      "inputs": [
        {
          "internalType": "address",
          "name": "_register",
          "type": "address"
        }
      ],
      "name": "setTokenManager",
      "outputs": [],
      "stateMutability": "nonpayable",
      "type": "function"
    },
    {
      "inputs": [],
      "name": "setUnpause",
      "outputs": [],
      "stateMutability": "nonpayable",
      "type": "function"
    },
    {
      "inputs": [
        {
          "internalType": "uint256",
          "name": "_chainId",
          "type": "uint256"
        },
        {
          "internalType": "bytes",
          "name": "_receiptProof",
          "type": "bytes"
        }
      ],
      "name": "swapIn",
      "outputs": [],
      "stateMutability": "nonpayable",
      "type": "function"
    },
    {
      "inputs": [
        {
          "internalType": "bytes",
          "name": "_to",
          "type": "bytes"
        },
        {
          "internalType": "uint256",
          "name": "_toChain",
          "type": "uint256"
        },
        {
          "internalType": "bytes",
          "name": "swapData",
          "type": "bytes"
        }
      ],
      "name": "swapOutNative",
      "outputs": [],
      "stateMutability": "payable",
      "type": "function"
    },
    {
      "inputs": [
        {
          "internalType": "address",
          "name": "_token",
          "type": "address"
        },
        {
          "internalType": "bytes",
          "name": "_to",
          "type": "bytes"
        },
        {
          "internalType": "uint256",
          "name": "_amount",
          "type": "uint256"
        },
        {
          "internalType": "uint256",
          "name": "_toChain",
          "type": "uint256"
        },
        {
          "internalType": "bytes",
          "name": "swapData",
          "type": "bytes"
        }
      ],
      "name": "swapOutToken",
      "outputs": [],
      "stateMutability": "nonpayable",
      "type": "function"
    },
    {
      "inputs": [],
      "name": "tokenRegister",
      "outputs": [
        {
          "internalType": "contract ITokenRegisterV2",
          "name": "",
          "type": "address"
        }
      ],
      "stateMutability": "view",
      "type": "function"
    },
    {
      "inputs": [
        {
          "internalType": "uint256",
          "name": "_chainId",
          "type": "uint256"
        },
        {
          "internalType": "bytes",
          "name": "_receiptProof",
          "type": "bytes"
        }
      ],
      "name": "transferIn",
      "outputs": [],
      "stateMutability": "nonpayable",
      "type": "function"
    },
    {
      "inputs": [
        {
          "internalType": "bytes",
          "name": "_to",
          "type": "bytes"
        },
        {
          "internalType": "uint256",
          "name": "_toChain",
          "type": "uint256"
        }
      ],
      "name": "transferOutNative",
      "outputs": [],
      "stateMutability": "payable",
      "type": "function"
    },
    {
      "inputs": [
        {
          "internalType": "address",
          "name": "_token",
          "type": "address"
        },
        {
          "internalType": "bytes",
          "name": "_to",
          "type": "bytes"
        },
        {
          "internalType": "uint256",
          "name": "_amount",
          "type": "uint256"
        },
        {
          "internalType": "uint256",
          "name": "_toChain",
          "type": "uint256"
        }
      ],
      "name": "transferOutToken",
      "outputs": [],
      "stateMutability": "nonpayable",
      "type": "function"
    },
    {
      "inputs": [
        {
          "internalType": "address",
          "name": "newImplementation",
          "type": "address"
        }
      ],
      "name": "upgradeTo",
      "outputs": [],
      "stateMutability": "nonpayable",
      "type": "function"
    },
    {
      "inputs": [
        {
          "internalType": "address",
          "name": "newImplementation",
          "type": "address"
        },
        {
          "internalType": "bytes",
          "name": "data",
          "type": "bytes"
        }
      ],
      "name": "upgradeToAndCall",
      "outputs": [],
      "stateMutability": "payable",
      "type": "function"
    },
    {
      "inputs": [],
      "name": "wToken",
      "outputs": [
        {
          "internalType": "address",
          "name": "",
          "type": "address"
        }
      ],
      "stateMutability": "view",
      "type": "function"
    },
    {
      "inputs": [
        {
          "internalType": "address",
          "name": "_vaultToken",
          "type": "address"
        },
        {
          "internalType": "uint256",
          "name": "_vaultAmount",
          "type": "uint256"
        }
      ],
      "name": "withdraw",
      "outputs": [],
      "stateMutability": "nonpayable",
      "type": "function"
    },
    {
      "stateMutability": "payable",
      "type": "receive"
    }
  ],
  "transactionHash": "0xb167974a49aef215af5e8a7d5c43b5dbda7901ed109d691e1b7f33a82e31fa2d",
  "args": [],
  "solcInputHash": "abbc1a2b704d71b844fb6c4f334a109c",
  "bytecode": "0x60c06040523060601b6080524660a05234801561001b57600080fd5b5060016000819055805462ff00001916905560805160601c60a0516178a7620000fe600039600081816105ca01528181610a8b01528181610b0a01528181610df901528181610f1a01528181611304015281816115a701528181611ef7015281816122830152818161285b015281816130760152818161319101528181613391015281816136bc0152818161372c0152818161383801528181613e12015281816140fd0152818161499701528181614c2a01528181615ba90152615c46015260008181610e3101528181610e710152818161122a015261126a01526178a76000f3fe6080604052600436106101fd5760003560e01c80637cb2b79c1161010d578063cc9e3e89116100a0578063d431b1ac1161006f578063d431b1ac14610669578063d687c35d1461067e578063e63ea4081461069e578063f3fef3a3146106be578063fb0f97a8146106de57600080fd5b8063cc9e3e89146105b8578063d24c6944146105ec578063d250185c1461060c578063d33a28a21461064957600080fd5b8063981aff4e116100dc578063981aff4e1461053f578063aaf10f421461055f578063affed0e014610574578063ca0da31f1461059857600080fd5b80637cb2b79c146104ad578063848cb5c6146104cd5780638d6ffd6a146104e25780638f2839701461051f57600080fd5b80633e2f1d0f116101905780635c975abb1161015f5780635c975abb1461040b5780636af6400d146104355780636d5ff479146104655780636e9960c314610478578063789728251461048d57600080fd5b80633e2f1d0f1461038b5780633ea549a2146103b8578063485cc955146103d85780634f1ef286146103f857600080fd5b80632f5c5d5e116101cc5780632f5c5d5e1461032557806333bb7f91146103455780633659cfe6146103585780633d4a2f6e1461037857600080fd5b80630babd86414610256578063145a6579146102935780632e7ec23f146102f25780632f12d7ef1461030557600080fd5b36610251576003546001600160a01b0316331461024f5760405162461bcd60e51b815260206004820152600b60248201526a37b7363c903baa37b5b2b760a91b60448201526064015b60405180910390fd5b005b600080fd5b34801561026257600080fd5b50600354610276906001600160a01b031681565b6040516001600160a01b0390911681526020015b60405180910390f35b34801561029f57600080fd5b506102d36102ae366004616b2e565b600660205260009081526040902080546001909101546001600160a01b039091169082565b604080516001600160a01b03909316835260208301919091520161028a565b61024f610300366004616da4565b6106fe565b34801561031157600080fd5b5061024f610320366004616868565b610adf565b34801561033157600080fd5b5061024f610340366004616706565b610c5e565b61024f610353366004616706565b610ce0565b34801561036457600080fd5b5061024f610373366004616706565b610e26565b61024f610386366004616cca565b610eef565b34801561039757600080fd5b506103ab6103a6366004616b2e565b611042565b60405161028a91906170ef565b3480156103c457600080fd5b50600454610276906001600160a01b031681565b3480156103e457600080fd5b5061024f6103f3366004616740565b6110dc565b61024f6104063660046167ba565b61121f565b34801561041757600080fd5b5060015462010000900460ff165b604051901515815260200161028a565b34801561044157600080fd5b50610425610450366004616b2e565b60076020526000908152604090205460ff1681565b61024f610473366004616d0e565b6112d9565b34801561048457600080fd5b50610276611441565b34801561049957600080fd5b50600554610276906001600160a01b031681565b3480156104b957600080fd5b5061024f6104c8366004616706565b611450565b3480156104d957600080fd5b5061024f6114d2565b3480156104ee57600080fd5b506105126104fd366004616b2e565b60096020526000908152604090205460ff1681565b60405161028a9190617102565b34801561052b57600080fd5b5061024f61053a366004616706565b611514565b34801561054b57600080fd5b5061024f61055a366004616809565b61157c565b34801561056b57600080fd5b506102766116be565b34801561058057600080fd5b5061058a60025481565b60405190815260200161028a565b3480156105a457600080fd5b5061024f6105b3366004616d7d565b6116c8565b3480156105c457600080fd5b5061058a7f000000000000000000000000000000000000000000000000000000000000000081565b3480156105f857600080fd5b5061024f610607366004616da4565b611877565b34801561061857600080fd5b5061062c610627366004616e32565b611b63565b604080519283526001600160a01b0390911660208301520161028a565b34801561065557600080fd5b5061024f610664366004616da4565b611bbe565b34801561067557600080fd5b5061024f611f4b565b34801561068a57600080fd5b5061024f610699366004616dd4565b611f8b565b3480156106aa57600080fd5b5061024f6106b9366004616779565b612018565b3480156106ca57600080fd5b5061024f6106d93660046168f7565b612082565b3480156106ea57600080fd5b5061024f6106f9366004616779565b612308565b600260005414156107215760405162461bcd60e51b8152600401610246906173c0565b600260005560015462010000900460ff161561074f5760405162461bcd60e51b8152600401610246906172ce565b600554604051637c55b7bd60e11b8152600091829182916001600160a01b03169063f8ab6f7a9061078690889088906004016173f7565b60006040518083038186803b15801561079e57600080fd5b505afa1580156107b2573d6000803e3d6000fd5b505050506040513d6000823e601f3d908101601f191682016040526107da9190810190616aa4565b9250925092508282906108005760405162461bcd60e51b815260040161024691906170ef565b50600260008681526009602052604090205460ff16600281111561082657610826617725565b141561095d5760008061083883612413565b9150915060005b815181101561095557600082828151811061085c5761085c61773b565b602002602001015190508060800151600014156108795750610943565b6000898152600860205260409020805461091b91869161089890617695565b80601f01602080910402602001604051908101604052809291908181526020018280546108c490617695565b80156109115780601f106108e657610100808354040283529160200191610911565b820191906000526020600020905b8154815290600101906020018083116108f457829003601f168201915b50505050506127c7565b6109375760405162461bcd60e51b81526004016102469061722b565b61094189826127e3565b505b8061094d816176ca565b91505061083f565b505050610a84565b600160008681526009602052604090205460ff16600281111561098257610982617725565b1415610a8457600061099382612ae9565b905060005b8151811015610a81576040518060800160405280604481526020016177eb60449139805190602001208282815181106109d3576109d361773b565b6020026020010151602001516000815181106109f1576109f161773b565b6020026020010151806020019051810190610a0c9190616b47565b1415610a6f57600080610a37848481518110610a2a57610a2a61773b565b6020026020010151612d32565b91509150610a5d82600860008c8152602001908152602001600020805461089890617695565b15610a6c57610a6c89826127e3565b50505b80610a79816176ca565b915050610998565b50505b60405133907f00000000000000000000000000000000000000000000000000000000000000009087907f8c991a6f7ef9e9e8c0cc7f34d5ce0b20ff23538ec4d944e9d065b833982fc78390600090a450506001600055505050565b60015462010000900460ff1615610b085760405162461bcd60e51b8152600401610246906172ce565b7f0000000000000000000000000000000000000000000000000000000000000000831415610b745760405162461bcd60e51b815260206004820152601960248201527821b0b73737ba1039bbb0b8103a379039b2b6331031b430b4b760391b6044820152606401610246565b6040516370a0823160e01b815233600482015284906001600160a01b038816906370a082319060240160206040518083038186803b158015610bb557600080fd5b505afa158015610bc9573d6000803e3d6000fd5b505050506040513d601f19601f82011682018060405250810190610bed9190616b47565b1015610c3b5760405162461bcd60e51b815260206004820152601a60248201527f496e73756666696369656e7420746f6b656e2062616c616e63650000000000006044820152606401610246565b610c4786333087612e4e565b610c5686863387878787612f76565b505050505050565b610c66613208565b6001600160a01b0316336001600160a01b031614610c965760405162461bcd60e51b815260040161024690617390565b806001600160a01b038116610cbd5760405162461bcd60e51b8152600401610246906172a5565b50600580546001600160a01b0319166001600160a01b0392909216919091179055565b60026000541415610d035760405162461bcd60e51b8152600401610246906173c0565b600260005560015462010000900460ff1615610d315760405162461bcd60e51b8152600401610246906172ce565b3480610d6f5760405162461bcd60e51b815260206004820152600d60248201526c76616c756520746f6f206c6f7760981b6044820152606401610246565b600360009054906101000a90046001600160a01b03166001600160a01b031663d0e30db0826040518263ffffffff1660e01b81526004016000604051808303818588803b158015610dbf57600080fd5b505af1158015610dd3573d6000803e3d6000fd5b5050600354610e1d93506001600160a01b03169150610df390503361323b565b848460007f0000000000000000000000000000000000000000000000000000000000000000613271565b50506001600055565b306001600160a01b037f0000000000000000000000000000000000000000000000000000000000000000161415610e6f5760405162461bcd60e51b815260040161024690617161565b7f00000000000000000000000000000000000000000000000000000000000000006001600160a01b0316610ea16133f7565b6001600160a01b031614610ec75760405162461bcd60e51b815260040161024690617259565b610ed08161341f565b60408051600080825260208201909252610eec918391906134a0565b50565b60015462010000900460ff1615610f185760405162461bcd60e51b8152600401610246906172ce565b7f0000000000000000000000000000000000000000000000000000000000000000811415610f7b5760405162461bcd60e51b815260206004820152601060248201526f37b7363c9037ba3432b91031b430b4b760811b6044820152606401610246565b3480610fb95760405162461bcd60e51b815260206004820152600d60248201526c76616c756520746f6f206c6f7760981b6044820152606401610246565b600360009054906101000a90046001600160a01b03166001600160a01b031663d0e30db0826040518263ffffffff1660e01b81526004016000604051808303818588803b15801561100957600080fd5b505af115801561101d573d6000803e3d6000fd5b505060035461103d93506001600160a01b031691503390508584866135e4565b505050565b6008602052600090815260409020805461105b90617695565b80601f016020809104026020016040519081016040528092919081815260200182805461108790617695565b80156110d45780601f106110a9576101008083540402835291602001916110d4565b820191906000526020600020905b8154815290600101906020018083116110b757829003601f168201915b505050505081565b600154610100900460ff166110f75760015460ff16156110fb565b303b155b61115e5760405162461bcd60e51b815260206004820152602e60248201527f496e697469616c697a61626c653a20636f6e747261637420697320616c72656160448201526d191e481a5b9a5d1a585b1a5e995960921b6064820152608401610246565b600154610100900460ff16158015611180576001805461ffff19166101011790555b826001600160a01b0381166111a75760405162461bcd60e51b8152600401610246906172a5565b826001600160a01b0381166111ce5760405162461bcd60e51b8152600401610246906172a5565b600380546001600160a01b038088166001600160a01b0319928316179092556005805492871692909116919091179055611207336138b3565b5050801561103d576001805461ff0019169055505050565b306001600160a01b037f00000000000000000000000000000000000000000000000000000000000000001614156112685760405162461bcd60e51b815260040161024690617161565b7f00000000000000000000000000000000000000000000000000000000000000006001600160a01b031661129a6133f7565b6001600160a01b0316146112c05760405162461bcd60e51b815260040161024690617259565b6112c98261341f565b6112d5828260016134a0565b5050565b60015462010000900460ff16156113025760405162461bcd60e51b8152600401610246906172ce565b7f000000000000000000000000000000000000000000000000000000000000000083141561136e5760405162461bcd60e51b815260206004820152601960248201527821b0b73737ba1039bbb0b8103a379039b2b6331031b430b4b760391b6044820152606401610246565b34806113b45760405162461bcd60e51b815260206004820152601560248201527453656e64696e672076616c7565206973207a65726f60581b6044820152606401610246565b600360009054906101000a90046001600160a01b03166001600160a01b031663d0e30db0826040518263ffffffff1660e01b81526004016000604051808303818588803b15801561140457600080fd5b505af1158015611418573d6000803e3d6000fd5b505060035461143a93506001600160a01b031691508790503384888888612f76565b5050505050565b600061144b613208565b905090565b611458613208565b6001600160a01b0316336001600160a01b0316146114885760405162461bcd60e51b815260040161024690617390565b806001600160a01b0381166114af5760405162461bcd60e51b8152600401610246906172a5565b50600480546001600160a01b0319166001600160a01b0392909216919091179055565b6114da613208565b6001600160a01b0316336001600160a01b03161461150a5760405162461bcd60e51b815260040161024690617390565b611512613907565b565b61151c613208565b6001600160a01b0316336001600160a01b03161461154c5760405162461bcd60e51b815260040161024690617390565b806001600160a01b0381166115735760405162461bcd60e51b8152600401610246906172a5565b6112d5826138b3565b60015462010000900460ff16156115a55760405162461bcd60e51b8152600401610246906172ce565b7f00000000000000000000000000000000000000000000000000000000000000008114156116085760405162461bcd60e51b815260206004820152601060248201526f37b7363c9037ba3432b91031b430b4b760811b6044820152606401610246565b6040516370a0823160e01b815233600482015282906001600160a01b038616906370a082319060240160206040518083038186803b15801561164957600080fd5b505afa15801561165d573d6000803e3d6000fd5b505050506040513d601f19601f820116820180604052508101906116819190616b47565b101561169f5760405162461bcd60e51b8152600401610246906171ad565b6116ab84333085612e4e565b6116b884338585856135e4565b50505050565b600061144b6133f7565b6116d0613208565b6001600160a01b0316336001600160a01b0316146117005760405162461bcd60e51b815260040161024690617390565b816001600160a01b0381166117275760405162461bcd60e51b8152600401610246906172a5565b600384106117695760405162461bcd60e51b815260206004820152600f60248201526e125b9d985b1a59081c985d19481a59608a1b6044820152606401610246565b6040805180820182526001600160a01b038581168252602080830186815260008981526006909252938120925183546001600160a01b031916921691909117825591516001909101557f8819ef417987f8ae7a81f42cdfb18815282fe989326fbff903d13cf0e03ace2a547f3e5fec24aa4dc4e5aee2e025e51e1392c72a2500577559fae9665c6d52bd6a32549180527f54cdd369e4e8a8515e52ca72ec816c2101831ad1f18bf44102ed171459c9b4f954620f424092611834929161182e916139a2565b906139a2565b11156116b85760405162461bcd60e51b8152602060048201526012602482015271696e76616c696420726174652076616c756560701b6044820152606401610246565b6002600054141561189a5760405162461bcd60e51b8152600401610246906173c0565b600260005560015462010000900460ff16156118c85760405162461bcd60e51b8152600401610246906172ce565b600554604051637c55b7bd60e11b8152600091829182916001600160a01b03169063f8ab6f7a906118ff90889088906004016173f7565b60006040518083038186803b15801561191757600080fd5b505afa15801561192b573d6000803e3d6000fd5b505050506040513d6000823e601f3d908101601f191682016040526119539190810190616aa4565b9250925092508282906119795760405162461bcd60e51b815260040161024691906170ef565b50600260008681526009602052604090205460ff16600281111561199f5761199f617725565b1415611a4b576000806119b1836139b5565b9150915060005b81518110156109555760008282815181106119d5576119d561773b565b602002602001015190508060800151600014156119f25750611a39565b60008981526008602052604090208054611a1191869161089890617695565b611a2d5760405162461bcd60e51b81526004016102469061722b565b611a378982613cea565b505b80611a43816176ca565b9150506119b8565b600160008681526009602052604090205460ff166002811115611a7057611a70617725565b1415610a84576000611a8182612ae9565b905060005b8151811015610a81576000828281518110611aa357611aa361773b565b6020026020010151905060008160200151600081518110611ac657611ac661773b565b6020026020010151806020019051810190611ae19190616b47565b905060405180608001604052806047815260200161777d6047913980519060200120811415611b4e57600080611b16846143b1565b91509150611b3c82600860008e8152602001908152602001600020805461089890617695565b15611b4b57611b4b8b82613cea565b50505b50508080611b5b906176ca565b915050611a86565b6000828152600660209081526040808320815180830190925280546001600160a01b03168252600101549181018290528291611baf90620f424090611ba9908790614472565b9061447e565b905190925090505b9250929050565b60026000541415611be15760405162461bcd60e51b8152600401610246906173c0565b600260005560015462010000900460ff1615611c0f5760405162461bcd60e51b8152600401610246906172ce565b600554604051637c55b7bd60e11b8152600091829182916001600160a01b03169063f8ab6f7a90611c4690889088906004016173f7565b60006040518083038186803b158015611c5e57600080fd5b505afa158015611c72573d6000803e3d6000fd5b505050506040513d6000823e601f3d908101601f19168201604052611c9a9190810190616aa4565b925092509250828290611cc05760405162461bcd60e51b815260040161024691906170ef565b50600260008681526009602052604090205460ff166002811115611ce657611ce6617725565b1415611d9a57600080611cf88361448a565b9150915060005b8151811015611d92576000828281518110611d1c57611d1c61773b565b60200260200101519050806020015160001415611d395750611d80565b60008981526008602052604090208054611d5891869161089890617695565b611d745760405162461bcd60e51b81526004016102469061722b565b611d7e89826147bf565b505b80611d8a816176ca565b915050611cff565b505050611ef0565b600160008681526009602052604090205460ff166002811115611dbf57611dbf617725565b1415611ef0576000611dd082612ae9565b905060005b8151811015611eed576000828281518110611df257611df261773b565b6020026020010151905060008160200151600081518110611e1557611e1561773b565b6020026020010151806020019051810190611e309190616b47565b905060405180608001604052806043815260200161782f6043913980519060200120811415611ed857600080611e6584614ed8565b91509150611e8b82600860008e8152602001908152602001600020805461089890617695565b611ea75760405162461bcd60e51b81526004016102469061722b565b60008b81526008602052604090208054611ec691849161089890617695565b15611ed557611ed58b826147bf565b50505b50508080611ee5906176ca565b915050611dd5565b50505b60405133907f00000000000000000000000000000000000000000000000000000000000000009087907f8131e5b107f7021b0773c1108755872d7b94bb31532fdf2256e0a3ef2c890a3d90600090a450506001600055505050565b611f53613208565b6001600160a01b0316336001600160a01b031614611f835760405162461bcd60e51b815260040161024690617390565b611512614f9c565b611f93613208565b6001600160a01b0316336001600160a01b031614611fc35760405162461bcd60e51b815260040161024690617390565b60008381526008602090815260409091208351611fe2928501906164d6565b506000838152600960205260409020805482919060ff1916600183600281111561200e5761200e617725565b0217905550505050565b612020613208565b6001600160a01b0316336001600160a01b0316146120505760405162461bcd60e51b815260040161024690617390565b816001600160a01b0381166120775760405162461bcd60e51b8152600401610246906172a5565b6116b8848484614ffe565b6001600160a01b0382166120a85760405162461bcd60e51b815260040161024690617359565b6000826001600160a01b03166310fe9ae86040518163ffffffff1660e01b815260040160206040518083038186803b1580156120e357600080fd5b505afa1580156120f7573d6000803e3d6000fd5b505050506040513d601f19601f8201168201806040525081019061211b9190616723565b60048054604051639dc6108f60e01b81526001600160a01b0380851693820193909352929350600092911690639dc6108f9060240160206040518083038186803b15801561216857600080fd5b505afa15801561217c573d6000803e3d6000fd5b505050506040513d601f19601f820116820180604052508101906121a09190616723565b9050806001600160a01b0316846001600160a01b0316146121f95760405162461bcd60e51b815260206004820152601360248201527224b73b30b634b2103b30bab63a103a37b5b2b760691b6044820152606401610246565b60405163c2507ac160e01b8152600481018490526000906001600160a01b0383169063c2507ac19060240160206040518083038186803b15801561223c57600080fd5b505afa158015612250573d6000803e3d6000fd5b505050506040513d601f19601f820116820180604052508101906122749190616b47565b604051630ad58d2f60e01b81527f00000000000000000000000000000000000000000000000000000000000000006004820152602481018690523360448201529091506001600160a01b03831690630ad58d2f90606401600060405180830381600087803b1580156122e557600080fd5b505af11580156122f9573d6000803e3d6000fd5b5050505061143a833383614ffe565b6002600054141561232b5760405162461bcd60e51b8152600401610246906173c0565b600260005560015462010000900460ff16156123595760405162461bcd60e51b8152600401610246906172ce565b6040516370a0823160e01b815233600482015281906001600160a01b038516906370a082319060240160206040518083038186803b15801561239a57600080fd5b505afa1580156123ae573d6000803e3d6000fd5b505050506040513d601f19601f820116820180604052508101906123d29190616b47565b10156123f05760405162461bcd60e51b8152600401610246906171ad565b6123fc83333084612e4e565b61240983610df33361323b565b5050600160005550565b60608060006124296124248561503f565b61506c565b905060028151101561244d5760405162461bcd60e51b8152600401610246906171fb565b612470816000815181106124635761246361773b565b60200260200101516151b3565b925060006124978260018151811061248a5761248a61773b565b602002602001015161506c565b516001600160401b038111156124af576124af617751565b6040519080825280602002602001820160405280156124e257816020015b60608152602001906001900390816124cd5790505b50905060005b6124fe8360018151811061248a5761248a61773b565b518110156125605761253061251f8460018151811061248a5761248a61773b565b82815181106124635761246361773b565b8282815181106125425761254261773b565b60200260200101819052508080612558906176ca565b9150506124e8565b50606081516001600160401b0381111561257c5761257c617751565b6040519080825280602002602001820160405280156125f057816020015b6125dd6040518060e00160405280606081526020016060815260200160008019168152602001600081526020016000815260200160608152602001600081525090565b81526020019060019003908161259a5790505b50935060005b82518110156127be5760006126238483815181106126165761261661773b565b6020026020010151615266565b805160208201209091507f3ad224e3e42a516df08d1fca74990eac30205afb5287a46132a6975ce0b2cede14156127ab576126768483815181106126695761266961773b565b6020026020010151615341565b925060006126866124248561503f565b90506007815110156126aa5760405162461bcd60e51b8152600401610246906171fb565b60006040518060e001604052806126cd846003815181106124635761246361773b565b81526020016126e8846004815181106124635761246361773b565b8152602001612703846002815181106124635761246361773b565b61270c90617645565b8152602001612734846000815181106127275761272761773b565b6020026020010151615829565b815260200161274f846001815181106127275761272761773b565b815260200161276a846005815181106124635761246361773b565b8152602001612785846006815181106127275761272761773b565b81525090508088858151811061279d5761279d61773b565b602002602001018190525050505b50806127b6816176ca565b9150506125f6565b50505050915091565b6000818051906020012083805190602001201490505b92915050565b60408082015160008181526007602052919091205460ff16156128185760405162461bcd60e51b8152600401610246906171d6565b6000818152600760205260409020805460ff19166001179055606082015183146128545760405162461bcd60e51b8152600401610246906172f8565b81608001517f0000000000000000000000000000000000000000000000000000000000000000146128975760405162461bcd60e51b8152600401610246906172f8565b600480546060840151845160405163fb9e6c1360e01b81526000946001600160a01b039094169363fb9e6c13936128d29390929091016173f7565b60206040518083038186803b1580156128ea57600080fd5b505afa1580156128fe573d6000803e3d6000fd5b505050506040513d601f19601f820116820180604052508101906129229190616723565b90506001600160a01b03811661294a5760405162461bcd60e51b81526004016102469061712a565b60048054606085015160c0860151604051633bab639f60e21b81526000946001600160a01b039094169363eead8e7c9361298a9388939192909101616f2b565b60206040518083038186803b1580156129a257600080fd5b505afa1580156129b6573d6000803e3d6000fd5b505050506040513d601f19601f820116820180604052508101906129da9190616b47565b6004805460405163ceec8cb960e01b81526001600160a01b0386811693820193909352929350169063ceec8cb99060240160206040518083038186803b158015612a2357600080fd5b505afa158015612a37573d6000803e3d6000fd5b505050506040513d601f19601f82011682018060405250810190612a5b9190616a89565b15612ac1576040516340c10f1960e01b8152306004820152602481018290526001600160a01b038316906340c10f1990604401600060405180830381600087803b158015612aa857600080fd5b505af1158015612abc573d6000803e3d6000fd5b505050505b61143a828560200151612ad98760a001516014015190565b8488604001518960600151613271565b60606000612af96124248461503f565b905080516001600160401b03811115612b1457612b14617751565b604051908082528060200260200182016040528015612b7257816020015b612b5f604051806060016040528060006001600160a01b0316815260200160608152602001606081525090565b815260200190600190039081612b325790505b50915060005b8151811015612d2b576000612b9883838151811061248a5761248a61773b565b9050600381511015612be05760405162461bcd60e51b81526020600482015260116024820152706c6f67206c656e67746820746f206c6f7760781b6044820152606401610246565b6000612bf88260018151811061248a5761248a61773b565b9050600081516001600160401b03811115612c1557612c15617751565b604051908082528060200260200182016040528015612c4857816020015b6060815260200190600190039081612c335790505b50905060005b8251811015612c9c57612c6c8382815181106124635761246361773b565b828281518110612c7e57612c7e61773b565b60200260200101819052508080612c94906176ca565b915050612c4e565b506040518060600160405280612ccb85600081518110612cbe57612cbe61773b565b60200260200101516158b1565b6001600160a01b03168152602001828152602001612cf5856002815181106124635761246361773b565b815250868581518110612d0a57612d0a61773b565b60200260200101819052505050508080612d23906176ca565b915050612b78565b5050919050565b6060612d776040518060e00160405280606081526020016060815260200160008019168152602001600081526020016000815260200160608152602001600081525090565b8251612d829061323b565b91508260200151600181518110612d9b57612d9b61773b565b6020026020010151806020019051810190612db69190616b47565b6060820152602083015180516002908110612dd357612dd361773b565b6020026020010151806020019051810190612dee9190616b47565b8160800181815250506000808460400151806020019051810190612e129190616b60565b60c08801526020870191909152604086019290925292509050612e348261323b565b8352612e3f8161323b565b8360a001819052505050915091565b604080516001600160a01b0385811660248301528481166044830152606480830185905283518084039091018152608490920183526020820180516001600160e01b03166323b872dd60e01b1790529151600092839290881691612eb29190616edb565b6000604051808303816000865af19150503d8060008114612eef576040519150601f19603f3d011682016040523d82523d6000602084013e612ef4565b606091505b5091509150818015612f1e575080511580612f1e575080806020019051810190612f1e9190616a89565b610c565760405162461bcd60e51b8152602060048201526024808201527f5472616e7366657248656c7065723a205452414e534645525f46524f4d5f46416044820152631253115160e21b6064820152608401610246565b6004805460405163204f487760e01b81526001600160a01b038a811693820193909352602481018690526000929091169063204f48779060440160006040518083038186803b158015612fc857600080fd5b505afa158015612fdc573d6000803e3d6000fd5b505050506040513d6000823e601f3d908101601f191682016040526130049190810190616c96565b905061301f81604051806020016040528060008152506127c7565b1561306c5760405162461bcd60e51b815260206004820152601860248201527f4f757420746f6b656e206e6f74207265676973746572656400000000000000006044820152606401610246565b60008061309b8a887f000000000000000000000000000000000000000000000000000000000000000089615903565b6004805460405163ceec8cb960e01b81526001600160a01b038f811693820193909352939550919350169063ceec8cb99060240160206040518083038186803b1580156130e757600080fd5b505afa1580156130fb573d6000803e3d6000fd5b505050506040513d601f19601f8201168201806040525081019061311f9190616a89565b1561317f57604051630852cd8d60e31b8152600481018390526001600160a01b038b16906342966c6890602401600060405180830381600087803b15801561316657600080fd5b505af115801561317a573d6000803e3d6000fd5b505050505b600061318c898b89615c2c565b9050867f00000000000000000000000000000000000000000000000000000000000000007fca1cf8cebf88499429cca8f87cbca15ab8dafd06702259a5344ddce89ef3f3a583876131dc8e61323b565b8f888d8d6040516131f3979695949392919061700b565b60405180910390a35050505050505050505050565b60007fb53127684a568b3173ae13b9f8a6016e243e63b6e8ee1178d6a717850b5d61035b546001600160a01b0316919050565b604051606082811b6bffffffffffffffffffffffff19166020830152906034016040516020818303038152906040529050919050565b60048054604051639dc6108f60e01b81526001600160a01b038981169382019390935260009290911690639dc6108f9060240160206040518083038186803b1580156132bc57600080fd5b505afa1580156132d0573d6000803e3d6000fd5b505050506040513d601f19601f820116820180604052508101906132f49190616723565b90506001600160a01b03811661331c5760405162461bcd60e51b815260040161024690617359565b604051638dbdbe6d60e01b815260048101839052602481018590526001600160a01b038681166044830152821690638dbdbe6d90606401600060405180830381600087803b15801561336d57600080fd5b505af1158015613381573d6000803e3d6000fd5b50505050866001600160a01b03167f0000000000000000000000000000000000000000000000000000000000000000837f5bf7c8229e485fc1aa764dc0e95bb88be5d3589f08d0fb5fca73bd195aecde0e868a8a8a6040516133e69493929190616fd6565b60405180910390a450505050505050565b60007f360894a13ba1a3210667c828492db98dca3e2076cc3735a920a3ca505d382bbc61322c565b613427613208565b6001600160a01b0316336001600160a01b031614610eec5760405162461bcd60e51b815260206004820152603060248201527f4d41504f6d6e69636861696e5365727669636552656c61793a206f6e6c79204160448201526f646d696e2063616e207570677261646560801b6064820152608401610246565b60006134aa6133f7565b90506134b584615c9c565b6000835111806134c25750815b156134d3576134d18484615d44565b505b7f4910fdfa16fed3260ed0e7147f7cc6da11a60208b5b9406d12a635614ffd9143805460ff1661143a57805460ff191660011781556040516001600160a01b038316602482015261355290869060440160408051601f198184030181529190526020810180516001600160e01b0316631b2ce7f360e11b179052615d44565b50805460ff191681556135636133f7565b6001600160a01b0316826001600160a01b0316146135db5760405162461bcd60e51b815260206004820152602f60248201527f45524331393637557067726164653a207570677261646520627265616b73206660448201526e75727468657220757067726164657360881b6064820152608401610246565b61143a85615d69565b6004805460405163204f487760e01b81526001600160a01b0388811693820193909352602481018490526000929091169063204f48779060440160006040518083038186803b15801561363657600080fd5b505afa15801561364a573d6000803e3d6000fd5b505050506040513d6000823e601f3d908101601f191682016040526136729190810190616c96565b905061368d81604051806020016040528060008152506127c7565b156136aa5760405162461bcd60e51b815260040161024690617322565b60006136b7868685615c2c565b9050827f00000000000000000000000000000000000000000000000000000000000000007fe23247b10e5cf2e2a6a13352598fae25c889731f3b5eff5fb52184e121b41d54838a6137078b61323b565b8a8a60405161371a959493929190616f87565b60405180910390a360008061375189877f000000000000000000000000000000000000000000000000000000000000000088615903565b6004805460405163ceec8cb960e01b81526001600160a01b038e811693820193909352939550919350169063ceec8cb99060240160206040518083038186803b15801561379d57600080fd5b505afa1580156137b1573d6000803e3d6000fd5b505050506040513d601f19601f820116820180604052508101906137d59190616a89565b1561383557604051630852cd8d60e31b8152600481018390526001600160a01b038a16906342966c6890602401600060405180830381600087803b15801561381c57600080fd5b505af1158015613830573d6000803e3d6000fd5b505050505b847f00000000000000000000000000000000000000000000000000000000000000007f44ff77018688dad4b245e8ab97358ed57ed92269952ece7ffd321366ce078622856138828d61323b565b61388b8d61323b565b8c878b6040516138a096959493929190617089565b60405180910390a3505050505050505050565b7f7e644d79422f17c01e4894b5f4f588d331ebfa28653d42ae832dc59e38c9798f6138dc613208565b604080516001600160a01b03928316815291841660208301520160405180910390a1610eec81615da9565b60015462010000900460ff166139565760405162461bcd60e51b815260206004820152601460248201527314185d5cd8589b194e881b9bdd081c185d5cd95960621b6044820152606401610246565b6001805462ff0000191690557f5db9ee0a495bf2e6ff9c91a7834c1ba4fdd244a5e8aa4e537bd38aeae4b073aa335b6040516001600160a01b03909116815260200160405180910390a1565b60006139ae828461748f565b9392505050565b60608060006139c66124248561503f565b90506002815110156139ea5760405162461bcd60e51b8152600401610246906171fb565b613a00816000815181106124635761246361773b565b92506000613a1a8260018151811061248a5761248a61773b565b516001600160401b03811115613a3257613a32617751565b604051908082528060200260200182016040528015613a6557816020015b6060815260200190600190039081613a505790505b50905060005b613a818360018151811061248a5761248a61773b565b51811015613ad257613aa261251f8460018151811061248a5761248a61773b565b828281518110613ab457613ab461773b565b60200260200101819052508080613aca906176ca565b915050613a6b565b50606081516001600160401b03811115613aee57613aee617751565b604051908082528060200260200182016040528015613b2757816020015b613b1461655a565b815260200190600190039081613b0c5790505b50935060005b82518110156127be576000613b4d8483815181106126165761261661773b565b805160208201209091507f4e87426fdd31a6df84975ed344b2c3fbd45109085f1557dff1156b300f135df81415613cd757613b938483815181106126695761266961773b565b92506000613ba36124248561503f565b9050600881511015613bc75760405162461bcd60e51b8152600401610246906171fb565b6000604051806101000160405280613beb846003815181106124635761246361773b565b8152602001613c06846004815181106124635761246361773b565b8152602001613c21846002815181106124635761246361773b565b613c2a90617645565b8152602001613c45846000815181106127275761272761773b565b8152602001613c60846001815181106127275761272761773b565b8152602001613c7b846005815181106124635761246361773b565b8152602001613c96846006815181106127275761272761773b565b8152602001613cb1846007815181106124635761246361773b565b815250905080888581518110613cc957613cc961773b565b602002602001018190525050505b5080613ce2816176ca565b915050613b2d565b60408082015160008181526007602052919091205460ff1615613d1f5760405162461bcd60e51b8152600401610246906171d6565b6000818152600760205260409020805460ff1916600117905560608201518314613d5b5760405162461bcd60e51b8152600401610246906172f8565b600480546060840151845160405163fb9e6c1360e01b81526000946001600160a01b039094169363fb9e6c1393613d969390929091016173f7565b60206040518083038186803b158015613dae57600080fd5b505afa158015613dc2573d6000803e3d6000fd5b505050506040513d601f19601f82011682018060405250810190613de69190616723565b90506001600160a01b038116613e0e5760405162461bcd60e51b81526004016102469061712a565b60607f000000000000000000000000000000000000000000000000000000000000000084608001511415613e4c57613e458261323b565b9050613f14565b60048054608086015160405163204f487760e01b81526001600160a01b0386811694820194909452602481019190915291169063204f48779060440160006040518083038186803b158015613ea057600080fd5b505afa158015613eb4573d6000803e3d6000fd5b505050506040513d6000823e601f3d908101601f19168201604052613edc9190810190616c96565b9050613ef781604051806020016040528060008152506127c7565b15613f145760405162461bcd60e51b815260040161024690617322565b60048054606086015160c0870151604051633bab639f60e21b81526000946001600160a01b039094169363eead8e7c93613f549389939192909101616f2b565b60206040518083038186803b158015613f6c57600080fd5b505afa158015613f80573d6000803e3d6000fd5b505050506040513d601f19601f82011682018060405250810190613fa49190616b47565b6004805460405163ceec8cb960e01b81526001600160a01b0387811693820193909352929350169063ceec8cb99060240160206040518083038186803b158015613fed57600080fd5b505afa158015614001573d6000803e3d6000fd5b505050506040513d601f19601f820116820180604052508101906140259190616a89565b1561408b576040516340c10f1960e01b8152306004820152602481018290526001600160a01b038416906340c10f1990604401600060405180830381600087803b15801561407257600080fd5b505af1158015614086573d6000803e3d6000fd5b505050505b846080015185606001517fe23247b10e5cf2e2a6a13352598fae25c889731f3b5eff5fb52184e121b41d5487604001518689602001518a60a00151876040516140d8959493929190616f87565b60405180910390a36000806140f7858489606001518a60800151615903565b915091507f00000000000000000000000000000000000000000000000000000000000000008760800151141561426f5760006141388860a001516014015190565b6003549091506001600160a01b038781169116141561417657600354614167906001600160a01b031684615e35565b6141718184615f4b565b614218565b6040516370a0823160e01b815230600482015283906001600160a01b038816906370a082319060240160206040518083038186803b1580156141b757600080fd5b505afa1580156141cb573d6000803e3d6000fd5b505050506040513d601f19601f820116820180604052508101906141ef9190616b47565b101561420d5760405162461bcd60e51b8152600401610246906171ad565b614218868285616014565b876080015188606001517f3790accbe9ce42658f962f7e7cfa0e6ae7acbb46014c6e01e1219a08781613758a60400151898c602001518689604051614261959493929190616f4c565b60405180910390a3506143a7565b6004805460405163ceec8cb960e01b81526001600160a01b038881169382019390935291169063ceec8cb99060240160206040518083038186803b1580156142b657600080fd5b505afa1580156142ca573d6000803e3d6000fd5b505050506040513d601f19601f820116820180604052508101906142ee9190616a89565b1561434e57604051630852cd8d60e31b8152600481018390526001600160a01b038616906342966c6890602401600060405180830381600087803b15801561433557600080fd5b505af1158015614349573d6000803e3d6000fd5b505050505b608087015160608801516040808a01518a5160208c015160a08d015193517f44ff77018688dad4b245e8ab97358ed57ed92269952ece7ffd321366ce0786229461439e9493929189908d90617089565b60405180910390a35b5050505050505050565b60606143bb61655a565b82516143c69061323b565b915082602001516001815181106143df576143df61773b565b60200260200101518060200190518101906143fa9190616b47565b60608201526020830151805160029081106144175761441761773b565b60200260200101518060200190518101906144329190616b47565b60808201526040830151805161445091602091810182019101616bd8565b60e087015260c086015260a08501526020840152825260408201529092909150565b60006139ae82846175cb565b60006139ae82846174cc565b606080600061449b6124248561503f565b90506002815110156144bf5760405162461bcd60e51b8152600401610246906171fb565b6144d5816000815181106124635761246361773b565b925060006144ef8260018151811061248a5761248a61773b565b516001600160401b0381111561450757614507617751565b60405190808252806020026020018201604052801561453a57816020015b60608152602001906001900390816145255790505b50905060005b6145568360018151811061248a5761248a61773b565b518110156145a75761457761251f8460018151811061248a5761248a61773b565b8282815181106145895761458961773b565b6020026020010181905250808061459f906176ca565b915050614540565b50606081516001600160401b038111156145c3576145c3617751565b6040519080825280602002602001820160405280156145fc57816020015b6145e96165a2565b8152602001906001900390816145e15790505b50935060005b82518110156127be5760006146228483815181106126165761261661773b565b805160208201209091507fca1cf8cebf88499429cca8f87cbca15ab8dafd06702259a5344ddce89ef3f3a514156147ac576146688483815181106126695761266961773b565b925060006146786124248561503f565b905060088151101561469c5760405162461bcd60e51b8152600401610246906171fb565b60006040518061010001604052806146c0846000815181106127275761272761773b565b81526020016146db846001815181106127275761272761773b565b81526020016146f6846002815181106124635761246361773b565b6146ff90617645565b815260200161471a846003815181106124635761246361773b565b8152602001614735846004815181106124635761246361773b565b8152602001614750846005815181106124635761246361773b565b815260200161476b846006815181106127275761272761773b565b8152602001614786846007815181106124635761246361773b565b81525090508088858151811061479e5761479e61773b565b602002602001018190525050505b50806147b7816176ca565b915050614602565b60408082015160008181526007602052919091205460ff16156147f45760405162461bcd60e51b8152600401610246906171d6565b6000818152600760205260409020805460ff191660011790558151831461482d5760405162461bcd60e51b8152600401610246906172f8565b600480548351606085015160405163fb9e6c1360e01b81526000946001600160a01b039094169363fb9e6c13936148689390929091016173f7565b60206040518083038186803b15801561488057600080fd5b505afa158015614894573d6000803e3d6000fd5b505050506040513d601f19601f820116820180604052508101906148b89190616723565b90506001600160a01b0381166148e05760405162461bcd60e51b81526004016102469061712a565b604080516060808201835280825260208201526000918101919091528360e001518060200190518101906149149190616923565b6001600160a01b03908116604085018190526020850192909252918352908316146149935760405162461bcd60e51b815260206004820152602960248201527f53776170206f6e204d61702052656c617920436861696e206e6f7420737570706044820152681bdc9d1959081e595d60ba1b6064820152608401610246565b60607f0000000000000000000000000000000000000000000000000000000000000000856020015114156149d1576149ca8361323b565b9050614a99565b60048054602087015160405163204f487760e01b81526001600160a01b0387811694820194909452602481019190915291169063204f48779060440160006040518083038186803b158015614a2557600080fd5b505afa158015614a39573d6000803e3d6000fd5b505050506040513d6000823e601f3d908101601f19168201604052614a619190810190616c96565b9050614a7c81604051806020016040528060008152506127c7565b15614a995760405162461bcd60e51b815260040161024690617322565b60048054865160c0880151604051633bab639f60e21b81526000946001600160a01b039094169363eead8e7c93614ad6938a939192909101616f2b565b60206040518083038186803b158015614aee57600080fd5b505afa158015614b02573d6000803e3d6000fd5b505050506040513d601f19601f82011682018060405250810190614b269190616b47565b6004805460405163ceec8cb960e01b81526001600160a01b0388811693820193909352929350169063ceec8cb99060240160206040518083038186803b158015614b6f57600080fd5b505afa158015614b83573d6000803e3d6000fd5b505050506040513d601f19601f82011682018060405250810190614ba79190616a89565b15614c0d576040516340c10f1960e01b8152306004820152602481018290526001600160a01b038516906340c10f1990604401600060405180830381600087803b158015614bf457600080fd5b505af1158015614c08573d6000803e3d6000fd5b505050505b600080614c2486848a600001518b60200151615903565b915091507f000000000000000000000000000000000000000000000000000000000000000088602001511415614d9b576000614c658960a001516014015190565b6003549091506001600160a01b0388811691161415614ca357600354614c94906001600160a01b031684615e35565b614c9e8184615f4b565b614d45565b6040516370a0823160e01b815230600482015283906001600160a01b038916906370a082319060240160206040518083038186803b158015614ce457600080fd5b505afa158015614cf8573d6000803e3d6000fd5b505050506040513d601f19601f82011682018060405250810190614d1c9190616b47565b1015614d3a5760405162461bcd60e51b8152600401610246906171ad565b614d45878285616014565b886040015189602001518a600001517f2a945137b011d4aadec6425788c652197d107fc33f6cdccbb0c269273be9c1c98a8d608001518689604051614d8d9493929190616ef7565b60405180910390a450614ecd565b6004805460405163ceec8cb960e01b81526001600160a01b038981169382019390935291169063ceec8cb99060240160206040518083038186803b158015614de257600080fd5b505afa158015614df6573d6000803e3d6000fd5b505050506040513d601f19601f82011682018060405250810190614e1a9190616a89565b15614e7a57604051630852cd8d60e31b8152600481018390526001600160a01b038716906342966c6890602401600060405180830381600087803b158015614e6157600080fd5b505af1158015614e75573d6000803e3d6000fd5b505050505b876020015188600001517fca1cf8cebf88499429cca8f87cbca15ab8dafd06702259a5344ddce89ef3f3a58a60400151878c608001518d60a00151878f60e001516040516138a096959493929190617089565b505050505050505050565b6060614ee26165a2565b8251614eed9061323b565b91508260200151600181518110614f0657614f0661773b565b6020026020010151806020019051810190614f219190616b47565b8152602083015180516002908110614f3b57614f3b61773b565b6020026020010151806020019051810190614f569190616b47565b8160200181815250508260400151806020019051810190614f779190616bd8565b60e087015260c086015260a08501526080840152606083015260408201529092909150565b60015462010000900460ff1615614fc55760405162461bcd60e51b8152600401610246906172ce565b6001805462ff00001916620100001790557f62e78cea01bee320cd4e420270b5ea74000d11b0c9f74754ebdbfc544b05a2586139853390565b6003546001600160a01b03848116911614156150345760035461502a906001600160a01b031682615e35565b61103d8282615f4b565b61103d838383616014565b60408051808201825260008082526020918201528151808301909252825182529182019181019190915290565b606061507782616128565b6150b25760405162461bcd60e51b815260206004820152600c60248201526b1a5cc81b1a5cdd0819985a5b60a21b6044820152606401610246565b60006150bd83616161565b90506000816001600160401b038111156150d9576150d9617751565b60405190808252806020026020018201604052801561511e57816020015b60408051808201909152600080825260208201528152602001906001900390816150f75790505b509050600061513085602001516161e4565b856020015161513f919061748f565b90506000805b848110156151a8576151568361625f565b915060405180604001604052808381526020018481525084828151811061517f5761517f61773b565b6020908102919091010152615194828461748f565b9250806151a0816176ca565b915050615145565b509195945050505050565b80516060906151f75760405162461bcd60e51b815260206004820152601060248201526f6974656d206c656e206973207a65726f60801b6044820152606401610246565b60008061520384616303565b915091506000816001600160401b0381111561522157615221617751565b6040519080825280601f01601f19166020018201604052801561524b576020820181803683370190505b5090506020810161525d84828561634a565b50949350505050565b60606040825110156152ba5760405162461bcd60e51b815260206004820152601960248201527f496e76616c696420657874726120726573756c742074797065000000000000006044820152606401610246565b604080518181526060810182529060208201818036833701905050905060005b604081101561533b578281815181106152f5576152f561773b565b602001015160f81c60f81b8282815181106153125761531261773b565b60200101906001600160f81b031916908160001a90535080615333816176ca565b9150506152da565b50919050565b60606002825161535191906176e5565b15158061535f575060048251105b156153ac5760405162461bcd60e51b815260206004820152601c60248201527f686578537472546f42797465733a20696e76616c696420696e707574000000006044820152606401610246565b60006020600284516153be91906174cc565b6153c8919061760b565b6001600160401b038111156153df576153df617751565b6040519080825280601f01601f191660200182016040528015615409576020820181803683370190505b50905060405b835181101561582257835160109081906030908790859081106154345761543461773b565b016020015160f81c10801590615464575060398684815181106154595761545961773b565b016020015160f81c11155b1561549257603086848151811061547d5761547d61773b565b016020015161548f919060f81c617622565b91505b6030866154a085600161748f565b815181106154b0576154b061773b565b016020015160f81c108015906154ea57506039866154cf85600161748f565b815181106154df576154df61773b565b016020015160f81c11155b15615522576030866154fd85600161748f565b8151811061550d5761550d61773b565b016020015161551f919060f81c617622565b90505b60418684815181106155365761553661773b565b016020015160f81c108015906155665750604686848151811061555b5761555b61773b565b016020015160f81c11155b1561559f57604186848151811061557f5761557f61773b565b0160200151615591919060f81c617622565b61559c90600a6174a7565b91505b6041866155ad85600161748f565b815181106155bd576155bd61773b565b016020015160f81c108015906155f757506046866155dc85600161748f565b815181106155ec576155ec61773b565b016020015160f81c11155b1561563a5760418661560a85600161748f565b8151811061561a5761561a61773b565b016020015161562c919060f81c617622565b61563790600a6174a7565b90505b606186848151811061564e5761564e61773b565b016020015160f81c1080159061567e575060668684815181106156735761567361773b565b016020015160f81c11155b156156b75760618684815181106156975761569761773b565b01602001516156a9919060f81c617622565b6156b490600a6174a7565b91505b6061866156c585600161748f565b815181106156d5576156d561773b565b016020015160f81c1080159061570f57506066866156f485600161748f565b815181106157045761570461773b565b016020015160f81c11155b156157525760618661572285600161748f565b815181106157325761573261773b565b0160200151615744919060f81c617622565b61574f90600a6174a7565b90505b8160ff166010148061576757508060ff166010145b156157b45760405162461bcd60e51b815260206004820152601c60248201527f686578537472546f42797465733a20696e76616c696420696e707574000000006044820152606401610246565b806157c08360106175ea565b6157ca91906174a7565b60f81b8460206157db6002876174cc565b6157e5919061760b565b815181106157f5576157f561773b565b60200101906001600160f81b031916908160001a905350505060028161581b919061748f565b905061540f565b5092915050565b80516000901580159061583e57508151602110155b6158815760405162461bcd60e51b81526020600482015260146024820152731a5d195b481b195b881a5cc81b9bdd081d5a5b9d60621b6044820152606401610246565b60008061588d84616303565b8151919350915060208210156158a95760208290036101000a90045b949350505050565b80516000906015146158fa5760405162461bcd60e51b81526020600482015260126024820152716974656d206c656e206973206e6f7420323160701b6044820152606401610246565b6127dd82615829565b60048054604051639dc6108f60e01b81526001600160a01b038088169382019390935260009283928892849290911690639dc6108f9060240160206040518083038186803b15801561595457600080fd5b505afa158015615968573d6000803e3d6000fd5b505050506040513d601f19601f8201168201806040525081019061598c9190616723565b90506001600160a01b0381166159b45760405162461bcd60e51b815260040161024690617359565b60048054604051631917961760e01b81526000926001600160a01b03909216916319179617916159ea9187918d918c9101616f2b565b60206040518083038186803b158015615a0257600080fd5b505afa158015615a16573d6000803e3d6000fd5b505050506040513d601f19601f82011682018060405250810190615a3a9190616b47565b9050600080828a1115615adc57615a51838b61760b565b600480546040516331b1ee7f60e21b81529294506001600160a01b03169163c6c7b9fc91615a8591899187918e9101616f2b565b60206040518083038186803b158015615a9d57600080fd5b505afa158015615ab1573d6000803e3d6000fd5b505050506040513d601f19601f82011682018060405250810190615ad59190616b47565b9050615ae0565b8992505b60008315615b7e576000615af5600086611b63565b509050615b02818661760b565b9150600080615b12600188611b63565b91509150600082118015615b2e57506001600160a01b03811615155b15615b3e57615b3e898284614ffe565b600080615b4c60028a611b63565b91509150600082118015615b6857506001600160a01b03811615155b15615b7857615b788b8284614ffe565b50505050505b6040516328ab490d60e01b8152600481018b9052602481018c9052604481018a9052606481018490527f0000000000000000000000000000000000000000000000000000000000000000608482015260a481018290526001600160a01b038616906328ab490d9060c401600060405180830381600087803b158015615c0257600080fd5b505af1158015615c16573d6000803e3d6000fd5b50949e939d50929b505050505050505050505050565b6002805460009130919083615c40836176ca565b919050557f0000000000000000000000000000000000000000000000000000000000000000848787604051602001615c7d96959493929190616e80565b6040516020818303038152906040528051906020012090509392505050565b803b615d005760405162461bcd60e51b815260206004820152602d60248201527f455243313936373a206e657720696d706c656d656e746174696f6e206973206e60448201526c1bdd08184818dbdb9d1c9858dd609a1b6064820152608401610246565b807f360894a13ba1a3210667c828492db98dca3e2076cc3735a920a3ca505d382bbc5b80546001600160a01b0319166001600160a01b039290921691909117905550565b60606139ae83836040518060600160405280602781526020016177c4602791396163c9565b615d7281615c9c565b6040516001600160a01b038216907fbc7cd75a20ee27fd9adebab32041f755214dbc6bffa90cc0225b39da2e5c2d3b90600090a250565b6001600160a01b038116615e0e5760405162461bcd60e51b815260206004820152602660248201527f455243313936373a206e65772061646d696e20697320746865207a65726f206160448201526564647265737360d01b6064820152608401610246565b807fb53127684a568b3173ae13b9f8a6016e243e63b6e8ee1178d6a717850b5d6103615d23565b600080836001600160a01b0316632e1a7d4d84604051602401615e5a91815260200190565b6040516020818303038152906040529060e01b6020820180516001600160e01b038381831617835250505050604051615e939190616edb565b6000604051808303816000865af19150503d8060008114615ed0576040519150601f19603f3d011682016040523d82523d6000602084013e615ed5565b606091505b5091509150818015615eff575080511580615eff575080806020019051810190615eff9190616a89565b6116b85760405162461bcd60e51b815260206004820152601f60248201527f5472616e7366657248656c7065723a2057495448445241575f4641494c4544006044820152606401610246565b604080516000808252602082019092526001600160a01b038416908390604051615f759190616edb565b60006040518083038185875af1925050503d8060008114615fb2576040519150601f19603f3d011682016040523d82523d6000602084013e615fb7565b606091505b505090508061103d5760405162461bcd60e51b815260206004820152602360248201527f5472616e7366657248656c7065723a204554485f5452414e534645525f46414960448201526213115160ea1b6064820152608401610246565b604080516001600160a01b038481166024830152604480830185905283518084039091018152606490920183526020820180516001600160e01b031663a9059cbb60e01b17905291516000928392908716916160709190616edb565b6000604051808303816000865af19150503d80600081146160ad576040519150601f19603f3d011682016040523d82523d6000602084013e6160b2565b606091505b50915091508180156160dc5750805115806160dc5750808060200190518101906160dc9190616a89565b61143a5760405162461bcd60e51b815260206004820152601f60248201527f5472616e7366657248656c7065723a205452414e534645525f4641494c4544006044820152606401610246565b805160009061613957506000919050565b6020820151805160001a9060c0821015616157575060009392505050565b5060019392505050565b805160009061617257506000919050565b60008061618284602001516161e4565b8460200151616191919061748f565b90506000846000015185602001516161a9919061748f565b90505b808210156161db576161bd8261625f565b6161c7908361748f565b9150826161d3816176ca565b9350506161ac565b50909392505050565b8051600090811a60808110156161fd5750600092915050565b60b8811080616218575060c08110801590616218575060f881105b156162265750600192915050565b60c08110156162535761623b600160b8617622565b6162489060ff168261760b565b6139ae90600161748f565b61623b600160f8617622565b80516000908190811a608081101561627a5760019150615822565b60b88110156162a05761628e60808261760b565b61629990600161748f565b9150615822565b60c08110156162cd5760b78103600185019450806020036101000a85510460018201810193505050615822565b60f88110156162e15761628e60c08261760b565b60019390930151602084900360f7016101000a900490920160f5190192915050565b600080600061631584602001516161e4565b90506000818560200151616329919061748f565b9050600082866000015161633d919061760b565b9196919550909350505050565b8061635457505050565b6020811061638c578251825261636b60208461748f565b925061637860208361748f565b915061638560208261760b565b9050616354565b801561103d57600060016163a183602061760b565b6163ad90610100617523565b6163b7919061760b565b84518451821691191617835250505050565b6060833b6164285760405162461bcd60e51b815260206004820152602660248201527f416464726573733a2064656c65676174652063616c6c20746f206e6f6e2d636f6044820152651b9d1c9858dd60d21b6064820152608401610246565b600080856001600160a01b0316856040516164439190616edb565b600060405180830381855af49150503d806000811461647e576040519150601f19603f3d011682016040523d82523d6000602084013e616483565b606091505b509150915061649382828661649d565b9695505050505050565b606083156164ac5750816139ae565b8251156164bc5782518084602001fd5b8160405162461bcd60e51b815260040161024691906170ef565b8280546164e290617695565b90600052602060002090601f016020900481019282616504576000855561654a565b82601f1061651d57805160ff191683800117855561654a565b8280016001018555821561654a579182015b8281111561654a57825182559160200191906001019061652f565b506165569291506165ea565b5090565b60405180610100016040528060608152602001606081526020016000801916815260200160008152602001600081526020016060815260200160008152602001606081525090565b60405180610100016040528060008152602001600081526020016000801916815260200160608152602001606081526020016060815260200160008152602001606081525090565b5b8082111561655657600081556001016165eb565b600061661261660d84617468565b617438565b905082815283838301111561662657600080fd5b6139ae836020830184617669565b805161663f81617767565b919050565b8051801515811461663f57600080fd5b60008083601f84011261666657600080fd5b5081356001600160401b0381111561667d57600080fd5b602083019150836020828501011115611bb757600080fd5b600082601f8301126166a657600080fd5b81356166b461660d82617468565b8181528460208386010111156166c957600080fd5b816020850160208301376000918101602001919091529392505050565b600082601f8301126166f757600080fd5b6139ae838351602085016165ff565b60006020828403121561671857600080fd5b81356139ae81617767565b60006020828403121561673557600080fd5b81516139ae81617767565b6000806040838503121561675357600080fd5b823561675e81617767565b9150602083013561676e81617767565b809150509250929050565b60008060006060848603121561678e57600080fd5b833561679981617767565b925060208401356167a981617767565b929592945050506040919091013590565b600080604083850312156167cd57600080fd5b82356167d881617767565b915060208301356001600160401b038111156167f357600080fd5b6167ff85828601616695565b9150509250929050565b6000806000806080858703121561681f57600080fd5b843561682a81617767565b935060208501356001600160401b0381111561684557600080fd5b61685187828801616695565b949794965050505060408301359260600135919050565b60008060008060008060a0878903121561688157600080fd5b863561688c81617767565b955060208701356001600160401b03808211156168a857600080fd5b6168b48a838b01616695565b9650604089013595506060890135945060808901359150808211156168d857600080fd5b506168e589828a01616654565b979a9699509497509295939492505050565b6000806040838503121561690a57600080fd5b823561691581617767565b946020939093013593505050565b60008060006060848603121561693857600080fd5b83516001600160401b038082111561694f57600080fd5b818601915086601f83011261696357600080fd5b81518181111561697557616975617751565b61698460208260051b01617438565b80828252602082019150602085018a60208560051b88010111156169a757600080fd5b60005b84811015616a49578151868111156169c157600080fd5b87016080818e03601f190112156169d757600080fd5b6169df617410565b6020820151815260408201516020820152606082015188811115616a0257600080fd5b616a118f6020838601016166e6565b604083015250608082015191508782168214616a2c57600080fd5b6060810191909152845260209384019391909101906001016169aa565b505060208901519097509350505080821115616a6457600080fd5b50616a71868287016166e6565b925050616a8060408501616634565b90509250925092565b600060208284031215616a9b57600080fd5b6139ae82616644565b600080600060608486031215616ab957600080fd5b616ac284616644565b925060208401516001600160401b0380821115616ade57600080fd5b818601915086601f830112616af257600080fd5b616b01878351602085016165ff565b93506040860151915080821115616b1757600080fd5b50616b24868287016166e6565b9150509250925092565b600060208284031215616b4057600080fd5b5035919050565b600060208284031215616b5957600080fd5b5051919050565b600080600080600060a08688031215616b7857600080fd5b855194506020860151616b8a81617767565b60408701519094506001600160401b03811115616ba657600080fd5b616bb2888289016166e6565b9350506060860151616bc381617767565b80925050608086015190509295509295909350565b60008060008060008060c08789031215616bf157600080fd5b8651955060208701516001600160401b0380821115616c0f57600080fd5b616c1b8a838b016166e6565b96506040890151915080821115616c3157600080fd5b616c3d8a838b016166e6565b95506060890151915080821115616c5357600080fd5b616c5f8a838b016166e6565b94506080890151935060a0890151915080821115616c7c57600080fd5b50616c8989828a016166e6565b9150509295509295509295565b600060208284031215616ca857600080fd5b81516001600160401b03811115616cbe57600080fd5b6158a9848285016166e6565b60008060408385031215616cdd57600080fd5b82356001600160401b03811115616cf357600080fd5b616cff85828601616695565b95602094909401359450505050565b60008060008060608587031215616d2457600080fd5b84356001600160401b0380821115616d3b57600080fd5b616d4788838901616695565b9550602087013594506040870135915080821115616d6457600080fd5b50616d7187828801616654565b95989497509550505050565b600080600060608486031215616d9257600080fd5b8335925060208401356167a981617767565b60008060408385031215616db757600080fd5b8235915060208301356001600160401b038111156167f357600080fd5b600080600060608486031215616de957600080fd5b8335925060208401356001600160401b03811115616e0657600080fd5b616e1286828701616695565b925050604084013560038110616e2757600080fd5b809150509250925092565b60008060408385031215616e4557600080fd5b50508035926020909101359150565b60008151808452616e6c816020860160208601617669565b601f01601f19169290920160200192915050565b60006bffffffffffffffffffffffff19808960601b168352876014840152866034840152856054840152808560601b166074840152508251616ec9816088850160208701617669565b91909101608801979650505050505050565b60008251616eed818460208701617669565b9190910192915050565b600060018060a01b03808716835260806020840152616f196080840187616e54565b94166040830152506060015292915050565b6001600160a01b039390931683526020830191909152604082015260600190565b858152600060018060a01b03808716602084015260a06040840152616f7460a0840187616e54565b9416606083015250608001529392505050565b8581526001600160a01b038516602082015260a060408201819052600090616fb190830186616e54565b8281036060840152616fc38186616e54565b9150508260808301529695505050505050565b848152608060208201526000616fef6080830186616e54565b6001600160a01b03949094166040830152506060015292915050565b87815260c06020820152600061702460c0830189616e54565b82810360408401526170368189616e54565b9050828103606084015261704a8188616e54565b905085608084015282810360a0840152838152838560208301376000602085830101526020601f19601f86011682010191505098975050505050505050565b86815260c0602082015260006170a260c0830188616e54565b82810360408401526170b48188616e54565b905082810360608401526170c88187616e54565b905084608084015282810360a08401526170e28185616e54565b9998505050505050505050565b6020815260006139ae6020830184616e54565b602081016003831061712457634e487b7160e01b600052602160045260246000fd5b91905290565b60208082526018908201527f6d617020746f6b656e206e6f7420726567697374657265640000000000000000604082015260600190565b6020808252602c908201527f46756e6374696f6e206d7573742062652063616c6c6564207468726f7567682060408201526b19195b1959d85d1958d85b1b60a21b606082015260800190565b6020808252600f908201526e62616c616e636520746f6f206c6f7760881b604082015260600190565b6020808252600b908201526a1bdc99195c88195e1a5cdd60aa1b604082015260600190565b6020808252601690820152756c6f677348617368206c656e67746820746f206c6f7760501b604082015260600190565b6020808252601490820152731a5b9d985b1a59081b5bdcc818dbdb9d1c9858dd60621b604082015260600190565b6020808252602c908201527f46756e6374696f6e206d7573742062652063616c6c6564207468726f7567682060408201526b6163746976652070726f787960a01b606082015260800190565b6020808252600f908201526e61646472657373206973207a65726f60881b604082015260600190565b60208082526010908201526f14185d5cd8589b194e881c185d5cd95960821b604082015260600190565b60208082526010908201526f1a5b9d985b1a590818da185a5b881a5960821b604082015260600190565b60208082526018908201527f6f757420746f6b656e206e6f7420726567697374657265640000000000000000604082015260600190565b6020808252601a908201527f7661756c7420746f6b656e206e6f742072656769737465726564000000000000604082015260600190565b60208082526016908201527536b7b9a932b630bc901d1d1037b7363c9030b236b4b760511b604082015260600190565b6020808252601f908201527f5265656e7472616e637947756172643a207265656e7472616e742063616c6c00604082015260600190565b8281526040602082015260006158a96040830184616e54565b604051608081016001600160401b038111828210171561743257617432617751565b60405290565b604051601f8201601f191681016001600160401b038111828210171561746057617460617751565b604052919050565b60006001600160401b0382111561748157617481617751565b50601f01601f191660200190565b600082198211156174a2576174a26176f9565b500190565b600060ff821660ff84168060ff038211156174c4576174c46176f9565b019392505050565b6000826174db576174db61770f565b500490565b600181815b8085111561751b578160001904821115617501576175016176f9565b8085161561750e57918102915b93841c93908002906174e5565b509250929050565b60006139ae8383600082617539575060016127dd565b81617546575060006127dd565b816001811461755c576002811461756657617582565b60019150506127dd565b60ff841115617577576175776176f9565b50506001821b6127dd565b5060208310610133831016604e8410600b84101617156175a5575081810a6127dd565b6175af83836174e0565b80600019048211156175c3576175c36176f9565b029392505050565b60008160001904831182151516156175e5576175e56176f9565b500290565b600060ff821660ff84168160ff04811182151516156175c3576175c36176f9565b60008282101561761d5761761d6176f9565b500390565b600060ff821660ff84168082101561763c5761763c6176f9565b90039392505050565b8051602080830151919081101561533b5760001960209190910360031b1b16919050565b60005b8381101561768457818101518382015260200161766c565b838111156116b85750506000910152565b600181811c908216806176a957607f821691505b6020821081141561533b57634e487b7160e01b600052602260045260246000fd5b60006000198214156176de576176de6176f9565b5060010190565b6000826176f4576176f461770f565b500690565b634e487b7160e01b600052601160045260246000fd5b634e487b7160e01b600052601260045260246000fd5b634e487b7160e01b600052602160045260246000fd5b634e487b7160e01b600052603260045260246000fd5b634e487b7160e01b600052604160045260246000fd5b6001600160a01b0381168114610eec57600080fdfe6d61705472616e736665724f75742875696e743235362c75696e743235362c627974657333322c62797465732c62797465732c62797465732c75696e743235362c627974657329416464726573733a206c6f772d6c6576656c2064656c65676174652063616c6c206661696c65646d61704465706f7369744f75742875696e743235362c75696e743235362c627974657333322c616464726573732c62797465732c616464726573732c75696e74323536296d6170537761704f75742875696e743235362c75696e743235362c627974657333322c62797465732c62797465732c62797465732c75696e743235362c627974657329a26469706673582212201be606e2ffe5d8260fdac18193ea6635c8ef249f9103413c06235d5b6ea98da364736f6c63430008070033",
  "devdoc": {
    "kind": "dev",
    "methods": {
      "paused()": {
        "details": "Returns true if the contract is paused, and false otherwise."
      },
      "upgradeTo(address)": {
        "details": "Upgrade the implementation of the proxy to `newImplementation`. Calls {_authorizeUpgrade}. Emits an {Upgraded} event."
      },
      "upgradeToAndCall(address,bytes)": {
        "details": "Upgrade the implementation of the proxy to `newImplementation`, and subsequently execute the function call encoded in `data`. Calls {_authorizeUpgrade}. Emits an {Upgraded} event."
      }
    },
    "version": 1
  },
  "userdoc": {
    "kind": "user",
    "methods": {},
    "version": 1
  },
  "storageLayout": {
    "storage": [
      {
        "astId": 1003,
        "contract": "contracts/MAPOmnichainServiceRelayV2.sol:MAPOmnichainServiceRelayV2",
        "label": "_status",
        "offset": 0,
        "slot": "0",
        "type": "t_uint256"
      },
      {
        "astId": 747,
        "contract": "contracts/MAPOmnichainServiceRelayV2.sol:MAPOmnichainServiceRelayV2",
        "label": "_initialized",
        "offset": 0,
        "slot": "1",
        "type": "t_bool"
      },
      {
        "astId": 750,
        "contract": "contracts/MAPOmnichainServiceRelayV2.sol:MAPOmnichainServiceRelayV2",
        "label": "_initializing",
        "offset": 1,
        "slot": "1",
        "type": "t_bool"
      },
      {
        "astId": 918,
        "contract": "contracts/MAPOmnichainServiceRelayV2.sol:MAPOmnichainServiceRelayV2",
        "label": "_paused",
        "offset": 2,
        "slot": "1",
        "type": "t_bool"
      },
      {
        "astId": 2659,
        "contract": "contracts/MAPOmnichainServiceRelayV2.sol:MAPOmnichainServiceRelayV2",
        "label": "nonce",
        "offset": 0,
        "slot": "2",
        "type": "t_uint256"
      },
      {
        "astId": 2661,
        "contract": "contracts/MAPOmnichainServiceRelayV2.sol:MAPOmnichainServiceRelayV2",
        "label": "wToken",
        "offset": 0,
        "slot": "3",
        "type": "t_address"
      },
      {
        "astId": 2664,
        "contract": "contracts/MAPOmnichainServiceRelayV2.sol:MAPOmnichainServiceRelayV2",
        "label": "tokenRegister",
        "offset": 0,
        "slot": "4",
        "type": "t_contract(ITokenRegisterV2)7675"
      },
      {
        "astId": 2667,
        "contract": "contracts/MAPOmnichainServiceRelayV2.sol:MAPOmnichainServiceRelayV2",
        "label": "lightClientManager",
        "offset": 0,
        "slot": "5",
        "type": "t_contract(ILightClientManager)7410"
      },
      {
        "astId": 2672,
        "contract": "contracts/MAPOmnichainServiceRelayV2.sol:MAPOmnichainServiceRelayV2",
        "label": "distributeRate",
        "offset": 0,
        "slot": "6",
        "type": "t_mapping(t_uint256,t_struct(Rate)2649_storage)"
      },
      {
        "astId": 2676,
        "contract": "contracts/MAPOmnichainServiceRelayV2.sol:MAPOmnichainServiceRelayV2",
        "label": "orderList",
        "offset": 0,
        "slot": "7",
        "type": "t_mapping(t_bytes32,t_bool)"
      },
      {
        "astId": 2680,
        "contract": "contracts/MAPOmnichainServiceRelayV2.sol:MAPOmnichainServiceRelayV2",
        "label": "mosContracts",
        "offset": 0,
        "slot": "8",
        "type": "t_mapping(t_uint256,t_bytes_storage)"
      },
      {
        "astId": 2685,
        "contract": "contracts/MAPOmnichainServiceRelayV2.sol:MAPOmnichainServiceRelayV2",
        "label": "chainTypes",
        "offset": 0,
        "slot": "9",
        "type": "t_mapping(t_uint256,t_enum(chainType)2653)"
      }
    ],
    "types": {
      "t_address": {
        "encoding": "inplace",
        "label": "address",
        "numberOfBytes": "20"
      },
      "t_bool": {
        "encoding": "inplace",
        "label": "bool",
        "numberOfBytes": "1"
      },
      "t_bytes32": {
        "encoding": "inplace",
        "label": "bytes32",
        "numberOfBytes": "32"
      },
      "t_bytes_storage": {
        "encoding": "bytes",
        "label": "bytes",
        "numberOfBytes": "32"
      },
      "t_contract(ILightClientManager)7410": {
        "encoding": "inplace",
        "label": "contract ILightClientManager",
        "numberOfBytes": "20"
      },
      "t_contract(ITokenRegisterV2)7675": {
        "encoding": "inplace",
        "label": "contract ITokenRegisterV2",
        "numberOfBytes": "20"
      },
      "t_enum(chainType)2653": {
        "encoding": "inplace",
        "label": "enum MAPOmnichainServiceRelayV2.chainType",
        "numberOfBytes": "1"
      },
      "t_mapping(t_bytes32,t_bool)": {
        "encoding": "mapping",
        "key": "t_bytes32",
        "label": "mapping(bytes32 => bool)",
        "numberOfBytes": "32",
        "value": "t_bool"
      },
      "t_mapping(t_uint256,t_bytes_storage)": {
        "encoding": "mapping",
        "key": "t_uint256",
        "label": "mapping(uint256 => bytes)",
        "numberOfBytes": "32",
        "value": "t_bytes_storage"
      },
      "t_mapping(t_uint256,t_enum(chainType)2653)": {
        "encoding": "mapping",
        "key": "t_uint256",
        "label": "mapping(uint256 => enum MAPOmnichainServiceRelayV2.chainType)",
        "numberOfBytes": "32",
        "value": "t_enum(chainType)2653"
      },
      "t_mapping(t_uint256,t_struct(Rate)2649_storage)": {
        "encoding": "mapping",
        "key": "t_uint256",
        "label": "mapping(uint256 => struct MAPOmnichainServiceRelayV2.Rate)",
        "numberOfBytes": "32",
        "value": "t_struct(Rate)2649_storage"
      },
      "t_struct(Rate)2649_storage": {
        "encoding": "inplace",
        "label": "struct MAPOmnichainServiceRelayV2.Rate",
        "members": [
          {
            "astId": 2646,
            "contract": "contracts/MAPOmnichainServiceRelayV2.sol:MAPOmnichainServiceRelayV2",
            "label": "receiver",
            "offset": 0,
            "slot": "0",
            "type": "t_address"
          },
          {
            "astId": 2648,
            "contract": "contracts/MAPOmnichainServiceRelayV2.sol:MAPOmnichainServiceRelayV2",
            "label": "rate",
            "offset": 0,
            "slot": "1",
            "type": "t_uint256"
          }
        ],
        "numberOfBytes": "64"
      },
      "t_uint256": {
        "encoding": "inplace",
        "label": "uint256",
        "numberOfBytes": "32"
      }
    }
  }
}