{
  "address": "0x08553258DDF93e108F180bAC0Fa68fc06856B92B",
  "abi": [
    {
      "anonymous": false,
      "inputs": [
        {
          "indexed": false,
          "internalType": "address",
          "name": "previousAdmin",
          "type": "address"
        },
        {
          "indexed": false,
          "internalType": "address",
          "name": "newAdmin",
          "type": "address"
        }
      ],
      "name": "AdminChanged",
      "type": "event"
    },
    {
      "anonymous": false,
      "inputs": [
        {
          "indexed": true,
          "internalType": "address",
          "name": "beacon",
          "type": "address"
        }
      ],
      "name": "BeaconUpgraded",
      "type": "event"
    },
    {
      "anonymous": false,
      "inputs": [
        {
          "indexed": false,
          "internalType": "address",
          "name": "account",
          "type": "address"
        }
      ],
      "name": "Paused",
      "type": "event"
    },
    {
      "anonymous": false,
      "inputs": [
        {
          "indexed": false,
          "internalType": "address",
          "name": "account",
          "type": "address"
        }
      ],
      "name": "Unpaused",
      "type": "event"
    },
    {
      "anonymous": false,
      "inputs": [
        {
          "indexed": true,
          "internalType": "address",
          "name": "implementation",
          "type": "address"
        }
      ],
      "name": "Upgraded",
      "type": "event"
    },
    {
      "anonymous": false,
      "inputs": [
        {
          "indexed": true,
          "internalType": "uint256",
          "name": "fromChain",
          "type": "uint256"
        },
        {
          "indexed": true,
          "internalType": "uint256",
          "name": "toChain",
          "type": "uint256"
        },
        {
          "indexed": true,
          "internalType": "address",
          "name": "token",
          "type": "address"
        },
        {
          "indexed": false,
          "internalType": "bytes32",
          "name": "orderId",
          "type": "bytes32"
        },
        {
          "indexed": false,
          "internalType": "bytes",
          "name": "from",
          "type": "bytes"
        },
        {
          "indexed": false,
          "internalType": "address",
          "name": "to",
          "type": "address"
        },
        {
          "indexed": false,
          "internalType": "uint256",
          "name": "amount",
          "type": "uint256"
        }
      ],
      "name": "mapDepositIn",
      "type": "event"
    },
    {
      "anonymous": false,
      "inputs": [
        {
          "indexed": true,
          "internalType": "uint256",
          "name": "fromChain",
          "type": "uint256"
        },
        {
          "indexed": true,
          "internalType": "uint256",
          "name": "toChain",
          "type": "uint256"
        },
        {
          "indexed": false,
          "internalType": "bytes32",
          "name": "orderId",
          "type": "bytes32"
        },
        {
          "indexed": false,
          "internalType": "address",
          "name": "token",
          "type": "address"
        },
        {
          "indexed": false,
          "internalType": "bytes",
          "name": "from",
          "type": "bytes"
        },
        {
          "indexed": false,
          "internalType": "address",
          "name": "to",
          "type": "address"
        },
        {
          "indexed": false,
          "internalType": "uint256",
          "name": "amount",
          "type": "uint256"
        }
      ],
      "name": "mapDepositOut",
      "type": "event"
    },
    {
      "anonymous": false,
      "inputs": [
        {
          "indexed": true,
          "internalType": "uint256",
          "name": "fromChain",
          "type": "uint256"
        },
        {
          "indexed": true,
          "internalType": "uint256",
          "name": "toChain",
          "type": "uint256"
        },
        {
          "indexed": true,
          "internalType": "address",
          "name": "from",
          "type": "address"
        }
      ],
      "name": "mapSwapExecute",
      "type": "event"
    },
    {
      "anonymous": false,
      "inputs": [
        {
          "indexed": true,
          "internalType": "uint256",
          "name": "fromChain",
          "type": "uint256"
        },
        {
          "indexed": true,
          "internalType": "uint256",
          "name": "toChain",
          "type": "uint256"
        },
        {
          "indexed": true,
          "internalType": "bytes32",
          "name": "orderId",
          "type": "bytes32"
        },
        {
          "indexed": false,
          "internalType": "address",
          "name": "token",
          "type": "address"
        },
        {
          "indexed": false,
          "internalType": "bytes",
          "name": "from",
          "type": "bytes"
        },
        {
          "indexed": false,
          "internalType": "address",
          "name": "toAddress",
          "type": "address"
        },
        {
          "indexed": false,
          "internalType": "uint256",
          "name": "amountOut",
          "type": "uint256"
        }
      ],
      "name": "mapSwapIn",
      "type": "event"
    },
    {
      "anonymous": false,
      "inputs": [
        {
          "indexed": true,
          "internalType": "uint256",
          "name": "fromChain",
          "type": "uint256"
        },
        {
          "indexed": true,
          "internalType": "uint256",
          "name": "toChain",
          "type": "uint256"
        },
        {
          "indexed": false,
          "internalType": "bytes32",
          "name": "orderId",
          "type": "bytes32"
        },
        {
          "indexed": false,
          "internalType": "bytes",
          "name": "token",
          "type": "bytes"
        },
        {
          "indexed": false,
          "internalType": "bytes",
          "name": "from",
          "type": "bytes"
        },
        {
          "indexed": false,
          "internalType": "bytes",
          "name": "to",
          "type": "bytes"
        },
        {
          "indexed": false,
          "internalType": "uint256",
          "name": "amount",
          "type": "uint256"
        },
        {
          "indexed": false,
          "internalType": "bytes",
          "name": "swapData",
          "type": "bytes"
        }
      ],
      "name": "mapSwapOut",
      "type": "event"
    },
    {
      "anonymous": false,
      "inputs": [
        {
          "indexed": true,
          "internalType": "uint256",
          "name": "fromChain",
          "type": "uint256"
        },
        {
          "indexed": true,
          "internalType": "uint256",
          "name": "toChain",
          "type": "uint256"
        },
        {
          "indexed": true,
          "internalType": "address",
          "name": "from",
          "type": "address"
        }
      ],
      "name": "mapTransferExecute",
      "type": "event"
    },
    {
      "anonymous": false,
      "inputs": [
        {
          "indexed": true,
          "internalType": "uint256",
          "name": "fromChain",
          "type": "uint256"
        },
        {
          "indexed": true,
          "internalType": "uint256",
          "name": "toChain",
          "type": "uint256"
        },
        {
          "indexed": false,
          "internalType": "bytes32",
          "name": "orderId",
          "type": "bytes32"
        },
        {
          "indexed": false,
          "internalType": "address",
          "name": "token",
          "type": "address"
        },
        {
          "indexed": false,
          "internalType": "bytes",
          "name": "from",
          "type": "bytes"
        },
        {
          "indexed": false,
          "internalType": "address",
          "name": "to",
          "type": "address"
        },
        {
          "indexed": false,
          "internalType": "uint256",
          "name": "amount",
          "type": "uint256"
        }
      ],
      "name": "mapTransferIn",
      "type": "event"
    },
    {
      "anonymous": false,
      "inputs": [
        {
          "indexed": true,
          "internalType": "uint256",
          "name": "fromChain",
          "type": "uint256"
        },
        {
          "indexed": true,
          "internalType": "uint256",
          "name": "toChain",
          "type": "uint256"
        },
        {
          "indexed": false,
          "internalType": "bytes32",
          "name": "orderId",
          "type": "bytes32"
        },
        {
          "indexed": false,
          "internalType": "bytes",
          "name": "token",
          "type": "bytes"
        },
        {
          "indexed": false,
          "internalType": "bytes",
          "name": "from",
          "type": "bytes"
        },
        {
          "indexed": false,
          "internalType": "bytes",
          "name": "to",
          "type": "bytes"
        },
        {
          "indexed": false,
          "internalType": "uint256",
          "name": "amount",
          "type": "uint256"
        },
        {
          "indexed": false,
          "internalType": "bytes",
          "name": "toChainToken",
          "type": "bytes"
        }
      ],
      "name": "mapTransferOut",
      "type": "event"
    },
    {
      "anonymous": false,
      "inputs": [
        {
          "indexed": true,
          "internalType": "uint256",
          "name": "fromChain",
          "type": "uint256"
        },
        {
          "indexed": true,
          "internalType": "uint256",
          "name": "toChain",
          "type": "uint256"
        },
        {
          "indexed": false,
          "internalType": "bytes32",
          "name": "orderId",
          "type": "bytes32"
        },
        {
          "indexed": false,
          "internalType": "address",
          "name": "token",
          "type": "address"
        },
        {
          "indexed": false,
          "internalType": "bytes",
          "name": "from",
          "type": "bytes"
        },
        {
          "indexed": false,
          "internalType": "bytes",
          "name": "to",
          "type": "bytes"
        },
        {
          "indexed": false,
          "internalType": "uint256",
          "name": "amount",
          "type": "uint256"
        }
      ],
      "name": "mapTransferRelay",
      "type": "event"
    },
    {
      "inputs": [
        {
          "internalType": "uint256",
          "name": "",
          "type": "uint256"
        }
      ],
      "name": "chainTypes",
      "outputs": [
        {
          "internalType": "enum MAPOmnichainServiceRelayV2.chainType",
          "name": "",
          "type": "uint8"
        }
      ],
      "stateMutability": "view",
      "type": "function"
    },
    {
      "inputs": [
        {
          "internalType": "address",
          "name": "_admin",
          "type": "address"
        }
      ],
      "name": "changeAdmin",
      "outputs": [],
      "stateMutability": "nonpayable",
      "type": "function"
    },
    {
      "inputs": [
        {
          "internalType": "uint256",
          "name": "_chainId",
          "type": "uint256"
        },
        {
          "internalType": "bytes",
          "name": "_receiptProof",
          "type": "bytes"
        }
      ],
      "name": "depositIn",
      "outputs": [],
      "stateMutability": "payable",
      "type": "function"
    },
    {
      "inputs": [
        {
          "internalType": "address",
          "name": "_to",
          "type": "address"
        }
      ],
      "name": "depositNative",
      "outputs": [],
      "stateMutability": "payable",
      "type": "function"
    },
    {
      "inputs": [
        {
          "internalType": "address",
          "name": "_token",
          "type": "address"
        },
        {
          "internalType": "address",
          "name": "_to",
          "type": "address"
        },
        {
          "internalType": "uint256",
          "name": "_amount",
          "type": "uint256"
        }
      ],
      "name": "depositToken",
      "outputs": [],
      "stateMutability": "nonpayable",
      "type": "function"
    },
    {
      "inputs": [
        {
          "internalType": "uint256",
          "name": "",
          "type": "uint256"
        }
      ],
      "name": "distributeRate",
      "outputs": [
        {
          "internalType": "address",
          "name": "receiver",
          "type": "address"
        },
        {
          "internalType": "uint256",
          "name": "rate",
          "type": "uint256"
        }
      ],
      "stateMutability": "view",
      "type": "function"
    },
    {
      "inputs": [
        {
          "internalType": "address",
          "name": "_token",
          "type": "address"
        },
        {
          "internalType": "address payable",
          "name": "_receiver",
          "type": "address"
        },
        {
          "internalType": "uint256",
          "name": "_amount",
          "type": "uint256"
        }
      ],
      "name": "emergencyWithdraw",
      "outputs": [],
      "stateMutability": "nonpayable",
      "type": "function"
    },
    {
      "inputs": [],
      "name": "getAdmin",
      "outputs": [
        {
          "internalType": "address",
          "name": "",
          "type": "address"
        }
      ],
      "stateMutability": "view",
      "type": "function"
    },
    {
      "inputs": [
        {
          "internalType": "uint256",
          "name": "_id",
          "type": "uint256"
        },
        {
          "internalType": "uint256",
          "name": "_amount",
          "type": "uint256"
        }
      ],
      "name": "getFee",
      "outputs": [
        {
          "internalType": "uint256",
          "name": "",
          "type": "uint256"
        },
        {
          "internalType": "address",
          "name": "",
          "type": "address"
        }
      ],
      "stateMutability": "view",
      "type": "function"
    },
    {
      "inputs": [],
      "name": "getImplementation",
      "outputs": [
        {
          "internalType": "address",
          "name": "",
          "type": "address"
        }
      ],
      "stateMutability": "view",
      "type": "function"
    },
    {
      "inputs": [
        {
          "internalType": "address",
          "name": "_wToken",
          "type": "address"
        },
        {
          "internalType": "address",
          "name": "_managerAddress",
          "type": "address"
        }
      ],
      "name": "initialize",
      "outputs": [],
      "stateMutability": "nonpayable",
      "type": "function"
    },
    {
      "inputs": [],
      "name": "lightClientManager",
      "outputs": [
        {
          "internalType": "contract ILightClientManager",
          "name": "",
          "type": "address"
        }
      ],
      "stateMutability": "view",
      "type": "function"
    },
    {
      "inputs": [
        {
          "internalType": "uint256",
          "name": "",
          "type": "uint256"
        }
      ],
      "name": "mosContracts",
      "outputs": [
        {
          "internalType": "bytes",
          "name": "",
          "type": "bytes"
        }
      ],
      "stateMutability": "view",
      "type": "function"
    },
    {
      "inputs": [],
      "name": "nonce",
      "outputs": [
        {
          "internalType": "uint256",
          "name": "",
          "type": "uint256"
        }
      ],
      "stateMutability": "view",
      "type": "function"
    },
    {
      "inputs": [
        {
          "internalType": "bytes32",
          "name": "",
          "type": "bytes32"
        }
      ],
      "name": "orderList",
      "outputs": [
        {
          "internalType": "bool",
          "name": "",
          "type": "bool"
        }
      ],
      "stateMutability": "view",
      "type": "function"
    },
    {
      "inputs": [],
      "name": "paused",
      "outputs": [
        {
          "internalType": "bool",
          "name": "",
          "type": "bool"
        }
      ],
      "stateMutability": "view",
      "type": "function"
    },
    {
      "inputs": [
        {
          "internalType": "uint256",
          "name": "_chainId",
          "type": "uint256"
        },
        {
          "internalType": "bytes",
          "name": "_address",
          "type": "bytes"
        },
        {
          "internalType": "enum MAPOmnichainServiceRelayV2.chainType",
          "name": "_type",
          "type": "uint8"
        }
      ],
      "name": "registerChain",
      "outputs": [],
      "stateMutability": "nonpayable",
      "type": "function"
    },
    {
      "inputs": [],
      "name": "selfChainId",
      "outputs": [
        {
          "internalType": "uint256",
          "name": "",
          "type": "uint256"
        }
      ],
      "stateMutability": "view",
      "type": "function"
    },
    {
      "inputs": [
        {
          "internalType": "uint256",
          "name": "_id",
          "type": "uint256"
        },
        {
          "internalType": "address",
          "name": "_to",
          "type": "address"
        },
        {
          "internalType": "uint256",
          "name": "_rate",
          "type": "uint256"
        }
      ],
      "name": "setDistributeRate",
      "outputs": [],
      "stateMutability": "nonpayable",
      "type": "function"
    },
    {
      "inputs": [
        {
          "internalType": "address",
          "name": "_managerAddress",
          "type": "address"
        }
      ],
      "name": "setLightClientManager",
      "outputs": [],
      "stateMutability": "nonpayable",
      "type": "function"
    },
    {
      "inputs": [],
      "name": "setPause",
      "outputs": [],
      "stateMutability": "nonpayable",
      "type": "function"
    },
    {
      "inputs": [
        {
          "internalType": "address",
          "name": "_register",
          "type": "address"
        }
      ],
      "name": "setTokenManager",
      "outputs": [],
      "stateMutability": "nonpayable",
      "type": "function"
    },
    {
      "inputs": [],
      "name": "setUnpause",
      "outputs": [],
      "stateMutability": "nonpayable",
      "type": "function"
    },
    {
      "inputs": [
        {
          "internalType": "uint256",
          "name": "_chainId",
          "type": "uint256"
        },
        {
          "internalType": "bytes",
          "name": "_receiptProof",
          "type": "bytes"
        }
      ],
      "name": "swapIn",
      "outputs": [],
      "stateMutability": "nonpayable",
      "type": "function"
    },
    {
      "inputs": [
        {
          "internalType": "address",
          "name": "_initiatorAddress",
          "type": "address"
        },
        {
          "internalType": "bytes",
          "name": "_to",
          "type": "bytes"
        },
        {
          "internalType": "uint256",
          "name": "_toChain",
          "type": "uint256"
        },
        {
          "internalType": "bytes",
          "name": "swapData",
          "type": "bytes"
        }
      ],
      "name": "swapOutNative",
      "outputs": [],
      "stateMutability": "payable",
      "type": "function"
    },
    {
      "inputs": [
        {
          "internalType": "address",
          "name": "_initiatorAddress",
          "type": "address"
        },
        {
          "internalType": "address",
          "name": "_token",
          "type": "address"
        },
        {
          "internalType": "bytes",
          "name": "_to",
          "type": "bytes"
        },
        {
          "internalType": "uint256",
          "name": "_amount",
          "type": "uint256"
        },
        {
          "internalType": "uint256",
          "name": "_toChain",
          "type": "uint256"
        },
        {
          "internalType": "bytes",
          "name": "swapData",
          "type": "bytes"
        }
      ],
      "name": "swapOutToken",
      "outputs": [],
      "stateMutability": "nonpayable",
      "type": "function"
    },
    {
      "inputs": [],
      "name": "tokenRegister",
      "outputs": [
        {
          "internalType": "contract ITokenRegisterV2",
          "name": "",
          "type": "address"
        }
      ],
      "stateMutability": "view",
      "type": "function"
    },
    {
      "inputs": [
        {
          "internalType": "uint256",
          "name": "_chainId",
          "type": "uint256"
        },
        {
          "internalType": "bytes",
          "name": "_receiptProof",
          "type": "bytes"
        }
      ],
      "name": "transferIn",
      "outputs": [],
      "stateMutability": "nonpayable",
      "type": "function"
    },
    {
      "inputs": [
        {
          "internalType": "bytes",
          "name": "_to",
          "type": "bytes"
        },
        {
          "internalType": "uint256",
          "name": "_toChain",
          "type": "uint256"
        }
      ],
      "name": "transferOutNative",
      "outputs": [],
      "stateMutability": "payable",
      "type": "function"
    },
    {
      "inputs": [
        {
          "internalType": "address",
          "name": "_token",
          "type": "address"
        },
        {
          "internalType": "bytes",
          "name": "_to",
          "type": "bytes"
        },
        {
          "internalType": "uint256",
          "name": "_amount",
          "type": "uint256"
        },
        {
          "internalType": "uint256",
          "name": "_toChain",
          "type": "uint256"
        }
      ],
      "name": "transferOutToken",
      "outputs": [],
      "stateMutability": "nonpayable",
      "type": "function"
    },
    {
      "inputs": [
        {
          "internalType": "address",
          "name": "newImplementation",
          "type": "address"
        }
      ],
      "name": "upgradeTo",
      "outputs": [],
      "stateMutability": "nonpayable",
      "type": "function"
    },
    {
      "inputs": [
        {
          "internalType": "address",
          "name": "newImplementation",
          "type": "address"
        },
        {
          "internalType": "bytes",
          "name": "data",
          "type": "bytes"
        }
      ],
      "name": "upgradeToAndCall",
      "outputs": [],
      "stateMutability": "payable",
      "type": "function"
    },
    {
      "inputs": [],
      "name": "wToken",
      "outputs": [
        {
          "internalType": "address",
          "name": "",
          "type": "address"
        }
      ],
      "stateMutability": "view",
      "type": "function"
    },
    {
      "inputs": [
        {
          "internalType": "address",
          "name": "_vaultToken",
          "type": "address"
        },
        {
          "internalType": "uint256",
          "name": "_vaultAmount",
          "type": "uint256"
        }
      ],
      "name": "withdraw",
      "outputs": [],
      "stateMutability": "nonpayable",
      "type": "function"
    },
    {
      "stateMutability": "payable",
      "type": "receive"
    }
  ],
  "transactionHash": "0xbb980a3d62eaf5abb20fd5718045432846df7727c9e8bf4318f3028f8f967ab9",
  "args": [],
  "solcInputHash": "9117a20fbac876cb1da82d013de9f5e9",
  "bytecode": "0x60c06040523060601b6080524660a05234801561001b57600080fd5b5060016000819055805462ff00001916905560805160601c60a051617919620000fe600039600081816105b701528181610aca01528181610cb901528181610dda015281816112ff0152818161144b01528181611dcf01528181611e8e015281816122c4015281816128a30152818161301f0152818161334a015281816133ba015281816134c6015281816138580152818161397301528181613e5a01528181614145015281816149df01528181614c7201528181615a720152615d6e015260008181610cf101528181610d31015281816110ea015261112a01526179196000f3fe6080604052600436106101fd5760003560e01c80638d6ffd6a1161010d578063d24c6944116100a0578063d5351aaa1161006f578063d5351aaa1461066b578063d687c35d1461067e578063e63ea4081461069e578063f3fef3a3146106be578063fb0f97a8146106de57600080fd5b8063d24c6944146105d9578063d250185c146105f9578063d33a28a214610636578063d431b1ac1461065657600080fd5b8063affed0e0116100dc578063affed0e014610541578063b899f90414610565578063ca0da31f14610585578063cc9e3e89146105a557600080fd5b80638d6ffd6a146104af5780638f283970146104ec578063981aff4e1461050c578063aaf10f421461052c57600080fd5b80633ea549a2116101905780636af6400d1161015f5780636af6400d146104155780636e9960c314610445578063789728251461045a5780637cb2b79c1461047a578063848cb5c61461049a57600080fd5b80633ea549a214610398578063485cc955146103b85780634f1ef286146103d85780635c975abb146103eb57600080fd5b806333bb7f91116101cc57806333bb7f91146103255780633659cfe6146103385780633d4a2f6e146103585780633e2f1d0f1461036b57600080fd5b80630babd86414610256578063145a6579146102935780632e7ec23f146102f25780632f5c5d5e1461030557600080fd5b36610251576003546001600160a01b0316331461024f5760405162461bcd60e51b815260206004820152600b60248201526a37b7363c903baa37b5b2b760a91b60448201526064015b60405180910390fd5b005b600080fd5b34801561026257600080fd5b50600354610276906001600160a01b031681565b6040516001600160a01b0390911681526020015b60405180910390f35b34801561029f57600080fd5b506102d36102ae366004616c0f565b600660205260009081526040902080546001909101546001600160a01b039091169082565b604080516001600160a01b03909316835260208301919091520161028a565b61024f610300366004616e16565b6106fe565b34801561031157600080fd5b5061024f61032036600461674e565b610b1e565b61024f61033336600461674e565b610ba0565b34801561034457600080fd5b5061024f61035336600461674e565b610ce6565b61024f610366366004616dab565b610daf565b34801561037757600080fd5b5061038b610386366004616c0f565b610f02565b60405161028a9190617161565b3480156103a457600080fd5b50600454610276906001600160a01b031681565b3480156103c457600080fd5b5061024f6103d3366004616788565b610f9c565b61024f6103e63660046168a4565b6110df565b3480156103f757600080fd5b5060015462010000900460ff165b604051901515815260200161028a565b34801561042157600080fd5b50610405610430366004616c0f565b60076020526000908152604090205460ff1681565b34801561045157600080fd5b50610276611199565b34801561046657600080fd5b50600554610276906001600160a01b031681565b34801561048657600080fd5b5061024f61049536600461674e565b6111a8565b3480156104a657600080fd5b5061024f61122a565b3480156104bb57600080fd5b506104df6104ca366004616c0f565b60096020526000908152604090205460ff1681565b60405161028a9190617174565b3480156104f857600080fd5b5061024f61050736600461674e565b61126c565b34801561051857600080fd5b5061024f610527366004616979565b6112d4565b34801561053857600080fd5b50610276611416565b34801561054d57600080fd5b5061055760025481565b60405190815260200161028a565b34801561057157600080fd5b5061024f610580366004616802565b611420565b34801561059157600080fd5b5061024f6105a0366004616def565b6115a0565b3480156105b157600080fd5b506105577f000000000000000000000000000000000000000000000000000000000000000081565b3480156105e557600080fd5b5061024f6105f4366004616e16565b61174f565b34801561060557600080fd5b50610619610614366004616ea4565b611a3b565b604080519283526001600160a01b0390911660208301520161028a565b34801561064257600080fd5b5061024f610651366004616e16565b611a96565b34801561066257600080fd5b5061024f611e23565b61024f6106793660046168f3565b611e63565b34801561068a57600080fd5b5061024f610699366004616e46565b611fcc565b3480156106aa57600080fd5b5061024f6106b93660046167c1565b612059565b3480156106ca57600080fd5b5061024f6106d93660046169d8565b6120c3565b3480156106ea57600080fd5b5061024f6106f93660046167c1565b612350565b600260005414156107215760405162461bcd60e51b815260040161024690617432565b600260005560015462010000900460ff161561074f5760405162461bcd60e51b815260040161024690617340565b600554604051637c55b7bd60e11b8152600091829182916001600160a01b03169063f8ab6f7a906107869088908890600401617469565b60006040518083038186803b15801561079e57600080fd5b505afa1580156107b2573d6000803e3d6000fd5b505050506040513d6000823e601f3d908101601f191682016040526107da9190810190616b85565b9250925092508282906108005760405162461bcd60e51b81526004016102469190617161565b50600260008681526009602052604090205460ff16600281111561082657610826617797565b141561095d576000806108388361245b565b9150915060005b815181101561095557600082828151811061085c5761085c6177ad565b602002602001015190508060800151600014156108795750610943565b6000898152600860205260409020805461091b91869161089890617707565b80601f01602080910402602001604051908101604052809291908181526020018280546108c490617707565b80156109115780601f106108e657610100808354040283529160200191610911565b820191906000526020600020905b8154815290600101906020018083116108f457829003601f168201915b505050505061280f565b6109375760405162461bcd60e51b81526004016102469061729d565b610941898261282b565b505b8061094d8161773c565b91505061083f565b505050610ac3565b600160008681526009602052604090205460ff16600281111561098257610982617797565b1415610a8857600061099382612b31565b905060005b8151811015610a815760405180608001604052806044815260200161785d60449139805190602001208282815181106109d3576109d36177ad565b6020026020010151602001516000815181106109f1576109f16177ad565b6020026020010151806020019051810190610a0c9190616c28565b1415610a6f57600080610a37848481518110610a2a57610a2a6177ad565b6020026020010151612d7a565b91509150610a5d82600860008c8152602001908152602001600020805461089890617707565b15610a6c57610a6c898261282b565b50505b80610a798161773c565b915050610998565b5050610ac3565b60405162461bcd60e51b815260206004820152601060248201526f31b430b4b7103a3cb8329032b93937b960811b6044820152606401610246565b60405133907f00000000000000000000000000000000000000000000000000000000000000009087907f8c991a6f7ef9e9e8c0cc7f34d5ce0b20ff23538ec4d944e9d065b833982fc78390600090a450506001600055505050565b610b26612e96565b6001600160a01b0316336001600160a01b031614610b565760405162461bcd60e51b815260040161024690617402565b806001600160a01b038116610b7d5760405162461bcd60e51b815260040161024690617317565b50600580546001600160a01b0319166001600160a01b0392909216919091179055565b60026000541415610bc35760405162461bcd60e51b815260040161024690617432565b600260005560015462010000900460ff1615610bf15760405162461bcd60e51b815260040161024690617340565b3480610c2f5760405162461bcd60e51b815260206004820152600d60248201526c76616c756520746f6f206c6f7760981b6044820152606401610246565b600360009054906101000a90046001600160a01b03166001600160a01b031663d0e30db0826040518263ffffffff1660e01b81526004016000604051808303818588803b158015610c7f57600080fd5b505af1158015610c93573d6000803e3d6000fd5b5050600354610cdd93506001600160a01b03169150610cb3905033612ec9565b848460007f0000000000000000000000000000000000000000000000000000000000000000612eff565b50506001600055565b306001600160a01b037f0000000000000000000000000000000000000000000000000000000000000000161415610d2f5760405162461bcd60e51b8152600401610246906171d3565b7f00000000000000000000000000000000000000000000000000000000000000006001600160a01b0316610d61613085565b6001600160a01b031614610d875760405162461bcd60e51b8152600401610246906172cb565b610d90816130ad565b60408051600080825260208201909252610dac9183919061312e565b50565b60015462010000900460ff1615610dd85760405162461bcd60e51b815260040161024690617340565b7f0000000000000000000000000000000000000000000000000000000000000000811415610e3b5760405162461bcd60e51b815260206004820152601060248201526f37b7363c9037ba3432b91031b430b4b760811b6044820152606401610246565b3480610e795760405162461bcd60e51b815260206004820152600d60248201526c76616c756520746f6f206c6f7760981b6044820152606401610246565b600360009054906101000a90046001600160a01b03166001600160a01b031663d0e30db0826040518263ffffffff1660e01b81526004016000604051808303818588803b158015610ec957600080fd5b505af1158015610edd573d6000803e3d6000fd5b5050600354610efd93506001600160a01b03169150339050858486613272565b505050565b60086020526000908152604090208054610f1b90617707565b80601f0160208091040260200160405190810160405280929190818152602001828054610f4790617707565b8015610f945780601f10610f6957610100808354040283529160200191610f94565b820191906000526020600020905b815481529060010190602001808311610f7757829003601f168201915b505050505081565b600154610100900460ff16610fb75760015460ff1615610fbb565b303b155b61101e5760405162461bcd60e51b815260206004820152602e60248201527f496e697469616c697a61626c653a20636f6e747261637420697320616c72656160448201526d191e481a5b9a5d1a585b1a5e995960921b6064820152608401610246565b600154610100900460ff16158015611040576001805461ffff19166101011790555b826001600160a01b0381166110675760405162461bcd60e51b815260040161024690617317565b826001600160a01b03811661108e5760405162461bcd60e51b815260040161024690617317565b600380546001600160a01b038088166001600160a01b03199283161790925560058054928716929091169190911790556110c733613541565b50508015610efd576001805461ff0019169055505050565b306001600160a01b037f00000000000000000000000000000000000000000000000000000000000000001614156111285760405162461bcd60e51b8152600401610246906171d3565b7f00000000000000000000000000000000000000000000000000000000000000006001600160a01b031661115a613085565b6001600160a01b0316146111805760405162461bcd60e51b8152600401610246906172cb565b611189826130ad565b6111958282600161312e565b5050565b60006111a3612e96565b905090565b6111b0612e96565b6001600160a01b0316336001600160a01b0316146111e05760405162461bcd60e51b815260040161024690617402565b806001600160a01b0381166112075760405162461bcd60e51b815260040161024690617317565b50600480546001600160a01b0319166001600160a01b0392909216919091179055565b611232612e96565b6001600160a01b0316336001600160a01b0316146112625760405162461bcd60e51b815260040161024690617402565b61126a613595565b565b611274612e96565b6001600160a01b0316336001600160a01b0316146112a45760405162461bcd60e51b815260040161024690617402565b806001600160a01b0381166112cb5760405162461bcd60e51b815260040161024690617317565b61119582613541565b60015462010000900460ff16156112fd5760405162461bcd60e51b815260040161024690617340565b7f00000000000000000000000000000000000000000000000000000000000000008114156113605760405162461bcd60e51b815260206004820152601060248201526f37b7363c9037ba3432b91031b430b4b760811b6044820152606401610246565b6040516370a0823160e01b815233600482015282906001600160a01b038616906370a082319060240160206040518083038186803b1580156113a157600080fd5b505afa1580156113b5573d6000803e3d6000fd5b505050506040513d601f19601f820116820180604052508101906113d99190616c28565b10156113f75760405162461bcd60e51b81526004016102469061721f565b61140384333085613630565b6114108433858585613272565b50505050565b60006111a3613085565b60015462010000900460ff16156114495760405162461bcd60e51b815260040161024690617340565b7f00000000000000000000000000000000000000000000000000000000000000008314156114b55760405162461bcd60e51b815260206004820152601960248201527821b0b73737ba1039bbb0b8103a379039b2b6331031b430b4b760391b6044820152606401610246565b6040516370a0823160e01b815233600482015284906001600160a01b038816906370a082319060240160206040518083038186803b1580156114f657600080fd5b505afa15801561150a573d6000803e3d6000fd5b505050506040513d601f19601f8201168201806040525081019061152e9190616c28565b101561157c5760405162461bcd60e51b815260206004820152601a60248201527f496e73756666696369656e7420746f6b656e2062616c616e63650000000000006044820152606401610246565b61158886333087613630565b61159786868987878787613758565b50505050505050565b6115a8612e96565b6001600160a01b0316336001600160a01b0316146115d85760405162461bcd60e51b815260040161024690617402565b816001600160a01b0381166115ff5760405162461bcd60e51b815260040161024690617317565b600384106116415760405162461bcd60e51b815260206004820152600f60248201526e125b9d985b1a59081c985d19481a59608a1b6044820152606401610246565b6040805180820182526001600160a01b038581168252602080830186815260008981526006909252938120925183546001600160a01b031916921691909117825591516001909101557f8819ef417987f8ae7a81f42cdfb18815282fe989326fbff903d13cf0e03ace2a547f3e5fec24aa4dc4e5aee2e025e51e1392c72a2500577559fae9665c6d52bd6a32549180527f54cdd369e4e8a8515e52ca72ec816c2101831ad1f18bf44102ed171459c9b4f954620f42409261170c9291611706916139ea565b906139ea565b11156114105760405162461bcd60e51b8152602060048201526012602482015271696e76616c696420726174652076616c756560701b6044820152606401610246565b600260005414156117725760405162461bcd60e51b815260040161024690617432565b600260005560015462010000900460ff16156117a05760405162461bcd60e51b815260040161024690617340565b600554604051637c55b7bd60e11b8152600091829182916001600160a01b03169063f8ab6f7a906117d79088908890600401617469565b60006040518083038186803b1580156117ef57600080fd5b505afa158015611803573d6000803e3d6000fd5b505050506040513d6000823e601f3d908101601f1916820160405261182b9190810190616b85565b9250925092508282906118515760405162461bcd60e51b81526004016102469190617161565b50600260008681526009602052604090205460ff16600281111561187757611877617797565b141561192357600080611889836139fd565b9150915060005b81518110156109555760008282815181106118ad576118ad6177ad565b602002602001015190508060800151600014156118ca5750611911565b600089815260086020526040902080546118e991869161089890617707565b6119055760405162461bcd60e51b81526004016102469061729d565b61190f8982613d32565b505b8061191b8161773c565b915050611890565b600160008681526009602052604090205460ff16600281111561194857611948617797565b1415610a8857600061195982612b31565b905060005b8151811015610a8157600082828151811061197b5761197b6177ad565b602002602001015190506000816020015160008151811061199e5761199e6177ad565b60200260200101518060200190518101906119b99190616c28565b90506040518060800160405280604781526020016177ef6047913980519060200120811415611a26576000806119ee846143f9565b91509150611a1482600860008e8152602001908152602001600020805461089890617707565b15611a2357611a238b82613d32565b50505b50508080611a339061773c565b91505061195e565b6000828152600660209081526040808320815180830190925280546001600160a01b03168252600101549181018290528291611a8790620f424090611a819087906144ba565b906144c6565b905190925090505b9250929050565b60026000541415611ab95760405162461bcd60e51b815260040161024690617432565b600260005560015462010000900460ff1615611ae75760405162461bcd60e51b815260040161024690617340565b600554604051637c55b7bd60e11b8152600091829182916001600160a01b03169063f8ab6f7a90611b1e9088908890600401617469565b60006040518083038186803b158015611b3657600080fd5b505afa158015611b4a573d6000803e3d6000fd5b505050506040513d6000823e601f3d908101601f19168201604052611b729190810190616b85565b925092509250828290611b985760405162461bcd60e51b81526004016102469190617161565b50600260008681526009602052604090205460ff166002811115611bbe57611bbe617797565b1415611c7257600080611bd0836144d2565b9150915060005b8151811015611c6a576000828281518110611bf457611bf46177ad565b60200260200101519050806020015160001415611c115750611c58565b60008981526008602052604090208054611c3091869161089890617707565b611c4c5760405162461bcd60e51b81526004016102469061729d565b611c568982614807565b505b80611c628161773c565b915050611bd7565b505050611dc8565b600160008681526009602052604090205460ff166002811115611c9757611c97617797565b1415610a88576000611ca882612b31565b905060005b8151811015611dc5576000828281518110611cca57611cca6177ad565b6020026020010151905060008160200151600081518110611ced57611ced6177ad565b6020026020010151806020019051810190611d089190616c28565b90506040518060800160405280604381526020016178a16043913980519060200120811415611db057600080611d3d84614f20565b91509150611d6382600860008e8152602001908152602001600020805461089890617707565b611d7f5760405162461bcd60e51b81526004016102469061729d565b60008b81526008602052604090208054611d9e91849161089890617707565b15611dad57611dad8b82614807565b50505b50508080611dbd9061773c565b915050611cad565b50505b60405133907f00000000000000000000000000000000000000000000000000000000000000009087907f8131e5b107f7021b0773c1108755872d7b94bb31532fdf2256e0a3ef2c890a3d90600090a450506001600055505050565b611e2b612e96565b6001600160a01b0316336001600160a01b031614611e5b5760405162461bcd60e51b815260040161024690617402565b61126a614fe4565b60015462010000900460ff1615611e8c5760405162461bcd60e51b815260040161024690617340565b7f0000000000000000000000000000000000000000000000000000000000000000831415611ef85760405162461bcd60e51b815260206004820152601960248201527821b0b73737ba1039bbb0b8103a379039b2b6331031b430b4b760391b6044820152606401610246565b3480611f3e5760405162461bcd60e51b815260206004820152601560248201527453656e64696e672076616c7565206973207a65726f60581b6044820152606401610246565b600360009054906101000a90046001600160a01b03166001600160a01b031663d0e30db0826040518263ffffffff1660e01b81526004016000604051808303818588803b158015611f8e57600080fd5b505af1158015611fa2573d6000803e3d6000fd5b5050600354611fc493506001600160a01b031691508790508884888888613758565b505050505050565b611fd4612e96565b6001600160a01b0316336001600160a01b0316146120045760405162461bcd60e51b815260040161024690617402565b600083815260086020908152604090912083516120239285019061651e565b506000838152600960205260409020805482919060ff1916600183600281111561204f5761204f617797565b0217905550505050565b612061612e96565b6001600160a01b0316336001600160a01b0316146120915760405162461bcd60e51b815260040161024690617402565b816001600160a01b0381166120b85760405162461bcd60e51b815260040161024690617317565b611410848484615046565b6001600160a01b0382166120e95760405162461bcd60e51b8152600401610246906173cb565b6000826001600160a01b03166310fe9ae86040518163ffffffff1660e01b815260040160206040518083038186803b15801561212457600080fd5b505afa158015612138573d6000803e3d6000fd5b505050506040513d601f19601f8201168201806040525081019061215c919061676b565b60048054604051639dc6108f60e01b81526001600160a01b0380851693820193909352929350600092911690639dc6108f9060240160206040518083038186803b1580156121a957600080fd5b505afa1580156121bd573d6000803e3d6000fd5b505050506040513d601f19601f820116820180604052508101906121e1919061676b565b9050806001600160a01b0316846001600160a01b03161461223a5760405162461bcd60e51b815260206004820152601360248201527224b73b30b634b2103b30bab63a103a37b5b2b760691b6044820152606401610246565b60405163c2507ac160e01b8152600481018490526000906001600160a01b0383169063c2507ac19060240160206040518083038186803b15801561227d57600080fd5b505afa158015612291573d6000803e3d6000fd5b505050506040513d601f19601f820116820180604052508101906122b59190616c28565b604051630ad58d2f60e01b81527f00000000000000000000000000000000000000000000000000000000000000006004820152602481018690523360448201529091506001600160a01b03831690630ad58d2f90606401600060405180830381600087803b15801561232657600080fd5b505af115801561233a573d6000803e3d6000fd5b50505050612349833383615046565b5050505050565b600260005414156123735760405162461bcd60e51b815260040161024690617432565b600260005560015462010000900460ff16156123a15760405162461bcd60e51b815260040161024690617340565b6040516370a0823160e01b815233600482015281906001600160a01b038516906370a082319060240160206040518083038186803b1580156123e257600080fd5b505afa1580156123f6573d6000803e3d6000fd5b505050506040513d601f19601f8201168201806040525081019061241a9190616c28565b10156124385760405162461bcd60e51b81526004016102469061721f565b61244483333084613630565b61245183610cb333612ec9565b5050600160005550565b606080600061247161246c85615087565b6150b4565b90506002815110156124955760405162461bcd60e51b81526004016102469061726d565b6124b8816000815181106124ab576124ab6177ad565b60200260200101516151fb565b925060006124df826001815181106124d2576124d26177ad565b60200260200101516150b4565b516001600160401b038111156124f7576124f76177c3565b60405190808252806020026020018201604052801561252a57816020015b60608152602001906001900390816125155790505b50905060005b612546836001815181106124d2576124d26177ad565b518110156125a857612578612567846001815181106124d2576124d26177ad565b82815181106124ab576124ab6177ad565b82828151811061258a5761258a6177ad565b602002602001018190525080806125a09061773c565b915050612530565b50606081516001600160401b038111156125c4576125c46177c3565b60405190808252806020026020018201604052801561263857816020015b6126256040518060e00160405280606081526020016060815260200160008019168152602001600081526020016000815260200160608152602001600081525090565b8152602001906001900390816125e25790505b50935060005b825181101561280657600061266b84838151811061265e5761265e6177ad565b60200260200101516152ae565b805160208201209091507f3ad224e3e42a516df08d1fca74990eac30205afb5287a46132a6975ce0b2cede14156127f3576126be8483815181106126b1576126b16177ad565b6020026020010151615389565b925060006126ce61246c85615087565b90506007815110156126f25760405162461bcd60e51b81526004016102469061726d565b60006040518060e00160405280612715846003815181106124ab576124ab6177ad565b8152602001612730846004815181106124ab576124ab6177ad565b815260200161274b846002815181106124ab576124ab6177ad565b612754906176b7565b815260200161277c8460008151811061276f5761276f6177ad565b6020026020010151615871565b81526020016127978460018151811061276f5761276f6177ad565b81526020016127b2846005815181106124ab576124ab6177ad565b81526020016127cd8460068151811061276f5761276f6177ad565b8152509050808885815181106127e5576127e56177ad565b602002602001018190525050505b50806127fe8161773c565b91505061263e565b50505050915091565b6000818051906020012083805190602001201490505b92915050565b60408082015160008181526007602052919091205460ff16156128605760405162461bcd60e51b815260040161024690617248565b6000818152600760205260409020805460ff191660011790556060820151831461289c5760405162461bcd60e51b81526004016102469061736a565b81608001517f0000000000000000000000000000000000000000000000000000000000000000146128df5760405162461bcd60e51b81526004016102469061736a565b600480546060840151845160405163fb9e6c1360e01b81526000946001600160a01b039094169363fb9e6c139361291a939092909101617469565b60206040518083038186803b15801561293257600080fd5b505afa158015612946573d6000803e3d6000fd5b505050506040513d601f19601f8201168201806040525081019061296a919061676b565b90506001600160a01b0381166129925760405162461bcd60e51b81526004016102469061719c565b60048054606085015160c0860151604051633bab639f60e21b81526000946001600160a01b039094169363eead8e7c936129d29388939192909101616f9d565b60206040518083038186803b1580156129ea57600080fd5b505afa1580156129fe573d6000803e3d6000fd5b505050506040513d601f19601f82011682018060405250810190612a229190616c28565b6004805460405163ceec8cb960e01b81526001600160a01b0386811693820193909352929350169063ceec8cb99060240160206040518083038186803b158015612a6b57600080fd5b505afa158015612a7f573d6000803e3d6000fd5b505050506040513d601f19601f82011682018060405250810190612aa39190616b6a565b15612b09576040516340c10f1960e01b8152306004820152602481018290526001600160a01b038316906340c10f1990604401600060405180830381600087803b158015612af057600080fd5b505af1158015612b04573d6000803e3d6000fd5b505050505b612349828560200151612b218760a001516014015190565b8488604001518960600151612eff565b60606000612b4161246c84615087565b905080516001600160401b03811115612b5c57612b5c6177c3565b604051908082528060200260200182016040528015612bba57816020015b612ba7604051806060016040528060006001600160a01b0316815260200160608152602001606081525090565b815260200190600190039081612b7a5790505b50915060005b8151811015612d73576000612be08383815181106124d2576124d26177ad565b9050600381511015612c285760405162461bcd60e51b81526020600482015260116024820152706c6f67206c656e67746820746f206c6f7760781b6044820152606401610246565b6000612c40826001815181106124d2576124d26177ad565b9050600081516001600160401b03811115612c5d57612c5d6177c3565b604051908082528060200260200182016040528015612c9057816020015b6060815260200190600190039081612c7b5790505b50905060005b8251811015612ce457612cb48382815181106124ab576124ab6177ad565b828281518110612cc657612cc66177ad565b60200260200101819052508080612cdc9061773c565b915050612c96565b506040518060600160405280612d1385600081518110612d0657612d066177ad565b60200260200101516158f9565b6001600160a01b03168152602001828152602001612d3d856002815181106124ab576124ab6177ad565b815250868581518110612d5257612d526177ad565b60200260200101819052505050508080612d6b9061773c565b915050612bc0565b5050919050565b6060612dbf6040518060e00160405280606081526020016060815260200160008019168152602001600081526020016000815260200160608152602001600081525090565b8251612dca90612ec9565b91508260200151600181518110612de357612de36177ad565b6020026020010151806020019051810190612dfe9190616c28565b6060820152602083015180516002908110612e1b57612e1b6177ad565b6020026020010151806020019051810190612e369190616c28565b8160800181815250506000808460400151806020019051810190612e5a9190616c41565b60c08801526020870191909152604086019290925292509050612e7c82612ec9565b8352612e8781612ec9565b8360a001819052505050915091565b60007fb53127684a568b3173ae13b9f8a6016e243e63b6e8ee1178d6a717850b5d61035b546001600160a01b0316919050565b604051606082811b6bffffffffffffffffffffffff19166020830152906034016040516020818303038152906040529050919050565b60048054604051639dc6108f60e01b81526001600160a01b038981169382019390935260009290911690639dc6108f9060240160206040518083038186803b158015612f4a57600080fd5b505afa158015612f5e573d6000803e3d6000fd5b505050506040513d601f19601f82011682018060405250810190612f82919061676b565b90506001600160a01b038116612faa5760405162461bcd60e51b8152600401610246906173cb565b604051638dbdbe6d60e01b815260048101839052602481018590526001600160a01b038681166044830152821690638dbdbe6d90606401600060405180830381600087803b158015612ffb57600080fd5b505af115801561300f573d6000803e3d6000fd5b50505050866001600160a01b03167f0000000000000000000000000000000000000000000000000000000000000000837f5bf7c8229e485fc1aa764dc0e95bb88be5d3589f08d0fb5fca73bd195aecde0e868a8a8a6040516130749493929190617048565b60405180910390a450505050505050565b60007f360894a13ba1a3210667c828492db98dca3e2076cc3735a920a3ca505d382bbc612eba565b6130b5612e96565b6001600160a01b0316336001600160a01b031614610dac5760405162461bcd60e51b815260206004820152603060248201527f4d41504f6d6e69636861696e5365727669636552656c61793a206f6e6c79204160448201526f646d696e2063616e207570677261646560801b6064820152608401610246565b6000613138613085565b90506131438461594b565b6000835111806131505750815b156131615761315f84846159f3565b505b7f4910fdfa16fed3260ed0e7147f7cc6da11a60208b5b9406d12a635614ffd9143805460ff1661234957805460ff191660011781556040516001600160a01b03831660248201526131e090869060440160408051601f198184030181529190526020810180516001600160e01b0316631b2ce7f360e11b1790526159f3565b50805460ff191681556131f1613085565b6001600160a01b0316826001600160a01b0316146132695760405162461bcd60e51b815260206004820152602f60248201527f45524331393637557067726164653a207570677261646520627265616b73206660448201526e75727468657220757067726164657360881b6064820152608401610246565b61234985615a18565b6004805460405163204f487760e01b81526001600160a01b0388811693820193909352602481018490526000929091169063204f48779060440160006040518083038186803b1580156132c457600080fd5b505afa1580156132d8573d6000803e3d6000fd5b505050506040513d6000823e601f3d908101601f191682016040526133009190810190616d77565b905061331b816040518060200160405280600081525061280f565b156133385760405162461bcd60e51b815260040161024690617394565b6000613345868685615a58565b9050827f00000000000000000000000000000000000000000000000000000000000000007fe23247b10e5cf2e2a6a13352598fae25c889731f3b5eff5fb52184e121b41d54838a6133958b612ec9565b8a8a6040516133a8959493929190616ff9565b60405180910390a36000806133df89877f000000000000000000000000000000000000000000000000000000000000000088615ac8565b6004805460405163ceec8cb960e01b81526001600160a01b038e811693820193909352939550919350169063ceec8cb99060240160206040518083038186803b15801561342b57600080fd5b505afa15801561343f573d6000803e3d6000fd5b505050506040513d601f19601f820116820180604052508101906134639190616b6a565b156134c357604051630852cd8d60e31b8152600481018390526001600160a01b038a16906342966c6890602401600060405180830381600087803b1580156134aa57600080fd5b505af11580156134be573d6000803e3d6000fd5b505050505b847f00000000000000000000000000000000000000000000000000000000000000007f44ff77018688dad4b245e8ab97358ed57ed92269952ece7ffd321366ce078622856135108d612ec9565b6135198d612ec9565b8c878b60405161352e969594939291906170fb565b60405180910390a3505050505050505050565b7f7e644d79422f17c01e4894b5f4f588d331ebfa28653d42ae832dc59e38c9798f61356a612e96565b604080516001600160a01b03928316815291841660208301520160405180910390a1610dac81615df1565b60015462010000900460ff166135e45760405162461bcd60e51b815260206004820152601460248201527314185d5cd8589b194e881b9bdd081c185d5cd95960621b6044820152606401610246565b6001805462ff0000191690557f5db9ee0a495bf2e6ff9c91a7834c1ba4fdd244a5e8aa4e537bd38aeae4b073aa335b6040516001600160a01b03909116815260200160405180910390a1565b604080516001600160a01b0385811660248301528481166044830152606480830185905283518084039091018152608490920183526020820180516001600160e01b03166323b872dd60e01b17905291516000928392908816916136949190616f4d565b6000604051808303816000865af19150503d80600081146136d1576040519150601f19603f3d011682016040523d82523d6000602084013e6136d6565b606091505b50915091508180156137005750805115806137005750808060200190518101906137009190616b6a565b611fc45760405162461bcd60e51b8152602060048201526024808201527f5472616e7366657248656c7065723a205452414e534645525f46524f4d5f46416044820152631253115160e21b6064820152608401610246565b6004805460405163204f487760e01b81526001600160a01b038a811693820193909352602481018690526000929091169063204f48779060440160006040518083038186803b1580156137aa57600080fd5b505afa1580156137be573d6000803e3d6000fd5b505050506040513d6000823e601f3d908101601f191682016040526137e69190810190616d77565b9050613801816040518060200160405280600081525061280f565b1561384e5760405162461bcd60e51b815260206004820152601860248201527f4f757420746f6b656e206e6f74207265676973746572656400000000000000006044820152606401610246565b60008061387d8a887f000000000000000000000000000000000000000000000000000000000000000089615ac8565b6004805460405163ceec8cb960e01b81526001600160a01b038f811693820193909352939550919350169063ceec8cb99060240160206040518083038186803b1580156138c957600080fd5b505afa1580156138dd573d6000803e3d6000fd5b505050506040513d601f19601f820116820180604052508101906139019190616b6a565b1561396157604051630852cd8d60e31b8152600481018390526001600160a01b038b16906342966c6890602401600060405180830381600087803b15801561394857600080fd5b505af115801561395c573d6000803e3d6000fd5b505050505b600061396e898b89615a58565b9050867f00000000000000000000000000000000000000000000000000000000000000007fca1cf8cebf88499429cca8f87cbca15ab8dafd06702259a5344ddce89ef3f3a583876139be8e612ec9565b8f888d8d6040516139d5979695949392919061707d565b60405180910390a35050505050505050505050565b60006139f68284617501565b9392505050565b6060806000613a0e61246c85615087565b9050600281511015613a325760405162461bcd60e51b81526004016102469061726d565b613a48816000815181106124ab576124ab6177ad565b92506000613a62826001815181106124d2576124d26177ad565b516001600160401b03811115613a7a57613a7a6177c3565b604051908082528060200260200182016040528015613aad57816020015b6060815260200190600190039081613a985790505b50905060005b613ac9836001815181106124d2576124d26177ad565b51811015613b1a57613aea612567846001815181106124d2576124d26177ad565b828281518110613afc57613afc6177ad565b60200260200101819052508080613b129061773c565b915050613ab3565b50606081516001600160401b03811115613b3657613b366177c3565b604051908082528060200260200182016040528015613b6f57816020015b613b5c6165a2565b815260200190600190039081613b545790505b50935060005b8251811015612806576000613b9584838151811061265e5761265e6177ad565b805160208201209091507f4e87426fdd31a6df84975ed344b2c3fbd45109085f1557dff1156b300f135df81415613d1f57613bdb8483815181106126b1576126b16177ad565b92506000613beb61246c85615087565b9050600881511015613c0f5760405162461bcd60e51b81526004016102469061726d565b6000604051806101000160405280613c33846003815181106124ab576124ab6177ad565b8152602001613c4e846004815181106124ab576124ab6177ad565b8152602001613c69846002815181106124ab576124ab6177ad565b613c72906176b7565b8152602001613c8d8460008151811061276f5761276f6177ad565b8152602001613ca88460018151811061276f5761276f6177ad565b8152602001613cc3846005815181106124ab576124ab6177ad565b8152602001613cde8460068151811061276f5761276f6177ad565b8152602001613cf9846007815181106124ab576124ab6177ad565b815250905080888581518110613d1157613d116177ad565b602002602001018190525050505b5080613d2a8161773c565b915050613b75565b60408082015160008181526007602052919091205460ff1615613d675760405162461bcd60e51b815260040161024690617248565b6000818152600760205260409020805460ff1916600117905560608201518314613da35760405162461bcd60e51b81526004016102469061736a565b600480546060840151845160405163fb9e6c1360e01b81526000946001600160a01b039094169363fb9e6c1393613dde939092909101617469565b60206040518083038186803b158015613df657600080fd5b505afa158015613e0a573d6000803e3d6000fd5b505050506040513d601f19601f82011682018060405250810190613e2e919061676b565b90506001600160a01b038116613e565760405162461bcd60e51b81526004016102469061719c565b60607f000000000000000000000000000000000000000000000000000000000000000084608001511415613e9457613e8d82612ec9565b9050613f5c565b60048054608086015160405163204f487760e01b81526001600160a01b0386811694820194909452602481019190915291169063204f48779060440160006040518083038186803b158015613ee857600080fd5b505afa158015613efc573d6000803e3d6000fd5b505050506040513d6000823e601f3d908101601f19168201604052613f249190810190616d77565b9050613f3f816040518060200160405280600081525061280f565b15613f5c5760405162461bcd60e51b815260040161024690617394565b60048054606086015160c0870151604051633bab639f60e21b81526000946001600160a01b039094169363eead8e7c93613f9c9389939192909101616f9d565b60206040518083038186803b158015613fb457600080fd5b505afa158015613fc8573d6000803e3d6000fd5b505050506040513d601f19601f82011682018060405250810190613fec9190616c28565b6004805460405163ceec8cb960e01b81526001600160a01b0387811693820193909352929350169063ceec8cb99060240160206040518083038186803b15801561403557600080fd5b505afa158015614049573d6000803e3d6000fd5b505050506040513d601f19601f8201168201806040525081019061406d9190616b6a565b156140d3576040516340c10f1960e01b8152306004820152602481018290526001600160a01b038416906340c10f1990604401600060405180830381600087803b1580156140ba57600080fd5b505af11580156140ce573d6000803e3d6000fd5b505050505b846080015185606001517fe23247b10e5cf2e2a6a13352598fae25c889731f3b5eff5fb52184e121b41d5487604001518689602001518a60a0015187604051614120959493929190616ff9565b60405180910390a360008061413f858489606001518a60800151615ac8565b915091507f0000000000000000000000000000000000000000000000000000000000000000876080015114156142b75760006141808860a001516014015190565b6003549091506001600160a01b03878116911614156141be576003546141af906001600160a01b031684615e7d565b6141b98184615f93565b614260565b6040516370a0823160e01b815230600482015283906001600160a01b038816906370a082319060240160206040518083038186803b1580156141ff57600080fd5b505afa158015614213573d6000803e3d6000fd5b505050506040513d601f19601f820116820180604052508101906142379190616c28565b10156142555760405162461bcd60e51b81526004016102469061721f565b61426086828561605c565b876080015188606001517f3790accbe9ce42658f962f7e7cfa0e6ae7acbb46014c6e01e1219a08781613758a60400151898c6020015186896040516142a9959493929190616fbe565b60405180910390a3506143ef565b6004805460405163ceec8cb960e01b81526001600160a01b038881169382019390935291169063ceec8cb99060240160206040518083038186803b1580156142fe57600080fd5b505afa158015614312573d6000803e3d6000fd5b505050506040513d601f19601f820116820180604052508101906143369190616b6a565b1561439657604051630852cd8d60e31b8152600481018390526001600160a01b038616906342966c6890602401600060405180830381600087803b15801561437d57600080fd5b505af1158015614391573d6000803e3d6000fd5b505050505b608087015160608801516040808a01518a5160208c015160a08d015193517f44ff77018688dad4b245e8ab97358ed57ed92269952ece7ffd321366ce078622946143e69493929189908d906170fb565b60405180910390a35b5050505050505050565b60606144036165a2565b825161440e90612ec9565b91508260200151600181518110614427576144276177ad565b60200260200101518060200190518101906144429190616c28565b606082015260208301518051600290811061445f5761445f6177ad565b602002602001015180602001905181019061447a9190616c28565b60808201526040830151805161449891602091810182019101616cb9565b60e087015260c086015260a08501526020840152825260408201529092909150565b60006139f6828461763d565b60006139f6828461753e565b60608060006144e361246c85615087565b90506002815110156145075760405162461bcd60e51b81526004016102469061726d565b61451d816000815181106124ab576124ab6177ad565b92506000614537826001815181106124d2576124d26177ad565b516001600160401b0381111561454f5761454f6177c3565b60405190808252806020026020018201604052801561458257816020015b606081526020019060019003908161456d5790505b50905060005b61459e836001815181106124d2576124d26177ad565b518110156145ef576145bf612567846001815181106124d2576124d26177ad565b8282815181106145d1576145d16177ad565b602002602001018190525080806145e79061773c565b915050614588565b50606081516001600160401b0381111561460b5761460b6177c3565b60405190808252806020026020018201604052801561464457816020015b6146316165ea565b8152602001906001900390816146295790505b50935060005b825181101561280657600061466a84838151811061265e5761265e6177ad565b805160208201209091507f525e2d5d6e874e1f98c7b3e9a12be276d31598c25f92fb38ce6af0c1591371c414156147f4576146b08483815181106126b1576126b16177ad565b925060006146c061246c85615087565b90506008815110156146e45760405162461bcd60e51b81526004016102469061726d565b60006040518061010001604052806147088460008151811061276f5761276f6177ad565b81526020016147238460018151811061276f5761276f6177ad565b815260200161473e846002815181106124ab576124ab6177ad565b614747906176b7565b8152602001614762846003815181106124ab576124ab6177ad565b815260200161477d846004815181106124ab576124ab6177ad565b8152602001614798846005815181106124ab576124ab6177ad565b81526020016147b38460068151811061276f5761276f6177ad565b81526020016147ce846007815181106124ab576124ab6177ad565b8152509050808885815181106147e6576147e66177ad565b602002602001018190525050505b50806147ff8161773c565b91505061464a565b60408082015160008181526007602052919091205460ff161561483c5760405162461bcd60e51b815260040161024690617248565b6000818152600760205260409020805460ff19166001179055815183146148755760405162461bcd60e51b81526004016102469061736a565b600480548351606085015160405163fb9e6c1360e01b81526000946001600160a01b039094169363fb9e6c13936148b0939092909101617469565b60206040518083038186803b1580156148c857600080fd5b505afa1580156148dc573d6000803e3d6000fd5b505050506040513d601f19601f82011682018060405250810190614900919061676b565b90506001600160a01b0381166149285760405162461bcd60e51b81526004016102469061719c565b604080516060808201835280825260208201526000918101919091528360e0015180602001905181019061495c9190616a04565b6001600160a01b03908116604085018190526020850192909252918352908316146149db5760405162461bcd60e51b815260206004820152602960248201527f53776170206f6e204d61702052656c617920436861696e206e6f7420737570706044820152681bdc9d1959081e595d60ba1b6064820152608401610246565b60607f000000000000000000000000000000000000000000000000000000000000000085602001511415614a1957614a1283612ec9565b9050614ae1565b60048054602087015160405163204f487760e01b81526001600160a01b0387811694820194909452602481019190915291169063204f48779060440160006040518083038186803b158015614a6d57600080fd5b505afa158015614a81573d6000803e3d6000fd5b505050506040513d6000823e601f3d908101601f19168201604052614aa99190810190616d77565b9050614ac4816040518060200160405280600081525061280f565b15614ae15760405162461bcd60e51b815260040161024690617394565b60048054865160c0880151604051633bab639f60e21b81526000946001600160a01b039094169363eead8e7c93614b1e938a939192909101616f9d565b60206040518083038186803b158015614b3657600080fd5b505afa158015614b4a573d6000803e3d6000fd5b505050506040513d601f19601f82011682018060405250810190614b6e9190616c28565b6004805460405163ceec8cb960e01b81526001600160a01b0388811693820193909352929350169063ceec8cb99060240160206040518083038186803b158015614bb757600080fd5b505afa158015614bcb573d6000803e3d6000fd5b505050506040513d601f19601f82011682018060405250810190614bef9190616b6a565b15614c55576040516340c10f1960e01b8152306004820152602481018290526001600160a01b038516906340c10f1990604401600060405180830381600087803b158015614c3c57600080fd5b505af1158015614c50573d6000803e3d6000fd5b505050505b600080614c6c86848a600001518b60200151615ac8565b915091507f000000000000000000000000000000000000000000000000000000000000000088602001511415614de3576000614cad8960a001516014015190565b6003549091506001600160a01b0388811691161415614ceb57600354614cdc906001600160a01b031684615e7d565b614ce68184615f93565b614d8d565b6040516370a0823160e01b815230600482015283906001600160a01b038916906370a082319060240160206040518083038186803b158015614d2c57600080fd5b505afa158015614d40573d6000803e3d6000fd5b505050506040513d601f19601f82011682018060405250810190614d649190616c28565b1015614d825760405162461bcd60e51b81526004016102469061721f565b614d8d87828561605c565b886040015189602001518a600001517f2a945137b011d4aadec6425788c652197d107fc33f6cdccbb0c269273be9c1c98a8d608001518689604051614dd59493929190616f69565b60405180910390a450614f15565b6004805460405163ceec8cb960e01b81526001600160a01b038981169382019390935291169063ceec8cb99060240160206040518083038186803b158015614e2a57600080fd5b505afa158015614e3e573d6000803e3d6000fd5b505050506040513d601f19601f82011682018060405250810190614e629190616b6a565b15614ec257604051630852cd8d60e31b8152600481018390526001600160a01b038716906342966c6890602401600060405180830381600087803b158015614ea957600080fd5b505af1158015614ebd573d6000803e3d6000fd5b505050505b876020015188600001517fca1cf8cebf88499429cca8f87cbca15ab8dafd06702259a5344ddce89ef3f3a58a60400151878c608001518d60a00151878f60e0015160405161352e969594939291906170fb565b505050505050505050565b6060614f2a6165ea565b8251614f3590612ec9565b91508260200151600181518110614f4e57614f4e6177ad565b6020026020010151806020019051810190614f699190616c28565b8152602083015180516002908110614f8357614f836177ad565b6020026020010151806020019051810190614f9e9190616c28565b8160200181815250508260400151806020019051810190614fbf9190616cb9565b60e087015260c086015260a08501526080840152606083015260408201529092909150565b60015462010000900460ff161561500d5760405162461bcd60e51b815260040161024690617340565b6001805462ff00001916620100001790557f62e78cea01bee320cd4e420270b5ea74000d11b0c9f74754ebdbfc544b05a2586136133390565b6003546001600160a01b038481169116141561507c57600354615072906001600160a01b031682615e7d565b610efd8282615f93565b610efd83838361605c565b60408051808201825260008082526020918201528151808301909252825182529182019181019190915290565b60606150bf82616170565b6150fa5760405162461bcd60e51b815260206004820152600c60248201526b1a5cc81b1a5cdd0819985a5b60a21b6044820152606401610246565b6000615105836161a9565b90506000816001600160401b03811115615121576151216177c3565b60405190808252806020026020018201604052801561516657816020015b604080518082019091526000808252602082015281526020019060019003908161513f5790505b5090506000615178856020015161622c565b85602001516151879190617501565b90506000805b848110156151f05761519e836162a7565b91506040518060400160405280838152602001848152508482815181106151c7576151c76177ad565b60209081029190910101526151dc8284617501565b9250806151e88161773c565b91505061518d565b509195945050505050565b805160609061523f5760405162461bcd60e51b815260206004820152601060248201526f6974656d206c656e206973207a65726f60801b6044820152606401610246565b60008061524b8461634b565b915091506000816001600160401b03811115615269576152696177c3565b6040519080825280601f01601f191660200182016040528015615293576020820181803683370190505b509050602081016152a5848285616392565b50949350505050565b60606040825110156153025760405162461bcd60e51b815260206004820152601960248201527f496e76616c696420657874726120726573756c742074797065000000000000006044820152606401610246565b604080518181526060810182529060208201818036833701905050905060005b60408110156153835782818151811061533d5761533d6177ad565b602001015160f81c60f81b82828151811061535a5761535a6177ad565b60200101906001600160f81b031916908160001a9053508061537b8161773c565b915050615322565b50919050565b6060600282516153999190617757565b1515806153a7575060048251105b156153f45760405162461bcd60e51b815260206004820152601c60248201527f686578537472546f42797465733a20696e76616c696420696e707574000000006044820152606401610246565b6000602060028451615406919061753e565b615410919061767d565b6001600160401b03811115615427576154276177c3565b6040519080825280601f01601f191660200182016040528015615451576020820181803683370190505b50905060405b835181101561586a578351601090819060309087908590811061547c5761547c6177ad565b016020015160f81c108015906154ac575060398684815181106154a1576154a16177ad565b016020015160f81c11155b156154da5760308684815181106154c5576154c56177ad565b01602001516154d7919060f81c617694565b91505b6030866154e8856001617501565b815181106154f8576154f86177ad565b016020015160f81c108015906155325750603986615517856001617501565b81518110615527576155276177ad565b016020015160f81c11155b1561556a57603086615545856001617501565b81518110615555576155556177ad565b0160200151615567919060f81c617694565b90505b604186848151811061557e5761557e6177ad565b016020015160f81c108015906155ae575060468684815181106155a3576155a36177ad565b016020015160f81c11155b156155e75760418684815181106155c7576155c76177ad565b01602001516155d9919060f81c617694565b6155e490600a617519565b91505b6041866155f5856001617501565b81518110615605576156056177ad565b016020015160f81c1080159061563f5750604686615624856001617501565b81518110615634576156346177ad565b016020015160f81c11155b1561568257604186615652856001617501565b81518110615662576156626177ad565b0160200151615674919060f81c617694565b61567f90600a617519565b90505b6061868481518110615696576156966177ad565b016020015160f81c108015906156c6575060668684815181106156bb576156bb6177ad565b016020015160f81c11155b156156ff5760618684815181106156df576156df6177ad565b01602001516156f1919060f81c617694565b6156fc90600a617519565b91505b60618661570d856001617501565b8151811061571d5761571d6177ad565b016020015160f81c10801590615757575060668661573c856001617501565b8151811061574c5761574c6177ad565b016020015160f81c11155b1561579a5760618661576a856001617501565b8151811061577a5761577a6177ad565b016020015161578c919060f81c617694565b61579790600a617519565b90505b8160ff16601014806157af57508060ff166010145b156157fc5760405162461bcd60e51b815260206004820152601c60248201527f686578537472546f42797465733a20696e76616c696420696e707574000000006044820152606401610246565b8061580883601061765c565b6158129190617519565b60f81b84602061582360028761753e565b61582d919061767d565b8151811061583d5761583d6177ad565b60200101906001600160f81b031916908160001a90535050506002816158639190617501565b9050615457565b5092915050565b80516000901580159061588657508151602110155b6158c95760405162461bcd60e51b81526020600482015260146024820152731a5d195b481b195b881a5cc81b9bdd081d5a5b9d60621b6044820152606401610246565b6000806158d58461634b565b8151919350915060208210156158f15760208290036101000a90045b949350505050565b80516000906015146159425760405162461bcd60e51b81526020600482015260126024820152716974656d206c656e206973206e6f7420323160701b6044820152606401610246565b61282582615871565b803b6159af5760405162461bcd60e51b815260206004820152602d60248201527f455243313936373a206e657720696d706c656d656e746174696f6e206973206e60448201526c1bdd08184818dbdb9d1c9858dd609a1b6064820152608401610246565b807f360894a13ba1a3210667c828492db98dca3e2076cc3735a920a3ca505d382bbc5b80546001600160a01b0319166001600160a01b039290921691909117905550565b60606139f6838360405180606001604052806027815260200161783660279139616411565b615a218161594b565b6040516001600160a01b038216907fbc7cd75a20ee27fd9adebab32041f755214dbc6bffa90cc0225b39da2e5c2d3b90600090a250565b6002805460009130919083615a6c8361773c565b919050557f0000000000000000000000000000000000000000000000000000000000000000848787604051602001615aa996959493929190616ef2565b6040516020818303038152906040528051906020012090509392505050565b60048054604051639dc6108f60e01b81526001600160a01b038088169382019390935260009283928892849290911690639dc6108f9060240160206040518083038186803b158015615b1957600080fd5b505afa158015615b2d573d6000803e3d6000fd5b505050506040513d601f19601f82011682018060405250810190615b51919061676b565b90506001600160a01b038116615b795760405162461bcd60e51b8152600401610246906173cb565b60048054604051631917961760e01b81526000926001600160a01b0390921691631917961791615baf9187918d918c9101616f9d565b60206040518083038186803b158015615bc757600080fd5b505afa158015615bdb573d6000803e3d6000fd5b505050506040513d601f19601f82011682018060405250810190615bff9190616c28565b9050600080828a1115615ca157615c16838b61767d565b600480546040516331b1ee7f60e21b81529294506001600160a01b03169163c6c7b9fc91615c4a91899187918e9101616f9d565b60206040518083038186803b158015615c6257600080fd5b505afa158015615c76573d6000803e3d6000fd5b505050506040513d601f19601f82011682018060405250810190615c9a9190616c28565b9050615ca5565b8992505b60008315615d43576000615cba600086611a3b565b509050615cc7818661767d565b9150600080615cd7600188611a3b565b91509150600082118015615cf357506001600160a01b03811615155b15615d0357615d03898284615046565b600080615d1160028a611a3b565b91509150600082118015615d2d57506001600160a01b03811615155b15615d3d57615d3d8b8284615046565b50505050505b6040516328ab490d60e01b8152600481018b9052602481018c9052604481018a9052606481018490527f0000000000000000000000000000000000000000000000000000000000000000608482015260a481018290526001600160a01b038616906328ab490d9060c401600060405180830381600087803b158015615dc757600080fd5b505af1158015615ddb573d6000803e3d6000fd5b50949e939d50929b505050505050505050505050565b6001600160a01b038116615e565760405162461bcd60e51b815260206004820152602660248201527f455243313936373a206e65772061646d696e20697320746865207a65726f206160448201526564647265737360d01b6064820152608401610246565b807fb53127684a568b3173ae13b9f8a6016e243e63b6e8ee1178d6a717850b5d61036159d2565b600080836001600160a01b0316632e1a7d4d84604051602401615ea291815260200190565b6040516020818303038152906040529060e01b6020820180516001600160e01b038381831617835250505050604051615edb9190616f4d565b6000604051808303816000865af19150503d8060008114615f18576040519150601f19603f3d011682016040523d82523d6000602084013e615f1d565b606091505b5091509150818015615f47575080511580615f47575080806020019051810190615f479190616b6a565b6114105760405162461bcd60e51b815260206004820152601f60248201527f5472616e7366657248656c7065723a2057495448445241575f4641494c4544006044820152606401610246565b604080516000808252602082019092526001600160a01b038416908390604051615fbd9190616f4d565b60006040518083038185875af1925050503d8060008114615ffa576040519150601f19603f3d011682016040523d82523d6000602084013e615fff565b606091505b5050905080610efd5760405162461bcd60e51b815260206004820152602360248201527f5472616e7366657248656c7065723a204554485f5452414e534645525f46414960448201526213115160ea1b6064820152608401610246565b604080516001600160a01b038481166024830152604480830185905283518084039091018152606490920183526020820180516001600160e01b031663a9059cbb60e01b17905291516000928392908716916160b89190616f4d565b6000604051808303816000865af19150503d80600081146160f5576040519150601f19603f3d011682016040523d82523d6000602084013e6160fa565b606091505b50915091508180156161245750805115806161245750808060200190518101906161249190616b6a565b6123495760405162461bcd60e51b815260206004820152601f60248201527f5472616e7366657248656c7065723a205452414e534645525f4641494c4544006044820152606401610246565b805160009061618157506000919050565b6020820151805160001a9060c082101561619f575060009392505050565b5060019392505050565b80516000906161ba57506000919050565b6000806161ca846020015161622c565b84602001516161d99190617501565b90506000846000015185602001516161f19190617501565b90505b8082101561622357616205826162a7565b61620f9083617501565b91508261621b8161773c565b9350506161f4565b50909392505050565b8051600090811a60808110156162455750600092915050565b60b8811080616260575060c08110801590616260575060f881105b1561626e5750600192915050565b60c081101561629b57616283600160b8617694565b6162909060ff168261767d565b6139f6906001617501565b616283600160f8617694565b80516000908190811a60808110156162c2576001915061586a565b60b88110156162e8576162d660808261767d565b6162e1906001617501565b915061586a565b60c08110156163155760b78103600185019450806020036101000a8551046001820181019350505061586a565b60f8811015616329576162d660c08261767d565b60019390930151602084900360f7016101000a900490920160f5190192915050565b600080600061635d846020015161622c565b905060008185602001516163719190617501565b90506000828660000151616385919061767d565b9196919550909350505050565b8061639c57505050565b602081106163d457825182526163b3602084617501565b92506163c0602083617501565b91506163cd60208261767d565b905061639c565b8015610efd57600060016163e983602061767d565b6163f590610100617595565b6163ff919061767d565b84518451821691191617835250505050565b6060833b6164705760405162461bcd60e51b815260206004820152602660248201527f416464726573733a2064656c65676174652063616c6c20746f206e6f6e2d636f6044820152651b9d1c9858dd60d21b6064820152608401610246565b600080856001600160a01b03168560405161648b9190616f4d565b600060405180830381855af49150503d80600081146164c6576040519150601f19603f3d011682016040523d82523d6000602084013e6164cb565b606091505b50915091506164db8282866164e5565b9695505050505050565b606083156164f45750816139f6565b8251156165045782518084602001fd5b8160405162461bcd60e51b81526004016102469190617161565b82805461652a90617707565b90600052602060002090601f01602090048101928261654c5760008555616592565b82601f1061656557805160ff1916838001178555616592565b82800160010185558215616592579182015b82811115616592578251825591602001919060010190616577565b5061659e929150616632565b5090565b60405180610100016040528060608152602001606081526020016000801916815260200160008152602001600081526020016060815260200160008152602001606081525090565b60405180610100016040528060008152602001600081526020016000801916815260200160608152602001606081526020016060815260200160008152602001606081525090565b5b8082111561659e5760008155600101616633565b600061665a616655846174da565b6174aa565b905082815283838301111561666e57600080fd5b6139f68360208301846176db565b8051616687816177d9565b919050565b8051801515811461668757600080fd5b60008083601f8401126166ae57600080fd5b5081356001600160401b038111156166c557600080fd5b602083019150836020828501011115611a8f57600080fd5b600082601f8301126166ee57600080fd5b81356166fc616655826174da565b81815284602083860101111561671157600080fd5b816020850160208301376000918101602001919091529392505050565b600082601f83011261673f57600080fd5b6139f683835160208501616647565b60006020828403121561676057600080fd5b81356139f6816177d9565b60006020828403121561677d57600080fd5b81516139f6816177d9565b6000806040838503121561679b57600080fd5b82356167a6816177d9565b915060208301356167b6816177d9565b809150509250929050565b6000806000606084860312156167d657600080fd5b83356167e1816177d9565b925060208401356167f1816177d9565b929592945050506040919091013590565b600080600080600080600060c0888a03121561681d57600080fd5b8735616828816177d9565b96506020880135616838816177d9565b955060408801356001600160401b038082111561685457600080fd5b6168608b838c016166dd565b965060608a0135955060808a0135945060a08a013591508082111561688457600080fd5b506168918a828b0161669c565b989b979a50959850939692959293505050565b600080604083850312156168b757600080fd5b82356168c2816177d9565b915060208301356001600160401b038111156168dd57600080fd5b6168e9858286016166dd565b9150509250929050565b60008060008060006080868803121561690b57600080fd5b8535616916816177d9565b945060208601356001600160401b038082111561693257600080fd5b61693e89838a016166dd565b955060408801359450606088013591508082111561695b57600080fd5b506169688882890161669c565b969995985093965092949392505050565b6000806000806080858703121561698f57600080fd5b843561699a816177d9565b935060208501356001600160401b038111156169b557600080fd5b6169c1878288016166dd565b949794965050505060408301359260600135919050565b600080604083850312156169eb57600080fd5b82356169f6816177d9565b946020939093013593505050565b600080600060608486031215616a1957600080fd5b83516001600160401b0380821115616a3057600080fd5b818601915086601f830112616a4457600080fd5b815181811115616a5657616a566177c3565b616a6560208260051b016174aa565b80828252602082019150602085018a60208560051b8801011115616a8857600080fd5b60005b84811015616b2a57815186811115616aa257600080fd5b87016080818e03601f19011215616ab857600080fd5b616ac0617482565b6020820151815260408201516020820152606082015188811115616ae357600080fd5b616af28f60208386010161672e565b604083015250608082015191508782168214616b0d57600080fd5b606081019190915284526020938401939190910190600101616a8b565b505060208901519097509350505080821115616b4557600080fd5b50616b528682870161672e565b925050616b616040850161667c565b90509250925092565b600060208284031215616b7c57600080fd5b6139f68261668c565b600080600060608486031215616b9a57600080fd5b616ba38461668c565b925060208401516001600160401b0380821115616bbf57600080fd5b818601915086601f830112616bd357600080fd5b616be287835160208501616647565b93506040860151915080821115616bf857600080fd5b50616c058682870161672e565b9150509250925092565b600060208284031215616c2157600080fd5b5035919050565b600060208284031215616c3a57600080fd5b5051919050565b600080600080600060a08688031215616c5957600080fd5b855194506020860151616c6b816177d9565b60408701519094506001600160401b03811115616c8757600080fd5b616c938882890161672e565b9350506060860151616ca4816177d9565b80925050608086015190509295509295909350565b60008060008060008060c08789031215616cd257600080fd5b8651955060208701516001600160401b0380821115616cf057600080fd5b616cfc8a838b0161672e565b96506040890151915080821115616d1257600080fd5b616d1e8a838b0161672e565b95506060890151915080821115616d3457600080fd5b616d408a838b0161672e565b94506080890151935060a0890151915080821115616d5d57600080fd5b50616d6a89828a0161672e565b9150509295509295509295565b600060208284031215616d8957600080fd5b81516001600160401b03811115616d9f57600080fd5b6158f18482850161672e565b60008060408385031215616dbe57600080fd5b82356001600160401b03811115616dd457600080fd5b616de0858286016166dd565b95602094909401359450505050565b600080600060608486031215616e0457600080fd5b8335925060208401356167f1816177d9565b60008060408385031215616e2957600080fd5b8235915060208301356001600160401b038111156168dd57600080fd5b600080600060608486031215616e5b57600080fd5b8335925060208401356001600160401b03811115616e7857600080fd5b616e84868287016166dd565b925050604084013560038110616e9957600080fd5b809150509250925092565b60008060408385031215616eb757600080fd5b50508035926020909101359150565b60008151808452616ede8160208601602086016176db565b601f01601f19169290920160200192915050565b60006bffffffffffffffffffffffff19808960601b168352876014840152866034840152856054840152808560601b166074840152508251616f3b8160888501602087016176db565b91909101608801979650505050505050565b60008251616f5f8184602087016176db565b9190910192915050565b600060018060a01b03808716835260806020840152616f8b6080840187616ec6565b94166040830152506060015292915050565b6001600160a01b039390931683526020830191909152604082015260600190565b858152600060018060a01b03808716602084015260a06040840152616fe660a0840187616ec6565b9416606083015250608001529392505050565b8581526001600160a01b038516602082015260a06040820181905260009061702390830186616ec6565b82810360608401526170358186616ec6565b9150508260808301529695505050505050565b8481526080602082015260006170616080830186616ec6565b6001600160a01b03949094166040830152506060015292915050565b87815260c06020820152600061709660c0830189616ec6565b82810360408401526170a88189616ec6565b905082810360608401526170bc8188616ec6565b905085608084015282810360a0840152838152838560208301376000602085830101526020601f19601f86011682010191505098975050505050505050565b86815260c06020820152600061711460c0830188616ec6565b82810360408401526171268188616ec6565b9050828103606084015261713a8187616ec6565b905084608084015282810360a08401526171548185616ec6565b9998505050505050505050565b6020815260006139f66020830184616ec6565b602081016003831061719657634e487b7160e01b600052602160045260246000fd5b91905290565b60208082526018908201527f6d617020746f6b656e206e6f7420726567697374657265640000000000000000604082015260600190565b6020808252602c908201527f46756e6374696f6e206d7573742062652063616c6c6564207468726f7567682060408201526b19195b1959d85d1958d85b1b60a21b606082015260800190565b6020808252600f908201526e62616c616e636520746f6f206c6f7760881b604082015260600190565b6020808252600b908201526a1bdc99195c88195e1a5cdd60aa1b604082015260600190565b6020808252601690820152756c6f677348617368206c656e67746820746f206c6f7760501b604082015260600190565b6020808252601490820152731a5b9d985b1a59081b5bdcc818dbdb9d1c9858dd60621b604082015260600190565b6020808252602c908201527f46756e6374696f6e206d7573742062652063616c6c6564207468726f7567682060408201526b6163746976652070726f787960a01b606082015260800190565b6020808252600f908201526e61646472657373206973207a65726f60881b604082015260600190565b60208082526010908201526f14185d5cd8589b194e881c185d5cd95960821b604082015260600190565b60208082526010908201526f1a5b9d985b1a590818da185a5b881a5960821b604082015260600190565b60208082526018908201527f6f757420746f6b656e206e6f7420726567697374657265640000000000000000604082015260600190565b6020808252601a908201527f7661756c7420746f6b656e206e6f742072656769737465726564000000000000604082015260600190565b60208082526016908201527536b7b9a932b630bc901d1d1037b7363c9030b236b4b760511b604082015260600190565b6020808252601f908201527f5265656e7472616e637947756172643a207265656e7472616e742063616c6c00604082015260600190565b8281526040602082015260006158f16040830184616ec6565b604051608081016001600160401b03811182821017156174a4576174a46177c3565b60405290565b604051601f8201601f191681016001600160401b03811182821017156174d2576174d26177c3565b604052919050565b60006001600160401b038211156174f3576174f36177c3565b50601f01601f191660200190565b600082198211156175145761751461776b565b500190565b600060ff821660ff84168060ff038211156175365761753661776b565b019392505050565b60008261754d5761754d617781565b500490565b600181815b8085111561758d5781600019048211156175735761757361776b565b8085161561758057918102915b93841c9390800290617557565b509250929050565b60006139f683836000826175ab57506001612825565b816175b857506000612825565b81600181146175ce57600281146175d8576175f4565b6001915050612825565b60ff8411156175e9576175e961776b565b50506001821b612825565b5060208310610133831016604e8410600b8410161715617617575081810a612825565b6176218383617552565b80600019048211156176355761763561776b565b029392505050565b60008160001904831182151516156176575761765761776b565b500290565b600060ff821660ff84168160ff04811182151516156176355761763561776b565b60008282101561768f5761768f61776b565b500390565b600060ff821660ff8416808210156176ae576176ae61776b565b90039392505050565b805160208083015191908110156153835760001960209190910360031b1b16919050565b60005b838110156176f65781810151838201526020016176de565b838111156114105750506000910152565b600181811c9082168061771b57607f821691505b6020821081141561538357634e487b7160e01b600052602260045260246000fd5b60006000198214156177505761775061776b565b5060010190565b60008261776657617766617781565b500690565b634e487b7160e01b600052601160045260246000fd5b634e487b7160e01b600052601260045260246000fd5b634e487b7160e01b600052602160045260246000fd5b634e487b7160e01b600052603260045260246000fd5b634e487b7160e01b600052604160045260246000fd5b6001600160a01b0381168114610dac57600080fdfe6d61705472616e736665724f75742875696e743235362c75696e743235362c627974657333322c62797465732c62797465732c62797465732c75696e743235362c627974657329416464726573733a206c6f772d6c6576656c2064656c65676174652063616c6c206661696c65646d61704465706f7369744f75742875696e743235362c75696e743235362c627974657333322c616464726573732c62797465732c616464726573732c75696e74323536296d6170537761704f75742875696e743235362c75696e743235362c627974657333322c62797465732c62797465732c62797465732c75696e743235362c627974657329a2646970667358221220a9a1f9694cbf4628ea1dbb72d4a9ef92606919a8b1b173f0cb6703924c58da2f64736f6c63430008070033",
  "devdoc": {
    "kind": "dev",
    "methods": {
      "paused()": {
        "details": "Returns true if the contract is paused, and false otherwise."
      },
      "upgradeTo(address)": {
        "details": "Upgrade the implementation of the proxy to `newImplementation`. Calls {_authorizeUpgrade}. Emits an {Upgraded} event."
      },
      "upgradeToAndCall(address,bytes)": {
        "details": "Upgrade the implementation of the proxy to `newImplementation`, and subsequently execute the function call encoded in `data`. Calls {_authorizeUpgrade}. Emits an {Upgraded} event."
      }
    },
    "version": 1
  },
  "userdoc": {
    "kind": "user",
    "methods": {},
    "version": 1
  },
  "storageLayout": {
    "storage": [
      {
        "astId": 1003,
        "contract": "contracts/MAPOmnichainServiceRelayV2.sol:MAPOmnichainServiceRelayV2",
        "label": "_status",
        "offset": 0,
        "slot": "0",
        "type": "t_uint256"
      },
      {
        "astId": 747,
        "contract": "contracts/MAPOmnichainServiceRelayV2.sol:MAPOmnichainServiceRelayV2",
        "label": "_initialized",
        "offset": 0,
        "slot": "1",
        "type": "t_bool"
      },
      {
        "astId": 750,
        "contract": "contracts/MAPOmnichainServiceRelayV2.sol:MAPOmnichainServiceRelayV2",
        "label": "_initializing",
        "offset": 1,
        "slot": "1",
        "type": "t_bool"
      },
      {
        "astId": 918,
        "contract": "contracts/MAPOmnichainServiceRelayV2.sol:MAPOmnichainServiceRelayV2",
        "label": "_paused",
        "offset": 2,
        "slot": "1",
        "type": "t_bool"
      },
      {
        "astId": 2659,
        "contract": "contracts/MAPOmnichainServiceRelayV2.sol:MAPOmnichainServiceRelayV2",
        "label": "nonce",
        "offset": 0,
        "slot": "2",
        "type": "t_uint256"
      },
      {
        "astId": 2661,
        "contract": "contracts/MAPOmnichainServiceRelayV2.sol:MAPOmnichainServiceRelayV2",
        "label": "wToken",
        "offset": 0,
        "slot": "3",
        "type": "t_address"
      },
      {
        "astId": 2664,
        "contract": "contracts/MAPOmnichainServiceRelayV2.sol:MAPOmnichainServiceRelayV2",
        "label": "tokenRegister",
        "offset": 0,
        "slot": "4",
        "type": "t_contract(ITokenRegisterV2)5438"
      },
      {
        "astId": 2667,
        "contract": "contracts/MAPOmnichainServiceRelayV2.sol:MAPOmnichainServiceRelayV2",
        "label": "lightClientManager",
        "offset": 0,
        "slot": "5",
        "type": "t_contract(ILightClientManager)5202"
      },
      {
        "astId": 2672,
        "contract": "contracts/MAPOmnichainServiceRelayV2.sol:MAPOmnichainServiceRelayV2",
        "label": "distributeRate",
        "offset": 0,
        "slot": "6",
        "type": "t_mapping(t_uint256,t_struct(Rate)2649_storage)"
      },
      {
        "astId": 2676,
        "contract": "contracts/MAPOmnichainServiceRelayV2.sol:MAPOmnichainServiceRelayV2",
        "label": "orderList",
        "offset": 0,
        "slot": "7",
        "type": "t_mapping(t_bytes32,t_bool)"
      },
      {
        "astId": 2680,
        "contract": "contracts/MAPOmnichainServiceRelayV2.sol:MAPOmnichainServiceRelayV2",
        "label": "mosContracts",
        "offset": 0,
        "slot": "8",
        "type": "t_mapping(t_uint256,t_bytes_storage)"
      },
      {
        "astId": 2685,
        "contract": "contracts/MAPOmnichainServiceRelayV2.sol:MAPOmnichainServiceRelayV2",
        "label": "chainTypes",
        "offset": 0,
        "slot": "9",
        "type": "t_mapping(t_uint256,t_enum(chainType)2653)"
      }
    ],
    "types": {
      "t_address": {
        "encoding": "inplace",
        "label": "address",
        "numberOfBytes": "20"
      },
      "t_bool": {
        "encoding": "inplace",
        "label": "bool",
        "numberOfBytes": "1"
      },
      "t_bytes32": {
        "encoding": "inplace",
        "label": "bytes32",
        "numberOfBytes": "32"
      },
      "t_bytes_storage": {
        "encoding": "bytes",
        "label": "bytes",
        "numberOfBytes": "32"
      },
      "t_contract(ILightClientManager)5202": {
        "encoding": "inplace",
        "label": "contract ILightClientManager",
        "numberOfBytes": "20"
      },
      "t_contract(ITokenRegisterV2)5438": {
        "encoding": "inplace",
        "label": "contract ITokenRegisterV2",
        "numberOfBytes": "20"
      },
      "t_enum(chainType)2653": {
        "encoding": "inplace",
        "label": "enum MAPOmnichainServiceRelayV2.chainType",
        "numberOfBytes": "1"
      },
      "t_mapping(t_bytes32,t_bool)": {
        "encoding": "mapping",
        "key": "t_bytes32",
        "label": "mapping(bytes32 => bool)",
        "numberOfBytes": "32",
        "value": "t_bool"
      },
      "t_mapping(t_uint256,t_bytes_storage)": {
        "encoding": "mapping",
        "key": "t_uint256",
        "label": "mapping(uint256 => bytes)",
        "numberOfBytes": "32",
        "value": "t_bytes_storage"
      },
      "t_mapping(t_uint256,t_enum(chainType)2653)": {
        "encoding": "mapping",
        "key": "t_uint256",
        "label": "mapping(uint256 => enum MAPOmnichainServiceRelayV2.chainType)",
        "numberOfBytes": "32",
        "value": "t_enum(chainType)2653"
      },
      "t_mapping(t_uint256,t_struct(Rate)2649_storage)": {
        "encoding": "mapping",
        "key": "t_uint256",
        "label": "mapping(uint256 => struct MAPOmnichainServiceRelayV2.Rate)",
        "numberOfBytes": "32",
        "value": "t_struct(Rate)2649_storage"
      },
      "t_struct(Rate)2649_storage": {
        "encoding": "inplace",
        "label": "struct MAPOmnichainServiceRelayV2.Rate",
        "members": [
          {
            "astId": 2646,
            "contract": "contracts/MAPOmnichainServiceRelayV2.sol:MAPOmnichainServiceRelayV2",
            "label": "receiver",
            "offset": 0,
            "slot": "0",
            "type": "t_address"
          },
          {
            "astId": 2648,
            "contract": "contracts/MAPOmnichainServiceRelayV2.sol:MAPOmnichainServiceRelayV2",
            "label": "rate",
            "offset": 0,
            "slot": "1",
            "type": "t_uint256"
          }
        ],
        "numberOfBytes": "64"
      },
      "t_uint256": {
        "encoding": "inplace",
        "label": "uint256",
        "numberOfBytes": "32"
      }
    }
  }
}