{
  "address": "0xBcA963b3f731B7C89C7327aE969ef2dfBA0D569a",
  "abi": [
    {
      "anonymous": false,
      "inputs": [
        {
          "indexed": false,
          "internalType": "address",
          "name": "previousAdmin",
          "type": "address"
        },
        {
          "indexed": false,
          "internalType": "address",
          "name": "newAdmin",
          "type": "address"
        }
      ],
      "name": "AdminChanged",
      "type": "event"
    },
    {
      "anonymous": false,
      "inputs": [
        {
          "indexed": true,
          "internalType": "address",
          "name": "beacon",
          "type": "address"
        }
      ],
      "name": "BeaconUpgraded",
      "type": "event"
    },
    {
      "anonymous": false,
      "inputs": [
        {
          "indexed": false,
          "internalType": "address",
          "name": "account",
          "type": "address"
        }
      ],
      "name": "Paused",
      "type": "event"
    },
    {
      "anonymous": false,
      "inputs": [
        {
          "indexed": false,
          "internalType": "address",
          "name": "account",
          "type": "address"
        }
      ],
      "name": "Unpaused",
      "type": "event"
    },
    {
      "anonymous": false,
      "inputs": [
        {
          "indexed": true,
          "internalType": "address",
          "name": "implementation",
          "type": "address"
        }
      ],
      "name": "Upgraded",
      "type": "event"
    },
    {
      "anonymous": false,
      "inputs": [
        {
          "indexed": true,
          "internalType": "uint256",
          "name": "fromChain",
          "type": "uint256"
        },
        {
          "indexed": true,
          "internalType": "uint256",
          "name": "toChain",
          "type": "uint256"
        },
        {
          "indexed": true,
          "internalType": "address",
          "name": "token",
          "type": "address"
        },
        {
          "indexed": false,
          "internalType": "bytes32",
          "name": "orderId",
          "type": "bytes32"
        },
        {
          "indexed": false,
          "internalType": "bytes",
          "name": "from",
          "type": "bytes"
        },
        {
          "indexed": false,
          "internalType": "address",
          "name": "to",
          "type": "address"
        },
        {
          "indexed": false,
          "internalType": "uint256",
          "name": "amount",
          "type": "uint256"
        }
      ],
      "name": "mapDepositIn",
      "type": "event"
    },
    {
      "anonymous": false,
      "inputs": [
        {
          "indexed": true,
          "internalType": "uint256",
          "name": "fromChain",
          "type": "uint256"
        },
        {
          "indexed": true,
          "internalType": "uint256",
          "name": "toChain",
          "type": "uint256"
        },
        {
          "indexed": false,
          "internalType": "bytes32",
          "name": "orderId",
          "type": "bytes32"
        },
        {
          "indexed": false,
          "internalType": "address",
          "name": "token",
          "type": "address"
        },
        {
          "indexed": false,
          "internalType": "bytes",
          "name": "from",
          "type": "bytes"
        },
        {
          "indexed": false,
          "internalType": "address",
          "name": "to",
          "type": "address"
        },
        {
          "indexed": false,
          "internalType": "uint256",
          "name": "amount",
          "type": "uint256"
        }
      ],
      "name": "mapDepositOut",
      "type": "event"
    },
    {
      "anonymous": false,
      "inputs": [
        {
          "indexed": true,
          "internalType": "uint256",
          "name": "fromChain",
          "type": "uint256"
        },
        {
          "indexed": true,
          "internalType": "uint256",
          "name": "toChain",
          "type": "uint256"
        },
        {
          "indexed": true,
          "internalType": "address",
          "name": "from",
          "type": "address"
        }
      ],
      "name": "mapSwapExecute",
      "type": "event"
    },
    {
      "anonymous": false,
      "inputs": [
        {
          "indexed": true,
          "internalType": "uint256",
          "name": "fromChain",
          "type": "uint256"
        },
        {
          "indexed": true,
          "internalType": "uint256",
          "name": "toChain",
          "type": "uint256"
        },
        {
          "indexed": true,
          "internalType": "bytes32",
          "name": "orderId",
          "type": "bytes32"
        },
        {
          "indexed": false,
          "internalType": "address",
          "name": "token",
          "type": "address"
        },
        {
          "indexed": false,
          "internalType": "bytes",
          "name": "from",
          "type": "bytes"
        },
        {
          "indexed": false,
          "internalType": "address",
          "name": "toAddress",
          "type": "address"
        },
        {
          "indexed": false,
          "internalType": "uint256",
          "name": "amountOut",
          "type": "uint256"
        }
      ],
      "name": "mapSwapIn",
      "type": "event"
    },
    {
      "anonymous": false,
      "inputs": [
        {
          "indexed": true,
          "internalType": "uint256",
          "name": "fromChain",
          "type": "uint256"
        },
        {
          "indexed": true,
          "internalType": "uint256",
          "name": "toChain",
          "type": "uint256"
        },
        {
          "indexed": false,
          "internalType": "bytes32",
          "name": "orderId",
          "type": "bytes32"
        },
        {
          "indexed": false,
          "internalType": "bytes",
          "name": "token",
          "type": "bytes"
        },
        {
          "indexed": false,
          "internalType": "bytes",
          "name": "from",
          "type": "bytes"
        },
        {
          "indexed": false,
          "internalType": "bytes",
          "name": "to",
          "type": "bytes"
        },
        {
          "indexed": false,
          "internalType": "uint256",
          "name": "amount",
          "type": "uint256"
        },
        {
          "indexed": false,
          "internalType": "bytes",
          "name": "swapData",
          "type": "bytes"
        }
      ],
      "name": "mapSwapOut",
      "type": "event"
    },
    {
      "anonymous": false,
      "inputs": [
        {
          "indexed": true,
          "internalType": "uint256",
          "name": "fromChain",
          "type": "uint256"
        },
        {
          "indexed": true,
          "internalType": "uint256",
          "name": "toChain",
          "type": "uint256"
        },
        {
          "indexed": true,
          "internalType": "address",
          "name": "from",
          "type": "address"
        }
      ],
      "name": "mapTransferExecute",
      "type": "event"
    },
    {
      "anonymous": false,
      "inputs": [
        {
          "indexed": true,
          "internalType": "uint256",
          "name": "fromChain",
          "type": "uint256"
        },
        {
          "indexed": true,
          "internalType": "uint256",
          "name": "toChain",
          "type": "uint256"
        },
        {
          "indexed": false,
          "internalType": "bytes32",
          "name": "orderId",
          "type": "bytes32"
        },
        {
          "indexed": false,
          "internalType": "address",
          "name": "token",
          "type": "address"
        },
        {
          "indexed": false,
          "internalType": "bytes",
          "name": "from",
          "type": "bytes"
        },
        {
          "indexed": false,
          "internalType": "address",
          "name": "to",
          "type": "address"
        },
        {
          "indexed": false,
          "internalType": "uint256",
          "name": "amount",
          "type": "uint256"
        }
      ],
      "name": "mapTransferIn",
      "type": "event"
    },
    {
      "anonymous": false,
      "inputs": [
        {
          "indexed": true,
          "internalType": "uint256",
          "name": "fromChain",
          "type": "uint256"
        },
        {
          "indexed": true,
          "internalType": "uint256",
          "name": "toChain",
          "type": "uint256"
        },
        {
          "indexed": false,
          "internalType": "bytes32",
          "name": "orderId",
          "type": "bytes32"
        },
        {
          "indexed": false,
          "internalType": "bytes",
          "name": "token",
          "type": "bytes"
        },
        {
          "indexed": false,
          "internalType": "bytes",
          "name": "from",
          "type": "bytes"
        },
        {
          "indexed": false,
          "internalType": "bytes",
          "name": "to",
          "type": "bytes"
        },
        {
          "indexed": false,
          "internalType": "uint256",
          "name": "amount",
          "type": "uint256"
        },
        {
          "indexed": false,
          "internalType": "bytes",
          "name": "toChainToken",
          "type": "bytes"
        }
      ],
      "name": "mapTransferOut",
      "type": "event"
    },
    {
      "anonymous": false,
      "inputs": [
        {
          "indexed": true,
          "internalType": "uint256",
          "name": "fromChain",
          "type": "uint256"
        },
        {
          "indexed": true,
          "internalType": "uint256",
          "name": "toChain",
          "type": "uint256"
        },
        {
          "indexed": false,
          "internalType": "bytes32",
          "name": "orderId",
          "type": "bytes32"
        },
        {
          "indexed": false,
          "internalType": "address",
          "name": "token",
          "type": "address"
        },
        {
          "indexed": false,
          "internalType": "bytes",
          "name": "from",
          "type": "bytes"
        },
        {
          "indexed": false,
          "internalType": "bytes",
          "name": "to",
          "type": "bytes"
        },
        {
          "indexed": false,
          "internalType": "uint256",
          "name": "amount",
          "type": "uint256"
        }
      ],
      "name": "mapTransferRelay",
      "type": "event"
    },
    {
      "inputs": [
        {
          "internalType": "uint256",
          "name": "",
          "type": "uint256"
        }
      ],
      "name": "chainTypes",
      "outputs": [
        {
          "internalType": "enum MAPOmnichainServiceRelayV2.chainType",
          "name": "",
          "type": "uint8"
        }
      ],
      "stateMutability": "view",
      "type": "function"
    },
    {
      "inputs": [
        {
          "internalType": "address",
          "name": "_admin",
          "type": "address"
        }
      ],
      "name": "changeAdmin",
      "outputs": [],
      "stateMutability": "nonpayable",
      "type": "function"
    },
    {
      "inputs": [
        {
          "internalType": "uint256",
          "name": "_chainId",
          "type": "uint256"
        },
        {
          "internalType": "bytes",
          "name": "_receiptProof",
          "type": "bytes"
        }
      ],
      "name": "depositIn",
      "outputs": [],
      "stateMutability": "payable",
      "type": "function"
    },
    {
      "inputs": [
        {
          "internalType": "address",
          "name": "_to",
          "type": "address"
        }
      ],
      "name": "depositNative",
      "outputs": [],
      "stateMutability": "payable",
      "type": "function"
    },
    {
      "inputs": [
        {
          "internalType": "address",
          "name": "_token",
          "type": "address"
        },
        {
          "internalType": "address",
          "name": "_to",
          "type": "address"
        },
        {
          "internalType": "uint256",
          "name": "_amount",
          "type": "uint256"
        }
      ],
      "name": "depositToken",
      "outputs": [],
      "stateMutability": "nonpayable",
      "type": "function"
    },
    {
      "inputs": [
        {
          "internalType": "uint256",
          "name": "",
          "type": "uint256"
        }
      ],
      "name": "distributeRate",
      "outputs": [
        {
          "internalType": "address",
          "name": "receiver",
          "type": "address"
        },
        {
          "internalType": "uint256",
          "name": "rate",
          "type": "uint256"
        }
      ],
      "stateMutability": "view",
      "type": "function"
    },
    {
      "inputs": [
        {
          "internalType": "address",
          "name": "_token",
          "type": "address"
        },
        {
          "internalType": "address payable",
          "name": "_receiver",
          "type": "address"
        },
        {
          "internalType": "uint256",
          "name": "_amount",
          "type": "uint256"
        }
      ],
      "name": "emergencyWithdraw",
      "outputs": [],
      "stateMutability": "nonpayable",
      "type": "function"
    },
    {
      "inputs": [],
      "name": "getAdmin",
      "outputs": [
        {
          "internalType": "address",
          "name": "",
          "type": "address"
        }
      ],
      "stateMutability": "view",
      "type": "function"
    },
    {
      "inputs": [
        {
          "internalType": "uint256",
          "name": "_id",
          "type": "uint256"
        },
        {
          "internalType": "uint256",
          "name": "_amount",
          "type": "uint256"
        }
      ],
      "name": "getFee",
      "outputs": [
        {
          "internalType": "uint256",
          "name": "",
          "type": "uint256"
        },
        {
          "internalType": "address",
          "name": "",
          "type": "address"
        }
      ],
      "stateMutability": "view",
      "type": "function"
    },
    {
      "inputs": [],
      "name": "getImplementation",
      "outputs": [
        {
          "internalType": "address",
          "name": "",
          "type": "address"
        }
      ],
      "stateMutability": "view",
      "type": "function"
    },
    {
      "inputs": [
        {
          "internalType": "address",
          "name": "_wToken",
          "type": "address"
        },
        {
          "internalType": "address",
          "name": "_managerAddress",
          "type": "address"
        }
      ],
      "name": "initialize",
      "outputs": [],
      "stateMutability": "nonpayable",
      "type": "function"
    },
    {
      "inputs": [],
      "name": "lightClientManager",
      "outputs": [
        {
          "internalType": "contract ILightClientManager",
          "name": "",
          "type": "address"
        }
      ],
      "stateMutability": "view",
      "type": "function"
    },
    {
      "inputs": [
        {
          "internalType": "uint256",
          "name": "",
          "type": "uint256"
        }
      ],
      "name": "mosContracts",
      "outputs": [
        {
          "internalType": "bytes",
          "name": "",
          "type": "bytes"
        }
      ],
      "stateMutability": "view",
      "type": "function"
    },
    {
      "inputs": [],
      "name": "nonce",
      "outputs": [
        {
          "internalType": "uint256",
          "name": "",
          "type": "uint256"
        }
      ],
      "stateMutability": "view",
      "type": "function"
    },
    {
      "inputs": [
        {
          "internalType": "bytes32",
          "name": "",
          "type": "bytes32"
        }
      ],
      "name": "orderList",
      "outputs": [
        {
          "internalType": "bool",
          "name": "",
          "type": "bool"
        }
      ],
      "stateMutability": "view",
      "type": "function"
    },
    {
      "inputs": [],
      "name": "paused",
      "outputs": [
        {
          "internalType": "bool",
          "name": "",
          "type": "bool"
        }
      ],
      "stateMutability": "view",
      "type": "function"
    },
    {
      "inputs": [
        {
          "internalType": "uint256",
          "name": "_chainId",
          "type": "uint256"
        },
        {
          "internalType": "bytes",
          "name": "_address",
          "type": "bytes"
        },
        {
          "internalType": "enum MAPOmnichainServiceRelayV2.chainType",
          "name": "_type",
          "type": "uint8"
        }
      ],
      "name": "registerChain",
      "outputs": [],
      "stateMutability": "nonpayable",
      "type": "function"
    },
    {
      "inputs": [],
      "name": "selfChainId",
      "outputs": [
        {
          "internalType": "uint256",
          "name": "",
          "type": "uint256"
        }
      ],
      "stateMutability": "view",
      "type": "function"
    },
    {
      "inputs": [
        {
          "internalType": "uint256",
          "name": "_id",
          "type": "uint256"
        },
        {
          "internalType": "address",
          "name": "_to",
          "type": "address"
        },
        {
          "internalType": "uint256",
          "name": "_rate",
          "type": "uint256"
        }
      ],
      "name": "setDistributeRate",
      "outputs": [],
      "stateMutability": "nonpayable",
      "type": "function"
    },
    {
      "inputs": [
        {
          "internalType": "address",
          "name": "_managerAddress",
          "type": "address"
        }
      ],
      "name": "setLightClientManager",
      "outputs": [],
      "stateMutability": "nonpayable",
      "type": "function"
    },
    {
      "inputs": [],
      "name": "setPause",
      "outputs": [],
      "stateMutability": "nonpayable",
      "type": "function"
    },
    {
      "inputs": [
        {
          "internalType": "address",
          "name": "_register",
          "type": "address"
        }
      ],
      "name": "setTokenManager",
      "outputs": [],
      "stateMutability": "nonpayable",
      "type": "function"
    },
    {
      "inputs": [],
      "name": "setUnpause",
      "outputs": [],
      "stateMutability": "nonpayable",
      "type": "function"
    },
    {
      "inputs": [
        {
          "internalType": "uint256",
          "name": "_chainId",
          "type": "uint256"
        },
        {
          "internalType": "bytes",
          "name": "_receiptProof",
          "type": "bytes"
        }
      ],
      "name": "swapIn",
      "outputs": [],
      "stateMutability": "nonpayable",
      "type": "function"
    },
    {
      "inputs": [
        {
          "internalType": "bytes",
          "name": "_to",
          "type": "bytes"
        },
        {
          "internalType": "uint256",
          "name": "_toChain",
          "type": "uint256"
        },
        {
          "internalType": "bytes",
          "name": "swapData",
          "type": "bytes"
        }
      ],
      "name": "swapOutNative",
      "outputs": [],
      "stateMutability": "payable",
      "type": "function"
    },
    {
      "inputs": [
        {
          "internalType": "address",
          "name": "_token",
          "type": "address"
        },
        {
          "internalType": "bytes",
          "name": "_to",
          "type": "bytes"
        },
        {
          "internalType": "uint256",
          "name": "_amount",
          "type": "uint256"
        },
        {
          "internalType": "uint256",
          "name": "_toChain",
          "type": "uint256"
        },
        {
          "internalType": "bytes",
          "name": "swapData",
          "type": "bytes"
        }
      ],
      "name": "swapOutToken",
      "outputs": [],
      "stateMutability": "nonpayable",
      "type": "function"
    },
    {
      "inputs": [],
      "name": "tokenRegister",
      "outputs": [
        {
          "internalType": "contract ITokenRegisterV2",
          "name": "",
          "type": "address"
        }
      ],
      "stateMutability": "view",
      "type": "function"
    },
    {
      "inputs": [
        {
          "internalType": "uint256",
          "name": "_chainId",
          "type": "uint256"
        },
        {
          "internalType": "bytes",
          "name": "_receiptProof",
          "type": "bytes"
        }
      ],
      "name": "transferIn",
      "outputs": [],
      "stateMutability": "nonpayable",
      "type": "function"
    },
    {
      "inputs": [
        {
          "internalType": "bytes",
          "name": "_to",
          "type": "bytes"
        },
        {
          "internalType": "uint256",
          "name": "_toChain",
          "type": "uint256"
        }
      ],
      "name": "transferOutNative",
      "outputs": [],
      "stateMutability": "payable",
      "type": "function"
    },
    {
      "inputs": [
        {
          "internalType": "address",
          "name": "_token",
          "type": "address"
        },
        {
          "internalType": "bytes",
          "name": "_to",
          "type": "bytes"
        },
        {
          "internalType": "uint256",
          "name": "_amount",
          "type": "uint256"
        },
        {
          "internalType": "uint256",
          "name": "_toChain",
          "type": "uint256"
        }
      ],
      "name": "transferOutToken",
      "outputs": [],
      "stateMutability": "nonpayable",
      "type": "function"
    },
    {
      "inputs": [
        {
          "internalType": "address",
          "name": "newImplementation",
          "type": "address"
        }
      ],
      "name": "upgradeTo",
      "outputs": [],
      "stateMutability": "nonpayable",
      "type": "function"
    },
    {
      "inputs": [
        {
          "internalType": "address",
          "name": "newImplementation",
          "type": "address"
        },
        {
          "internalType": "bytes",
          "name": "data",
          "type": "bytes"
        }
      ],
      "name": "upgradeToAndCall",
      "outputs": [],
      "stateMutability": "payable",
      "type": "function"
    },
    {
      "inputs": [],
      "name": "wToken",
      "outputs": [
        {
          "internalType": "address",
          "name": "",
          "type": "address"
        }
      ],
      "stateMutability": "view",
      "type": "function"
    },
    {
      "inputs": [
        {
          "internalType": "address",
          "name": "_vaultToken",
          "type": "address"
        },
        {
          "internalType": "uint256",
          "name": "_vaultAmount",
          "type": "uint256"
        }
      ],
      "name": "withdraw",
      "outputs": [],
      "stateMutability": "nonpayable",
      "type": "function"
    },
    {
      "stateMutability": "payable",
      "type": "receive"
    }
  ],
  "transactionHash": "0x2d74b1c8c9cccbebd297c147746bc63a8163a21e0700058cabb4f1e2cc339df7",
  "args": [],
  "solcInputHash": "3898504cadd7a230b62b8be0186d1f3b",
  "bytecode": "0x60c06040523060601b6080524660a05234801561001b57600080fd5b5060016000819055805462ff00001916905560805160601c60a051617301620000fe600039600081816105ca01528181610a3901528181610ab801528181610da701528181610ec8015281816112b20152818161155501528181611dca0152818161212f0152818161265401528181612e2901528181612f44015281816131440152818161346f015281816134df015281816135eb01528181613b0d01528181613df8015281816144fb0152818161478e0152818161563301526156d0015260008181610ddf01528181610e1f015281816111d8015261121801526173016000f3fe6080604052600436106101fd5760003560e01c80637cb2b79c1161010d578063cc9e3e89116100a0578063d431b1ac1161006f578063d431b1ac14610669578063d687c35d1461067e578063e63ea4081461069e578063f3fef3a3146106be578063fb0f97a8146106de57600080fd5b8063cc9e3e89146105b8578063d24c6944146105ec578063d250185c1461060c578063d33a28a21461064957600080fd5b8063981aff4e116100dc578063981aff4e1461053f578063aaf10f421461055f578063affed0e014610574578063ca0da31f1461059857600080fd5b80637cb2b79c146104ad578063848cb5c6146104cd5780638d6ffd6a146104e25780638f2839701461051f57600080fd5b80633e2f1d0f116101905780635c975abb1161015f5780635c975abb1461040b5780636af6400d146104355780636d5ff479146104655780636e9960c314610478578063789728251461048d57600080fd5b80633e2f1d0f1461038b5780633ea549a2146103b8578063485cc955146103d85780634f1ef286146103f857600080fd5b80632f5c5d5e116101cc5780632f5c5d5e1461032557806333bb7f91146103455780633659cfe6146103585780633d4a2f6e1461037857600080fd5b80630babd86414610256578063145a6579146102935780632e7ec23f146102f25780632f12d7ef1461030557600080fd5b36610251576003546001600160a01b0316331461024f5760405162461bcd60e51b815260206004820152600b60248201526a37b7363c903baa37b5b2b760a91b60448201526064015b60405180910390fd5b005b600080fd5b34801561026257600080fd5b50600354610276906001600160a01b031681565b6040516001600160a01b0390911681526020015b60405180910390f35b34801561029f57600080fd5b506102d36102ae3660046165b8565b600660205260009081526040902080546001909101546001600160a01b039091169082565b604080516001600160a01b03909316835260208301919091520161028a565b61024f61030036600461682e565b6106fe565b34801561031157600080fd5b5061024f6103203660046162f2565b610a8d565b34801561033157600080fd5b5061024f610340366004616190565b610c0c565b61024f610353366004616190565b610c8e565b34801561036457600080fd5b5061024f610373366004616190565b610dd4565b61024f610386366004616754565b610e9d565b34801561039757600080fd5b506103ab6103a63660046165b8565b610ff0565b60405161028a9190616b79565b3480156103c457600080fd5b50600454610276906001600160a01b031681565b3480156103e457600080fd5b5061024f6103f33660046161ca565b61108a565b61024f610406366004616244565b6111cd565b34801561041757600080fd5b5060015462010000900460ff165b604051901515815260200161028a565b34801561044157600080fd5b506104256104503660046165b8565b60076020526000908152604090205460ff1681565b61024f610473366004616798565b611287565b34801561048457600080fd5b506102766113ef565b34801561049957600080fd5b50600554610276906001600160a01b031681565b3480156104b957600080fd5b5061024f6104c8366004616190565b6113fe565b3480156104d957600080fd5b5061024f611480565b3480156104ee57600080fd5b506105126104fd3660046165b8565b60096020526000908152604090205460ff1681565b60405161028a9190616b8c565b34801561052b57600080fd5b5061024f61053a366004616190565b6114c2565b34801561054b57600080fd5b5061024f61055a366004616293565b61152a565b34801561056b57600080fd5b5061027661166c565b34801561058057600080fd5b5061058a60025481565b60405190815260200161028a565b3480156105a457600080fd5b5061024f6105b3366004616807565b611676565b3480156105c457600080fd5b5061058a7f000000000000000000000000000000000000000000000000000000000000000081565b3480156105f857600080fd5b5061024f61060736600461682e565b611825565b34801561061857600080fd5b5061062c6106273660046168bc565b611ac3565b604080519283526001600160a01b0390911660208301520161028a565b34801561065557600080fd5b5061024f61066436600461682e565b611b1e565b34801561067557600080fd5b5061024f611e1e565b34801561068a57600080fd5b5061024f61069936600461685e565b611e5e565b3480156106aa57600080fd5b5061024f6106b9366004616203565b611eeb565b3480156106ca57600080fd5b5061024f6106d9366004616381565b611f2e565b3480156106ea57600080fd5b5061024f6106f9366004616203565b6121b4565b600260005414156107215760405162461bcd60e51b815260040161024690616e1a565b600260005560015462010000900460ff161561074f5760405162461bcd60e51b815260040161024690616d28565b600554604051637c55b7bd60e11b8152600091829182916001600160a01b03169063f8ab6f7a906107869088908890600401616e51565b60006040518083038186803b15801561079e57600080fd5b505afa1580156107b2573d6000803e3d6000fd5b505050506040513d6000823e601f3d908101601f191682016040526107da919081019061652e565b9250925092508282906108005760405162461bcd60e51b81526004016102469190616b79565b50600260008681526009602052604090205460ff1660028111156108265761082661717f565b141561090e57600080610838836122bf565b915091506108e182600860008a8152602001908152602001600020805461085e906170ef565b80601f016020809104026020016040519081016040528092919081815260200182805461088a906170ef565b80156108d75780601f106108ac576101008083540402835291602001916108d7565b820191906000526020600020905b8154815290600101906020018083116108ba57829003601f168201915b50505050506125c0565b6108fd5760405162461bcd60e51b815260040161024690616c85565b61090787826125dc565b5050610a32565b600160008681526009602052604090205460ff1660028111156109335761093361717f565b1415610a32576000610944826128e2565b905060005b815181101561090757604051806080016040528060448152602001617245604491398051906020012082828151811061098457610984617195565b6020026020010151602001516000815181106109a2576109a2617195565b60200260200101518060200190518101906109bd91906165d1565b1415610a20576000806109e88484815181106109db576109db617195565b6020026020010151612ae5565b91509150610a0e82600860008c8152602001908152602001600020805461085e906170ef565b15610a1d57610a1d89826125dc565b50505b80610a2a81617124565b915050610949565b60405133907f00000000000000000000000000000000000000000000000000000000000000009087907f8c991a6f7ef9e9e8c0cc7f34d5ce0b20ff23538ec4d944e9d065b833982fc78390600090a450506001600055505050565b60015462010000900460ff1615610ab65760405162461bcd60e51b815260040161024690616d28565b7f0000000000000000000000000000000000000000000000000000000000000000831415610b225760405162461bcd60e51b815260206004820152601960248201527821b0b73737ba1039bbb0b8103a379039b2b6331031b430b4b760391b6044820152606401610246565b6040516370a0823160e01b815233600482015284906001600160a01b038816906370a082319060240160206040518083038186803b158015610b6357600080fd5b505afa158015610b77573d6000803e3d6000fd5b505050506040513d601f19601f82011682018060405250810190610b9b91906165d1565b1015610be95760405162461bcd60e51b815260206004820152601a60248201527f496e73756666696369656e7420746f6b656e2062616c616e63650000000000006044820152606401610246565b610bf586333087612c01565b610c0486863387878787612d29565b505050505050565b610c14612fbb565b6001600160a01b0316336001600160a01b031614610c445760405162461bcd60e51b815260040161024690616dea565b806001600160a01b038116610c6b5760405162461bcd60e51b815260040161024690616cff565b50600580546001600160a01b0319166001600160a01b0392909216919091179055565b60026000541415610cb15760405162461bcd60e51b815260040161024690616e1a565b600260005560015462010000900460ff1615610cdf5760405162461bcd60e51b815260040161024690616d28565b3480610d1d5760405162461bcd60e51b815260206004820152600d60248201526c76616c756520746f6f206c6f7760981b6044820152606401610246565b600360009054906101000a90046001600160a01b03166001600160a01b031663d0e30db0826040518263ffffffff1660e01b81526004016000604051808303818588803b158015610d6d57600080fd5b505af1158015610d81573d6000803e3d6000fd5b5050600354610dcb93506001600160a01b03169150610da1905033612fee565b848460007f0000000000000000000000000000000000000000000000000000000000000000613024565b50506001600055565b306001600160a01b037f0000000000000000000000000000000000000000000000000000000000000000161415610e1d5760405162461bcd60e51b815260040161024690616beb565b7f00000000000000000000000000000000000000000000000000000000000000006001600160a01b0316610e4f6131aa565b6001600160a01b031614610e755760405162461bcd60e51b815260040161024690616cb3565b610e7e816131d2565b60408051600080825260208201909252610e9a91839190613253565b50565b60015462010000900460ff1615610ec65760405162461bcd60e51b815260040161024690616d28565b7f0000000000000000000000000000000000000000000000000000000000000000811415610f295760405162461bcd60e51b815260206004820152601060248201526f37b7363c9037ba3432b91031b430b4b760811b6044820152606401610246565b3480610f675760405162461bcd60e51b815260206004820152600d60248201526c76616c756520746f6f206c6f7760981b6044820152606401610246565b600360009054906101000a90046001600160a01b03166001600160a01b031663d0e30db0826040518263ffffffff1660e01b81526004016000604051808303818588803b158015610fb757600080fd5b505af1158015610fcb573d6000803e3d6000fd5b5050600354610feb93506001600160a01b03169150339050858486613397565b505050565b60086020526000908152604090208054611009906170ef565b80601f0160208091040260200160405190810160405280929190818152602001828054611035906170ef565b80156110825780601f1061105757610100808354040283529160200191611082565b820191906000526020600020905b81548152906001019060200180831161106557829003601f168201915b505050505081565b600154610100900460ff166110a55760015460ff16156110a9565b303b155b61110c5760405162461bcd60e51b815260206004820152602e60248201527f496e697469616c697a61626c653a20636f6e747261637420697320616c72656160448201526d191e481a5b9a5d1a585b1a5e995960921b6064820152608401610246565b600154610100900460ff1615801561112e576001805461ffff19166101011790555b826001600160a01b0381166111555760405162461bcd60e51b815260040161024690616cff565b826001600160a01b03811661117c5760405162461bcd60e51b815260040161024690616cff565b600380546001600160a01b038088166001600160a01b03199283161790925560058054928716929091169190911790556111b533613666565b50508015610feb576001805461ff0019169055505050565b306001600160a01b037f00000000000000000000000000000000000000000000000000000000000000001614156112165760405162461bcd60e51b815260040161024690616beb565b7f00000000000000000000000000000000000000000000000000000000000000006001600160a01b03166112486131aa565b6001600160a01b03161461126e5760405162461bcd60e51b815260040161024690616cb3565b611277826131d2565b61128382826001613253565b5050565b60015462010000900460ff16156112b05760405162461bcd60e51b815260040161024690616d28565b7f000000000000000000000000000000000000000000000000000000000000000083141561131c5760405162461bcd60e51b815260206004820152601960248201527821b0b73737ba1039bbb0b8103a379039b2b6331031b430b4b760391b6044820152606401610246565b34806113625760405162461bcd60e51b815260206004820152601560248201527453656e64696e672076616c7565206973207a65726f60581b6044820152606401610246565b600360009054906101000a90046001600160a01b03166001600160a01b031663d0e30db0826040518263ffffffff1660e01b81526004016000604051808303818588803b1580156113b257600080fd5b505af11580156113c6573d6000803e3d6000fd5b50506003546113e893506001600160a01b031691508790503384888888612d29565b5050505050565b60006113f9612fbb565b905090565b611406612fbb565b6001600160a01b0316336001600160a01b0316146114365760405162461bcd60e51b815260040161024690616dea565b806001600160a01b03811661145d5760405162461bcd60e51b815260040161024690616cff565b50600480546001600160a01b0319166001600160a01b0392909216919091179055565b611488612fbb565b6001600160a01b0316336001600160a01b0316146114b85760405162461bcd60e51b815260040161024690616dea565b6114c06136ba565b565b6114ca612fbb565b6001600160a01b0316336001600160a01b0316146114fa5760405162461bcd60e51b815260040161024690616dea565b806001600160a01b0381166115215760405162461bcd60e51b815260040161024690616cff565b61128382613666565b60015462010000900460ff16156115535760405162461bcd60e51b815260040161024690616d28565b7f00000000000000000000000000000000000000000000000000000000000000008114156115b65760405162461bcd60e51b815260206004820152601060248201526f37b7363c9037ba3432b91031b430b4b760811b6044820152606401610246565b6040516370a0823160e01b815233600482015282906001600160a01b038616906370a082319060240160206040518083038186803b1580156115f757600080fd5b505afa15801561160b573d6000803e3d6000fd5b505050506040513d601f19601f8201168201806040525081019061162f91906165d1565b101561164d5760405162461bcd60e51b815260040161024690616c37565b61165984333085612c01565b6116668433858585613397565b50505050565b60006113f96131aa565b61167e612fbb565b6001600160a01b0316336001600160a01b0316146116ae5760405162461bcd60e51b815260040161024690616dea565b816001600160a01b0381166116d55760405162461bcd60e51b815260040161024690616cff565b600384106117175760405162461bcd60e51b815260206004820152600f60248201526e125b9d985b1a59081c985d19481a59608a1b6044820152606401610246565b6040805180820182526001600160a01b038581168252602080830186815260008981526006909252938120925183546001600160a01b031916921691909117825591516001909101557f8819ef417987f8ae7a81f42cdfb18815282fe989326fbff903d13cf0e03ace2a547f3e5fec24aa4dc4e5aee2e025e51e1392c72a2500577559fae9665c6d52bd6a32549180527f54cdd369e4e8a8515e52ca72ec816c2101831ad1f18bf44102ed171459c9b4f954620f4240926117e292916117dc91613755565b90613755565b11156116665760405162461bcd60e51b8152602060048201526012602482015271696e76616c696420726174652076616c756560701b6044820152606401610246565b600260005414156118485760405162461bcd60e51b815260040161024690616e1a565b600260005560015462010000900460ff16156118765760405162461bcd60e51b815260040161024690616d28565b600554604051637c55b7bd60e11b8152600091829182916001600160a01b03169063f8ab6f7a906118ad9088908890600401616e51565b60006040518083038186803b1580156118c557600080fd5b505afa1580156118d9573d6000803e3d6000fd5b505050506040513d6000823e601f3d908101601f19168201604052611901919081019061652e565b9250925092508282906119275760405162461bcd60e51b81526004016102469190616b79565b50600260008681526009602052604090205460ff16600281111561194d5761194d61717f565b14156119ab5760008061195f83613768565b9150915061198582600860008a8152602001908152602001600020805461085e906170ef565b6119a15760405162461bcd60e51b815260040161024690616c85565b61090787826139e5565b600160008681526009602052604090205460ff1660028111156119d0576119d061717f565b1415610a325760006119e1826128e2565b905060005b8151811015610907576000828281518110611a0357611a03617195565b6020026020010151905060008160200151600081518110611a2657611a26617195565b6020026020010151806020019051810190611a4191906165d1565b90506040518060800160405280604781526020016171d76047913980519060200120811415611aae57600080611a76846140ac565b91509150611a9c82600860008e8152602001908152602001600020805461085e906170ef565b15611aab57611aab8b826139e5565b50505b50508080611abb90617124565b9150506119e6565b6000828152600660209081526040808320815180830190925280546001600160a01b03168252600101549181018290528291611b0f90620f424090611b0990879061416d565b90614179565b905190925090505b9250929050565b60026000541415611b415760405162461bcd60e51b815260040161024690616e1a565b600260005560015462010000900460ff1615611b6f5760405162461bcd60e51b815260040161024690616d28565b600554604051637c55b7bd60e11b8152600091829182916001600160a01b03169063f8ab6f7a90611ba69088908890600401616e51565b60006040518083038186803b158015611bbe57600080fd5b505afa158015611bd2573d6000803e3d6000fd5b505050506040513d6000823e601f3d908101601f19168201604052611bfa919081019061652e565b925092509250828290611c205760405162461bcd60e51b81526004016102469190616b79565b50600260008681526009602052604090205460ff166002811115611c4657611c4661717f565b1415611cab57600080611c5883614185565b91509150611c7e82600860008a8152602001908152602001600020805461085e906170ef565b611c9a5760405162461bcd60e51b815260040161024690616c85565b611ca48782614323565b5050611dc3565b600160008681526009602052604090205460ff166002811115611cd057611cd061717f565b1415611dc3576000611ce1826128e2565b905060005b8151811015611ca4576000828281518110611d0357611d03617195565b6020026020010151905060008160200151600081518110611d2657611d26617195565b6020026020010151806020019051810190611d4191906165d1565b90506040518060800160405280604381526020016172896043913980519060200120811415611dae57600080611d7684614a3c565b91509150611d9c82600860008e8152602001908152602001600020805461085e906170ef565b15611dab57611dab8b82614323565b50505b50508080611dbb90617124565b915050611ce6565b60405133907f00000000000000000000000000000000000000000000000000000000000000009087907f8131e5b107f7021b0773c1108755872d7b94bb31532fdf2256e0a3ef2c890a3d90600090a450506001600055505050565b611e26612fbb565b6001600160a01b0316336001600160a01b031614611e565760405162461bcd60e51b815260040161024690616dea565b6114c0614b00565b611e66612fbb565b6001600160a01b0316336001600160a01b031614611e965760405162461bcd60e51b815260040161024690616dea565b60008381526008602090815260409091208351611eb592850190615f60565b506000838152600960205260409020805482919060ff19166001836002811115611ee157611ee161717f565b0217905550505050565b611ef3612fbb565b6001600160a01b0316336001600160a01b031614611f235760405162461bcd60e51b815260040161024690616dea565b610feb838383614b62565b6001600160a01b038216611f545760405162461bcd60e51b815260040161024690616db3565b6000826001600160a01b03166310fe9ae86040518163ffffffff1660e01b815260040160206040518083038186803b158015611f8f57600080fd5b505afa158015611fa3573d6000803e3d6000fd5b505050506040513d601f19601f82011682018060405250810190611fc791906161ad565b60048054604051639dc6108f60e01b81526001600160a01b0380851693820193909352929350600092911690639dc6108f9060240160206040518083038186803b15801561201457600080fd5b505afa158015612028573d6000803e3d6000fd5b505050506040513d601f19601f8201168201806040525081019061204c91906161ad565b9050806001600160a01b0316846001600160a01b0316146120a55760405162461bcd60e51b815260206004820152601360248201527224b73b30b634b2103b30bab63a103a37b5b2b760691b6044820152606401610246565b60405163c2507ac160e01b8152600481018490526000906001600160a01b0383169063c2507ac19060240160206040518083038186803b1580156120e857600080fd5b505afa1580156120fc573d6000803e3d6000fd5b505050506040513d601f19601f8201168201806040525081019061212091906165d1565b604051630ad58d2f60e01b81527f00000000000000000000000000000000000000000000000000000000000000006004820152602481018690523360448201529091506001600160a01b03831690630ad58d2f90606401600060405180830381600087803b15801561219157600080fd5b505af11580156121a5573d6000803e3d6000fd5b505050506113e8833383614b62565b600260005414156121d75760405162461bcd60e51b815260040161024690616e1a565b600260005560015462010000900460ff16156122055760405162461bcd60e51b815260040161024690616d28565b6040516370a0823160e01b815233600482015281906001600160a01b038516906370a082319060240160206040518083038186803b15801561224657600080fd5b505afa15801561225a573d6000803e3d6000fd5b505050506040513d601f19601f8201168201806040525081019061227e91906165d1565b101561229c5760405162461bcd60e51b815260040161024690616c37565b6122a883333084612c01565b6122b583610da133612fee565b5050600160005550565b60606123046040518060e00160405280606081526020016060815260200160008019168152602001600081526020016000815260200160608152602001600081525090565b600061231761231285614ba3565b614bd0565b905061233c8160008151811061232f5761232f617195565b6020026020010151614ce5565b925060006123638260018151811061235657612356617195565b6020026020010151614bd0565b516001600160401b0381111561237b5761237b6171ab565b6040519080825280602002602001820160405280156123ae57816020015b60608152602001906001900390816123995790505b50905060005b6123ca8360018151811061235657612356617195565b5181101561242c576123fc6123eb8460018151811061235657612356617195565b828151811061232f5761232f617195565b82828151811061240e5761240e617195565b6020026020010181905250808061242490617124565b9150506123b4565b50606060005b82518110156124c857600061245f84838151811061245257612452617195565b6020026020010151614d62565b805160208201209091507f3ad224e3e42a516df08d1fca74990eac30205afb5287a46132a6975ce0b2cede14156124b5576124b28483815181106124a5576124a5617195565b6020026020010151614e3d565b92505b50806124c081617124565b915050612432565b5060006124d761231283614ba3565b90506040518060e001604052806124fa8360038151811061232f5761232f617195565b81526020016125158360048151811061232f5761232f617195565b81526020016125308360028151811061232f5761232f617195565b6125399061709f565b81526020016125618360008151811061255457612554617195565b6020026020010151615325565b815260200161257c8360018151811061255457612554617195565b81526020016125978360058151811061232f5761232f617195565b81526020016125b28360068151811061255457612554617195565b815250945050505050915091565b6000818051906020012083805190602001201490505b92915050565b60408082015160008181526007602052919091205460ff16156126115760405162461bcd60e51b815260040161024690616c60565b6000818152600760205260409020805460ff191660011790556060820151831461264d5760405162461bcd60e51b815260040161024690616d52565b81608001517f0000000000000000000000000000000000000000000000000000000000000000146126905760405162461bcd60e51b815260040161024690616d52565b600480546060840151845160405163fb9e6c1360e01b81526000946001600160a01b039094169363fb9e6c13936126cb939092909101616e51565b60206040518083038186803b1580156126e357600080fd5b505afa1580156126f7573d6000803e3d6000fd5b505050506040513d601f19601f8201168201806040525081019061271b91906161ad565b90506001600160a01b0381166127435760405162461bcd60e51b815260040161024690616bb4565b60048054606085015160c0860151604051633bab639f60e21b81526000946001600160a01b039094169363eead8e7c9361278393889391929091016169b5565b60206040518083038186803b15801561279b57600080fd5b505afa1580156127af573d6000803e3d6000fd5b505050506040513d601f19601f820116820180604052508101906127d391906165d1565b6004805460405163ceec8cb960e01b81526001600160a01b0386811693820193909352929350169063ceec8cb99060240160206040518083038186803b15801561281c57600080fd5b505afa158015612830573d6000803e3d6000fd5b505050506040513d601f19601f820116820180604052508101906128549190616513565b156128ba576040516340c10f1960e01b8152306004820152602481018290526001600160a01b038316906340c10f1990604401600060405180830381600087803b1580156128a157600080fd5b505af11580156128b5573d6000803e3d6000fd5b505050505b6113e88285602001516128d28760a001516014015190565b8488604001518960600151613024565b606060006128f261231284614ba3565b905080516001600160401b0381111561290d5761290d6171ab565b60405190808252806020026020018201604052801561296b57816020015b612958604051806060016040528060006001600160a01b0316815260200160608152602001606081525090565b81526020019060019003908161292b5790505b50915060005b8151811015612ade57600061299183838151811061235657612356617195565b905060006129ab8260018151811061235657612356617195565b9050600081516001600160401b038111156129c8576129c86171ab565b6040519080825280602002602001820160405280156129fb57816020015b60608152602001906001900390816129e65790505b50905060005b8251811015612a4f57612a1f83828151811061232f5761232f617195565b828281518110612a3157612a31617195565b60200260200101819052508080612a4790617124565b915050612a01565b506040518060600160405280612a7e85600081518110612a7157612a71617195565b6020026020010151615373565b6001600160a01b03168152602001828152602001612aa88560028151811061232f5761232f617195565b815250868581518110612abd57612abd617195565b60200260200101819052505050508080612ad690617124565b915050612971565b5050919050565b6060612b2a6040518060e00160405280606081526020016060815260200160008019168152602001600081526020016000815260200160608152602001600081525090565b8251612b3590612fee565b91508260200151600181518110612b4e57612b4e617195565b6020026020010151806020019051810190612b6991906165d1565b6060820152602083015180516002908110612b8657612b86617195565b6020026020010151806020019051810190612ba191906165d1565b8160800181815250506000808460400151806020019051810190612bc591906165ea565b60c08801526020870191909152604086019290925292509050612be782612fee565b8352612bf281612fee565b8360a001819052505050915091565b604080516001600160a01b0385811660248301528481166044830152606480830185905283518084039091018152608490920183526020820180516001600160e01b03166323b872dd60e01b1790529151600092839290881691612c659190616965565b6000604051808303816000865af19150503d8060008114612ca2576040519150601f19603f3d011682016040523d82523d6000602084013e612ca7565b606091505b5091509150818015612cd1575080511580612cd1575080806020019051810190612cd19190616513565b610c045760405162461bcd60e51b8152602060048201526024808201527f5472616e7366657248656c7065723a205452414e534645525f46524f4d5f46416044820152631253115160e21b6064820152608401610246565b6004805460405163204f487760e01b81526001600160a01b038a811693820193909352602481018690526000929091169063204f48779060440160006040518083038186803b158015612d7b57600080fd5b505afa158015612d8f573d6000803e3d6000fd5b505050506040513d6000823e601f3d908101601f19168201604052612db79190810190616720565b9050612dd281604051806020016040528060008152506125c0565b15612e1f5760405162461bcd60e51b815260206004820152601860248201527f4f757420746f6b656e206e6f74207265676973746572656400000000000000006044820152606401610246565b600080612e4e8a887f00000000000000000000000000000000000000000000000000000000000000008961538d565b6004805460405163ceec8cb960e01b81526001600160a01b038f811693820193909352939550919350169063ceec8cb99060240160206040518083038186803b158015612e9a57600080fd5b505afa158015612eae573d6000803e3d6000fd5b505050506040513d601f19601f82011682018060405250810190612ed29190616513565b15612f3257604051630852cd8d60e31b8152600481018390526001600160a01b038b16906342966c6890602401600060405180830381600087803b158015612f1957600080fd5b505af1158015612f2d573d6000803e3d6000fd5b505050505b6000612f3f898b896156b6565b9050867f00000000000000000000000000000000000000000000000000000000000000007fca1cf8cebf88499429cca8f87cbca15ab8dafd06702259a5344ddce89ef3f3a58387612f8f8e612fee565b8f888d8d604051612fa69796959493929190616a95565b60405180910390a35050505050505050505050565b60007fb53127684a568b3173ae13b9f8a6016e243e63b6e8ee1178d6a717850b5d61035b546001600160a01b0316919050565b604051606082811b6bffffffffffffffffffffffff19166020830152906034016040516020818303038152906040529050919050565b60048054604051639dc6108f60e01b81526001600160a01b038981169382019390935260009290911690639dc6108f9060240160206040518083038186803b15801561306f57600080fd5b505afa158015613083573d6000803e3d6000fd5b505050506040513d601f19601f820116820180604052508101906130a791906161ad565b90506001600160a01b0381166130cf5760405162461bcd60e51b815260040161024690616db3565b604051638dbdbe6d60e01b815260048101839052602481018590526001600160a01b038681166044830152821690638dbdbe6d90606401600060405180830381600087803b15801561312057600080fd5b505af1158015613134573d6000803e3d6000fd5b50505050866001600160a01b03167f0000000000000000000000000000000000000000000000000000000000000000837f5bf7c8229e485fc1aa764dc0e95bb88be5d3589f08d0fb5fca73bd195aecde0e868a8a8a6040516131999493929190616a60565b60405180910390a450505050505050565b60007f360894a13ba1a3210667c828492db98dca3e2076cc3735a920a3ca505d382bbc612fdf565b6131da612fbb565b6001600160a01b0316336001600160a01b031614610e9a5760405162461bcd60e51b815260206004820152603060248201527f4d41504f6d6e69636861696e5365727669636552656c61793a206f6e6c79204160448201526f646d696e2063616e207570677261646560801b6064820152608401610246565b600061325d6131aa565b905061326884615726565b6000835111806132755750815b156132865761328484846157ce565b505b7f4910fdfa16fed3260ed0e7147f7cc6da11a60208b5b9406d12a635614ffd9143805460ff166113e857805460ff191660011781556040516001600160a01b038316602482015261330590869060440160408051601f198184030181529190526020810180516001600160e01b0316631b2ce7f360e11b1790526157ce565b50805460ff191681556133166131aa565b6001600160a01b0316826001600160a01b03161461338e5760405162461bcd60e51b815260206004820152602f60248201527f45524331393637557067726164653a207570677261646520627265616b73206660448201526e75727468657220757067726164657360881b6064820152608401610246565b6113e8856157f3565b6004805460405163204f487760e01b81526001600160a01b0388811693820193909352602481018490526000929091169063204f48779060440160006040518083038186803b1580156133e957600080fd5b505afa1580156133fd573d6000803e3d6000fd5b505050506040513d6000823e601f3d908101601f191682016040526134259190810190616720565b905061344081604051806020016040528060008152506125c0565b1561345d5760405162461bcd60e51b815260040161024690616d7c565b600061346a8686856156b6565b9050827f00000000000000000000000000000000000000000000000000000000000000007fe23247b10e5cf2e2a6a13352598fae25c889731f3b5eff5fb52184e121b41d54838a6134ba8b612fee565b8a8a6040516134cd959493929190616a11565b60405180910390a360008061350489877f00000000000000000000000000000000000000000000000000000000000000008861538d565b6004805460405163ceec8cb960e01b81526001600160a01b038e811693820193909352939550919350169063ceec8cb99060240160206040518083038186803b15801561355057600080fd5b505afa158015613564573d6000803e3d6000fd5b505050506040513d601f19601f820116820180604052508101906135889190616513565b156135e857604051630852cd8d60e31b8152600481018390526001600160a01b038a16906342966c6890602401600060405180830381600087803b1580156135cf57600080fd5b505af11580156135e3573d6000803e3d6000fd5b505050505b847f00000000000000000000000000000000000000000000000000000000000000007f44ff77018688dad4b245e8ab97358ed57ed92269952ece7ffd321366ce078622856136358d612fee565b61363e8d612fee565b8c878b60405161365396959493929190616b13565b60405180910390a3505050505050505050565b7f7e644d79422f17c01e4894b5f4f588d331ebfa28653d42ae832dc59e38c9798f61368f612fbb565b604080516001600160a01b03928316815291841660208301520160405180910390a1610e9a81615833565b60015462010000900460ff166137095760405162461bcd60e51b815260206004820152601460248201527314185d5cd8589b194e881b9bdd081c185d5cd95960621b6044820152606401610246565b6001805462ff0000191690557f5db9ee0a495bf2e6ff9c91a7834c1ba4fdd244a5e8aa4e537bd38aeae4b073aa335b6040516001600160a01b03909116815260200160405180910390a1565b60006137618284616ee9565b9392505050565b6060613772615fe4565b600061378061231285614ba3565b90506137988160008151811061232f5761232f617195565b925060006137b28260018151811061235657612356617195565b516001600160401b038111156137ca576137ca6171ab565b6040519080825280602002602001820160405280156137fd57816020015b60608152602001906001900390816137e85790505b50905060005b6138198360018151811061235657612356617195565b5181101561386a5761383a6123eb8460018151811061235657612356617195565b82828151811061384c5761384c617195565b6020026020010181905250808061386290617124565b915050613803565b50606060005b82518110156138ec57600061389084838151811061245257612452617195565b805160208201209091507f4e87426fdd31a6df84975ed344b2c3fbd45109085f1557dff1156b300f135df814156138d9576138d68483815181106124a5576124a5617195565b92505b50806138e481617124565b915050613870565b5060006138fb61231283614ba3565b905060405180610100016040528061391f8360038151811061232f5761232f617195565b815260200161393a8360048151811061232f5761232f617195565b81526020016139558360028151811061232f5761232f617195565b61395e9061709f565b81526020016139798360008151811061255457612554617195565b81526020016139948360018151811061255457612554617195565b81526020016139af8360058151811061232f5761232f617195565b81526020016139ca8360068151811061255457612554617195565b81526020016125b28360078151811061232f5761232f617195565b60408082015160008181526007602052919091205460ff1615613a1a5760405162461bcd60e51b815260040161024690616c60565b6000818152600760205260409020805460ff1916600117905560608201518314613a565760405162461bcd60e51b815260040161024690616d52565b600480546060840151845160405163fb9e6c1360e01b81526000946001600160a01b039094169363fb9e6c1393613a91939092909101616e51565b60206040518083038186803b158015613aa957600080fd5b505afa158015613abd573d6000803e3d6000fd5b505050506040513d601f19601f82011682018060405250810190613ae191906161ad565b90506001600160a01b038116613b095760405162461bcd60e51b815260040161024690616bb4565b60607f000000000000000000000000000000000000000000000000000000000000000084608001511415613b4757613b4082612fee565b9050613c0f565b60048054608086015160405163204f487760e01b81526001600160a01b0386811694820194909452602481019190915291169063204f48779060440160006040518083038186803b158015613b9b57600080fd5b505afa158015613baf573d6000803e3d6000fd5b505050506040513d6000823e601f3d908101601f19168201604052613bd79190810190616720565b9050613bf281604051806020016040528060008152506125c0565b15613c0f5760405162461bcd60e51b815260040161024690616d7c565b60048054606086015160c0870151604051633bab639f60e21b81526000946001600160a01b039094169363eead8e7c93613c4f93899391929091016169b5565b60206040518083038186803b158015613c6757600080fd5b505afa158015613c7b573d6000803e3d6000fd5b505050506040513d601f19601f82011682018060405250810190613c9f91906165d1565b6004805460405163ceec8cb960e01b81526001600160a01b0387811693820193909352929350169063ceec8cb99060240160206040518083038186803b158015613ce857600080fd5b505afa158015613cfc573d6000803e3d6000fd5b505050506040513d601f19601f82011682018060405250810190613d209190616513565b15613d86576040516340c10f1960e01b8152306004820152602481018290526001600160a01b038416906340c10f1990604401600060405180830381600087803b158015613d6d57600080fd5b505af1158015613d81573d6000803e3d6000fd5b505050505b846080015185606001517fe23247b10e5cf2e2a6a13352598fae25c889731f3b5eff5fb52184e121b41d5487604001518689602001518a60a0015187604051613dd3959493929190616a11565b60405180910390a3600080613df2858489606001518a6080015161538d565b915091507f000000000000000000000000000000000000000000000000000000000000000087608001511415613f6a576000613e338860a001516014015190565b6003549091506001600160a01b0387811691161415613e7157600354613e62906001600160a01b0316846158bf565b613e6c81846159d5565b613f13565b6040516370a0823160e01b815230600482015283906001600160a01b038816906370a082319060240160206040518083038186803b158015613eb257600080fd5b505afa158015613ec6573d6000803e3d6000fd5b505050506040513d601f19601f82011682018060405250810190613eea91906165d1565b1015613f085760405162461bcd60e51b815260040161024690616c37565b613f13868285615a9e565b876080015188606001517f3790accbe9ce42658f962f7e7cfa0e6ae7acbb46014c6e01e1219a08781613758a60400151898c602001518689604051613f5c9594939291906169d6565b60405180910390a3506140a2565b6004805460405163ceec8cb960e01b81526001600160a01b038881169382019390935291169063ceec8cb99060240160206040518083038186803b158015613fb157600080fd5b505afa158015613fc5573d6000803e3d6000fd5b505050506040513d601f19601f82011682018060405250810190613fe99190616513565b1561404957604051630852cd8d60e31b8152600481018390526001600160a01b038616906342966c6890602401600060405180830381600087803b15801561403057600080fd5b505af1158015614044573d6000803e3d6000fd5b505050505b608087015160608801516040808a01518a5160208c015160a08d015193517f44ff77018688dad4b245e8ab97358ed57ed92269952ece7ffd321366ce078622946140999493929189908d90616b13565b60405180910390a35b5050505050505050565b60606140b6615fe4565b82516140c190612fee565b915082602001516001815181106140da576140da617195565b60200260200101518060200190518101906140f591906165d1565b606082015260208301518051600290811061411257614112617195565b602002602001015180602001905181019061412d91906165d1565b60808201526040830151805161414b91602091810182019101616662565b60e087015260c086015260a08501526020840152825260408201529092909150565b60006137618284617025565b60006137618284616f26565b606061418f61602c565b600061419d61231285614ba3565b90506141b58160008151811061232f5761232f617195565b925060006141cf8260018151811061235657612356617195565b516001600160401b038111156141e7576141e76171ab565b60405190808252806020026020018201604052801561421a57816020015b60608152602001906001900390816142055790505b50905060005b6142368360018151811061235657612356617195565b51811015614287576142576123eb8460018151811061235657612356617195565b82828151811061426957614269617195565b6020026020010181905250808061427f90617124565b915050614220565b50606060005b82518110156143095760006142ad84838151811061245257612452617195565b805160208201209091507f4e87426fdd31a6df84975ed344b2c3fbd45109085f1557dff1156b300f135df814156142f6576142f38483815181106124a5576124a5617195565b92505b508061430181617124565b91505061428d565b50600061431861231283614ba3565b905050505050915091565b60408082015160008181526007602052919091205460ff16156143585760405162461bcd60e51b815260040161024690616c60565b6000818152600760205260409020805460ff19166001179055815183146143915760405162461bcd60e51b815260040161024690616d52565b600480548351606085015160405163fb9e6c1360e01b81526000946001600160a01b039094169363fb9e6c13936143cc939092909101616e51565b60206040518083038186803b1580156143e457600080fd5b505afa1580156143f8573d6000803e3d6000fd5b505050506040513d601f19601f8201168201806040525081019061441c91906161ad565b90506001600160a01b0381166144445760405162461bcd60e51b815260040161024690616bb4565b604080516060808201835280825260208201526000918101919091528360e0015180602001905181019061447891906163ad565b6001600160a01b03908116604085018190526020850192909252918352908316146144f75760405162461bcd60e51b815260206004820152602960248201527f53776170206f6e204d61702052656c617920436861696e206e6f7420737570706044820152681bdc9d1959081e595d60ba1b6064820152608401610246565b60607f0000000000000000000000000000000000000000000000000000000000000000856020015114156145355761452e83612fee565b90506145fd565b60048054602087015160405163204f487760e01b81526001600160a01b0387811694820194909452602481019190915291169063204f48779060440160006040518083038186803b15801561458957600080fd5b505afa15801561459d573d6000803e3d6000fd5b505050506040513d6000823e601f3d908101601f191682016040526145c59190810190616720565b90506145e081604051806020016040528060008152506125c0565b156145fd5760405162461bcd60e51b815260040161024690616d7c565b60048054865160c0880151604051633bab639f60e21b81526000946001600160a01b039094169363eead8e7c9361463a938a9391929091016169b5565b60206040518083038186803b15801561465257600080fd5b505afa158015614666573d6000803e3d6000fd5b505050506040513d601f19601f8201168201806040525081019061468a91906165d1565b6004805460405163ceec8cb960e01b81526001600160a01b0388811693820193909352929350169063ceec8cb99060240160206040518083038186803b1580156146d357600080fd5b505afa1580156146e7573d6000803e3d6000fd5b505050506040513d601f19601f8201168201806040525081019061470b9190616513565b15614771576040516340c10f1960e01b8152306004820152602481018290526001600160a01b038516906340c10f1990604401600060405180830381600087803b15801561475857600080fd5b505af115801561476c573d6000803e3d6000fd5b505050505b60008061478886848a600001518b6020015161538d565b915091507f0000000000000000000000000000000000000000000000000000000000000000886020015114156148ff5760006147c98960a001516014015190565b6003549091506001600160a01b0388811691161415614807576003546147f8906001600160a01b0316846158bf565b61480281846159d5565b6148a9565b6040516370a0823160e01b815230600482015283906001600160a01b038916906370a082319060240160206040518083038186803b15801561484857600080fd5b505afa15801561485c573d6000803e3d6000fd5b505050506040513d601f19601f8201168201806040525081019061488091906165d1565b101561489e5760405162461bcd60e51b815260040161024690616c37565b6148a9878285615a9e565b886040015189602001518a600001517f2a945137b011d4aadec6425788c652197d107fc33f6cdccbb0c269273be9c1c98a8d6080015186896040516148f19493929190616981565b60405180910390a450614a31565b6004805460405163ceec8cb960e01b81526001600160a01b038981169382019390935291169063ceec8cb99060240160206040518083038186803b15801561494657600080fd5b505afa15801561495a573d6000803e3d6000fd5b505050506040513d601f19601f8201168201806040525081019061497e9190616513565b156149de57604051630852cd8d60e31b8152600481018390526001600160a01b038716906342966c6890602401600060405180830381600087803b1580156149c557600080fd5b505af11580156149d9573d6000803e3d6000fd5b505050505b876020015188600001517fca1cf8cebf88499429cca8f87cbca15ab8dafd06702259a5344ddce89ef3f3a58a60400151878c608001518d60a00151878f60e0015160405161365396959493929190616b13565b505050505050505050565b6060614a4661602c565b8251614a5190612fee565b91508260200151600181518110614a6a57614a6a617195565b6020026020010151806020019051810190614a8591906165d1565b8152602083015180516002908110614a9f57614a9f617195565b6020026020010151806020019051810190614aba91906165d1565b8160200181815250508260400151806020019051810190614adb9190616662565b60e087015260c086015260a08501526080840152606083015260408201529092909150565b60015462010000900460ff1615614b295760405162461bcd60e51b815260040161024690616d28565b6001805462ff00001916620100001790557f62e78cea01bee320cd4e420270b5ea74000d11b0c9f74754ebdbfc544b05a2586137383390565b6003546001600160a01b0384811691161415614b9857600354614b8e906001600160a01b0316826158bf565b610feb82826159d5565b610feb838383615a9e565b60408051808201825260008082526020918201528151808301909252825182529182019181019190915290565b6060614bdb82615bb2565b614be457600080fd5b6000614bef83615beb565b90506000816001600160401b03811115614c0b57614c0b6171ab565b604051908082528060200260200182016040528015614c5057816020015b6040805180820190915260008082526020820152815260200190600190039081614c295790505b5090506000614c628560200151615c6e565b8560200151614c719190616ee9565b90506000805b84811015614cda57614c8883615ce9565b9150604051806040016040528083815260200184815250848281518110614cb157614cb1617195565b6020908102919091010152614cc68284616ee9565b925080614cd281617124565b915050614c77565b509195945050505050565b8051606090614cf357600080fd5b600080614cff84615d8d565b915091506000816001600160401b03811115614d1d57614d1d6171ab565b6040519080825280601f01601f191660200182016040528015614d47576020820181803683370190505b50905060208101614d59848285615dd4565b50949350505050565b6060604082511015614db65760405162461bcd60e51b815260206004820152601960248201527f496e76616c696420657874726120726573756c742074797065000000000000006044820152606401610246565b604080518181526060810182529060208201818036833701905050905060005b6040811015614e3757828181518110614df157614df1617195565b602001015160f81c60f81b828281518110614e0e57614e0e617195565b60200101906001600160f81b031916908160001a90535080614e2f81617124565b915050614dd6565b50919050565b606060028251614e4d919061713f565b151580614e5b575060048251105b15614ea85760405162461bcd60e51b815260206004820152601c60248201527f686578537472546f42797465733a20696e76616c696420696e707574000000006044820152606401610246565b6000602060028451614eba9190616f26565b614ec49190617065565b6001600160401b03811115614edb57614edb6171ab565b6040519080825280601f01601f191660200182016040528015614f05576020820181803683370190505b50905060405b835181101561531e5783516010908190603090879085908110614f3057614f30617195565b016020015160f81c10801590614f6057506039868481518110614f5557614f55617195565b016020015160f81c11155b15614f8e576030868481518110614f7957614f79617195565b0160200151614f8b919060f81c61707c565b91505b603086614f9c856001616ee9565b81518110614fac57614fac617195565b016020015160f81c10801590614fe65750603986614fcb856001616ee9565b81518110614fdb57614fdb617195565b016020015160f81c11155b1561501e57603086614ff9856001616ee9565b8151811061500957615009617195565b016020015161501b919060f81c61707c565b90505b604186848151811061503257615032617195565b016020015160f81c108015906150625750604686848151811061505757615057617195565b016020015160f81c11155b1561509b57604186848151811061507b5761507b617195565b016020015161508d919060f81c61707c565b61509890600a616f01565b91505b6041866150a9856001616ee9565b815181106150b9576150b9617195565b016020015160f81c108015906150f357506046866150d8856001616ee9565b815181106150e8576150e8617195565b016020015160f81c11155b1561513657604186615106856001616ee9565b8151811061511657615116617195565b0160200151615128919060f81c61707c565b61513390600a616f01565b90505b606186848151811061514a5761514a617195565b016020015160f81c1080159061517a5750606686848151811061516f5761516f617195565b016020015160f81c11155b156151b357606186848151811061519357615193617195565b01602001516151a5919060f81c61707c565b6151b090600a616f01565b91505b6061866151c1856001616ee9565b815181106151d1576151d1617195565b016020015160f81c1080159061520b57506066866151f0856001616ee9565b8151811061520057615200617195565b016020015160f81c11155b1561524e5760618661521e856001616ee9565b8151811061522e5761522e617195565b0160200151615240919060f81c61707c565b61524b90600a616f01565b90505b8160ff166010148061526357508060ff166010145b156152b05760405162461bcd60e51b815260206004820152601c60248201527f686578537472546f42797465733a20696e76616c696420696e707574000000006044820152606401610246565b806152bc836010617044565b6152c69190616f01565b60f81b8460206152d7600287616f26565b6152e19190617065565b815181106152f1576152f1617195565b60200101906001600160f81b031916908160001a90535050506002816153179190616ee9565b9050614f0b565b5092915050565b80516000901580159061533a57508151602110155b61534357600080fd5b60008061534f84615d8d565b81519193509150602082101561536b5760208290036101000a90045b949350505050565b805160009060151461538457600080fd5b6125d682615325565b60048054604051639dc6108f60e01b81526001600160a01b038088169382019390935260009283928892849290911690639dc6108f9060240160206040518083038186803b1580156153de57600080fd5b505afa1580156153f2573d6000803e3d6000fd5b505050506040513d601f19601f8201168201806040525081019061541691906161ad565b90506001600160a01b03811661543e5760405162461bcd60e51b815260040161024690616db3565b60048054604051631917961760e01b81526000926001600160a01b03909216916319179617916154749187918d918c91016169b5565b60206040518083038186803b15801561548c57600080fd5b505afa1580156154a0573d6000803e3d6000fd5b505050506040513d601f19601f820116820180604052508101906154c491906165d1565b9050600080828a1115615566576154db838b617065565b600480546040516331b1ee7f60e21b81529294506001600160a01b03169163c6c7b9fc9161550f91899187918e91016169b5565b60206040518083038186803b15801561552757600080fd5b505afa15801561553b573d6000803e3d6000fd5b505050506040513d601f19601f8201168201806040525081019061555f91906165d1565b905061556a565b8992505b6000831561560857600061557f600086611ac3565b50905061558c8186617065565b915060008061559c600188611ac3565b915091506000821180156155b857506001600160a01b03811615155b156155c8576155c8898284614b62565b6000806155d660028a611ac3565b915091506000821180156155f257506001600160a01b03811615155b15615602576156028b8284614b62565b50505050505b6040516328ab490d60e01b8152600481018b9052602481018c9052604481018a9052606481018490527f0000000000000000000000000000000000000000000000000000000000000000608482015260a481018290526001600160a01b038616906328ab490d9060c401600060405180830381600087803b15801561568c57600080fd5b505af11580156156a0573d6000803e3d6000fd5b50949e939d50929b505050505050505050505050565b60028054600091309190836156ca83617124565b919050557f00000000000000000000000000000000000000000000000000000000000000008487876040516020016157079695949392919061690a565b6040516020818303038152906040528051906020012090509392505050565b803b61578a5760405162461bcd60e51b815260206004820152602d60248201527f455243313936373a206e657720696d706c656d656e746174696f6e206973206e60448201526c1bdd08184818dbdb9d1c9858dd609a1b6064820152608401610246565b807f360894a13ba1a3210667c828492db98dca3e2076cc3735a920a3ca505d382bbc5b80546001600160a01b0319166001600160a01b039290921691909117905550565b6060613761838360405180606001604052806027815260200161721e60279139615e53565b6157fc81615726565b6040516001600160a01b038216907fbc7cd75a20ee27fd9adebab32041f755214dbc6bffa90cc0225b39da2e5c2d3b90600090a250565b6001600160a01b0381166158985760405162461bcd60e51b815260206004820152602660248201527f455243313936373a206e65772061646d696e20697320746865207a65726f206160448201526564647265737360d01b6064820152608401610246565b807fb53127684a568b3173ae13b9f8a6016e243e63b6e8ee1178d6a717850b5d61036157ad565b600080836001600160a01b0316632e1a7d4d846040516024016158e491815260200190565b6040516020818303038152906040529060e01b6020820180516001600160e01b03838183161783525050505060405161591d9190616965565b6000604051808303816000865af19150503d806000811461595a576040519150601f19603f3d011682016040523d82523d6000602084013e61595f565b606091505b50915091508180156159895750805115806159895750808060200190518101906159899190616513565b6116665760405162461bcd60e51b815260206004820152601f60248201527f5472616e7366657248656c7065723a2057495448445241575f4641494c4544006044820152606401610246565b604080516000808252602082019092526001600160a01b0384169083906040516159ff9190616965565b60006040518083038185875af1925050503d8060008114615a3c576040519150601f19603f3d011682016040523d82523d6000602084013e615a41565b606091505b5050905080610feb5760405162461bcd60e51b815260206004820152602360248201527f5472616e7366657248656c7065723a204554485f5452414e534645525f46414960448201526213115160ea1b6064820152608401610246565b604080516001600160a01b038481166024830152604480830185905283518084039091018152606490920183526020820180516001600160e01b031663a9059cbb60e01b1790529151600092839290871691615afa9190616965565b6000604051808303816000865af19150503d8060008114615b37576040519150601f19603f3d011682016040523d82523d6000602084013e615b3c565b606091505b5091509150818015615b66575080511580615b66575080806020019051810190615b669190616513565b6113e85760405162461bcd60e51b815260206004820152601f60248201527f5472616e7366657248656c7065723a205452414e534645525f4641494c4544006044820152606401610246565b8051600090615bc357506000919050565b6020820151805160001a9060c0821015615be1575060009392505050565b5060019392505050565b8051600090615bfc57506000919050565b600080615c0c8460200151615c6e565b8460200151615c1b9190616ee9565b9050600084600001518560200151615c339190616ee9565b90505b80821015615c6557615c4782615ce9565b615c519083616ee9565b915082615c5d81617124565b935050615c36565b50909392505050565b8051600090811a6080811015615c875750600092915050565b60b8811080615ca2575060c08110801590615ca2575060f881105b15615cb05750600192915050565b60c0811015615cdd57615cc5600160b861707c565b615cd29060ff1682617065565b613761906001616ee9565b615cc5600160f861707c565b80516000908190811a6080811015615d04576001915061531e565b60b8811015615d2a57615d18608082617065565b615d23906001616ee9565b915061531e565b60c0811015615d575760b78103600185019450806020036101000a8551046001820181019350505061531e565b60f8811015615d6b57615d1860c082617065565b60019390930151602084900360f7016101000a900490920160f5190192915050565b6000806000615d9f8460200151615c6e565b90506000818560200151615db39190616ee9565b90506000828660000151615dc79190617065565b9196919550909350505050565b80615dde57505050565b60208110615e165782518252615df5602084616ee9565b9250615e02602083616ee9565b9150615e0f602082617065565b9050615dde565b8015610feb5760006001615e2b836020617065565b615e3790610100616f7d565b615e419190617065565b84518451821691191617835250505050565b6060833b615eb25760405162461bcd60e51b815260206004820152602660248201527f416464726573733a2064656c65676174652063616c6c20746f206e6f6e2d636f6044820152651b9d1c9858dd60d21b6064820152608401610246565b600080856001600160a01b031685604051615ecd9190616965565b600060405180830381855af49150503d8060008114615f08576040519150601f19603f3d011682016040523d82523d6000602084013e615f0d565b606091505b5091509150615f1d828286615f27565b9695505050505050565b60608315615f36575081613761565b825115615f465782518084602001fd5b8160405162461bcd60e51b81526004016102469190616b79565b828054615f6c906170ef565b90600052602060002090601f016020900481019282615f8e5760008555615fd4565b82601f10615fa757805160ff1916838001178555615fd4565b82800160010185558215615fd4579182015b82811115615fd4578251825591602001919060010190615fb9565b50615fe0929150616074565b5090565b60405180610100016040528060608152602001606081526020016000801916815260200160008152602001600081526020016060815260200160008152602001606081525090565b60405180610100016040528060008152602001600081526020016000801916815260200160608152602001606081526020016060815260200160008152602001606081525090565b5b80821115615fe05760008155600101616075565b600061609c61609784616ec2565b616e92565b90508281528383830111156160b057600080fd5b6137618360208301846170c3565b80516160c9816171c1565b919050565b805180151581146160c957600080fd5b60008083601f8401126160f057600080fd5b5081356001600160401b0381111561610757600080fd5b602083019150836020828501011115611b1757600080fd5b600082601f83011261613057600080fd5b813561613e61609782616ec2565b81815284602083860101111561615357600080fd5b816020850160208301376000918101602001919091529392505050565b600082601f83011261618157600080fd5b61376183835160208501616089565b6000602082840312156161a257600080fd5b8135613761816171c1565b6000602082840312156161bf57600080fd5b8151613761816171c1565b600080604083850312156161dd57600080fd5b82356161e8816171c1565b915060208301356161f8816171c1565b809150509250929050565b60008060006060848603121561621857600080fd5b8335616223816171c1565b92506020840135616233816171c1565b929592945050506040919091013590565b6000806040838503121561625757600080fd5b8235616262816171c1565b915060208301356001600160401b0381111561627d57600080fd5b6162898582860161611f565b9150509250929050565b600080600080608085870312156162a957600080fd5b84356162b4816171c1565b935060208501356001600160401b038111156162cf57600080fd5b6162db8782880161611f565b949794965050505060408301359260600135919050565b60008060008060008060a0878903121561630b57600080fd5b8635616316816171c1565b955060208701356001600160401b038082111561633257600080fd5b61633e8a838b0161611f565b96506040890135955060608901359450608089013591508082111561636257600080fd5b5061636f89828a016160de565b979a9699509497509295939492505050565b6000806040838503121561639457600080fd5b823561639f816171c1565b946020939093013593505050565b6000806000606084860312156163c257600080fd5b83516001600160401b03808211156163d957600080fd5b818601915086601f8301126163ed57600080fd5b8151818111156163ff576163ff6171ab565b61640e60208260051b01616e92565b80828252602082019150602085018a60208560051b880101111561643157600080fd5b60005b848110156164d35781518681111561644b57600080fd5b87016080818e03601f1901121561646157600080fd5b616469616e6a565b602082015181526040820151602082015260608201518881111561648c57600080fd5b61649b8f602083860101616170565b6040830152506080820151915087821682146164b657600080fd5b606081019190915284526020938401939190910190600101616434565b5050602089015190975093505050808211156164ee57600080fd5b506164fb86828701616170565b92505061650a604085016160be565b90509250925092565b60006020828403121561652557600080fd5b613761826160ce565b60008060006060848603121561654357600080fd5b61654c846160ce565b925060208401516001600160401b038082111561656857600080fd5b818601915086601f83011261657c57600080fd5b61658b87835160208501616089565b935060408601519150808211156165a157600080fd5b506165ae86828701616170565b9150509250925092565b6000602082840312156165ca57600080fd5b5035919050565b6000602082840312156165e357600080fd5b5051919050565b600080600080600060a0868803121561660257600080fd5b855194506020860151616614816171c1565b60408701519094506001600160401b0381111561663057600080fd5b61663c88828901616170565b935050606086015161664d816171c1565b80925050608086015190509295509295909350565b60008060008060008060c0878903121561667b57600080fd5b8651955060208701516001600160401b038082111561669957600080fd5b6166a58a838b01616170565b965060408901519150808211156166bb57600080fd5b6166c78a838b01616170565b955060608901519150808211156166dd57600080fd5b6166e98a838b01616170565b94506080890151935060a089015191508082111561670657600080fd5b5061671389828a01616170565b9150509295509295509295565b60006020828403121561673257600080fd5b81516001600160401b0381111561674857600080fd5b61536b84828501616170565b6000806040838503121561676757600080fd5b82356001600160401b0381111561677d57600080fd5b6167898582860161611f565b95602094909401359450505050565b600080600080606085870312156167ae57600080fd5b84356001600160401b03808211156167c557600080fd5b6167d18883890161611f565b95506020870135945060408701359150808211156167ee57600080fd5b506167fb878288016160de565b95989497509550505050565b60008060006060848603121561681c57600080fd5b833592506020840135616233816171c1565b6000806040838503121561684157600080fd5b8235915060208301356001600160401b0381111561627d57600080fd5b60008060006060848603121561687357600080fd5b8335925060208401356001600160401b0381111561689057600080fd5b61689c8682870161611f565b9250506040840135600381106168b157600080fd5b809150509250925092565b600080604083850312156168cf57600080fd5b50508035926020909101359150565b600081518084526168f68160208601602086016170c3565b601f01601f19169290920160200192915050565b60006bffffffffffffffffffffffff19808960601b168352876014840152866034840152856054840152808560601b1660748401525082516169538160888501602087016170c3565b91909101608801979650505050505050565b600082516169778184602087016170c3565b9190910192915050565b600060018060a01b038087168352608060208401526169a360808401876168de565b94166040830152506060015292915050565b6001600160a01b039390931683526020830191909152604082015260600190565b858152600060018060a01b03808716602084015260a060408401526169fe60a08401876168de565b9416606083015250608001529392505050565b8581526001600160a01b038516602082015260a060408201819052600090616a3b908301866168de565b8281036060840152616a4d81866168de565b9150508260808301529695505050505050565b848152608060208201526000616a7960808301866168de565b6001600160a01b03949094166040830152506060015292915050565b87815260c060208201526000616aae60c08301896168de565b8281036040840152616ac081896168de565b90508281036060840152616ad481886168de565b905085608084015282810360a0840152838152838560208301376000602085830101526020601f19601f86011682010191505098975050505050505050565b86815260c060208201526000616b2c60c08301886168de565b8281036040840152616b3e81886168de565b90508281036060840152616b5281876168de565b905084608084015282810360a0840152616b6c81856168de565b9998505050505050505050565b60208152600061376160208301846168de565b6020810160038310616bae57634e487b7160e01b600052602160045260246000fd5b91905290565b60208082526018908201527f6d617020746f6b656e206e6f7420726567697374657265640000000000000000604082015260600190565b6020808252602c908201527f46756e6374696f6e206d7573742062652063616c6c6564207468726f7567682060408201526b19195b1959d85d1958d85b1b60a21b606082015260800190565b6020808252600f908201526e62616c616e636520746f6f206c6f7760881b604082015260600190565b6020808252600b908201526a1bdc99195c88195e1a5cdd60aa1b604082015260600190565b6020808252601490820152731a5b9d985b1a59081b5bdcc818dbdb9d1c9858dd60621b604082015260600190565b6020808252602c908201527f46756e6374696f6e206d7573742062652063616c6c6564207468726f7567682060408201526b6163746976652070726f787960a01b606082015260800190565b6020808252600f908201526e61646472657373206973207a65726f60881b604082015260600190565b60208082526010908201526f14185d5cd8589b194e881c185d5cd95960821b604082015260600190565b60208082526010908201526f1a5b9d985b1a590818da185a5b881a5960821b604082015260600190565b60208082526018908201527f6f757420746f6b656e206e6f7420726567697374657265640000000000000000604082015260600190565b6020808252601a908201527f7661756c7420746f6b656e206e6f742072656769737465726564000000000000604082015260600190565b60208082526016908201527536b7b9a932b630bc901d1d1037b7363c9030b236b4b760511b604082015260600190565b6020808252601f908201527f5265656e7472616e637947756172643a207265656e7472616e742063616c6c00604082015260600190565b82815260406020820152600061536b60408301846168de565b604051608081016001600160401b0381118282101715616e8c57616e8c6171ab565b60405290565b604051601f8201601f191681016001600160401b0381118282101715616eba57616eba6171ab565b604052919050565b60006001600160401b03821115616edb57616edb6171ab565b50601f01601f191660200190565b60008219821115616efc57616efc617153565b500190565b600060ff821660ff84168060ff03821115616f1e57616f1e617153565b019392505050565b600082616f3557616f35617169565b500490565b600181815b80851115616f75578160001904821115616f5b57616f5b617153565b80851615616f6857918102915b93841c9390800290616f3f565b509250929050565b60006137618383600082616f93575060016125d6565b81616fa0575060006125d6565b8160018114616fb65760028114616fc057616fdc565b60019150506125d6565b60ff841115616fd157616fd1617153565b50506001821b6125d6565b5060208310610133831016604e8410600b8410161715616fff575081810a6125d6565b6170098383616f3a565b806000190482111561701d5761701d617153565b029392505050565b600081600019048311821515161561703f5761703f617153565b500290565b600060ff821660ff84168160ff048111821515161561701d5761701d617153565b60008282101561707757617077617153565b500390565b600060ff821660ff84168082101561709657617096617153565b90039392505050565b80516020808301519190811015614e375760001960209190910360031b1b16919050565b60005b838110156170de5781810151838201526020016170c6565b838111156116665750506000910152565b600181811c9082168061710357607f821691505b60208210811415614e3757634e487b7160e01b600052602260045260246000fd5b600060001982141561713857617138617153565b5060010190565b60008261714e5761714e617169565b500690565b634e487b7160e01b600052601160045260246000fd5b634e487b7160e01b600052601260045260246000fd5b634e487b7160e01b600052602160045260246000fd5b634e487b7160e01b600052603260045260246000fd5b634e487b7160e01b600052604160045260246000fd5b6001600160a01b0381168114610e9a57600080fdfe6d61705472616e736665724f75742875696e743235362c75696e743235362c627974657333322c62797465732c62797465732c62797465732c75696e743235362c627974657329416464726573733a206c6f772d6c6576656c2064656c65676174652063616c6c206661696c65646d61704465706f7369744f75742875696e743235362c75696e743235362c627974657333322c616464726573732c62797465732c616464726573732c75696e74323536296d6170537761704f75742875696e743235362c75696e743235362c627974657333322c62797465732c62797465732c62797465732c75696e743235362c627974657329a26469706673582212208aea4a3f09cce90c1c3a26f8fd4d31a15fa22faa590bfc6ff8c471aa569fa78c64736f6c63430008070033",
  "devdoc": {
    "kind": "dev",
    "methods": {
      "paused()": {
        "details": "Returns true if the contract is paused, and false otherwise."
      },
      "upgradeTo(address)": {
        "details": "Upgrade the implementation of the proxy to `newImplementation`. Calls {_authorizeUpgrade}. Emits an {Upgraded} event."
      },
      "upgradeToAndCall(address,bytes)": {
        "details": "Upgrade the implementation of the proxy to `newImplementation`, and subsequently execute the function call encoded in `data`. Calls {_authorizeUpgrade}. Emits an {Upgraded} event."
      }
    },
    "version": 1
  },
  "userdoc": {
    "kind": "user",
    "methods": {},
    "version": 1
  },
  "storageLayout": {
    "storage": [
      {
        "astId": 1363,
        "contract": "contracts/MAPOmnichainServiceRelayV2.sol:MAPOmnichainServiceRelayV2",
        "label": "_status",
        "offset": 0,
        "slot": "0",
        "type": "t_uint256"
      },
      {
        "astId": 1107,
        "contract": "contracts/MAPOmnichainServiceRelayV2.sol:MAPOmnichainServiceRelayV2",
        "label": "_initialized",
        "offset": 0,
        "slot": "1",
        "type": "t_bool"
      },
      {
        "astId": 1110,
        "contract": "contracts/MAPOmnichainServiceRelayV2.sol:MAPOmnichainServiceRelayV2",
        "label": "_initializing",
        "offset": 1,
        "slot": "1",
        "type": "t_bool"
      },
      {
        "astId": 1278,
        "contract": "contracts/MAPOmnichainServiceRelayV2.sol:MAPOmnichainServiceRelayV2",
        "label": "_paused",
        "offset": 2,
        "slot": "1",
        "type": "t_bool"
      },
      {
        "astId": 4108,
        "contract": "contracts/MAPOmnichainServiceRelayV2.sol:MAPOmnichainServiceRelayV2",
        "label": "nonce",
        "offset": 0,
        "slot": "2",
        "type": "t_uint256"
      },
      {
        "astId": 4110,
        "contract": "contracts/MAPOmnichainServiceRelayV2.sol:MAPOmnichainServiceRelayV2",
        "label": "wToken",
        "offset": 0,
        "slot": "3",
        "type": "t_address"
      },
      {
        "astId": 4113,
        "contract": "contracts/MAPOmnichainServiceRelayV2.sol:MAPOmnichainServiceRelayV2",
        "label": "tokenRegister",
        "offset": 0,
        "slot": "4",
        "type": "t_contract(ITokenRegisterV2)8999"
      },
      {
        "astId": 4116,
        "contract": "contracts/MAPOmnichainServiceRelayV2.sol:MAPOmnichainServiceRelayV2",
        "label": "lightClientManager",
        "offset": 0,
        "slot": "5",
        "type": "t_contract(ILightClientManager)8734"
      },
      {
        "astId": 4121,
        "contract": "contracts/MAPOmnichainServiceRelayV2.sol:MAPOmnichainServiceRelayV2",
        "label": "distributeRate",
        "offset": 0,
        "slot": "6",
        "type": "t_mapping(t_uint256,t_struct(Rate)4098_storage)"
      },
      {
        "astId": 4125,
        "contract": "contracts/MAPOmnichainServiceRelayV2.sol:MAPOmnichainServiceRelayV2",
        "label": "orderList",
        "offset": 0,
        "slot": "7",
        "type": "t_mapping(t_bytes32,t_bool)"
      },
      {
        "astId": 4129,
        "contract": "contracts/MAPOmnichainServiceRelayV2.sol:MAPOmnichainServiceRelayV2",
        "label": "mosContracts",
        "offset": 0,
        "slot": "8",
        "type": "t_mapping(t_uint256,t_bytes_storage)"
      },
      {
        "astId": 4134,
        "contract": "contracts/MAPOmnichainServiceRelayV2.sol:MAPOmnichainServiceRelayV2",
        "label": "chainTypes",
        "offset": 0,
        "slot": "9",
        "type": "t_mapping(t_uint256,t_enum(chainType)4102)"
      }
    ],
    "types": {
      "t_address": {
        "encoding": "inplace",
        "label": "address",
        "numberOfBytes": "20"
      },
      "t_bool": {
        "encoding": "inplace",
        "label": "bool",
        "numberOfBytes": "1"
      },
      "t_bytes32": {
        "encoding": "inplace",
        "label": "bytes32",
        "numberOfBytes": "32"
      },
      "t_bytes_storage": {
        "encoding": "bytes",
        "label": "bytes",
        "numberOfBytes": "32"
      },
      "t_contract(ILightClientManager)8734": {
        "encoding": "inplace",
        "label": "contract ILightClientManager",
        "numberOfBytes": "20"
      },
      "t_contract(ITokenRegisterV2)8999": {
        "encoding": "inplace",
        "label": "contract ITokenRegisterV2",
        "numberOfBytes": "20"
      },
      "t_enum(chainType)4102": {
        "encoding": "inplace",
        "label": "enum MAPOmnichainServiceRelayV2.chainType",
        "numberOfBytes": "1"
      },
      "t_mapping(t_bytes32,t_bool)": {
        "encoding": "mapping",
        "key": "t_bytes32",
        "label": "mapping(bytes32 => bool)",
        "numberOfBytes": "32",
        "value": "t_bool"
      },
      "t_mapping(t_uint256,t_bytes_storage)": {
        "encoding": "mapping",
        "key": "t_uint256",
        "label": "mapping(uint256 => bytes)",
        "numberOfBytes": "32",
        "value": "t_bytes_storage"
      },
      "t_mapping(t_uint256,t_enum(chainType)4102)": {
        "encoding": "mapping",
        "key": "t_uint256",
        "label": "mapping(uint256 => enum MAPOmnichainServiceRelayV2.chainType)",
        "numberOfBytes": "32",
        "value": "t_enum(chainType)4102"
      },
      "t_mapping(t_uint256,t_struct(Rate)4098_storage)": {
        "encoding": "mapping",
        "key": "t_uint256",
        "label": "mapping(uint256 => struct MAPOmnichainServiceRelayV2.Rate)",
        "numberOfBytes": "32",
        "value": "t_struct(Rate)4098_storage"
      },
      "t_struct(Rate)4098_storage": {
        "encoding": "inplace",
        "label": "struct MAPOmnichainServiceRelayV2.Rate",
        "members": [
          {
            "astId": 4095,
            "contract": "contracts/MAPOmnichainServiceRelayV2.sol:MAPOmnichainServiceRelayV2",
            "label": "receiver",
            "offset": 0,
            "slot": "0",
            "type": "t_address"
          },
          {
            "astId": 4097,
            "contract": "contracts/MAPOmnichainServiceRelayV2.sol:MAPOmnichainServiceRelayV2",
            "label": "rate",
            "offset": 0,
            "slot": "1",
            "type": "t_uint256"
          }
        ],
        "numberOfBytes": "64"
      },
      "t_uint256": {
        "encoding": "inplace",
        "label": "uint256",
        "numberOfBytes": "32"
      }
    }
  }
}