{
  "address": "0x41ce369Ea24cb5568ff5A88d6AC5d114627EFA48",
  "abi": [
    {
      "anonymous": false,
      "inputs": [
        {
          "indexed": false,
          "internalType": "address",
          "name": "previousAdmin",
          "type": "address"
        },
        {
          "indexed": false,
          "internalType": "address",
          "name": "newAdmin",
          "type": "address"
        }
      ],
      "name": "AdminChanged",
      "type": "event"
    },
    {
      "anonymous": false,
      "inputs": [
        {
          "indexed": true,
          "internalType": "address",
          "name": "beacon",
          "type": "address"
        }
      ],
      "name": "BeaconUpgraded",
      "type": "event"
    },
    {
      "anonymous": false,
      "inputs": [
        {
          "indexed": true,
          "internalType": "address",
          "name": "implementation",
          "type": "address"
        }
      ],
      "name": "Upgraded",
      "type": "event"
    },
    {
      "inputs": [
        {
          "internalType": "address",
          "name": "_admin",
          "type": "address"
        }
      ],
      "name": "changeAdmin",
      "outputs": [],
      "stateMutability": "nonpayable",
      "type": "function"
    },
    {
      "inputs": [
        {
          "internalType": "address",
          "name": "_token",
          "type": "address"
        }
      ],
      "name": "checkMintable",
      "outputs": [
        {
          "internalType": "bool",
          "name": "",
          "type": "bool"
        }
      ],
      "stateMutability": "view",
      "type": "function"
    },
    {
      "inputs": [],
      "name": "getAdmin",
      "outputs": [
        {
          "internalType": "address",
          "name": "",
          "type": "address"
        }
      ],
      "stateMutability": "view",
      "type": "function"
    },
    {
      "inputs": [],
      "name": "getImplementation",
      "outputs": [
        {
          "internalType": "address",
          "name": "",
          "type": "address"
        }
      ],
      "stateMutability": "view",
      "type": "function"
    },
    {
      "inputs": [
        {
          "internalType": "address",
          "name": "_token",
          "type": "address"
        },
        {
          "internalType": "uint256",
          "name": "_fromChain",
          "type": "uint256"
        },
        {
          "internalType": "uint256",
          "name": "_amount",
          "type": "uint256"
        }
      ],
      "name": "getRelayChainAmount",
      "outputs": [
        {
          "internalType": "uint256",
          "name": "",
          "type": "uint256"
        }
      ],
      "stateMutability": "view",
      "type": "function"
    },
    {
      "inputs": [
        {
          "internalType": "uint256",
          "name": "_fromChain",
          "type": "uint256"
        },
        {
          "internalType": "bytes",
          "name": "_fromToken",
          "type": "bytes"
        }
      ],
      "name": "getRelayChainToken",
      "outputs": [
        {
          "internalType": "address",
          "name": "token",
          "type": "address"
        }
      ],
      "stateMutability": "view",
      "type": "function"
    },
    {
      "inputs": [
        {
          "internalType": "address",
          "name": "_token",
          "type": "address"
        },
        {
          "internalType": "uint256",
          "name": "_amount",
          "type": "uint256"
        },
        {
          "internalType": "uint256",
          "name": "_toChain",
          "type": "uint256"
        }
      ],
      "name": "getToChainAmount",
      "outputs": [
        {
          "internalType": "uint256",
          "name": "",
          "type": "uint256"
        }
      ],
      "stateMutability": "view",
      "type": "function"
    },
    {
      "inputs": [
        {
          "internalType": "address",
          "name": "_token",
          "type": "address"
        },
        {
          "internalType": "uint256",
          "name": "_toChain",
          "type": "uint256"
        }
      ],
      "name": "getToChainToken",
      "outputs": [
        {
          "internalType": "bytes",
          "name": "_toChainToken",
          "type": "bytes"
        }
      ],
      "stateMutability": "view",
      "type": "function"
    },
    {
      "inputs": [
        {
          "internalType": "address",
          "name": "_token",
          "type": "address"
        },
        {
          "internalType": "uint256",
          "name": "_toChain",
          "type": "uint256"
        }
      ],
      "name": "getToChainTokenInfo",
      "outputs": [
        {
          "internalType": "bytes",
          "name": "toChainToken",
          "type": "bytes"
        },
        {
          "internalType": "uint8",
          "name": "decimals",
          "type": "uint8"
        },
        {
          "components": [
            {
              "internalType": "uint256",
              "name": "lowest",
              "type": "uint256"
            },
            {
              "internalType": "uint256",
              "name": "highest",
              "type": "uint256"
            },
            {
              "internalType": "uint256",
              "name": "rate",
              "type": "uint256"
            }
          ],
          "internalType": "struct TokenRegisterV2.FeeRate",
          "name": "feeRate",
          "type": "tuple"
        }
      ],
      "stateMutability": "view",
      "type": "function"
    },
    {
      "inputs": [
        {
          "internalType": "address",
          "name": "_token",
          "type": "address"
        },
        {
          "internalType": "uint256",
          "name": "_amount",
          "type": "uint256"
        },
        {
          "internalType": "uint256",
          "name": "_toChain",
          "type": "uint256"
        }
      ],
      "name": "getTokenFee",
      "outputs": [
        {
          "internalType": "uint256",
          "name": "",
          "type": "uint256"
        }
      ],
      "stateMutability": "view",
      "type": "function"
    },
    {
      "inputs": [
        {
          "internalType": "address",
          "name": "_token",
          "type": "address"
        }
      ],
      "name": "getVaultToken",
      "outputs": [
        {
          "internalType": "address",
          "name": "",
          "type": "address"
        }
      ],
      "stateMutability": "view",
      "type": "function"
    },
    {
      "inputs": [],
      "name": "initialize",
      "outputs": [],
      "stateMutability": "nonpayable",
      "type": "function"
    },
    {
      "inputs": [
        {
          "internalType": "address",
          "name": "_token",
          "type": "address"
        },
        {
          "internalType": "uint256",
          "name": "_fromChain",
          "type": "uint256"
        },
        {
          "internalType": "bytes",
          "name": "_fromToken",
          "type": "bytes"
        },
        {
          "internalType": "uint8",
          "name": "_decimals",
          "type": "uint8"
        }
      ],
      "name": "mapToken",
      "outputs": [],
      "stateMutability": "nonpayable",
      "type": "function"
    },
    {
      "inputs": [
        {
          "internalType": "address",
          "name": "_token",
          "type": "address"
        },
        {
          "internalType": "address",
          "name": "_vaultToken",
          "type": "address"
        },
        {
          "internalType": "bool",
          "name": "_mintable",
          "type": "bool"
        }
      ],
      "name": "registerToken",
      "outputs": [],
      "stateMutability": "nonpayable",
      "type": "function"
    },
    {
      "inputs": [],
      "name": "selfChainId",
      "outputs": [
        {
          "internalType": "uint256",
          "name": "",
          "type": "uint256"
        }
      ],
      "stateMutability": "view",
      "type": "function"
    },
    {
      "inputs": [
        {
          "internalType": "address",
          "name": "_token",
          "type": "address"
        },
        {
          "internalType": "uint256",
          "name": "_toChain",
          "type": "uint256"
        },
        {
          "internalType": "uint256",
          "name": "_lowest",
          "type": "uint256"
        },
        {
          "internalType": "uint256",
          "name": "_highest",
          "type": "uint256"
        },
        {
          "internalType": "uint256",
          "name": "_rate",
          "type": "uint256"
        }
      ],
      "name": "setTokenFee",
      "outputs": [],
      "stateMutability": "nonpayable",
      "type": "function"
    },
    {
      "inputs": [
        {
          "internalType": "address",
          "name": "",
          "type": "address"
        }
      ],
      "name": "tokenList",
      "outputs": [
        {
          "internalType": "bool",
          "name": "mintable",
          "type": "bool"
        },
        {
          "internalType": "uint8",
          "name": "decimals",
          "type": "uint8"
        },
        {
          "internalType": "address",
          "name": "vaultToken",
          "type": "address"
        }
      ],
      "stateMutability": "view",
      "type": "function"
    },
    {
      "inputs": [
        {
          "internalType": "uint256",
          "name": "",
          "type": "uint256"
        },
        {
          "internalType": "bytes",
          "name": "",
          "type": "bytes"
        }
      ],
      "name": "tokenMappingList",
      "outputs": [
        {
          "internalType": "address",
          "name": "",
          "type": "address"
        }
      ],
      "stateMutability": "view",
      "type": "function"
    },
    {
      "inputs": [
        {
          "internalType": "address",
          "name": "newImplementation",
          "type": "address"
        }
      ],
      "name": "upgradeTo",
      "outputs": [],
      "stateMutability": "nonpayable",
      "type": "function"
    },
    {
      "inputs": [
        {
          "internalType": "address",
          "name": "newImplementation",
          "type": "address"
        },
        {
          "internalType": "bytes",
          "name": "data",
          "type": "bytes"
        }
      ],
      "name": "upgradeToAndCall",
      "outputs": [],
      "stateMutability": "payable",
      "type": "function"
    }
  ],
  "transactionHash": "0x344461d6f66cbbabf18d218cedcdeec7ff59eeafc7439a7acbf3ce393069ec80",
  "args": [],
  "solcInputHash": "8585bbe8893d9d3afe41ff28fc8523ff",
  "bytecode": "0x60c06040523060601b6080524660a05234801561001b57600080fd5b5060805160601c60a051611e8761007c600039600081816103f5015281816105420152818161065a01528181611052015281816110f701526111970152600081816107e80152818161083101528181610a640152610aa40152611e876000f3fe60806040526004361061011f5760003560e01c8063764d6c8c116100a0578063c6c7b9fc11610064578063c6c7b9fc146103c3578063cc9e3e89146103e3578063ceec8cb914610417578063eead8e7c14610460578063fb9e6c131461048057600080fd5b8063764d6c8c1461031a5780638129fc1c1461033a5780638f2839701461034f5780639dc6108f1461036f578063aaf10f42146103ae57600080fd5b80634bdb4eed116100e75780634bdb4eed1461023f5780634f1ef2861461025f57806364e9f35f146102725780636e9960c3146102e55780636eddb671146102fa57600080fd5b8063140dbf2a146101245780631917961714610193578063204f4877146101c157806324ec643e146101ee5780633659cfe61461021d575b600080fd5b34801561013057600080fd5b5061017661013f366004611a6b565b600160209081526000928352604090922081518083018401805192815290840192909301919091209152546001600160a01b031681565b6040516001600160a01b0390911681526020015b60405180910390f35b34801561019f57600080fd5b506101b36101ae3660046119f2565b6104a0565b60405190815260200161018a565b3480156101cd57600080fd5b506101e16101dc36600461195a565b61053e565b60405161018a9190611b01565b3480156101fa57600080fd5b5061020e61020936600461195a565b610630565b60405161018a93929190611b14565b34801561022957600080fd5b5061023d610238366004611880565b6107dd565b005b34801561024b57600080fd5b5061023d61025a366004611a27565b6108af565b61023d61026d36600461190a565b610a59565b34801561027e57600080fd5b506102bd61028d366004611880565b60026020526000908152604090205460ff808216916101008104909116906201000090046001600160a01b031683565b60408051931515845260ff90921660208401526001600160a01b03169082015260600161018a565b3480156102f157600080fd5b50610176610b13565b34801561030657600080fd5b5061023d610315366004611986565b610b22565b34801561032657600080fd5b5061023d6103353660046118ba565b610cf1565b34801561034657600080fd5b5061023d610f1b565b34801561035b57600080fd5b5061023d61036a366004611880565b610fdc565b34801561037b57600080fd5b5061017661038a366004611880565b6001600160a01b039081166000908152600260205260409020546201000090041690565b3480156103ba57600080fd5b50610176611044565b3480156103cf57600080fd5b506101b36103de3660046119f2565b61104e565b3480156103ef57600080fd5b506101b37f000000000000000000000000000000000000000000000000000000000000000081565b34801561042357600080fd5b50610450610432366004611880565b6001600160a01b031660009081526002602052604090205460ff1690565b604051901515815260200161018a565b34801561046c57600080fd5b506101b361047b3660046119f2565b6110f3565b34801561048c57600080fd5b5061017661049b366004611a6b565b611193565b6001600160a01b0383166000908152600260208181526040808420858552600190810183528185208251606081018452815481529181015493820193909352919092015491810182905290829061050790620f424090610501908890611205565b90611211565b905081602001518111156105215750602001519050610537565b81518110156105335750519050610537565b9150505b9392505050565b60607f0000000000000000000000000000000000000000000000000000000000000000821415610578576105718361121d565b905061062a565b6001600160a01b0383166000908152600260209081526040808320858452600301909152902080546105a990611d9f565b80601f01602080910402602001604051908101604052809291908181526020018280546105d590611d9f565b80156106225780601f106105f757610100808354040283529160200191610622565b820191906000526020600020905b81548152906001019060200180831161060557829003601f168201915b505050505090505b92915050565b6060600061065860405180606001604052806000815260200160008152602001600081525090565b7f00000000000000000000000000000000000000000000000000000000000000008414156106b4576106898561121d565b6001600160a01b038616600090815260026020526040902054909350610100900460ff169150610792565b6001600160a01b0385166000908152600260209081526040808320878452600301909152902080546106e590611d9f565b80601f016020809104026020016040519081016040528092919081815260200182805461071190611d9f565b801561075e5780601f106107335761010080835404028352916020019161075e565b820191906000526020600020905b81548152906001019060200180831161074157829003601f168201915b505050506001600160a01b03871660009081526002602081815260408084208a855290920190529020549194505060ff1691505b506001600160a01b0390931660009081526002602081815260408084209584526001958601825292839020835160608101855281548152958101549186019190915201549083015292565b306001600160a01b037f000000000000000000000000000000000000000000000000000000000000000016141561082f5760405162461bcd60e51b815260040161082690611b82565b60405180910390fd5b7f00000000000000000000000000000000000000000000000000000000000000006001600160a01b0316610861611253565b6001600160a01b0316146108875760405162461bcd60e51b815260040161082690611bce565b61089081611286565b604080516000808252602082019092526108ac918391906112fc565b50565b6108b7611447565b6001600160a01b0316336001600160a01b0316146108e75760405162461bcd60e51b815260040161082690611b55565b846001600160a01b03811661090e5760405162461bcd60e51b815260040161082690611c1a565b6001600160a01b0380871660009081526002602052604090208054909162010000909104166109735760405162461bcd60e51b815260206004820152601160248201527034b73b30b634b21036b0b8103a37b5b2b760791b6044820152606401610826565b848410156109c35760405162461bcd60e51b815260206004820152601a60248201527f696e76616c6964206869676865737420616e64206c6f776573740000000000006044820152606401610826565b620f4240831115610a165760405162461bcd60e51b815260206004820152601860248201527f696e76616c69642070726f706f7274696f6e2076616c756500000000000000006044820152606401610826565b6040805160608101825295865260208087019586528682019485526000978852600192830190529095209351845550905192820192909255905160029091015550565b306001600160a01b037f0000000000000000000000000000000000000000000000000000000000000000161415610aa25760405162461bcd60e51b815260040161082690611b82565b7f00000000000000000000000000000000000000000000000000000000000000006001600160a01b0316610ad4611253565b6001600160a01b031614610afa5760405162461bcd60e51b815260040161082690611bce565b610b0382611286565b610b0f828260016112fc565b5050565b6000610b1d611447565b905090565b610b2a611447565b6001600160a01b0316336001600160a01b031614610b5a5760405162461bcd60e51b815260040161082690611b55565b836001600160a01b038116610b815760405162461bcd60e51b815260040161082690611c1a565b604080516020808201909252600090528351908401207fc5d2460186f7233c927e7db2dcc703c0e500b653ca82273b7bfad8045d85a4701415610bfb5760405162461bcd60e51b815260206004820152601260248201527134b73b30b634b210333937b6903a37b5b2b760711b6044820152606401610826565b6001600160a01b038086166000908152600260205260409020805490916201000090910416610c605760405162461bcd60e51b815260206004820152601160248201527034b73b30b634b21036b0b8103a37b5b2b760791b6044820152606401610826565b60008581526002820160209081526040808320805460ff191660ff88161790556003840182529091208551610c979287019061175a565b50856001600087815260200190815260200160002085604051610cba9190611ae5565b90815260405190819003602001902080546001600160a01b03929092166001600160a01b0319909216919091179055505050505050565b610cf9611447565b6001600160a01b0316336001600160a01b031614610d295760405162461bcd60e51b815260040161082690611b55565b826001600160a01b038116610d505760405162461bcd60e51b815260040161082690611c1a565b826001600160a01b038116610d775760405162461bcd60e51b815260040161082690611c1a565b6001600160a01b038086166000908152600260209081526040808320815163021fd35d60e31b8152915190948916926310fe9ae89260048082019391829003018186803b158015610dc757600080fd5b505afa158015610ddb573d6000803e3d6000fd5b505050506040513d601f19601f82011682018060405250810190610dff919061189d565b9050806001600160a01b0316876001600160a01b031614610e585760405162461bcd60e51b815260206004820152601360248201527234b73b30b634b2103b30bab63a103a37b5b2b760691b6044820152606401610826565b858260000160026101000a8154816001600160a01b0302191690836001600160a01b03160217905550866001600160a01b031663313ce5676040518163ffffffff1660e01b815260040160206040518083038186803b158015610eba57600080fd5b505afa158015610ece573d6000803e3d6000fd5b505050506040513d601f19601f82011682018060405250810190610ef29190611a9c565b825461ffff191661010060ff929092169190910260ff1916179415159490941790555050505050565b600054610100900460ff16610f365760005460ff1615610f3a565b303b155b610f9d5760405162461bcd60e51b815260206004820152602e60248201527f496e697469616c697a61626c653a20636f6e747261637420697320616c72656160448201526d191e481a5b9a5d1a585b1a5e995960921b6064820152608401610826565b600054610100900460ff16158015610fbf576000805461ffff19166101011790555b610fc83361146f565b80156108ac576000805461ff001916905550565b610fe4611447565b6001600160a01b0316336001600160a01b0316146110145760405162461bcd60e51b815260040161082690611b55565b806001600160a01b03811661103b5760405162461bcd60e51b815260040161082690611c1a565b610b0f8261146f565b6000610b1d611253565b60007f000000000000000000000000000000000000000000000000000000000000000082141561107f575081610537565b6001600160a01b0384166000908152600260208181526040808420805487865293019091529091205460ff61010090920482169116808214156110c6578492505050610537565b6110e96110d483600a611ca8565b6105016110e284600a611ca8565b8890611205565b9695505050505050565b60007f0000000000000000000000000000000000000000000000000000000000000000831415611124575080610537565b6001600160a01b038416600081815260026020818152604080842088855280840183529084205494909352525460ff918216916101009091041680821415611170578392505050610537565b6110e961117e83600a611ca8565b61050161118c84600a611ca8565b8790611205565b60007f00000000000000000000000000000000000000000000000000000000000000008314156111c7576014820151610571565b6000838152600160205260409081902090516111e4908490611ae5565b908152604051908190036020019020546001600160a01b0316905092915050565b60006105378284611d50565b60006105378284611c43565b604051606082811b6bffffffffffffffffffffffff19166020830152906034016040516020818303038152906040529050919050565b60007f360894a13ba1a3210667c828492db98dca3e2076cc3735a920a3ca505d382bbc5b546001600160a01b0316919050565b61128e611447565b6001600160a01b0316336001600160a01b0316146108ac5760405162461bcd60e51b815260206004820152602560248201527f546f6b656e52656769737465723a206f6e6c792041646d696e2063616e207570604482015264677261646560d81b6064820152608401610826565b6000611306611253565b9050611311846114c3565b60008351118061131e5750815b1561132f5761132d848461156b565b505b7f4910fdfa16fed3260ed0e7147f7cc6da11a60208b5b9406d12a635614ffd9143805460ff1661144057805460ff191660011781556040516001600160a01b03831660248201526113ae90869060440160408051601f198184030181529190526020810180516001600160e01b0316631b2ce7f360e11b17905261156b565b50805460ff191681556113bf611253565b6001600160a01b0316826001600160a01b0316146114375760405162461bcd60e51b815260206004820152602f60248201527f45524331393637557067726164653a207570677261646520627265616b73206660448201526e75727468657220757067726164657360881b6064820152608401610826565b61144085611590565b5050505050565b60007fb53127684a568b3173ae13b9f8a6016e243e63b6e8ee1178d6a717850b5d6103611277565b7f7e644d79422f17c01e4894b5f4f588d331ebfa28653d42ae832dc59e38c9798f611498611447565b604080516001600160a01b03928316815291841660208301520160405180910390a16108ac816115d0565b803b6115275760405162461bcd60e51b815260206004820152602d60248201527f455243313936373a206e657720696d706c656d656e746174696f6e206973206e60448201526c1bdd08184818dbdb9d1c9858dd609a1b6064820152608401610826565b807f360894a13ba1a3210667c828492db98dca3e2076cc3735a920a3ca505d382bbc5b80546001600160a01b0319166001600160a01b039290921691909117905550565b60606105378383604051806060016040528060278152602001611e2b6027913961165c565b611599816114c3565b6040516001600160a01b038216907fbc7cd75a20ee27fd9adebab32041f755214dbc6bffa90cc0225b39da2e5c2d3b90600090a250565b6001600160a01b0381166116355760405162461bcd60e51b815260206004820152602660248201527f455243313936373a206e65772061646d696e20697320746865207a65726f206160448201526564647265737360d01b6064820152608401610826565b807fb53127684a568b3173ae13b9f8a6016e243e63b6e8ee1178d6a717850b5d610361154a565b6060833b6116bb5760405162461bcd60e51b815260206004820152602660248201527f416464726573733a2064656c65676174652063616c6c20746f206e6f6e2d636f6044820152651b9d1c9858dd60d21b6064820152608401610826565b600080856001600160a01b0316856040516116d69190611ae5565b600060405180830381855af49150503d8060008114611711576040519150601f19603f3d011682016040523d82523d6000602084013e611716565b606091505b50915091506110e982828660608315611730575081610537565b8251156117405782518084602001fd5b8160405162461bcd60e51b81526004016108269190611b01565b82805461176690611d9f565b90600052602060002090601f01602090048101928261178857600085556117ce565b82601f106117a157805160ff19168380011785556117ce565b828001600101855582156117ce579182015b828111156117ce5782518255916020019190600101906117b3565b506117da9291506117de565b5090565b5b808211156117da57600081556001016117df565b600082601f83011261180457600080fd5b813567ffffffffffffffff8082111561181f5761181f611df0565b604051601f8301601f19908116603f0116810190828211818310171561184757611847611df0565b8160405283815286602085880101111561186057600080fd5b836020870160208301376000602085830101528094505050505092915050565b60006020828403121561189257600080fd5b813561053781611e06565b6000602082840312156118af57600080fd5b815161053781611e06565b6000806000606084860312156118cf57600080fd5b83356118da81611e06565b925060208401356118ea81611e06565b9150604084013580151581146118ff57600080fd5b809150509250925092565b6000806040838503121561191d57600080fd5b823561192881611e06565b9150602083013567ffffffffffffffff81111561194457600080fd5b611950858286016117f3565b9150509250929050565b6000806040838503121561196d57600080fd5b823561197881611e06565b946020939093013593505050565b6000806000806080858703121561199c57600080fd5b84356119a781611e06565b935060208501359250604085013567ffffffffffffffff8111156119ca57600080fd5b6119d6878288016117f3565b92505060608501356119e781611e1b565b939692955090935050565b600080600060608486031215611a0757600080fd5b8335611a1281611e06565b95602085013595506040909401359392505050565b600080600080600060a08688031215611a3f57600080fd5b8535611a4a81611e06565b97602087013597506040870135966060810135965060800135945092505050565b60008060408385031215611a7e57600080fd5b82359150602083013567ffffffffffffffff81111561194457600080fd5b600060208284031215611aae57600080fd5b815161053781611e1b565b60008151808452611ad1816020860160208601611d6f565b601f01601f19169290920160200192915050565b60008251611af7818460208701611d6f565b9190910192915050565b6020815260006105376020830184611ab9565b60a081526000611b2760a0830186611ab9565b905060ff84166020830152825160408301526020830151606083015260408301516080830152949350505050565b6020808252601390820152723932b3b4b9ba32b91037b7363c9037bbb732b960691b604082015260600190565b6020808252602c908201527f46756e6374696f6e206d7573742062652063616c6c6564207468726f7567682060408201526b19195b1959d85d1958d85b1b60a21b606082015260800190565b6020808252602c908201527f46756e6374696f6e206d7573742062652063616c6c6564207468726f7567682060408201526b6163746976652070726f787960a01b606082015260800190565b6020808252600f908201526e61646472657373206973207a65726f60881b604082015260600190565b600082611c6057634e487b7160e01b600052601260045260246000fd5b500490565b600181815b80851115611ca0578160001904821115611c8657611c86611dda565b80851615611c9357918102915b93841c9390800290611c6a565b509250929050565b60006105378383600082611cbe5750600161062a565b81611ccb5750600061062a565b8160018114611ce15760028114611ceb57611d07565b600191505061062a565b60ff841115611cfc57611cfc611dda565b50506001821b61062a565b5060208310610133831016604e8410600b8410161715611d2a575081810a61062a565b611d348383611c65565b8060001904821115611d4857611d48611dda565b029392505050565b6000816000190483118215151615611d6a57611d6a611dda565b500290565b60005b83811015611d8a578181015183820152602001611d72565b83811115611d99576000848401525b50505050565b600181811c90821680611db357607f821691505b60208210811415611dd457634e487b7160e01b600052602260045260246000fd5b50919050565b634e487b7160e01b600052601160045260246000fd5b634e487b7160e01b600052604160045260246000fd5b6001600160a01b03811681146108ac57600080fd5b60ff811681146108ac57600080fdfe416464726573733a206c6f772d6c6576656c2064656c65676174652063616c6c206661696c6564a26469706673582212207004a6d81bc031cd01af8124d835b8ad57493a9102dbf11e8620536367394b0864736f6c63430008070033",
  "devdoc": {
    "kind": "dev",
    "methods": {
      "upgradeTo(address)": {
        "details": "Upgrade the implementation of the proxy to `newImplementation`. Calls {_authorizeUpgrade}. Emits an {Upgraded} event."
      },
      "upgradeToAndCall(address,bytes)": {
        "details": "Upgrade the implementation of the proxy to `newImplementation`, and subsequently execute the function call encoded in `data`. Calls {_authorizeUpgrade}. Emits an {Upgraded} event."
      }
    },
    "version": 1
  },
  "userdoc": {
    "kind": "user",
    "methods": {},
    "version": 1
  },
  "storageLayout": {
    "storage": [
      {
        "astId": 1107,
        "contract": "contracts/TokenRegisterV2.sol:TokenRegisterV2",
        "label": "_initialized",
        "offset": 0,
        "slot": "0",
        "type": "t_bool"
      },
      {
        "astId": 1110,
        "contract": "contracts/TokenRegisterV2.sol:TokenRegisterV2",
        "label": "_initializing",
        "offset": 1,
        "slot": "0",
        "type": "t_bool"
      },
      {
        "astId": 8113,
        "contract": "contracts/TokenRegisterV2.sol:TokenRegisterV2",
        "label": "tokenMappingList",
        "offset": 0,
        "slot": "1",
        "type": "t_mapping(t_uint256,t_mapping(t_bytes_memory_ptr,t_address))"
      },
      {
        "astId": 8118,
        "contract": "contracts/TokenRegisterV2.sol:TokenRegisterV2",
        "label": "tokenList",
        "offset": 0,
        "slot": "2",
        "type": "t_mapping(t_address,t_struct(Token)8103_storage)"
      }
    ],
    "types": {
      "t_address": {
        "encoding": "inplace",
        "label": "address",
        "numberOfBytes": "20"
      },
      "t_bool": {
        "encoding": "inplace",
        "label": "bool",
        "numberOfBytes": "1"
      },
      "t_bytes_memory_ptr": {
        "encoding": "bytes",
        "label": "bytes",
        "numberOfBytes": "32"
      },
      "t_bytes_storage": {
        "encoding": "bytes",
        "label": "bytes",
        "numberOfBytes": "32"
      },
      "t_mapping(t_address,t_struct(Token)8103_storage)": {
        "encoding": "mapping",
        "key": "t_address",
        "label": "mapping(address => struct TokenRegisterV2.Token)",
        "numberOfBytes": "32",
        "value": "t_struct(Token)8103_storage"
      },
      "t_mapping(t_bytes_memory_ptr,t_address)": {
        "encoding": "mapping",
        "key": "t_bytes_memory_ptr",
        "label": "mapping(bytes => address)",
        "numberOfBytes": "32",
        "value": "t_address"
      },
      "t_mapping(t_uint256,t_bytes_storage)": {
        "encoding": "mapping",
        "key": "t_uint256",
        "label": "mapping(uint256 => bytes)",
        "numberOfBytes": "32",
        "value": "t_bytes_storage"
      },
      "t_mapping(t_uint256,t_mapping(t_bytes_memory_ptr,t_address))": {
        "encoding": "mapping",
        "key": "t_uint256",
        "label": "mapping(uint256 => mapping(bytes => address))",
        "numberOfBytes": "32",
        "value": "t_mapping(t_bytes_memory_ptr,t_address)"
      },
      "t_mapping(t_uint256,t_struct(FeeRate)8083_storage)": {
        "encoding": "mapping",
        "key": "t_uint256",
        "label": "mapping(uint256 => struct TokenRegisterV2.FeeRate)",
        "numberOfBytes": "32",
        "value": "t_struct(FeeRate)8083_storage"
      },
      "t_mapping(t_uint256,t_uint8)": {
        "encoding": "mapping",
        "key": "t_uint256",
        "label": "mapping(uint256 => uint8)",
        "numberOfBytes": "32",
        "value": "t_uint8"
      },
      "t_struct(FeeRate)8083_storage": {
        "encoding": "inplace",
        "label": "struct TokenRegisterV2.FeeRate",
        "members": [
          {
            "astId": 8078,
            "contract": "contracts/TokenRegisterV2.sol:TokenRegisterV2",
            "label": "lowest",
            "offset": 0,
            "slot": "0",
            "type": "t_uint256"
          },
          {
            "astId": 8080,
            "contract": "contracts/TokenRegisterV2.sol:TokenRegisterV2",
            "label": "highest",
            "offset": 0,
            "slot": "1",
            "type": "t_uint256"
          },
          {
            "astId": 8082,
            "contract": "contracts/TokenRegisterV2.sol:TokenRegisterV2",
            "label": "rate",
            "offset": 0,
            "slot": "2",
            "type": "t_uint256"
          }
        ],
        "numberOfBytes": "96"
      },
      "t_struct(Token)8103_storage": {
        "encoding": "inplace",
        "label": "struct TokenRegisterV2.Token",
        "members": [
          {
            "astId": 8085,
            "contract": "contracts/TokenRegisterV2.sol:TokenRegisterV2",
            "label": "mintable",
            "offset": 0,
            "slot": "0",
            "type": "t_bool"
          },
          {
            "astId": 8087,
            "contract": "contracts/TokenRegisterV2.sol:TokenRegisterV2",
            "label": "decimals",
            "offset": 1,
            "slot": "0",
            "type": "t_uint8"
          },
          {
            "astId": 8089,
            "contract": "contracts/TokenRegisterV2.sol:TokenRegisterV2",
            "label": "vaultToken",
            "offset": 2,
            "slot": "0",
            "type": "t_address"
          },
          {
            "astId": 8094,
            "contract": "contracts/TokenRegisterV2.sol:TokenRegisterV2",
            "label": "fees",
            "offset": 0,
            "slot": "1",
            "type": "t_mapping(t_uint256,t_struct(FeeRate)8083_storage)"
          },
          {
            "astId": 8098,
            "contract": "contracts/TokenRegisterV2.sol:TokenRegisterV2",
            "label": "tokenDecimals",
            "offset": 0,
            "slot": "2",
            "type": "t_mapping(t_uint256,t_uint8)"
          },
          {
            "astId": 8102,
            "contract": "contracts/TokenRegisterV2.sol:TokenRegisterV2",
            "label": "mappingTokens",
            "offset": 0,
            "slot": "3",
            "type": "t_mapping(t_uint256,t_bytes_storage)"
          }
        ],
        "numberOfBytes": "128"
      },
      "t_uint256": {
        "encoding": "inplace",
        "label": "uint256",
        "numberOfBytes": "32"
      },
      "t_uint8": {
        "encoding": "inplace",
        "label": "uint8",
        "numberOfBytes": "1"
      }
    }
  }
}