{
  "address": "0x2214144fF2906b9f44F350368B76972b07f4f75e",
  "abi": [
    {
      "anonymous": false,
      "inputs": [
        {
          "indexed": false,
          "internalType": "address[]",
          "name": "_token",
          "type": "address[]"
        }
      ],
      "name": "AddMintableToken",
      "type": "event"
    },
    {
      "anonymous": false,
      "inputs": [
        {
          "indexed": false,
          "internalType": "address",
          "name": "previousAdmin",
          "type": "address"
        },
        {
          "indexed": false,
          "internalType": "address",
          "name": "newAdmin",
          "type": "address"
        }
      ],
      "name": "AdminChanged",
      "type": "event"
    },
    {
      "anonymous": false,
      "inputs": [
        {
          "indexed": true,
          "internalType": "address",
          "name": "beacon",
          "type": "address"
        }
      ],
      "name": "BeaconUpgraded",
      "type": "event"
    },
    {
      "anonymous": false,
      "inputs": [
        {
          "indexed": false,
          "internalType": "address",
          "name": "account",
          "type": "address"
        }
      ],
      "name": "Paused",
      "type": "event"
    },
    {
      "anonymous": false,
      "inputs": [
        {
          "indexed": false,
          "internalType": "uint256",
          "name": "_chainId",
          "type": "uint256"
        },
        {
          "indexed": false,
          "internalType": "enum MAPOmnichainServiceV2.chainType",
          "name": "_type",
          "type": "uint8"
        }
      ],
      "name": "RegisterChain",
      "type": "event"
    },
    {
      "anonymous": false,
      "inputs": [
        {
          "indexed": false,
          "internalType": "address",
          "name": "_token",
          "type": "address"
        },
        {
          "indexed": false,
          "internalType": "uint256",
          "name": "_toChain",
          "type": "uint256"
        },
        {
          "indexed": false,
          "internalType": "bool",
          "name": "_enable",
          "type": "bool"
        }
      ],
      "name": "RegisterToken",
      "type": "event"
    },
    {
      "anonymous": false,
      "inputs": [
        {
          "indexed": false,
          "internalType": "address[]",
          "name": "_token",
          "type": "address[]"
        }
      ],
      "name": "RemoveMintableToken",
      "type": "event"
    },
    {
      "anonymous": false,
      "inputs": [
        {
          "indexed": true,
          "internalType": "address",
          "name": "_newRouter",
          "type": "address"
        }
      ],
      "name": "SetButterRouterAddress",
      "type": "event"
    },
    {
      "anonymous": false,
      "inputs": [
        {
          "indexed": false,
          "internalType": "address",
          "name": "_lightNode",
          "type": "address"
        }
      ],
      "name": "SetLightClient",
      "type": "event"
    },
    {
      "anonymous": false,
      "inputs": [
        {
          "indexed": false,
          "internalType": "uint256",
          "name": "_chainId",
          "type": "uint256"
        },
        {
          "indexed": false,
          "internalType": "address",
          "name": "_relay",
          "type": "address"
        }
      ],
      "name": "SetRelayContract",
      "type": "event"
    },
    {
      "anonymous": false,
      "inputs": [
        {
          "indexed": false,
          "internalType": "address",
          "name": "account",
          "type": "address"
        }
      ],
      "name": "Unpaused",
      "type": "event"
    },
    {
      "anonymous": false,
      "inputs": [
        {
          "indexed": true,
          "internalType": "address",
          "name": "implementation",
          "type": "address"
        }
      ],
      "name": "Upgraded",
      "type": "event"
    },
    {
      "anonymous": false,
      "inputs": [
        {
          "indexed": true,
          "internalType": "uint256",
          "name": "fromChain",
          "type": "uint256"
        },
        {
          "indexed": true,
          "internalType": "uint256",
          "name": "toChain",
          "type": "uint256"
        },
        {
          "indexed": false,
          "internalType": "bytes32",
          "name": "orderId",
          "type": "bytes32"
        },
        {
          "indexed": false,
          "internalType": "address",
          "name": "token",
          "type": "address"
        },
        {
          "indexed": false,
          "internalType": "bytes",
          "name": "from",
          "type": "bytes"
        },
        {
          "indexed": false,
          "internalType": "address",
          "name": "to",
          "type": "address"
        },
        {
          "indexed": false,
          "internalType": "uint256",
          "name": "amount",
          "type": "uint256"
        }
      ],
      "name": "mapDepositOut",
      "type": "event"
    },
    {
      "anonymous": false,
      "inputs": [
        {
          "indexed": true,
          "internalType": "uint256",
          "name": "fromChain",
          "type": "uint256"
        },
        {
          "indexed": true,
          "internalType": "uint256",
          "name": "toChain",
          "type": "uint256"
        },
        {
          "indexed": true,
          "internalType": "address",
          "name": "from",
          "type": "address"
        }
      ],
      "name": "mapSwapExecute",
      "type": "event"
    },
    {
      "anonymous": false,
      "inputs": [
        {
          "indexed": true,
          "internalType": "uint256",
          "name": "fromChain",
          "type": "uint256"
        },
        {
          "indexed": true,
          "internalType": "uint256",
          "name": "toChain",
          "type": "uint256"
        },
        {
          "indexed": true,
          "internalType": "bytes32",
          "name": "orderId",
          "type": "bytes32"
        },
        {
          "indexed": false,
          "internalType": "address",
          "name": "token",
          "type": "address"
        },
        {
          "indexed": false,
          "internalType": "bytes",
          "name": "from",
          "type": "bytes"
        },
        {
          "indexed": false,
          "internalType": "address",
          "name": "toAddress",
          "type": "address"
        },
        {
          "indexed": false,
          "internalType": "uint256",
          "name": "amountOut",
          "type": "uint256"
        }
      ],
      "name": "mapSwapIn",
      "type": "event"
    },
    {
      "anonymous": false,
      "inputs": [
        {
          "indexed": true,
          "internalType": "uint256",
          "name": "fromChain",
          "type": "uint256"
        },
        {
          "indexed": true,
          "internalType": "uint256",
          "name": "toChain",
          "type": "uint256"
        },
        {
          "indexed": false,
          "internalType": "bytes32",
          "name": "orderId",
          "type": "bytes32"
        },
        {
          "indexed": false,
          "internalType": "bytes",
          "name": "token",
          "type": "bytes"
        },
        {
          "indexed": false,
          "internalType": "bytes",
          "name": "from",
          "type": "bytes"
        },
        {
          "indexed": false,
          "internalType": "bytes",
          "name": "to",
          "type": "bytes"
        },
        {
          "indexed": false,
          "internalType": "uint256",
          "name": "amount",
          "type": "uint256"
        },
        {
          "indexed": false,
          "internalType": "bytes",
          "name": "swapData",
          "type": "bytes"
        }
      ],
      "name": "mapSwapOut",
      "type": "event"
    },
    {
      "anonymous": false,
      "inputs": [
        {
          "indexed": true,
          "internalType": "uint256",
          "name": "fromChain",
          "type": "uint256"
        },
        {
          "indexed": true,
          "internalType": "uint256",
          "name": "toChain",
          "type": "uint256"
        },
        {
          "indexed": true,
          "internalType": "address",
          "name": "from",
          "type": "address"
        }
      ],
      "name": "mapTransferExecute",
      "type": "event"
    },
    {
      "anonymous": false,
      "inputs": [
        {
          "indexed": true,
          "internalType": "uint256",
          "name": "fromChain",
          "type": "uint256"
        },
        {
          "indexed": true,
          "internalType": "uint256",
          "name": "toChain",
          "type": "uint256"
        },
        {
          "indexed": false,
          "internalType": "bytes32",
          "name": "orderId",
          "type": "bytes32"
        },
        {
          "indexed": false,
          "internalType": "bytes",
          "name": "token",
          "type": "bytes"
        },
        {
          "indexed": false,
          "internalType": "bytes",
          "name": "from",
          "type": "bytes"
        },
        {
          "indexed": false,
          "internalType": "bytes",
          "name": "to",
          "type": "bytes"
        },
        {
          "indexed": false,
          "internalType": "uint256",
          "name": "amount",
          "type": "uint256"
        },
        {
          "indexed": false,
          "internalType": "bytes",
          "name": "toChainToken",
          "type": "bytes"
        }
      ],
      "name": "mapTransferOut",
      "type": "event"
    },
    {
      "inputs": [
        {
          "internalType": "address[]",
          "name": "_token",
          "type": "address[]"
        }
      ],
      "name": "addMintableToken",
      "outputs": [],
      "stateMutability": "nonpayable",
      "type": "function"
    },
    {
      "inputs": [],
      "name": "butterRouter",
      "outputs": [
        {
          "internalType": "address",
          "name": "",
          "type": "address"
        }
      ],
      "stateMutability": "view",
      "type": "function"
    },
    {
      "inputs": [
        {
          "internalType": "address",
          "name": "_admin",
          "type": "address"
        }
      ],
      "name": "changeAdmin",
      "outputs": [],
      "stateMutability": "nonpayable",
      "type": "function"
    },
    {
      "inputs": [
        {
          "internalType": "address",
          "name": "_to",
          "type": "address"
        }
      ],
      "name": "depositNative",
      "outputs": [],
      "stateMutability": "payable",
      "type": "function"
    },
    {
      "inputs": [
        {
          "internalType": "address",
          "name": "_token",
          "type": "address"
        },
        {
          "internalType": "address",
          "name": "_to",
          "type": "address"
        },
        {
          "internalType": "uint256",
          "name": "_amount",
          "type": "uint256"
        }
      ],
      "name": "depositToken",
      "outputs": [],
      "stateMutability": "nonpayable",
      "type": "function"
    },
    {
      "inputs": [],
      "name": "getAdmin",
      "outputs": [
        {
          "internalType": "address",
          "name": "",
          "type": "address"
        }
      ],
      "stateMutability": "view",
      "type": "function"
    },
    {
      "inputs": [],
      "name": "getImplementation",
      "outputs": [
        {
          "internalType": "address",
          "name": "",
          "type": "address"
        }
      ],
      "stateMutability": "view",
      "type": "function"
    },
    {
      "inputs": [
        {
          "internalType": "address",
          "name": "_wToken",
          "type": "address"
        },
        {
          "internalType": "address",
          "name": "_lightNode",
          "type": "address"
        },
        {
          "internalType": "address",
          "name": "_owner",
          "type": "address"
        }
      ],
      "name": "initialize",
      "outputs": [],
      "stateMutability": "nonpayable",
      "type": "function"
    },
    {
      "inputs": [
        {
          "internalType": "address",
          "name": "_token",
          "type": "address"
        },
        {
          "internalType": "uint256",
          "name": "_toChain",
          "type": "uint256"
        }
      ],
      "name": "isBridgeable",
      "outputs": [
        {
          "internalType": "bool",
          "name": "",
          "type": "bool"
        }
      ],
      "stateMutability": "view",
      "type": "function"
    },
    {
      "inputs": [
        {
          "internalType": "address",
          "name": "_token",
          "type": "address"
        }
      ],
      "name": "isMintable",
      "outputs": [
        {
          "internalType": "bool",
          "name": "",
          "type": "bool"
        }
      ],
      "stateMutability": "view",
      "type": "function"
    },
    {
      "inputs": [],
      "name": "lightNode",
      "outputs": [
        {
          "internalType": "contract ILightNode",
          "name": "",
          "type": "address"
        }
      ],
      "stateMutability": "view",
      "type": "function"
    },
    {
      "inputs": [
        {
          "internalType": "address",
          "name": "",
          "type": "address"
        }
      ],
      "name": "mintableTokens",
      "outputs": [
        {
          "internalType": "bool",
          "name": "",
          "type": "bool"
        }
      ],
      "stateMutability": "view",
      "type": "function"
    },
    {
      "inputs": [],
      "name": "nonce",
      "outputs": [
        {
          "internalType": "uint256",
          "name": "",
          "type": "uint256"
        }
      ],
      "stateMutability": "view",
      "type": "function"
    },
    {
      "inputs": [
        {
          "internalType": "bytes32",
          "name": "",
          "type": "bytes32"
        }
      ],
      "name": "orderList",
      "outputs": [
        {
          "internalType": "bool",
          "name": "",
          "type": "bool"
        }
      ],
      "stateMutability": "view",
      "type": "function"
    },
    {
      "inputs": [],
      "name": "paused",
      "outputs": [
        {
          "internalType": "bool",
          "name": "",
          "type": "bool"
        }
      ],
      "stateMutability": "view",
      "type": "function"
    },
    {
      "inputs": [
        {
          "internalType": "address",
          "name": "_token",
          "type": "address"
        },
        {
          "internalType": "uint256",
          "name": "_toChain",
          "type": "uint256"
        },
        {
          "internalType": "bool",
          "name": "_enable",
          "type": "bool"
        }
      ],
      "name": "registerToken",
      "outputs": [],
      "stateMutability": "nonpayable",
      "type": "function"
    },
    {
      "inputs": [],
      "name": "relayChainId",
      "outputs": [
        {
          "internalType": "uint256",
          "name": "",
          "type": "uint256"
        }
      ],
      "stateMutability": "view",
      "type": "function"
    },
    {
      "inputs": [],
      "name": "relayContract",
      "outputs": [
        {
          "internalType": "address",
          "name": "",
          "type": "address"
        }
      ],
      "stateMutability": "view",
      "type": "function"
    },
    {
      "inputs": [
        {
          "internalType": "address[]",
          "name": "_token",
          "type": "address[]"
        }
      ],
      "name": "removeMintableToken",
      "outputs": [],
      "stateMutability": "nonpayable",
      "type": "function"
    },
    {
      "inputs": [],
      "name": "selfChainId",
      "outputs": [
        {
          "internalType": "uint256",
          "name": "",
          "type": "uint256"
        }
      ],
      "stateMutability": "view",
      "type": "function"
    },
    {
      "inputs": [
        {
          "internalType": "address",
          "name": "_butterRouter",
          "type": "address"
        }
      ],
      "name": "setButterRouterAddress",
      "outputs": [],
      "stateMutability": "nonpayable",
      "type": "function"
    },
    {
      "inputs": [
        {
          "internalType": "address",
          "name": "_lightNode",
          "type": "address"
        }
      ],
      "name": "setLightClient",
      "outputs": [],
      "stateMutability": "nonpayable",
      "type": "function"
    },
    {
      "inputs": [],
      "name": "setPause",
      "outputs": [],
      "stateMutability": "nonpayable",
      "type": "function"
    },
    {
      "inputs": [
        {
          "internalType": "uint256",
          "name": "_chainId",
          "type": "uint256"
        },
        {
          "internalType": "address",
          "name": "_relay",
          "type": "address"
        }
      ],
      "name": "setRelayContract",
      "outputs": [],
      "stateMutability": "nonpayable",
      "type": "function"
    },
    {
      "inputs": [],
      "name": "setUnpause",
      "outputs": [],
      "stateMutability": "nonpayable",
      "type": "function"
    },
    {
      "inputs": [
        {
          "internalType": "uint256",
          "name": "_chainId",
          "type": "uint256"
        },
        {
          "internalType": "bytes",
          "name": "_receiptProof",
          "type": "bytes"
        }
      ],
      "name": "swapIn",
      "outputs": [],
      "stateMutability": "nonpayable",
      "type": "function"
    },
    {
      "inputs": [
        {
          "internalType": "address",
          "name": "_initiatorAddress",
          "type": "address"
        },
        {
          "internalType": "bytes",
          "name": "_to",
          "type": "bytes"
        },
        {
          "internalType": "uint256",
          "name": "_toChain",
          "type": "uint256"
        },
        {
          "internalType": "bytes",
          "name": "_swapData",
          "type": "bytes"
        }
      ],
      "name": "swapOutNative",
      "outputs": [
        {
          "internalType": "bytes32",
          "name": "orderId",
          "type": "bytes32"
        }
      ],
      "stateMutability": "payable",
      "type": "function"
    },
    {
      "inputs": [
        {
          "internalType": "address",
          "name": "_initiatorAddress",
          "type": "address"
        },
        {
          "internalType": "address",
          "name": "_token",
          "type": "address"
        },
        {
          "internalType": "bytes",
          "name": "_to",
          "type": "bytes"
        },
        {
          "internalType": "uint256",
          "name": "_amount",
          "type": "uint256"
        },
        {
          "internalType": "uint256",
          "name": "_toChain",
          "type": "uint256"
        },
        {
          "internalType": "bytes",
          "name": "_swapData",
          "type": "bytes"
        }
      ],
      "name": "swapOutToken",
      "outputs": [
        {
          "internalType": "bytes32",
          "name": "orderId",
          "type": "bytes32"
        }
      ],
      "stateMutability": "nonpayable",
      "type": "function"
    },
    {
      "inputs": [
        {
          "internalType": "uint256",
          "name": "",
          "type": "uint256"
        },
        {
          "internalType": "address",
          "name": "",
          "type": "address"
        }
      ],
      "name": "tokenMappingList",
      "outputs": [
        {
          "internalType": "bool",
          "name": "",
          "type": "bool"
        }
      ],
      "stateMutability": "view",
      "type": "function"
    },
    {
      "inputs": [
        {
          "internalType": "address",
          "name": "newImplementation",
          "type": "address"
        }
      ],
      "name": "upgradeTo",
      "outputs": [],
      "stateMutability": "nonpayable",
      "type": "function"
    },
    {
      "inputs": [
        {
          "internalType": "address",
          "name": "newImplementation",
          "type": "address"
        },
        {
          "internalType": "bytes",
          "name": "data",
          "type": "bytes"
        }
      ],
      "name": "upgradeToAndCall",
      "outputs": [],
      "stateMutability": "payable",
      "type": "function"
    },
    {
      "inputs": [],
      "name": "wToken",
      "outputs": [
        {
          "internalType": "address",
          "name": "",
          "type": "address"
        }
      ],
      "stateMutability": "view",
      "type": "function"
    },
    {
      "stateMutability": "payable",
      "type": "receive"
    }
  ],
  "transactionHash": "0x9975c5005fd0ef39f501c15ea5c10f87ca0efbddde4558a3a8e1f5bb429f1e5d",
  "args": [],
  "solcInputHash": "f0a3e348df507d3c5e995f9bac9c3cdb",
  "bytecode": "0x60c06040523060601b6080524660a05234801561001b57600080fd5b5060016000819055805462ff00001916905560805160601c60a051613e156100b06000396000818161054a0152818161088501528181610ef9015281816110ec015281816115b601528181611603015281816117370152818161183d01528181611a2d01528181611b2401526124ec0152600081816109100152818161095001528181610a8d0152610acd0152613e156000f3fe6080604052600436106101e75760003560e01c80636e9960c311610102578063c0c53b8b11610095578063d431b1ac11610064578063d431b1ac146105ac578063d5351aaa146105c1578063ee9592b9146105d4578063fb0f97a81461060f57600080fd5b8063c0c53b8b14610518578063cc9e3e8914610538578063ccb3f4421461056c578063d33a28a21461058c57600080fd5b80638f283970116100d15780638f283970146104ad578063aaf10f42146104cd578063affed0e0146104e2578063b899f904146104f857600080fd5b80636e9960c31461043f578063848cb5c6146104545780638bb2a905146104695780638df0dcde1461048957600080fd5b80634de5103e1161017a5780635c550ac2116101495780635c550ac2146103b15780635c975abb146103d15780635f670bd3146103ef5780636af6400d1461040f57600080fd5b80634de5103e1461033e5780634f1ef2861461035e57806355b355601461037157806355d35a401461039157600080fd5b806333bb7f91116101b657806333bb7f91146102bb5780633659cfe6146102ce5780633e553bab146102ee57806345711d481461030e57600080fd5b80630babd864146101f35780631a19a62814610230578063222b15fb146102525780632b585db41461029b57600080fd5b366101ee57005b600080fd5b3480156101ff57600080fd5b50600354610213906001600160a01b031681565b6040516001600160a01b0390911681526020015b60405180910390f35b34801561023c57600080fd5b5061025061024b3660046134b5565b61062f565b005b34801561025e57600080fd5b5061028b61026d366004613242565b6001600160a01b031660009081526008602052604090205460ff1690565b6040519015158152602001610227565b3480156102a757600080fd5b5061028b6102b636600461344b565b610713565b6102506102c9366004613242565b610740565b3480156102da57600080fd5b506102506102e9366004613242565b610905565b3480156102fa57600080fd5b50610250610309366004613242565b6109ce565b34801561031a57600080fd5b5061028b610329366004613242565b60086020526000908152604090205460ff1681565b34801561034a57600080fd5b50600a54610213906001600160a01b031681565b61025061036c36600461337a565b610a82565b34801561037d57600080fd5b5061025061038c366004613475565b610b3c565b34801561039d57600080fd5b506102506103ac366004613702565b610c38565b3480156103bd57600080fd5b50600454610213906001600160a01b031681565b3480156103dd57600080fd5b5060015462010000900460ff1661028b565b3480156103fb57600080fd5b50600654610213906001600160a01b031681565b34801561041b57600080fd5b5061028b61042a366004613612565b60076020526000908152604090205460ff1681565b34801561044b57600080fd5b50610213610cf1565b34801561046057600080fd5b50610250610d00565b34801561047557600080fd5b50610250610484366004613242565b610d42565b34801561049557600080fd5b5061049f60055481565b604051908152602001610227565b3480156104b957600080fd5b506102506104c8366004613242565b610dec565b3480156104d957600080fd5b50610213610e54565b3480156104ee57600080fd5b5061049f60025481565b34801561050457600080fd5b5061049f6105133660046132a0565b610e5e565b34801561052457600080fd5b5061025061053336600461325d565b611170565b34801561054457600080fd5b5061049f7f000000000000000000000000000000000000000000000000000000000000000081565b34801561057857600080fd5b506102506105873660046134b5565b6112dd565b34801561059857600080fd5b506102506105a736600461372e565b6113ad565b3480156105b857600080fd5b50610250611658565b61049f6105cf3660046133c7565b611698565b3480156105e057600080fd5b5061028b6105ef366004613702565b600960209081526000928352604080842090915290825290205460ff1681565b34801561061b57600080fd5b5061025061062a36600461333e565b6118cc565b610637611aa1565b6001600160a01b0316336001600160a01b0316146106705760405162461bcd60e51b815260040161066790613ab9565b60405180910390fd5b60005b81518110156106d85760006008600084848151811061069457610694613d3b565b6020908102919091018101516001600160a01b03168252810191909152604001600020805460ff1916911515919091179055806106d081613d0a565b915050610673565b507fc27ae4a8b33d533c4256030aa4b2aaa26894eeaee1163759bd284eabcf15caa7816040516107089190613835565b60405180910390a150565b60008181526009602090815260408083206001600160a01b038616845290915290205460ff165b92915050565b600260005414156107635760405162461bcd60e51b815260040161066790613ae4565b600260005560015462010000900460ff16156107915760405162461bcd60e51b815260040161066790613a8f565b60035460055460008181526009602090815260408083206001600160a01b039095168084529490915290205460ff166107dc5760405162461bcd60e51b8152600401610667906139ec565b3334806107fb5760405162461bcd60e51b815260040161066790613b1b565b60006108128361080a88611ad4565b600554611b0a565b9050600360009054906101000a90046001600160a01b03166001600160a01b031663d0e30db0836040518263ffffffff1660e01b81526004016000604051808303818588803b15801561086457600080fd5b505af1158015610878573d6000803e3d6000fd5b50506005546003549093507f000000000000000000000000000000000000000000000000000000000000000092507fb7100086a8e13ebae772a0f09b07046e389a6b036406d22b86f2d2e5b860a8d9915084906001600160a01b03166108dd88611ad4565b8b886040516108f0959493929190613882565b60405180910390a35050600160005550505050565b306001600160a01b037f000000000000000000000000000000000000000000000000000000000000000016141561094e5760405162461bcd60e51b8152600401610667906139a0565b7f00000000000000000000000000000000000000000000000000000000000000006001600160a01b0316610980611b7b565b6001600160a01b0316146109a65760405162461bcd60e51b815260040161066790613a1a565b6109af81611ba3565b604080516000808252602082019092526109cb91839190611c1f565b50565b6109d6611aa1565b6001600160a01b0316336001600160a01b031614610a065760405162461bcd60e51b815260040161066790613ab9565b806001600160a01b038116610a2d5760405162461bcd60e51b815260040161066790613a66565b600680546001600160a01b0319166001600160a01b0384169081179091556040519081527fdbbd7b2f0d0e7ab85011e3c9115c836f3cc29f189c9c0f77b8f0dc718116c9469060200160405180910390a15050565b306001600160a01b037f0000000000000000000000000000000000000000000000000000000000000000161415610acb5760405162461bcd60e51b8152600401610667906139a0565b7f00000000000000000000000000000000000000000000000000000000000000006001600160a01b0316610afd611b7b565b6001600160a01b031614610b235760405162461bcd60e51b815260040161066790613a1a565b610b2c82611ba3565b610b3882826001611c1f565b5050565b610b44611aa1565b6001600160a01b0316336001600160a01b031614610b745760405162461bcd60e51b815260040161066790613ab9565b6001600160a01b0383163b610bc35760405162461bcd60e51b81526020600482015260156024820152741d1bdad95b881a5cc81b9bdd0818dbdb9d1c9858dd605a1b6044820152606401610667565b60008281526009602090815260408083206001600160a01b03871680855290835292819020805460ff191685151590811790915581519384529183018590528201527fb7e2e36d837b3e9a99d8c3de2eed62d21e4b1550a939fe020796d059a023800a906060015b60405180910390a1505050565b610c40611aa1565b6001600160a01b0316336001600160a01b031614610c705760405162461bcd60e51b815260040161066790613ab9565b806001600160a01b038116610c975760405162461bcd60e51b815260040161066790613a66565b600480546001600160a01b0319166001600160a01b03841690811790915560058490556040805185815260208101929092527f1a43895ae95563631980575c9049ad602ade0cced91de88c94af53e71de9f0809101610c2b565b6000610cfb611aa1565b905090565b610d08611aa1565b6001600160a01b0316336001600160a01b031614610d385760405162461bcd60e51b815260040161066790613ab9565b610d40611d6a565b565b610d4a611aa1565b6001600160a01b0316336001600160a01b031614610d7a5760405162461bcd60e51b815260040161066790613ab9565b806001600160a01b038116610da15760405162461bcd60e51b815260040161066790613a66565b600a80546001600160a01b0319166001600160a01b0384169081179091556040517f86f631a271194f3cfd826acb67b3a585a0e4f3d1c99297157050940b41a7b2d190600090a25050565b610df4611aa1565b6001600160a01b0316336001600160a01b031614610e245760405162461bcd60e51b815260040161066790613ab9565b806001600160a01b038116610e4b5760405162461bcd60e51b815260040161066790613a66565b610b3882611e05565b6000610cfb611b7b565b600060026000541415610e835760405162461bcd60e51b815260040161066790613ae4565b600260005560015462010000900460ff1615610eb15760405162461bcd60e51b815260040161066790613a8f565b60008481526009602090815260408083206001600160a01b038b1684529091529020548790859060ff16610ef75760405162461bcd60e51b8152600401610667906139ec565b7f0000000000000000000000000000000000000000000000000000000000000000861415610f635760405162461bcd60e51b815260206004820152601960248201527821b0b73737ba1039bbb0b8103a379039b2b6331031b430b4b760391b6044820152606401610667565b60008711610f835760405162461bcd60e51b815260040161066790613b1b565b6040516370a0823160e01b815233600482015287906001600160a01b038b16906370a082319060240160206040518083038186803b158015610fc457600080fd5b505afa158015610fd8573d6000803e3d6000fd5b505050506040513d601f19601f82011682018060405250810190610ffc919061362b565b101561104a5760405162461bcd60e51b815260206004820152601a60248201527f496e73756666696369656e7420746f6b656e2062616c616e63650000000000006044820152606401610667565b6001600160a01b03891660009081526008602052604090205460ff16156110d05760405163079cc67960e41b8152336004820152602481018890526001600160a01b038a16906379cc679090604401600060405180830381600087803b1580156110b357600080fd5b505af11580156110c7573d6000803e3d6000fd5b505050506110dc565b6110dc8933308a611e59565b6110e7338988611b0a565b9250857f00000000000000000000000000000000000000000000000000000000000000007fca1cf8cebf88499429cca8f87cbca15ab8dafd06702259a5344ddce89ef3f3a5856111368d611ad4565b61113f8f611ad4565b8d8d8c8c604051611156979695949392919061390f565b60405180910390a350506001600055979650505050505050565b600154610100900460ff1661118b5760015460ff161561118f565b303b155b6111f25760405162461bcd60e51b815260206004820152602e60248201527f496e697469616c697a61626c653a20636f6e747261637420697320616c72656160448201526d191e481a5b9a5d1a585b1a5e995960921b6064820152608401610667565b600154610100900460ff16158015611214576001805461ffff19166101011790555b836001600160a01b03811661123b5760405162461bcd60e51b815260040161066790613a66565b836001600160a01b0381166112625760405162461bcd60e51b815260040161066790613a66565b836001600160a01b0381166112895760405162461bcd60e51b815260040161066790613a66565b600380546001600160a01b03808a166001600160a01b03199283161790925560068054928916929091169190911790556112c285611e05565b50505080156112d7576001805461ff00191690555b50505050565b6112e5611aa1565b6001600160a01b0316336001600160a01b0316146113155760405162461bcd60e51b815260040161066790613ab9565b60005b815181101561137d5760016008600084848151811061133957611339613d3b565b6020908102919091018101516001600160a01b03168252810191909152604001600020805460ff19169115159190911790558061137581613d0a565b915050611318565b507fdacfd802eca1f2a9d9a6e78cf204ab0fe040a4ba3a8a00a66872d18658b61e5a816040516107089190613835565b600260005414156113d05760405162461bcd60e51b815260040161066790613ae4565b600260005560015462010000900460ff16156113fe5760405162461bcd60e51b815260040161066790613a8f565b60055482146114425760405162461bcd60e51b815260206004820152601060248201526f1a5b9d985b1a590818da185a5b881a5960821b6044820152606401610667565b60065460405163016dc52760e41b8152600091829182916001600160a01b0316906316dc52709061147790879060040161398d565b60006040518083038186803b15801561148f57600080fd5b505afa1580156114a3573d6000803e3d6000fd5b505050506040513d6000823e601f3d908101601f191682016040526114cb9190810190613585565b9250925092508282906114f15760405162461bcd60e51b8152600401610667919061398d565b5060006114fd82611ec4565b905060005b81518110156115fb57600082828151811061151f5761151f613d3b565b602002602001015190506000816020015160008151811061154257611542613d3b565b602002602001015180602001905181019061155d919061362b565b9050604051806080016040528060438152602001613d9d60439139805190602001208114801561159c575081516004546001600160a01b039081169116145b156115e65760006115ac83612154565b91505080602001517f000000000000000000000000000000000000000000000000000000000000000014156115e4576115e48161225b565b505b505080806115f390613d0a565b915050611502565b5060405133907f00000000000000000000000000000000000000000000000000000000000000009088907f8131e5b107f7021b0773c1108755872d7b94bb31532fdf2256e0a3ef2c890a3d90600090a45050600160005550505050565b611660611aa1565b6001600160a01b0316336001600160a01b0316146116905760405162461bcd60e51b815260040161066790613ab9565b610d40612558565b6000600260005414156116bd5760405162461bcd60e51b815260040161066790613ae4565b600260005560015462010000900460ff16156116eb5760405162461bcd60e51b815260040161066790613a8f565b60035460008581526009602090815260408083206001600160a01b0390941680845293909152902054859060ff166117355760405162461bcd60e51b8152600401610667906139ec565b7f00000000000000000000000000000000000000000000000000000000000000008614156117a15760405162461bcd60e51b815260206004820152601960248201527821b0b73737ba1039bbb0b8103a379039b2b6331031b430b4b760391b6044820152606401610667565b34806117bf5760405162461bcd60e51b815260040161066790613b1b565b600360009054906101000a90046001600160a01b03166001600160a01b031663d0e30db0826040518263ffffffff1660e01b81526004016000604051808303818588803b15801561180f57600080fd5b505af1158015611823573d6000803e3d6000fd5b5050505050611833338989611b0a565b60035490945087907f0000000000000000000000000000000000000000000000000000000000000000907fca1cf8cebf88499429cca8f87cbca15ab8dafd06702259a5344ddce89ef3f3a5908790611893906001600160a01b0316611ad4565b61189c8e611ad4565b8d878d8d6040516118b3979695949392919061390f565b60405180910390a3505060016000555095945050505050565b600260005414156118ef5760405162461bcd60e51b815260040161066790613ae4565b600260005560015462010000900460ff161561191d5760405162461bcd60e51b815260040161066790613a8f565b60055460008181526009602090815260408083206001600160a01b038816845290915290205484919060ff166119655760405162461bcd60e51b8152600401610667906139ec565b33836119835760405162461bcd60e51b815260040161066790613b1b565b6001600160a01b03861660009081526008602052604090205460ff1615611a0b5760405163079cc67960e41b81526001600160a01b038281166004830152602482018690528716906379cc679090604401600060405180830381600087803b1580156119ee57600080fd5b505af1158015611a02573d6000803e3d6000fd5b50505050611a17565b611a1786823087611e59565b6000611a268261080a88611ad4565b90506005547f00000000000000000000000000000000000000000000000000000000000000007fb7100086a8e13ebae772a0f09b07046e389a6b036406d22b86f2d2e5b860a8d9838a611a7887611ad4565b8b8b604051611a8b959493929190613882565b60405180910390a3505060016000555050505050565b60007fb53127684a568b3173ae13b9f8a6016e243e63b6e8ee1178d6a717850b5d61035b546001600160a01b0316919050565b604051606082811b6bffffffffffffffffffffffff19166020830152906034016040516020818303038152906040529050919050565b6002805460009130919083611b1e83613d0a565b919050557f0000000000000000000000000000000000000000000000000000000000000000848787604051602001611b5b9695949392919061378a565b6040516020818303038152906040528051906020012090505b9392505050565b60007f360894a13ba1a3210667c828492db98dca3e2076cc3735a920a3ca505d382bbc611ac5565b611bab611aa1565b6001600160a01b0316336001600160a01b0316146109cb5760405162461bcd60e51b815260206004820152602b60248201527f4d41504f6d6e69636861696e536572766963653a206f6e6c792041646d696e2060448201526a63616e207570677261646560a81b6064820152608401610667565b6000611c29611b7b565b9050611c34846125ba565b600083511180611c415750815b15611c5257611c508484612662565b505b7f4910fdfa16fed3260ed0e7147f7cc6da11a60208b5b9406d12a635614ffd9143805460ff16611d6357805460ff191660011781556040516001600160a01b0383166024820152611cd190869060440160408051601f198184030181529190526020810180516001600160e01b0316631b2ce7f360e11b179052612662565b50805460ff19168155611ce2611b7b565b6001600160a01b0316826001600160a01b031614611d5a5760405162461bcd60e51b815260206004820152602f60248201527f45524331393637557067726164653a207570677261646520627265616b73206660448201526e75727468657220757067726164657360881b6064820152608401610667565b611d6385612687565b5050505050565b60015462010000900460ff16611db95760405162461bcd60e51b815260206004820152601460248201527314185d5cd8589b194e881b9bdd081c185d5cd95960621b6044820152606401610667565b6001805462ff0000191690557f5db9ee0a495bf2e6ff9c91a7834c1ba4fdd244a5e8aa4e537bd38aeae4b073aa335b6040516001600160a01b03909116815260200160405180910390a1565b7f7e644d79422f17c01e4894b5f4f588d331ebfa28653d42ae832dc59e38c9798f611e2e611aa1565b604080516001600160a01b03928316815291841660208301520160405180910390a16109cb816126c7565b6040516001600160a01b03808516602483015283166044820152606481018290526112d79085906323b872dd60e01b906084015b60408051601f198184030181529190526020810180516001600160e01b03166001600160e01b031990931692909217909152612753565b60606000611f01611efc8460408051808201825260008082526020918201528151808301909252825182529182019181019190915290565b61282a565b905080516001600160401b03811115611f1c57611f1c613d51565b604051908082528060200260200182016040528015611f7a57816020015b611f67604051806060016040528060006001600160a01b0316815260200160608152602001606081525090565b815260200190600190039081611f3a5790505b50915060005b815181101561214d576000611fad838381518110611fa057611fa0613d3b565b602002602001015161282a565b9050600381511015611ff55760405162461bcd60e51b81526020600482015260116024820152706c6f67206c656e67746820746f206c6f7760781b6044820152606401610667565b600061200d82600181518110611fa057611fa0613d3b565b9050600081516001600160401b0381111561202a5761202a613d51565b60405190808252806020026020018201604052801561205d57816020015b60608152602001906001900390816120485790505b50905060005b82518110156120be5761208e83828151811061208157612081613d3b565b6020026020010151612971565b8282815181106120a0576120a0613d3b565b602002602001018190525080806120b690613d0a565b915050612063565b5060405180606001604052806120ed856000815181106120e0576120e0613d3b565b6020026020010151612a24565b6001600160a01b031681526020018281526020016121178560028151811061208157612081613d3b565b81525086858151811061212c5761212c613d3b565b6020026020010181905250505050808061214590613d0a565b915050611f80565b5050919050565b60606121a160405180610100016040528060008152602001600081526020016000801916815260200160608152602001606081526020016060815260200160008152602001606081525090565b82516121ac90611ad4565b915082602001516001815181106121c5576121c5613d3b565b60200260200101518060200190518101906121e0919061362b565b81526020830151805160029081106121fa576121fa613d3b565b6020026020010151806020019051810190612215919061362b565b81602001818152505082604001518060200190518101906122369190613644565b60e087015260c086015260a08501526080840152606083015260408201529092909150565b60408082015160008181526007602052919091205460ff16156122ae5760405162461bcd60e51b815260206004820152600b60248201526a1bdc99195c88195e1a5cdd60aa1b6044820152606401610667565b6000818152600760205260408120805460ff1916600117905560608301516122d7906014015190565b905060006122ea8460a001516014015190565b60c0850151909150612314836001600160a01b031660009081526008602052604090205460ff1690565b1561237a576040516340c10f1960e01b8152306004820152602481018290526001600160a01b038416906340c10f1990604401600060405180830381600087803b15801561236157600080fd5b505af1158015612375573d6000803e3d6000fd5b505050505b60e0850151511561245757600a5461239d9084906001600160a01b031683612a76565b600a546040808701518751608089015160e08a015193516000956001600160a01b0316946123d694938a938993919290916024016138bd565b60408051601f198184030181529181526020820180516001600160e01b0316633af61ed560e21b1790525161240b91906137e5565b6000604051808303816000865af19150503d8060008114612448576040519150601f19603f3d011682016040523d82523d6000602084013e61244d565b606091505b50509050506124e5565b6003546001600160a01b03848116911614156124da57600354604051632e1a7d4d60e01b8152600481018390526001600160a01b0390911690632e1a7d4d90602401600060405180830381600087803b1580156124b357600080fd5b505af11580156124c7573d6000803e3d6000fd5b505050506124d58282612aa6565b6124e5565b6124e5838383612a76565b84604001517f000000000000000000000000000000000000000000000000000000000000000086600001517f2a945137b011d4aadec6425788c652197d107fc33f6cdccbb0c269273be9c1c986896080015187876040516125499493929190613801565b60405180910390a45050505050565b60015462010000900460ff16156125815760405162461bcd60e51b815260040161066790613a8f565b6001805462ff00001916620100001790557f62e78cea01bee320cd4e420270b5ea74000d11b0c9f74754ebdbfc544b05a258611de83390565b803b61261e5760405162461bcd60e51b815260206004820152602d60248201527f455243313936373a206e657720696d706c656d656e746174696f6e206973206e60448201526c1bdd08184818dbdb9d1c9858dd609a1b6064820152608401610667565b807f360894a13ba1a3210667c828492db98dca3e2076cc3735a920a3ca505d382bbc5b80546001600160a01b0319166001600160a01b039290921691909117905550565b6060611b748383604051806060016040528060278152602001613d7660279139612bbf565b612690816125ba565b6040516001600160a01b038216907fbc7cd75a20ee27fd9adebab32041f755214dbc6bffa90cc0225b39da2e5c2d3b90600090a250565b6001600160a01b03811661272c5760405162461bcd60e51b815260206004820152602660248201527f455243313936373a206e65772061646d696e20697320746865207a65726f206160448201526564647265737360d01b6064820152608401610667565b807fb53127684a568b3173ae13b9f8a6016e243e63b6e8ee1178d6a717850b5d6103612641565b60006127a8826040518060400160405280602081526020017f5361666545524332303a206c6f772d6c6576656c2063616c6c206661696c6564815250856001600160a01b0316612c939092919063ffffffff16565b80519091501561282557808060200190518101906127c69190613568565b6128255760405162461bcd60e51b815260206004820152602a60248201527f5361666545524332303a204552433230206f7065726174696f6e20646964206e6044820152691bdd081cdd58d8d9595960b21b6064820152608401610667565b505050565b606061283582612caa565b6128705760405162461bcd60e51b815260206004820152600c60248201526b1a5cc81b1a5cdd0819985a5b60a21b6044820152606401610667565b600061287b83612ce3565b90506000816001600160401b0381111561289757612897613d51565b6040519080825280602002602001820160405280156128dc57816020015b60408051808201909152600080825260208201528152602001906001900390816128b55790505b50905060006128ee8560200151612d66565b85602001516128fd9190613ba1565b90506000805b848110156129665761291483612de1565b915060405180604001604052808381526020018481525084828151811061293d5761293d613d3b565b60209081029190910101526129528284613ba1565b92508061295e81613d0a565b915050612903565b509195945050505050565b80516060906129b55760405162461bcd60e51b815260206004820152601060248201526f6974656d206c656e206973207a65726f60801b6044820152606401610667565b6000806129c184612e8a565b915091506000816001600160401b038111156129df576129df613d51565b6040519080825280601f01601f191660200182016040528015612a09576020820181803683370190505b50905060208101612a1b848285612ed1565b50949350505050565b8051600090601514612a6d5760405162461bcd60e51b81526020600482015260126024820152716974656d206c656e206973206e6f7420323160701b6044820152606401610667565b61073a82612f50565b6040516001600160a01b03831660248201526044810182905261282590849063a9059cbb60e01b90606401611e8d565b80471015612af65760405162461bcd60e51b815260206004820152601d60248201527f416464726573733a20696e73756666696369656e742062616c616e63650000006044820152606401610667565b6000826001600160a01b03168260405160006040518083038185875af1925050503d8060008114612b43576040519150601f19603f3d011682016040523d82523d6000602084013e612b48565b606091505b50509050806128255760405162461bcd60e51b815260206004820152603a60248201527f416464726573733a20756e61626c6520746f2073656e642076616c75652c207260448201527f6563697069656e74206d617920686176652072657665727465640000000000006064820152608401610667565b6060833b612c1e5760405162461bcd60e51b815260206004820152602660248201527f416464726573733a2064656c65676174652063616c6c20746f206e6f6e2d636f6044820152651b9d1c9858dd60d21b6064820152608401610667565b600080856001600160a01b031685604051612c3991906137e5565b600060405180830381855af49150503d8060008114612c74576040519150601f19603f3d011682016040523d82523d6000602084013e612c79565b606091505b5091509150612c89828286612fd7565b9695505050505050565b6060612ca28484600085613010565b949350505050565b8051600090612cbb57506000919050565b6020820151805160001a9060c0821015612cd9575060009392505050565b5060019392505050565b8051600090612cf457506000919050565b600080612d048460200151612d66565b8460200151612d139190613ba1565b9050600084600001518560200151612d2b9190613ba1565b90505b80821015612d5d57612d3f82612de1565b612d499083613ba1565b915082612d5581613d0a565b935050612d2e565b50909392505050565b8051600090811a6080811015612d7f5750600092915050565b60b8811080612d9a575060c08110801590612d9a575060f881105b15612da85750600192915050565b60c0811015612dd557612dbd600160b8613cbb565b612dca9060ff1682613ca4565b611b74906001613ba1565b612dbd600160f8613cbb565b80516000908190811a6080811015612dfc5760019150612e83565b60b8811015612e2257612e10608082613ca4565b612e1b906001613ba1565b9150612e83565b60c0811015612e4f5760b78103600185019450806020036101000a85510460018201810193505050612e83565b60f8811015612e6357612e1060c082613ca4565b60f78103600185019450806020036101000a855104600182018101935050505b5092915050565b6000806000612e9c8460200151612d66565b90506000818560200151612eb09190613ba1565b90506000828660000151612ec49190613ca4565b9196919550909350505050565b80612edb57505050565b60208110612f135782518252612ef2602084613ba1565b9250612eff602083613ba1565b9150612f0c602082613ca4565b9050612edb565b80156128255760006001612f28836020613ca4565b612f3490610100613bfc565b612f3e9190613ca4565b84518451821691191617835250505050565b805160009015801590612f6557508151602110155b612fa85760405162461bcd60e51b81526020600482015260146024820152731a5d195b481b195b881a5cc81b9bdd081d5a5b9d60621b6044820152606401610667565b600080612fb484612e8a565b815191935091506020821015612ca25760208290036101000a9004949350505050565b60608315612fe6575081611b74565b825115612ff65782518084602001fd5b8160405162461bcd60e51b8152600401610667919061398d565b6060824710156130715760405162461bcd60e51b815260206004820152602660248201527f416464726573733a20696e73756666696369656e742062616c616e636520666f6044820152651c8818d85b1b60d21b6064820152608401610667565b843b6130bf5760405162461bcd60e51b815260206004820152601d60248201527f416464726573733a2063616c6c20746f206e6f6e2d636f6e74726163740000006044820152606401610667565b600080866001600160a01b031685876040516130db91906137e5565b60006040518083038185875af1925050503d8060008114613118576040519150601f19603f3d011682016040523d82523d6000602084013e61311d565b606091505b509150915061312d828286612fd7565b979650505050505050565b600061314b61314684613b7a565b613b4a565b905082815283838301111561315f57600080fd5b611b74836020830184613cde565b80356001600160a01b038116811461318457600080fd5b919050565b60008083601f84011261319b57600080fd5b5081356001600160401b038111156131b257600080fd5b6020830191508360208285010111156131ca57600080fd5b9250929050565b600082601f8301126131e257600080fd5b81356131f061314682613b7a565b81815284602083860101111561320557600080fd5b816020850160208301376000918101602001919091529392505050565b600082601f83011261323357600080fd5b611b7483835160208501613138565b60006020828403121561325457600080fd5b611b748261316d565b60008060006060848603121561327257600080fd5b61327b8461316d565b92506132896020850161316d565b91506132976040850161316d565b90509250925092565b600080600080600080600060c0888a0312156132bb57600080fd5b6132c48861316d565b96506132d26020890161316d565b955060408801356001600160401b03808211156132ee57600080fd5b6132fa8b838c016131d1565b965060608a0135955060808a0135945060a08a013591508082111561331e57600080fd5b5061332b8a828b01613189565b989b979a50959850939692959293505050565b60008060006060848603121561335357600080fd5b61335c8461316d565b925061336a6020850161316d565b9150604084013590509250925092565b6000806040838503121561338d57600080fd5b6133968361316d565b915060208301356001600160401b038111156133b157600080fd5b6133bd858286016131d1565b9150509250929050565b6000806000806000608086880312156133df57600080fd5b6133e88661316d565b945060208601356001600160401b038082111561340457600080fd5b61341089838a016131d1565b955060408801359450606088013591508082111561342d57600080fd5b5061343a88828901613189565b969995985093965092949392505050565b6000806040838503121561345e57600080fd5b6134678361316d565b946020939093013593505050565b60008060006060848603121561348a57600080fd5b6134938461316d565b92506020840135915060408401356134aa81613d67565b809150509250925092565b600060208083850312156134c857600080fd5b82356001600160401b03808211156134df57600080fd5b818501915085601f8301126134f357600080fd5b81358181111561350557613505613d51565b8060051b9150613516848301613b4a565b8181528481019084860184860187018a101561353157600080fd5b600095505b8386101561355b576135478161316d565b835260019590950194918601918601613536565b5098975050505050505050565b60006020828403121561357a57600080fd5b8151611b7481613d67565b60008060006060848603121561359a57600080fd5b83516135a581613d67565b60208501519093506001600160401b03808211156135c257600080fd5b818601915086601f8301126135d657600080fd5b6135e587835160208501613138565b935060408601519150808211156135fb57600080fd5b5061360886828701613222565b9150509250925092565b60006020828403121561362457600080fd5b5035919050565b60006020828403121561363d57600080fd5b5051919050565b60008060008060008060c0878903121561365d57600080fd5b8651955060208701516001600160401b038082111561367b57600080fd5b6136878a838b01613222565b9650604089015191508082111561369d57600080fd5b6136a98a838b01613222565b955060608901519150808211156136bf57600080fd5b6136cb8a838b01613222565b94506080890151935060a08901519150808211156136e857600080fd5b506136f589828a01613222565b9150509295509295509295565b6000806040838503121561371557600080fd5b823591506137256020840161316d565b90509250929050565b6000806040838503121561374157600080fd5b8235915060208301356001600160401b038111156133b157600080fd5b60008151808452613776816020860160208601613cde565b601f01601f19169290920160200192915050565b60006bffffffffffffffffffffffff19808960601b168352876014840152866034840152856054840152808560601b1660748401525082516137d3816088850160208701613cde565b91909101608801979650505050505050565b600082516137f7818460208701613cde565b9190910192915050565b600060018060a01b03808716835260806020840152613823608084018761375e565b94166040830152506060015292915050565b6020808252825182820181905260009190848201906040850190845b818110156138765783516001600160a01b031683529284019291840191600101613851565b50909695505050505050565b858152600060018060a01b03808716602084015260a060408401526138aa60a084018761375e565b9416606083015250608001529392505050565b86815260018060a01b038616602082015284604082015283606082015260c0608082015260006138f060c083018561375e565b82810360a0840152613902818561375e565b9998505050505050505050565b87815260c06020820152600061392860c083018961375e565b828103604084015261393a818961375e565b9050828103606084015261394e818861375e565b905085608084015282810360a0840152838152838560208301376000602085830101526020601f19601f86011682010191505098975050505050505050565b602081526000611b74602083018461375e565b6020808252602c908201527f46756e6374696f6e206d7573742062652063616c6c6564207468726f7567682060408201526b19195b1959d85d1958d85b1b60a21b606082015260800190565b6020808252601490820152731d1bdad95b881b9bdd081c9959da5cdd195c995960621b604082015260600190565b6020808252602c908201527f46756e6374696f6e206d7573742062652063616c6c6564207468726f7567682060408201526b6163746976652070726f787960a01b606082015260800190565b6020808252600f908201526e61646472657373206973207a65726f60881b604082015260600190565b60208082526010908201526f14185d5cd8589b194e881c185d5cd95960821b604082015260600190565b60208082526011908201527036b7b9901d1d1037b7363c9030b236b4b760791b604082015260600190565b6020808252601f908201527f5265656e7472616e637947756172643a207265656e7472616e742063616c6c00604082015260600190565b60208082526015908201527453656e64696e672076616c7565206973207a65726f60581b604082015260600190565b604051601f8201601f191681016001600160401b0381118282101715613b7257613b72613d51565b604052919050565b60006001600160401b03821115613b9357613b93613d51565b50601f01601f191660200190565b60008219821115613bb457613bb4613d25565b500190565b600181815b80851115613bf4578160001904821115613bda57613bda613d25565b80851615613be757918102915b93841c9390800290613bbe565b509250929050565b6000611b748383600082613c125750600161073a565b81613c1f5750600061073a565b8160018114613c355760028114613c3f57613c5b565b600191505061073a565b60ff841115613c5057613c50613d25565b50506001821b61073a565b5060208310610133831016604e8410600b8410161715613c7e575081810a61073a565b613c888383613bb9565b8060001904821115613c9c57613c9c613d25565b029392505050565b600082821015613cb657613cb6613d25565b500390565b600060ff821660ff841680821015613cd557613cd5613d25565b90039392505050565b60005b83811015613cf9578181015183820152602001613ce1565b838111156112d75750506000910152565b6000600019821415613d1e57613d1e613d25565b5060010190565b634e487b7160e01b600052601160045260246000fd5b634e487b7160e01b600052603260045260246000fd5b634e487b7160e01b600052604160045260246000fd5b80151581146109cb57600080fdfe416464726573733a206c6f772d6c6576656c2064656c65676174652063616c6c206661696c65646d6170537761704f75742875696e743235362c75696e743235362c627974657333322c62797465732c62797465732c62797465732c75696e743235362c627974657329a2646970667358221220eba4e357c77f06f17912f25fc2df02e9f6be13d44da07cd7763322eff0037bbb64736f6c63430008070033",
  "devdoc": {
    "kind": "dev",
    "methods": {
      "paused()": {
        "details": "Returns true if the contract is paused, and false otherwise."
      },
      "upgradeTo(address)": {
        "details": "Upgrade the implementation of the proxy to `newImplementation`. Calls {_authorizeUpgrade}. Emits an {Upgraded} event."
      },
      "upgradeToAndCall(address,bytes)": {
        "details": "Upgrade the implementation of the proxy to `newImplementation`, and subsequently execute the function call encoded in `data`. Calls {_authorizeUpgrade}. Emits an {Upgraded} event."
      }
    },
    "version": 1
  },
  "userdoc": {
    "kind": "user",
    "methods": {},
    "version": 1
  },
  "storageLayout": {
    "storage": [
      {
        "astId": 2810,
        "contract": "contracts/MAPOmnichainServiceV2.sol:MAPOmnichainServiceV2",
        "label": "_status",
        "offset": 0,
        "slot": "0",
        "type": "t_uint256"
      },
      {
        "astId": 2554,
        "contract": "contracts/MAPOmnichainServiceV2.sol:MAPOmnichainServiceV2",
        "label": "_initialized",
        "offset": 0,
        "slot": "1",
        "type": "t_bool"
      },
      {
        "astId": 2557,
        "contract": "contracts/MAPOmnichainServiceV2.sol:MAPOmnichainServiceV2",
        "label": "_initializing",
        "offset": 1,
        "slot": "1",
        "type": "t_bool"
      },
      {
        "astId": 2725,
        "contract": "contracts/MAPOmnichainServiceV2.sol:MAPOmnichainServiceV2",
        "label": "_paused",
        "offset": 2,
        "slot": "1",
        "type": "t_bool"
      },
      {
        "astId": 7897,
        "contract": "contracts/MAPOmnichainServiceV2.sol:MAPOmnichainServiceV2",
        "label": "nonce",
        "offset": 0,
        "slot": "2",
        "type": "t_uint256"
      },
      {
        "astId": 7899,
        "contract": "contracts/MAPOmnichainServiceV2.sol:MAPOmnichainServiceV2",
        "label": "wToken",
        "offset": 0,
        "slot": "3",
        "type": "t_address"
      },
      {
        "astId": 7901,
        "contract": "contracts/MAPOmnichainServiceV2.sol:MAPOmnichainServiceV2",
        "label": "relayContract",
        "offset": 0,
        "slot": "4",
        "type": "t_address"
      },
      {
        "astId": 7903,
        "contract": "contracts/MAPOmnichainServiceV2.sol:MAPOmnichainServiceV2",
        "label": "relayChainId",
        "offset": 0,
        "slot": "5",
        "type": "t_uint256"
      },
      {
        "astId": 7906,
        "contract": "contracts/MAPOmnichainServiceV2.sol:MAPOmnichainServiceV2",
        "label": "lightNode",
        "offset": 0,
        "slot": "6",
        "type": "t_contract(ILightNode)93"
      },
      {
        "astId": 7914,
        "contract": "contracts/MAPOmnichainServiceV2.sol:MAPOmnichainServiceV2",
        "label": "orderList",
        "offset": 0,
        "slot": "7",
        "type": "t_mapping(t_bytes32,t_bool)"
      },
      {
        "astId": 7918,
        "contract": "contracts/MAPOmnichainServiceV2.sol:MAPOmnichainServiceV2",
        "label": "mintableTokens",
        "offset": 0,
        "slot": "8",
        "type": "t_mapping(t_address,t_bool)"
      },
      {
        "astId": 7924,
        "contract": "contracts/MAPOmnichainServiceV2.sol:MAPOmnichainServiceV2",
        "label": "tokenMappingList",
        "offset": 0,
        "slot": "9",
        "type": "t_mapping(t_uint256,t_mapping(t_address,t_bool))"
      },
      {
        "astId": 7926,
        "contract": "contracts/MAPOmnichainServiceV2.sol:MAPOmnichainServiceV2",
        "label": "butterRouter",
        "offset": 0,
        "slot": "10",
        "type": "t_address"
      }
    ],
    "types": {
      "t_address": {
        "encoding": "inplace",
        "label": "address",
        "numberOfBytes": "20"
      },
      "t_bool": {
        "encoding": "inplace",
        "label": "bool",
        "numberOfBytes": "1"
      },
      "t_bytes32": {
        "encoding": "inplace",
        "label": "bytes32",
        "numberOfBytes": "32"
      },
      "t_contract(ILightNode)93": {
        "encoding": "inplace",
        "label": "contract ILightNode",
        "numberOfBytes": "20"
      },
      "t_mapping(t_address,t_bool)": {
        "encoding": "mapping",
        "key": "t_address",
        "label": "mapping(address => bool)",
        "numberOfBytes": "32",
        "value": "t_bool"
      },
      "t_mapping(t_bytes32,t_bool)": {
        "encoding": "mapping",
        "key": "t_bytes32",
        "label": "mapping(bytes32 => bool)",
        "numberOfBytes": "32",
        "value": "t_bool"
      },
      "t_mapping(t_uint256,t_mapping(t_address,t_bool))": {
        "encoding": "mapping",
        "key": "t_uint256",
        "label": "mapping(uint256 => mapping(address => bool))",
        "numberOfBytes": "32",
        "value": "t_mapping(t_address,t_bool)"
      },
      "t_uint256": {
        "encoding": "inplace",
        "label": "uint256",
        "numberOfBytes": "32"
      }
    }
  }
}