{
  "address": "0x2680f8D0b18C0fae32521A14A4666d317D305126",
  "abi": [
    {
      "anonymous": false,
      "inputs": [
        {
          "indexed": false,
          "internalType": "address",
          "name": "previousAdmin",
          "type": "address"
        },
        {
          "indexed": false,
          "internalType": "address",
          "name": "newAdmin",
          "type": "address"
        }
      ],
      "name": "AdminChanged",
      "type": "event"
    },
    {
      "anonymous": false,
      "inputs": [
        {
          "indexed": true,
          "internalType": "address",
          "name": "beacon",
          "type": "address"
        }
      ],
      "name": "BeaconUpgraded",
      "type": "event"
    },
    {
      "anonymous": false,
      "inputs": [
        {
          "indexed": false,
          "internalType": "address",
          "name": "account",
          "type": "address"
        }
      ],
      "name": "Paused",
      "type": "event"
    },
    {
      "anonymous": false,
      "inputs": [
        {
          "indexed": false,
          "internalType": "address",
          "name": "account",
          "type": "address"
        }
      ],
      "name": "Unpaused",
      "type": "event"
    },
    {
      "anonymous": false,
      "inputs": [
        {
          "indexed": true,
          "internalType": "address",
          "name": "implementation",
          "type": "address"
        }
      ],
      "name": "Upgraded",
      "type": "event"
    },
    {
      "anonymous": false,
      "inputs": [
        {
          "indexed": true,
          "internalType": "uint256",
          "name": "fromChain",
          "type": "uint256"
        },
        {
          "indexed": true,
          "internalType": "uint256",
          "name": "toChain",
          "type": "uint256"
        },
        {
          "indexed": false,
          "internalType": "bytes32",
          "name": "orderId",
          "type": "bytes32"
        },
        {
          "indexed": false,
          "internalType": "address",
          "name": "token",
          "type": "address"
        },
        {
          "indexed": false,
          "internalType": "bytes",
          "name": "from",
          "type": "bytes"
        },
        {
          "indexed": false,
          "internalType": "address",
          "name": "to",
          "type": "address"
        },
        {
          "indexed": false,
          "internalType": "uint256",
          "name": "amount",
          "type": "uint256"
        }
      ],
      "name": "mapDepositOut",
      "type": "event"
    },
    {
      "anonymous": false,
      "inputs": [
        {
          "indexed": true,
          "internalType": "uint256",
          "name": "fromChain",
          "type": "uint256"
        },
        {
          "indexed": true,
          "internalType": "uint256",
          "name": "toChain",
          "type": "uint256"
        },
        {
          "indexed": true,
          "internalType": "address",
          "name": "from",
          "type": "address"
        }
      ],
      "name": "mapSwapExecute",
      "type": "event"
    },
    {
      "anonymous": false,
      "inputs": [
        {
          "indexed": true,
          "internalType": "uint256",
          "name": "fromChain",
          "type": "uint256"
        },
        {
          "indexed": true,
          "internalType": "uint256",
          "name": "toChain",
          "type": "uint256"
        },
        {
          "indexed": true,
          "internalType": "bytes32",
          "name": "orderId",
          "type": "bytes32"
        },
        {
          "indexed": false,
          "internalType": "address",
          "name": "token",
          "type": "address"
        },
        {
          "indexed": false,
          "internalType": "bytes",
          "name": "from",
          "type": "bytes"
        },
        {
          "indexed": false,
          "internalType": "address",
          "name": "toAddress",
          "type": "address"
        },
        {
          "indexed": false,
          "internalType": "uint256",
          "name": "amountOut",
          "type": "uint256"
        }
      ],
      "name": "mapSwapIn",
      "type": "event"
    },
    {
      "anonymous": false,
      "inputs": [
        {
          "indexed": true,
          "internalType": "uint256",
          "name": "fromChain",
          "type": "uint256"
        },
        {
          "indexed": true,
          "internalType": "uint256",
          "name": "toChain",
          "type": "uint256"
        },
        {
          "indexed": false,
          "internalType": "bytes32",
          "name": "orderId",
          "type": "bytes32"
        },
        {
          "indexed": false,
          "internalType": "bytes",
          "name": "token",
          "type": "bytes"
        },
        {
          "indexed": false,
          "internalType": "bytes",
          "name": "from",
          "type": "bytes"
        },
        {
          "indexed": false,
          "internalType": "bytes",
          "name": "to",
          "type": "bytes"
        },
        {
          "indexed": false,
          "internalType": "uint256",
          "name": "amount",
          "type": "uint256"
        },
        {
          "indexed": false,
          "internalType": "bytes",
          "name": "swapData",
          "type": "bytes"
        }
      ],
      "name": "mapSwapOut",
      "type": "event"
    },
    {
      "anonymous": false,
      "inputs": [
        {
          "indexed": true,
          "internalType": "uint256",
          "name": "fromChain",
          "type": "uint256"
        },
        {
          "indexed": true,
          "internalType": "uint256",
          "name": "toChain",
          "type": "uint256"
        },
        {
          "indexed": true,
          "internalType": "address",
          "name": "from",
          "type": "address"
        }
      ],
      "name": "mapTransferExecute",
      "type": "event"
    },
    {
      "anonymous": false,
      "inputs": [
        {
          "indexed": true,
          "internalType": "uint256",
          "name": "fromChain",
          "type": "uint256"
        },
        {
          "indexed": true,
          "internalType": "uint256",
          "name": "toChain",
          "type": "uint256"
        },
        {
          "indexed": false,
          "internalType": "bytes32",
          "name": "orderId",
          "type": "bytes32"
        },
        {
          "indexed": false,
          "internalType": "address",
          "name": "token",
          "type": "address"
        },
        {
          "indexed": false,
          "internalType": "bytes",
          "name": "from",
          "type": "bytes"
        },
        {
          "indexed": false,
          "internalType": "address",
          "name": "to",
          "type": "address"
        },
        {
          "indexed": false,
          "internalType": "uint256",
          "name": "amount",
          "type": "uint256"
        }
      ],
      "name": "mapTransferIn",
      "type": "event"
    },
    {
      "anonymous": false,
      "inputs": [
        {
          "indexed": true,
          "internalType": "uint256",
          "name": "fromChain",
          "type": "uint256"
        },
        {
          "indexed": true,
          "internalType": "uint256",
          "name": "toChain",
          "type": "uint256"
        },
        {
          "indexed": false,
          "internalType": "bytes32",
          "name": "orderId",
          "type": "bytes32"
        },
        {
          "indexed": false,
          "internalType": "bytes",
          "name": "token",
          "type": "bytes"
        },
        {
          "indexed": false,
          "internalType": "bytes",
          "name": "from",
          "type": "bytes"
        },
        {
          "indexed": false,
          "internalType": "bytes",
          "name": "to",
          "type": "bytes"
        },
        {
          "indexed": false,
          "internalType": "uint256",
          "name": "amount",
          "type": "uint256"
        },
        {
          "indexed": false,
          "internalType": "bytes",
          "name": "toChainToken",
          "type": "bytes"
        }
      ],
      "name": "mapTransferOut",
      "type": "event"
    },
    {
      "inputs": [
        {
          "internalType": "address[]",
          "name": "_token",
          "type": "address[]"
        }
      ],
      "name": "addMintableToken",
      "outputs": [],
      "stateMutability": "nonpayable",
      "type": "function"
    },
    {
      "inputs": [],
      "name": "butterCore",
      "outputs": [
        {
          "internalType": "address",
          "name": "",
          "type": "address"
        }
      ],
      "stateMutability": "view",
      "type": "function"
    },
    {
      "inputs": [
        {
          "internalType": "address",
          "name": "_admin",
          "type": "address"
        }
      ],
      "name": "changeAdmin",
      "outputs": [],
      "stateMutability": "nonpayable",
      "type": "function"
    },
    {
      "inputs": [
        {
          "internalType": "address",
          "name": "_to",
          "type": "address"
        }
      ],
      "name": "depositNative",
      "outputs": [],
      "stateMutability": "payable",
      "type": "function"
    },
    {
      "inputs": [
        {
          "internalType": "address",
          "name": "_token",
          "type": "address"
        },
        {
          "internalType": "address",
          "name": "_to",
          "type": "address"
        },
        {
          "internalType": "uint256",
          "name": "_amount",
          "type": "uint256"
        }
      ],
      "name": "depositToken",
      "outputs": [],
      "stateMutability": "nonpayable",
      "type": "function"
    },
    {
      "inputs": [
        {
          "internalType": "address",
          "name": "_token",
          "type": "address"
        },
        {
          "internalType": "address payable",
          "name": "_receiver",
          "type": "address"
        },
        {
          "internalType": "uint256",
          "name": "_amount",
          "type": "uint256"
        }
      ],
      "name": "emergencyWithdraw",
      "outputs": [],
      "stateMutability": "nonpayable",
      "type": "function"
    },
    {
      "inputs": [],
      "name": "getAdmin",
      "outputs": [
        {
          "internalType": "address",
          "name": "",
          "type": "address"
        }
      ],
      "stateMutability": "view",
      "type": "function"
    },
    {
      "inputs": [],
      "name": "getImplementation",
      "outputs": [
        {
          "internalType": "address",
          "name": "",
          "type": "address"
        }
      ],
      "stateMutability": "view",
      "type": "function"
    },
    {
      "inputs": [
        {
          "internalType": "address",
          "name": "_wToken",
          "type": "address"
        },
        {
          "internalType": "address",
          "name": "_lightNode",
          "type": "address"
        }
      ],
      "name": "initialize",
      "outputs": [],
      "stateMutability": "nonpayable",
      "type": "function"
    },
    {
      "inputs": [
        {
          "internalType": "address",
          "name": "_token",
          "type": "address"
        },
        {
          "internalType": "uint256",
          "name": "_toChain",
          "type": "uint256"
        }
      ],
      "name": "isBridgeable",
      "outputs": [
        {
          "internalType": "bool",
          "name": "",
          "type": "bool"
        }
      ],
      "stateMutability": "view",
      "type": "function"
    },
    {
      "inputs": [
        {
          "internalType": "address",
          "name": "_token",
          "type": "address"
        }
      ],
      "name": "isMintable",
      "outputs": [
        {
          "internalType": "bool",
          "name": "",
          "type": "bool"
        }
      ],
      "stateMutability": "view",
      "type": "function"
    },
    {
      "inputs": [],
      "name": "lightNode",
      "outputs": [
        {
          "internalType": "contract ILightNode",
          "name": "",
          "type": "address"
        }
      ],
      "stateMutability": "view",
      "type": "function"
    },
    {
      "inputs": [
        {
          "internalType": "address",
          "name": "",
          "type": "address"
        }
      ],
      "name": "mintableTokens",
      "outputs": [
        {
          "internalType": "bool",
          "name": "",
          "type": "bool"
        }
      ],
      "stateMutability": "view",
      "type": "function"
    },
    {
      "inputs": [],
      "name": "nonce",
      "outputs": [
        {
          "internalType": "uint256",
          "name": "",
          "type": "uint256"
        }
      ],
      "stateMutability": "view",
      "type": "function"
    },
    {
      "inputs": [
        {
          "internalType": "bytes32",
          "name": "",
          "type": "bytes32"
        }
      ],
      "name": "orderList",
      "outputs": [
        {
          "internalType": "bool",
          "name": "",
          "type": "bool"
        }
      ],
      "stateMutability": "view",
      "type": "function"
    },
    {
      "inputs": [],
      "name": "paused",
      "outputs": [
        {
          "internalType": "bool",
          "name": "",
          "type": "bool"
        }
      ],
      "stateMutability": "view",
      "type": "function"
    },
    {
      "inputs": [
        {
          "internalType": "address",
          "name": "_token",
          "type": "address"
        },
        {
          "internalType": "uint256",
          "name": "_toChain",
          "type": "uint256"
        },
        {
          "internalType": "bool",
          "name": "_enable",
          "type": "bool"
        }
      ],
      "name": "registerToken",
      "outputs": [],
      "stateMutability": "nonpayable",
      "type": "function"
    },
    {
      "inputs": [],
      "name": "relayChainId",
      "outputs": [
        {
          "internalType": "uint256",
          "name": "",
          "type": "uint256"
        }
      ],
      "stateMutability": "view",
      "type": "function"
    },
    {
      "inputs": [],
      "name": "relayContract",
      "outputs": [
        {
          "internalType": "address",
          "name": "",
          "type": "address"
        }
      ],
      "stateMutability": "view",
      "type": "function"
    },
    {
      "inputs": [
        {
          "internalType": "address[]",
          "name": "_token",
          "type": "address[]"
        }
      ],
      "name": "removeMintableToken",
      "outputs": [],
      "stateMutability": "nonpayable",
      "type": "function"
    },
    {
      "inputs": [],
      "name": "selfChainId",
      "outputs": [
        {
          "internalType": "uint256",
          "name": "",
          "type": "uint256"
        }
      ],
      "stateMutability": "view",
      "type": "function"
    },
    {
      "inputs": [
        {
          "internalType": "address",
          "name": "_butterCoreAddress",
          "type": "address"
        }
      ],
      "name": "setButterCoreAddress",
      "outputs": [],
      "stateMutability": "nonpayable",
      "type": "function"
    },
    {
      "inputs": [],
      "name": "setPause",
      "outputs": [],
      "stateMutability": "nonpayable",
      "type": "function"
    },
    {
      "inputs": [
        {
          "internalType": "uint256",
          "name": "_chainId",
          "type": "uint256"
        },
        {
          "internalType": "address",
          "name": "_relay",
          "type": "address"
        }
      ],
      "name": "setRelayContract",
      "outputs": [],
      "stateMutability": "nonpayable",
      "type": "function"
    },
    {
      "inputs": [],
      "name": "setUnpause",
      "outputs": [],
      "stateMutability": "nonpayable",
      "type": "function"
    },
    {
      "inputs": [
        {
          "internalType": "uint256",
          "name": "_chainId",
          "type": "uint256"
        },
        {
          "internalType": "bytes",
          "name": "_receiptProof",
          "type": "bytes"
        }
      ],
      "name": "swapIn",
      "outputs": [],
      "stateMutability": "nonpayable",
      "type": "function"
    },
    {
      "inputs": [
        {
          "internalType": "bytes",
          "name": "_to",
          "type": "bytes"
        },
        {
          "internalType": "uint256",
          "name": "_toChain",
          "type": "uint256"
        },
        {
          "internalType": "bytes",
          "name": "swapData",
          "type": "bytes"
        }
      ],
      "name": "swapOutNative",
      "outputs": [],
      "stateMutability": "payable",
      "type": "function"
    },
    {
      "inputs": [
        {
          "internalType": "address",
          "name": "_token",
          "type": "address"
        },
        {
          "internalType": "bytes",
          "name": "_to",
          "type": "bytes"
        },
        {
          "internalType": "uint256",
          "name": "_amount",
          "type": "uint256"
        },
        {
          "internalType": "uint256",
          "name": "_toChain",
          "type": "uint256"
        },
        {
          "internalType": "bytes",
          "name": "swapData",
          "type": "bytes"
        }
      ],
      "name": "swapOutToken",
      "outputs": [],
      "stateMutability": "nonpayable",
      "type": "function"
    },
    {
      "inputs": [
        {
          "internalType": "uint256",
          "name": "",
          "type": "uint256"
        },
        {
          "internalType": "address",
          "name": "",
          "type": "address"
        }
      ],
      "name": "tokenMappingList",
      "outputs": [
        {
          "internalType": "bool",
          "name": "",
          "type": "bool"
        }
      ],
      "stateMutability": "view",
      "type": "function"
    },
    {
      "inputs": [
        {
          "internalType": "uint256",
          "name": "_chainId",
          "type": "uint256"
        },
        {
          "internalType": "bytes",
          "name": "_receiptProof",
          "type": "bytes"
        }
      ],
      "name": "transferIn",
      "outputs": [],
      "stateMutability": "nonpayable",
      "type": "function"
    },
    {
      "inputs": [
        {
          "internalType": "bytes",
          "name": "_to",
          "type": "bytes"
        },
        {
          "internalType": "uint256",
          "name": "_toChain",
          "type": "uint256"
        }
      ],
      "name": "transferOutNative",
      "outputs": [],
      "stateMutability": "payable",
      "type": "function"
    },
    {
      "inputs": [
        {
          "internalType": "address",
          "name": "_token",
          "type": "address"
        },
        {
          "internalType": "bytes",
          "name": "_to",
          "type": "bytes"
        },
        {
          "internalType": "uint256",
          "name": "_amount",
          "type": "uint256"
        },
        {
          "internalType": "uint256",
          "name": "_toChain",
          "type": "uint256"
        }
      ],
      "name": "transferOutToken",
      "outputs": [],
      "stateMutability": "nonpayable",
      "type": "function"
    },
    {
      "inputs": [
        {
          "internalType": "address",
          "name": "newImplementation",
          "type": "address"
        }
      ],
      "name": "upgradeTo",
      "outputs": [],
      "stateMutability": "nonpayable",
      "type": "function"
    },
    {
      "inputs": [
        {
          "internalType": "address",
          "name": "newImplementation",
          "type": "address"
        },
        {
          "internalType": "bytes",
          "name": "data",
          "type": "bytes"
        }
      ],
      "name": "upgradeToAndCall",
      "outputs": [],
      "stateMutability": "payable",
      "type": "function"
    },
    {
      "inputs": [],
      "name": "wToken",
      "outputs": [
        {
          "internalType": "address",
          "name": "",
          "type": "address"
        }
      ],
      "stateMutability": "view",
      "type": "function"
    },
    {
      "stateMutability": "payable",
      "type": "receive"
    }
  ],
  "transactionHash": "0x27016efb7c8cfad1c307f05614cdf584a6fdc39e586a77bbdcbd8c312d80ecdd",
  "args": [],
  "solcInputHash": "3898504cadd7a230b62b8be0186d1f3b",
  "bytecode": "0x60c06040523060601b6080524660a05234801561001b57600080fd5b5060016000819055805462ff00001916905560805160601c60a0516150646100e1600039600081816105780152818161081b015281816109dd01528181610b8701528181610d6d01528181610e8e015281816113170152818161144701528181611626015281816117d101528181611b0d01528181611b5a01528181611dba01528181611e070152818161205e0152818161223901528181612e010152612f48015260008181610c1201528181610c520152818161105a015261109a01526150646000f3fe6080604052600436106102085760003560e01c80636af6400d11610118578063bdff6d1e116100a0578063d33a28a21161006f578063d33a28a2146105da578063d431b1ac146105fa578063e63ea4081461060f578063ee9592b91461062f578063fb0f97a81461066a57600080fd5b8063bdff6d1e14610546578063cc9e3e8914610566578063ccb3f4421461059a578063d24c6944146105ba57600080fd5b80638df0dcde116100e75780638df0dcde146104b75780638f283970146104db578063981aff4e146104fb578063aaf10f421461051b578063affed0e01461053057600080fd5b80636af6400d1461044a5780636d5ff4791461047a5780636e9960c31461048d578063848cb5c6146104a257600080fd5b806345711d481161019b57806355b355601161016a57806355b35560146103ac57806355d35a40146103cc5780635c550ac2146103ec5780635c975abb1461040c5780635f670bd31461042a57600080fd5b806345711d4814610329578063485cc955146103595780634f1ef2861461037957806352edfcdf1461038c57600080fd5b80632f12d7ef116101d75780632f12d7ef146102c357806333bb7f91146102e35780633659cfe6146102f65780633d4a2f6e1461031657600080fd5b80630babd864146102145780631a19a62814610251578063222b15fb146102735780632b585db4146102a357600080fd5b3661020f57005b600080fd5b34801561022057600080fd5b50600354610234906001600160a01b031681565b6040516001600160a01b0390911681526020015b60405180910390f35b34801561025d57600080fd5b5061027161026c366004614250565b61068a565b005b34801561027f57600080fd5b5061029361028e36600461400e565b610737565b6040519015158152602001610248565b3480156102af57600080fd5b506102936102be3660046141e2565b610755565b3480156102cf57600080fd5b506102716102de366004614153565b610782565b6102716102f136600461400e565b610a5f565b34801561030257600080fd5b5061027161031136600461400e565b610c07565b610271610324366004614671565b610cd0565b34801561033557600080fd5b5061029361034436600461400e565b60086020526000908152604090205460ff1681565b34801561036557600080fd5b5061027161037436600461402b565b610f0b565b6102716103873660046140a5565b61104f565b34801561039857600080fd5b506102716103a736600461400e565b611105565b3480156103b857600080fd5b506102716103c736600461420e565b611187565b3480156103d857600080fd5b506102716103e7366004614724565b6111f5565b3480156103f857600080fd5b50600454610234906001600160a01b031681565b34801561041857600080fd5b5060015462010000900460ff16610293565b34801561043657600080fd5b50600654610234906001600160a01b031681565b34801561045657600080fd5b50610293610465366004614581565b60076020526000908152604090205460ff1681565b6102716104883660046146b5565b61127a565b34801561049957600080fd5b506102346114d4565b3480156104ae57600080fd5b506102716114e3565b3480156104c357600080fd5b506104cd60055481565b604051908152602001610248565b3480156104e757600080fd5b506102716104f636600461400e565b611525565b34801561050757600080fd5b506102716105163660046140f4565b61158d565b34801561052757600080fd5b50610234611858565b34801561053c57600080fd5b506104cd60025481565b34801561055257600080fd5b50600a54610234906001600160a01b031681565b34801561057257600080fd5b506104cd7f000000000000000000000000000000000000000000000000000000000000000081565b3480156105a657600080fd5b506102716105b5366004614250565b611862565b3480156105c657600080fd5b506102716105d5366004614749565b611902565b3480156105e657600080fd5b506102716105f5366004614749565b611baf565b34801561060657600080fd5b50610271611e5c565b34801561061b57600080fd5b5061027161062a366004614064565b611e9c565b34801561063b57600080fd5b5061029361064a366004614724565b600960209081526000928352604080842090915290825290205460ff1681565b34801561067657600080fd5b50610271610685366004614064565b611f2d565b6106926120bc565b6001600160a01b0316336001600160a01b0316146106cb5760405162461bcd60e51b81526004016106c290614b5a565b60405180910390fd5b60005b8151811015610733576000600860008484815181106106ef576106ef614f2e565b6020908102919091018101516001600160a01b03168252810191909152604001600020805460ff19169115159190911790558061072b81614efd565b9150506106ce565b5050565b6001600160a01b031660009081526008602052604090205460ff1690565b60008181526009602090815260408083206001600160a01b038616845290915290205460ff165b92915050565b600260005414156107a55760405162461bcd60e51b81526004016106c290614b85565b600260005560015462010000900460ff16156107d35760405162461bcd60e51b81526004016106c290614b30565b60008381526009602090815260408083206001600160a01b038a1684529091529020548690849060ff166108195760405162461bcd60e51b81526004016106c290614a8d565b7f00000000000000000000000000000000000000000000000000000000000000008514156108855760405162461bcd60e51b815260206004820152601960248201527821b0b73737ba1039bbb0b8103a379039b2b6331031b430b4b760391b60448201526064016106c2565b6040516370a0823160e01b815233600482015286906001600160a01b038a16906370a082319060240160206040518083038186803b1580156108c657600080fd5b505afa1580156108da573d6000803e3d6000fd5b505050506040513d601f19601f820116820180604052508101906108fe919061459a565b101561094c5760405162461bcd60e51b815260206004820152601a60248201527f496e73756666696369656e7420746f6b656e2062616c616e636500000000000060448201526064016106c2565b61095588610737565b156109bf5760405163079cc67960e41b8152336004820152602481018790526001600160a01b038916906379cc679090604401600060405180830381600087803b1580156109a257600080fd5b505af11580156109b6573d6000803e3d6000fd5b505050506109cb565b6109cb883330896120ef565b60006109d833898861221f565b9050857f00000000000000000000000000000000000000000000000000000000000000007fca1cf8cebf88499429cca8f87cbca15ab8dafd06702259a5344ddce89ef3f3a583610a278d612290565b610a3033612290565b8d8d8c8c604051610a47979695949392919061494a565b60405180910390a35050600160005550505050505050565b60026000541415610a825760405162461bcd60e51b81526004016106c290614b85565b600260005560015462010000900460ff1615610ab05760405162461bcd60e51b81526004016106c290614b30565b60035460055460008181526009602090815260408083206001600160a01b039095168084529490915290205460ff16610afb5760405162461bcd60e51b81526004016106c290614a8d565b33346000610b1483610b0c88612290565b60055461221f565b9050600360009054906101000a90046001600160a01b03166001600160a01b031663d0e30db0836040518263ffffffff1660e01b81526004016000604051808303818588803b158015610b6657600080fd5b505af1158015610b7a573d6000803e3d6000fd5b50506005546003549093507f000000000000000000000000000000000000000000000000000000000000000092507fb7100086a8e13ebae772a0f09b07046e389a6b036406d22b86f2d2e5b860a8d9915084906001600160a01b0316610bdf88612290565b8b88604051610bf295949392919061490f565b60405180910390a35050600160005550505050565b306001600160a01b037f0000000000000000000000000000000000000000000000000000000000000000161415610c505760405162461bcd60e51b81526004016106c290614a41565b7f00000000000000000000000000000000000000000000000000000000000000006001600160a01b0316610c826122c6565b6001600160a01b031614610ca85760405162461bcd60e51b81526004016106c290614abb565b610cb1816122ee565b60408051600080825260208201909252610ccd9183919061236a565b50565b60026000541415610cf35760405162461bcd60e51b81526004016106c290614b85565b600260005560015462010000900460ff1615610d215760405162461bcd60e51b81526004016106c290614b30565b60035460008281526009602090815260408083206001600160a01b0390941680845293909152902054829060ff16610d6b5760405162461bcd60e51b81526004016106c290614a8d565b7f0000000000000000000000000000000000000000000000000000000000000000831415610dce5760405162461bcd60e51b815260206004820152601060248201526f37b7363c9037ba3432b91031b430b4b760811b60448201526064016106c2565b3480610e0e5760405162461bcd60e51b815260206004820152600f60248201526e62616c616e6365206973207a65726f60881b60448201526064016106c2565b600360009054906101000a90046001600160a01b03166001600160a01b031663d0e30db0826040518263ffffffff1660e01b81526004016000604051808303818588803b158015610e5e57600080fd5b505af1158015610e72573d6000803e3d6000fd5b50505050506000610e8433878761221f565b60035490915085907f0000000000000000000000000000000000000000000000000000000000000000907f44ff77018688dad4b245e8ab97358ed57ed92269952ece7ffd321366ce078622908490610ee4906001600160a01b0316612290565b610eed33612290565b8b88610ef96000612290565b604051610bf2969594939291906149c8565b600154610100900460ff16610f265760015460ff1615610f2a565b303b155b610f8d5760405162461bcd60e51b815260206004820152602e60248201527f496e697469616c697a61626c653a20636f6e747261637420697320616c72656160448201526d191e481a5b9a5d1a585b1a5e995960921b60648201526084016106c2565b600154610100900460ff16158015610faf576001805461ffff19166101011790555b826001600160a01b038116610fd65760405162461bcd60e51b81526004016106c290614b07565b826001600160a01b038116610ffd5760405162461bcd60e51b81526004016106c290614b07565b600380546001600160a01b038088166001600160a01b0319928316179092556006805492871692909116919091179055611036336124b5565b5050801561104a576001805461ff00191690555b505050565b306001600160a01b037f00000000000000000000000000000000000000000000000000000000000000001614156110985760405162461bcd60e51b81526004016106c290614a41565b7f00000000000000000000000000000000000000000000000000000000000000006001600160a01b03166110ca6122c6565b6001600160a01b0316146110f05760405162461bcd60e51b81526004016106c290614abb565b6110f9826122ee565b6107338282600161236a565b61110d6120bc565b6001600160a01b0316336001600160a01b03161461113d5760405162461bcd60e51b81526004016106c290614b5a565b806001600160a01b0381166111645760405162461bcd60e51b81526004016106c290614b07565b50600a80546001600160a01b0319166001600160a01b0392909216919091179055565b61118f6120bc565b6001600160a01b0316336001600160a01b0316146111bf5760405162461bcd60e51b81526004016106c290614b5a565b60009182526009602090815260408084206001600160a01b03959095168452939052919020805460ff1916911515919091179055565b6111fd6120bc565b6001600160a01b0316336001600160a01b03161461122d5760405162461bcd60e51b81526004016106c290614b5a565b806001600160a01b0381166112545760405162461bcd60e51b81526004016106c290614b07565b50600480546001600160a01b0319166001600160a01b0392909216919091179055600555565b6002600054141561129d5760405162461bcd60e51b81526004016106c290614b85565b600260005560015462010000900460ff16156112cb5760405162461bcd60e51b81526004016106c290614b30565b60035460008481526009602090815260408083206001600160a01b0390941680845293909152902054849060ff166113155760405162461bcd60e51b81526004016106c290614a8d565b7f00000000000000000000000000000000000000000000000000000000000000008514156113815760405162461bcd60e51b815260206004820152601960248201527821b0b73737ba1039bbb0b8103a379039b2b6331031b430b4b760391b60448201526064016106c2565b34806113c75760405162461bcd60e51b815260206004820152601560248201527453656e64696e672076616c7565206973207a65726f60581b60448201526064016106c2565b600360009054906101000a90046001600160a01b03166001600160a01b031663d0e30db0826040518263ffffffff1660e01b81526004016000604051808303818588803b15801561141757600080fd5b505af115801561142b573d6000803e3d6000fd5b5050505050600061143d33898961221f565b60035490915087907f0000000000000000000000000000000000000000000000000000000000000000907fca1cf8cebf88499429cca8f87cbca15ab8dafd06702259a5344ddce89ef3f3a590849061149d906001600160a01b0316612290565b6114a633612290565b8d888d8d6040516114bd979695949392919061494a565b60405180910390a350506001600055505050505050565b60006114de6120bc565b905090565b6114eb6120bc565b6001600160a01b0316336001600160a01b03161461151b5760405162461bcd60e51b81526004016106c290614b5a565b611523612509565b565b61152d6120bc565b6001600160a01b0316336001600160a01b03161461155d5760405162461bcd60e51b81526004016106c290614b5a565b806001600160a01b0381166115845760405162461bcd60e51b81526004016106c290614b07565b610733826124b5565b600260005414156115b05760405162461bcd60e51b81526004016106c290614b85565b600260005560015462010000900460ff16156115de5760405162461bcd60e51b81526004016106c290614b30565b60008181526009602090815260408083206001600160a01b03881684529091529020548490829060ff166116245760405162461bcd60e51b81526004016106c290614a8d565b7f00000000000000000000000000000000000000000000000000000000000000008314156116875760405162461bcd60e51b815260206004820152601060248201526f37b7363c9037ba3432b91031b430b4b760811b60448201526064016106c2565b6040516370a0823160e01b815233600482015284906001600160a01b038816906370a082319060240160206040518083038186803b1580156116c857600080fd5b505afa1580156116dc573d6000803e3d6000fd5b505050506040513d601f19601f82011682018060405250810190611700919061459a565b10156117405760405162461bcd60e51b815260206004820152600f60248201526e62616c616e636520746f6f206c6f7760881b60448201526064016106c2565b61174986610737565b156117b35760405163079cc67960e41b8152336004820152602481018590526001600160a01b038716906379cc679090604401600060405180830381600087803b15801561179657600080fd5b505af11580156117aa573d6000803e3d6000fd5b505050506117bf565b6117bf863330876120ef565b60006117cc33878661221f565b9050837f00000000000000000000000000000000000000000000000000000000000000007f44ff77018688dad4b245e8ab97358ed57ed92269952ece7ffd321366ce0786228361181b8b612290565b61182433612290565b8b8b6118306000612290565b604051611842969594939291906149c8565b60405180910390a3505060016000555050505050565b60006114de6122c6565b61186a6120bc565b6001600160a01b0316336001600160a01b03161461189a5760405162461bcd60e51b81526004016106c290614b5a565b60005b8151811015610733576001600860008484815181106118be576118be614f2e565b6020908102919091018101516001600160a01b03168252810191909152604001600020805460ff1916911515919091179055806118fa81614efd565b91505061189d565b600260005414156119255760405162461bcd60e51b81526004016106c290614b85565b600260005560015462010000900460ff16156119535760405162461bcd60e51b81526004016106c290614b30565b60055482146119975760405162461bcd60e51b815260206004820152601060248201526f1a5b9d985b1a590818da185a5b881a5960821b60448201526064016106c2565b60065460405163016dc52760e41b8152600091829182916001600160a01b0316906316dc5270906119cc908790600401614a2e565b600060405180830381600087803b1580156119e657600080fd5b505af11580156119fa573d6000803e3d6000fd5b505050506040513d6000823e601f3d908101601f19168201604052611a2291908101906144f4565b925092509250828290611a485760405162461bcd60e51b81526004016106c29190614a2e565b506000611a54826125a4565b905060005b8151811015611b52576000828281518110611a7657611a76614f2e565b6020026020010151905060008160200151600081518110611a9957611a99614f2e565b6020026020010151806020019051810190611ab4919061459a565b9050604051806080016040528060478152602001614f7e604791398051906020012081148015611af3575081516004546001600160a01b039081169116145b15611b3d576000611b03836127ee565b91505080608001517f00000000000000000000000000000000000000000000000000000000000000001415611b3b57611b3b816128f2565b505b50508080611b4a90614efd565b915050611a59565b5060405133907f00000000000000000000000000000000000000000000000000000000000000009088907f8c991a6f7ef9e9e8c0cc7f34d5ce0b20ff23538ec4d944e9d065b833982fc78390600090a45050600160005550505050565b60026000541415611bd25760405162461bcd60e51b81526004016106c290614b85565b600260005560015462010000900460ff1615611c005760405162461bcd60e51b81526004016106c290614b30565b6005548214611c445760405162461bcd60e51b815260206004820152601060248201526f1a5b9d985b1a590818da185a5b881a5960821b60448201526064016106c2565b60065460405163016dc52760e41b8152600091829182916001600160a01b0316906316dc527090611c79908790600401614a2e565b600060405180830381600087803b158015611c9357600080fd5b505af1158015611ca7573d6000803e3d6000fd5b505050506040513d6000823e601f3d908101601f19168201604052611ccf91908101906144f4565b925092509250828290611cf55760405162461bcd60e51b81526004016106c29190614a2e565b506000611d01826125a4565b905060005b8151811015611dff576000828281518110611d2357611d23614f2e565b6020026020010151905060008160200151600081518110611d4657611d46614f2e565b6020026020010151806020019051810190611d61919061459a565b9050604051806080016040528060438152602001614fec604391398051906020012081148015611da0575081516004546001600160a01b039081169116145b15611dea576000611db083612a9d565b91505080602001517f00000000000000000000000000000000000000000000000000000000000000001415611de857611de881612ba4565b505b50508080611df790614efd565b915050611d06565b5060405133907f00000000000000000000000000000000000000000000000000000000000000009088907f8131e5b107f7021b0773c1108755872d7b94bb31532fdf2256e0a3ef2c890a3d90600090a45050600160005550505050565b611e646120bc565b6001600160a01b0316336001600160a01b031614611e945760405162461bcd60e51b81526004016106c290614b5a565b611523612fb7565b611ea46120bc565b6001600160a01b0316336001600160a01b031614611ed45760405162461bcd60e51b81526004016106c290614b5a565b6003546001600160a01b0384811691161415611f0a57600354611f00906001600160a01b031682613019565b61104a8282613135565b6001600160a01b038316611f225761104a8282613135565b61104a8383836131fe565b60026000541415611f505760405162461bcd60e51b81526004016106c290614b85565b600260005560015462010000900460ff1615611f7e5760405162461bcd60e51b81526004016106c290614b30565b60055460008181526009602090815260408083206001600160a01b038816845290915290205484919060ff16611fc65760405162461bcd60e51b81526004016106c290614a8d565b33611fd086610737565b1561203c5760405163079cc67960e41b81526001600160a01b038281166004830152602482018690528716906379cc679090604401600060405180830381600087803b15801561201f57600080fd5b505af1158015612033573d6000803e3d6000fd5b50505050612048565b612048868230876120ef565b600061205782610b0c88612290565b90506005547f00000000000000000000000000000000000000000000000000000000000000007fb7100086a8e13ebae772a0f09b07046e389a6b036406d22b86f2d2e5b860a8d9838a6120a987612290565b8b8b60405161184295949392919061490f565b60007fb53127684a568b3173ae13b9f8a6016e243e63b6e8ee1178d6a717850b5d61035b546001600160a01b0316919050565b604080516001600160a01b0385811660248301528481166044830152606480830185905283518084039091018152608490920183526020820180516001600160e01b03166323b872dd60e01b179052915160009283929088169161215391906148bf565b6000604051808303816000865af19150503d8060008114612190576040519150601f19603f3d011682016040523d82523d6000602084013e612195565b606091505b50915091508180156121bf5750805115806121bf5750808060200190518101906121bf91906144d7565b6122175760405162461bcd60e51b8152602060048201526024808201527f5472616e7366657248656c7065723a205452414e534645525f46524f4d5f46416044820152631253115160e21b60648201526084016106c2565b505050505050565b600280546000913091908361223383614efd565b919050557f000000000000000000000000000000000000000000000000000000000000000084878760405160200161227096959493929190614864565b6040516020818303038152906040528051906020012090505b9392505050565b604051606082811b6bffffffffffffffffffffffff19166020830152906034016040516020818303038152906040529050919050565b60007f360894a13ba1a3210667c828492db98dca3e2076cc3735a920a3ca505d382bbc6120e0565b6122f66120bc565b6001600160a01b0316336001600160a01b031614610ccd5760405162461bcd60e51b815260206004820152602b60248201527f4d41504f6d6e69636861696e536572766963653a206f6e6c792041646d696e2060448201526a63616e207570677261646560a81b60648201526084016106c2565b60006123746122c6565b905061237f84613312565b60008351118061238c5750815b1561239d5761239b84846133ba565b505b7f4910fdfa16fed3260ed0e7147f7cc6da11a60208b5b9406d12a635614ffd9143805460ff166124ae57805460ff191660011781556040516001600160a01b038316602482015261241c90869060440160408051601f198184030181529190526020810180516001600160e01b0316631b2ce7f360e11b1790526133ba565b50805460ff1916815561242d6122c6565b6001600160a01b0316826001600160a01b0316146124a55760405162461bcd60e51b815260206004820152602f60248201527f45524331393637557067726164653a207570677261646520627265616b73206660448201526e75727468657220757067726164657360881b60648201526084016106c2565b6124ae856133df565b5050505050565b7f7e644d79422f17c01e4894b5f4f588d331ebfa28653d42ae832dc59e38c9798f6124de6120bc565b604080516001600160a01b03928316815291841660208301520160405180910390a1610ccd8161341f565b60015462010000900460ff166125585760405162461bcd60e51b815260206004820152601460248201527314185d5cd8589b194e881b9bdd081c185d5cd95960621b60448201526064016106c2565b6001805462ff0000191690557f5db9ee0a495bf2e6ff9c91a7834c1ba4fdd244a5e8aa4e537bd38aeae4b073aa335b6040516001600160a01b03909116815260200160405180910390a1565b606060006125e16125dc8460408051808201825260008082526020918201528151808301909252825182529182019181019190915290565b6134ab565b905080516001600160401b038111156125fc576125fc614f44565b60405190808252806020026020018201604052801561265a57816020015b612647604051806060016040528060006001600160a01b0316815260200160608152602001606081525090565b81526020019060019003908161261a5790505b50915060005b81518110156127e757600061268d83838151811061268057612680614f2e565b60200260200101516134ab565b905060006126a78260018151811061268057612680614f2e565b9050600081516001600160401b038111156126c4576126c4614f44565b6040519080825280602002602001820160405280156126f757816020015b60608152602001906001900390816126e25790505b50905060005b82518110156127585761272883828151811061271b5761271b614f2e565b60200260200101516135c0565b82828151811061273a5761273a614f2e565b6020026020010181905250808061275090614efd565b9150506126fd565b5060405180606001604052806127878560008151811061277a5761277a614f2e565b602002602001015161363d565b6001600160a01b031681526020018281526020016127b18560028151811061271b5761271b614f2e565b8152508685815181106127c6576127c6614f2e565b602002602001018190525050505080806127df90614efd565b915050612660565b5050919050565b606061283b60405180610100016040528060608152602001606081526020016000801916815260200160008152602001600081526020016060815260200160008152602001606081525090565b825161284690612290565b9150826020015160018151811061285f5761285f614f2e565b602002602001015180602001905181019061287a919061459a565b606082015260208301518051600290811061289757612897614f2e565b60200260200101518060200190518101906128b2919061459a565b6080820152604083015180516128d0916020918101820191016145b3565b60e087015260c086015260a08501526020840152825260408201529092909150565b60408082015160008181526007602052919091205460ff16156129455760405162461bcd60e51b815260206004820152600b60248201526a1bdc99195c88195e1a5cdd60aa1b60448201526064016106c2565b6000818152600760205260408120805460ff1916600117905560e083015161296e906014015190565b905060006129818460a001516014015190565b60c0850151600354919250906001600160a01b03848116911614156129c5576003546129b6906001600160a01b031682613019565b6129c08282613135565b612a45565b6129ce83610737565b15612a3a576040516340c10f1960e01b81526001600160a01b038381166004830152602482018390528416906340c10f1990604401600060405180830381600087803b158015612a1d57600080fd5b505af1158015612a31573d6000803e3d6000fd5b50505050612a45565b612a458383836131fe565b846080015185606001517f3790accbe9ce42658f962f7e7cfa0e6ae7acbb46014c6e01e1219a087816137587604001518689602001518787604051612a8e95949392919061490f565b60405180910390a35050505050565b6060612aea60405180610100016040528060008152602001600081526020016000801916815260200160608152602001606081526020016060815260200160008152602001606081525090565b8251612af590612290565b91508260200151600181518110612b0e57612b0e614f2e565b6020026020010151806020019051810190612b29919061459a565b8152602083015180516002908110612b4357612b43614f2e565b6020026020010151806020019051810190612b5e919061459a565b8160200181815250508260400151806020019051810190612b7f91906145b3565b60e087015260c086015260a08501526080840152606083015260408201529092909150565b60408082015160008181526007602052919091205460ff1615612bf75760405162461bcd60e51b815260206004820152600b60248201526a1bdc99195c88195e1a5cdd60aa1b60448201526064016106c2565b6000818152600760205260408120805460ff191660011790556060830151612c20906014015190565b9050612c4f6040518060600160405280606081526020016060815260200160006001600160a01b031681525090565b8360e00151806020019051810190612c679190614384565b6001600160a01b0316604084015260208301819052908252601401516000612c948660a001516014015190565b60c087015184518051929350909115612e7b57612cb086610737565b15612d16576040516340c10f1960e01b8152306004820152602481018390526001600160a01b038716906340c10f1990604401600060405180830381600087803b158015612cfd57600080fd5b505af1158015612d11573d6000803e3d6000fd5b505050505b6000612d2182613657565b9050808310612e76576000612d3d8885848d60a001518b6136a7565b600a54909150612d589089906001600160a01b0316866139b0565b600a546040516000916001600160a01b031690612d79908490602401614bbc565b60408051601f198184030181529181526020820180516001600160e01b0316630856506160e31b17905251612dae91906148bf565b6000604051808303816000865af19150503d8060008114612deb576040519150601f19603f3d011682016040523d82523d6000602084013e612df0565b606091505b505090508015612e73578a604001517f00000000000000000000000000000000000000000000000000000000000000008c600001517f2a945137b011d4aadec6425788c652197d107fc33f6cdccbb0c269273be9c1c98a8f608001518b8b604051612e5e94939291906148db565b60405180910390a45050505050505050505050565b50505b869450505b6003546001600160a01b0385811691161415612eb657600354612ea7906001600160a01b031683613019565b612eb18383613135565b612f41565b612ebf84610737565b8015612eca57508051155b15612f36576040516340c10f1960e01b81526001600160a01b038481166004830152602482018490528516906340c10f1990604401600060405180830381600087803b158015612f1957600080fd5b505af1158015612f2d573d6000803e3d6000fd5b50505050612f41565b612f418484846131fe565b87604001517f000000000000000000000000000000000000000000000000000000000000000089600001517f2a945137b011d4aadec6425788c652197d107fc33f6cdccbb0c269273be9c1c9878c608001518888604051612fa594939291906148db565b60405180910390a45050505050505050565b60015462010000900460ff1615612fe05760405162461bcd60e51b81526004016106c290614b30565b6001805462ff00001916620100001790557f62e78cea01bee320cd4e420270b5ea74000d11b0c9f74754ebdbfc544b05a2586125873390565b600080836001600160a01b0316632e1a7d4d8460405160240161303e91815260200190565b6040516020818303038152906040529060e01b6020820180516001600160e01b03838183161783525050505060405161307791906148bf565b6000604051808303816000865af19150503d80600081146130b4576040519150601f19603f3d011682016040523d82523d6000602084013e6130b9565b606091505b50915091508180156130e35750805115806130e35750808060200190518101906130e391906144d7565b61312f5760405162461bcd60e51b815260206004820152601f60248201527f5472616e7366657248656c7065723a2057495448445241575f4641494c45440060448201526064016106c2565b50505050565b604080516000808252602082019092526001600160a01b03841690839060405161315f91906148bf565b60006040518083038185875af1925050503d806000811461319c576040519150601f19603f3d011682016040523d82523d6000602084013e6131a1565b606091505b505090508061104a5760405162461bcd60e51b815260206004820152602360248201527f5472616e7366657248656c7065723a204554485f5452414e534645525f46414960448201526213115160ea1b60648201526084016106c2565b604080516001600160a01b038481166024830152604480830185905283518084039091018152606490920183526020820180516001600160e01b031663a9059cbb60e01b179052915160009283929087169161325a91906148bf565b6000604051808303816000865af19150503d8060008114613297576040519150601f19603f3d011682016040523d82523d6000602084013e61329c565b606091505b50915091508180156132c65750805115806132c65750808060200190518101906132c691906144d7565b6124ae5760405162461bcd60e51b815260206004820152601f60248201527f5472616e7366657248656c7065723a205452414e534645525f4641494c45440060448201526064016106c2565b803b6133765760405162461bcd60e51b815260206004820152602d60248201527f455243313936373a206e657720696d706c656d656e746174696f6e206973206e60448201526c1bdd08184818dbdb9d1c9858dd609a1b60648201526084016106c2565b807f360894a13ba1a3210667c828492db98dca3e2076cc3735a920a3ca505d382bbc5b80546001600160a01b0319166001600160a01b039290921691909117905550565b60606122898383604051806060016040528060278152602001614fc560279139613ac4565b6133e881613312565b6040516001600160a01b038216907fbc7cd75a20ee27fd9adebab32041f755214dbc6bffa90cc0225b39da2e5c2d3b90600090a250565b6001600160a01b0381166134845760405162461bcd60e51b815260206004820152602660248201527f455243313936373a206e65772061646d696e20697320746865207a65726f206160448201526564647265737360d01b60648201526084016106c2565b807fb53127684a568b3173ae13b9f8a6016e243e63b6e8ee1178d6a717850b5d6103613399565b60606134b682613b98565b6134bf57600080fd5b60006134ca83613bd1565b90506000816001600160401b038111156134e6576134e6614f44565b60405190808252806020026020018201604052801561352b57816020015b60408051808201909152600080825260208201528152602001906001900390816135045790505b509050600061353d8560200151613c54565b856020015161354c9190614d94565b90506000805b848110156135b55761356383613ccf565b915060405180604001604052808381526020018481525084828151811061358c5761358c614f2e565b60209081029190910101526135a18284614d94565b9250806135ad81614efd565b915050613552565b509195945050505050565b80516060906135ce57600080fd5b6000806135da84613d78565b915091506000816001600160401b038111156135f8576135f8614f44565b6040519080825280601f01601f191660200182016040528015613622576020820181803683370190505b50905060208101613634848285613dbf565b50949350505050565b805160009060151461364e57600080fd5b61077c82613e3e565b6000805b82518110156136a15782818151811061367657613676614f2e565b6020026020010151600001518261368d9190614d94565b91508061369981614efd565b91505061365b565b50919050565b6136af613ec5565b815180516000906001600160401b038111156136cd576136cd614f44565b6040519080825280602002602001820160405280156136f6578160200160208202803683370190505b509050600082516001600160401b0381111561371457613714614f44565b60405190808252806020026020018201604052801561374757816020015b60608152602001906001900390816137325790505b509050600083516001600160401b0381111561376557613765614f44565b60405190808252806020026020018201604052801561378e578160200160208202803683370190505b5090508789106137d1576137a2888a614e97565b846000815181106137b5576137b5614f2e565b60200260200101516000018181516137cd9190614d94565b9052505b60005b8451811015613942578481815181106137ef576137ef614f2e565b60200260200101516000015184828151811061380d5761380d614f2e565b60200260200101818152505084818151811061382b5761382b614f2e565b60200260200101516060015182828151811061384957613849614f2e565b602002602001019063ffffffff16908163ffffffff168152505083818151811061387557613875614f2e565b602002602001015185828151811061388f5761388f614f2e565b6020026020010151602001518683815181106138ad576138ad614f2e565b6020026020010151604001518060200190518101906138cc91906142f0565b60148b01516138dd426103e8614d94565b8f6138ed8d602001516014015190565b6040516020016139039796959493929190614c5c565b60405160208183030381529060405283828151811061392457613924614f2e565b6020026020010181905250808061393a90614efd565b9150506137d4565b506000604051806080016040528085815260200184815260200183815260200160405180604001604052808e6001600160a01b03166001600160a01b031681526020016139948b602001516014015190565b6001600160a01b0316905290529b9a5050505050505050505050565b604080516001600160a01b038481166024830152604480830185905283518084039091018152606490920183526020820180516001600160e01b031663095ea7b360e01b1790529151600092839290871691613a0c91906148bf565b6000604051808303816000865af19150503d8060008114613a49576040519150601f19603f3d011682016040523d82523d6000602084013e613a4e565b606091505b5091509150818015613a78575080511580613a78575080806020019051810190613a7891906144d7565b6124ae5760405162461bcd60e51b815260206004820152601e60248201527f5472616e7366657248656c7065723a20415050524f56455f4641494c4544000060448201526064016106c2565b6060833b613b235760405162461bcd60e51b815260206004820152602660248201527f416464726573733a2064656c65676174652063616c6c20746f206e6f6e2d636f6044820152651b9d1c9858dd60d21b60648201526084016106c2565b600080856001600160a01b031685604051613b3e91906148bf565b600060405180830381855af49150503d8060008114613b79576040519150601f19603f3d011682016040523d82523d6000602084013e613b7e565b606091505b5091509150613b8e828286613e8c565b9695505050505050565b8051600090613ba957506000919050565b6020820151805160001a9060c0821015613bc7575060009392505050565b5060019392505050565b8051600090613be257506000919050565b600080613bf28460200151613c54565b8460200151613c019190614d94565b9050600084600001518560200151613c199190614d94565b90505b80821015613c4b57613c2d82613ccf565b613c379083614d94565b915082613c4381614efd565b935050613c1c565b50909392505050565b8051600090811a6080811015613c6d5750600092915050565b60b8811080613c88575060c08110801590613c88575060f881105b15613c965750600192915050565b60c0811015613cc357613cab600160b8614eae565b613cb89060ff1682614e97565b612289906001614d94565b613cab600160f8614eae565b80516000908190811a6080811015613cea5760019150613d71565b60b8811015613d1057613cfe608082614e97565b613d09906001614d94565b9150613d71565b60c0811015613d3d5760b78103600185019450806020036101000a85510460018201810193505050613d71565b60f8811015613d5157613cfe60c082614e97565b60f78103600185019450806020036101000a855104600182018101935050505b5092915050565b6000806000613d8a8460200151613c54565b90506000818560200151613d9e9190614d94565b90506000828660000151613db29190614e97565b9196919550909350505050565b80613dc957505050565b60208110613e015782518252613de0602084614d94565b9250613ded602083614d94565b9150613dfa602082614e97565b9050613dc9565b801561104a5760006001613e16836020614e97565b613e2290610100614def565b613e2c9190614e97565b84518451821691191617835250505050565b805160009015801590613e5357508151602110155b613e5c57600080fd5b600080613e6884613d78565b815191935091506020821015613e845760208290036101000a90045b949350505050565b60608315613e9b575081612289565b825115613eab5782518084602001fd5b8160405162461bcd60e51b81526004016106c29190614a2e565b6040518060800160405280606081526020016060815260200160608152602001613eed613ef2565b905290565b60405180604001604052806002906020820280368337509192915050565b6000613f23613f1e84614d6d565b614d1a565b9050828152838383011115613f3757600080fd5b612289836020830184614ed1565b8051613f5081614f5a565b919050565b60008083601f840112613f6757600080fd5b5081356001600160401b03811115613f7e57600080fd5b602083019150836020828501011115613f9657600080fd5b9250929050565b600082601f830112613fae57600080fd5b8135613fbc613f1e82614d6d565b818152846020838601011115613fd157600080fd5b816020850160208301376000918101602001919091529392505050565b600082601f830112613fff57600080fd5b61228983835160208501613f10565b60006020828403121561402057600080fd5b813561228981614f5a565b6000806040838503121561403e57600080fd5b823561404981614f5a565b9150602083013561405981614f5a565b809150509250929050565b60008060006060848603121561407957600080fd5b833561408481614f5a565b9250602084013561409481614f5a565b929592945050506040919091013590565b600080604083850312156140b857600080fd5b82356140c381614f5a565b915060208301356001600160401b038111156140de57600080fd5b6140ea85828601613f9d565b9150509250929050565b6000806000806080858703121561410a57600080fd5b843561411581614f5a565b935060208501356001600160401b0381111561413057600080fd5b61413c87828801613f9d565b949794965050505060408301359260600135919050565b60008060008060008060a0878903121561416c57600080fd5b863561417781614f5a565b955060208701356001600160401b038082111561419357600080fd5b61419f8a838b01613f9d565b9650604089013595506060890135945060808901359150808211156141c357600080fd5b506141d089828a01613f55565b979a9699509497509295939492505050565b600080604083850312156141f557600080fd5b823561420081614f5a565b946020939093013593505050565b60008060006060848603121561422357600080fd5b833561422e81614f5a565b925060208401359150604084013561424581614f6f565b809150509250925092565b6000602080838503121561426357600080fd5b82356001600160401b0381111561427957600080fd5b8301601f8101851361428a57600080fd5b8035614298613f1e82614d4a565b80828252848201915084840188868560051b87010111156142b857600080fd5b600094505b838510156142e45780356142d081614f5a565b8352600194909401939185019185016142bd565b50979650505050505050565b6000602080838503121561430357600080fd5b82516001600160401b0381111561431957600080fd5b8301601f8101851361432a57600080fd5b8051614338613f1e82614d4a565b80828252848201915084840188868560051b870101111561435857600080fd5b600094505b838510156142e457805161437081614f5a565b83526001949094019391850191850161435d565b60008060006060848603121561439957600080fd5b83516001600160401b03808211156143b057600080fd5b818601915086601f8301126143c457600080fd5b81516143d2613f1e82614d4a565b80828252602082019150602085018a60208560051b88010111156143f557600080fd5b60005b848110156144975781518681111561440f57600080fd5b87016080818e03601f1901121561442557600080fd5b61442d614cf2565b602082015181526040820151602082015260608201518881111561445057600080fd5b61445f8f602083860101613fee565b60408301525060808201519150878216821461447a57600080fd5b6060810191909152845260209384019391909101906001016143f8565b5050602089015190975093505050808211156144b257600080fd5b506144bf86828701613fee565b9250506144ce60408501613f45565b90509250925092565b6000602082840312156144e957600080fd5b815161228981614f6f565b60008060006060848603121561450957600080fd5b835161451481614f6f565b60208501519093506001600160401b038082111561453157600080fd5b818601915086601f83011261454557600080fd5b61455487835160208501613f10565b9350604086015191508082111561456a57600080fd5b5061457786828701613fee565b9150509250925092565b60006020828403121561459357600080fd5b5035919050565b6000602082840312156145ac57600080fd5b5051919050565b60008060008060008060c087890312156145cc57600080fd5b8651955060208701516001600160401b03808211156145ea57600080fd5b6145f68a838b01613fee565b9650604089015191508082111561460c57600080fd5b6146188a838b01613fee565b9550606089015191508082111561462e57600080fd5b61463a8a838b01613fee565b94506080890151935060a089015191508082111561465757600080fd5b5061466489828a01613fee565b9150509295509295509295565b6000806040838503121561468457600080fd5b82356001600160401b0381111561469a57600080fd5b6146a685828601613f9d565b95602094909401359450505050565b600080600080606085870312156146cb57600080fd5b84356001600160401b03808211156146e257600080fd5b6146ee88838901613f9d565b955060208701359450604087013591508082111561470b57600080fd5b5061471887828801613f55565b95989497509550505050565b6000806040838503121561473757600080fd5b82359150602083013561405981614f5a565b6000806040838503121561475c57600080fd5b8235915060208301356001600160401b038111156140de57600080fd5b8060005b600281101561312f5781516001600160a01b031684526020938401939091019060010161477d565b6000815180845260208085019450848260051b860182860160005b858110156147ea5783830389526147d8838351614838565b988501989250908401906001016147c0565b5090979650505050505050565b600081518084526020808501945080840160005b8381101561482d57815163ffffffff168752958201959082019060010161480b565b509495945050505050565b60008151808452614850816020860160208601614ed1565b601f01601f19169290920160200192915050565b60006bffffffffffffffffffffffff19808960601b168352876014840152866034840152856054840152808560601b1660748401525082516148ad816088850160208701614ed1565b91909101608801979650505050505050565b600082516148d1818460208701614ed1565b9190910192915050565b600060018060a01b038087168352608060208401526148fd6080840187614838565b94166040830152506060015292915050565b858152600060018060a01b03808716602084015260a0604084015261493760a0840187614838565b9416606083015250608001529392505050565b87815260c06020820152600061496360c0830189614838565b82810360408401526149758189614838565b905082810360608401526149898188614838565b905085608084015282810360a0840152838152838560208301376000602085830101526020601f19601f86011682010191505098975050505050505050565b86815260c0602082015260006149e160c0830188614838565b82810360408401526149f38188614838565b90508281036060840152614a078187614838565b905084608084015282810360a0840152614a218185614838565b9998505050505050505050565b6020815260006122896020830184614838565b6020808252602c908201527f46756e6374696f6e206d7573742062652063616c6c6564207468726f7567682060408201526b19195b1959d85d1958d85b1b60a21b606082015260800190565b6020808252601490820152731d1bdad95b881b9bdd081c9959da5cdd195c995960621b604082015260600190565b6020808252602c908201527f46756e6374696f6e206d7573742062652063616c6c6564207468726f7567682060408201526b6163746976652070726f787960a01b606082015260800190565b6020808252600f908201526e61646472657373206973207a65726f60881b604082015260600190565b60208082526010908201526f14185d5cd8589b194e881c185d5cd95960821b604082015260600190565b60208082526011908201527036b7b9901d1d1037b7363c9030b236b4b760791b604082015260600190565b6020808252601f908201527f5265656e7472616e637947756172643a207265656e7472616e742063616c6c00604082015260600190565b6020808252825160a083830152805160c0840181905260009291820190839060e08601905b80831015614c015783518252928401926001929092019190840190614be1565b50838701519350601f19925082868203016040870152614c2181856147a5565b93505050604085015181858403016060860152614c3e83826147f7565b925050506060840151614c546080850182614779565b509392505050565b600060e082018983526020898185015260e0604085015281895180845261010086019150828b01935060005b81811015614cad5784516001600160a01b031683529383019391830191600101614c88565b50506001600160a01b03898116606087015260808601899052871660a08601529250614cd7915050565b6001600160a01b03831660c083015298975050505050505050565b604051608081016001600160401b0381118282101715614d1457614d14614f44565b60405290565b604051601f8201601f191681016001600160401b0381118282101715614d4257614d42614f44565b604052919050565b60006001600160401b03821115614d6357614d63614f44565b5060051b60200190565b60006001600160401b03821115614d8657614d86614f44565b50601f01601f191660200190565b60008219821115614da757614da7614f18565b500190565b600181815b80851115614de7578160001904821115614dcd57614dcd614f18565b80851615614dda57918102915b93841c9390800290614db1565b509250929050565b60006122898383600082614e055750600161077c565b81614e125750600061077c565b8160018114614e285760028114614e3257614e4e565b600191505061077c565b60ff841115614e4357614e43614f18565b50506001821b61077c565b5060208310610133831016604e8410600b8410161715614e71575081810a61077c565b614e7b8383614dac565b8060001904821115614e8f57614e8f614f18565b029392505050565b600082821015614ea957614ea9614f18565b500390565b600060ff821660ff841680821015614ec857614ec8614f18565b90039392505050565b60005b83811015614eec578181015183820152602001614ed4565b8381111561312f5750506000910152565b6000600019821415614f1157614f11614f18565b5060010190565b634e487b7160e01b600052601160045260246000fd5b634e487b7160e01b600052603260045260246000fd5b634e487b7160e01b600052604160045260246000fd5b6001600160a01b0381168114610ccd57600080fd5b8015158114610ccd57600080fdfe6d61705472616e736665724f75742875696e743235362c75696e743235362c627974657333322c62797465732c62797465732c62797465732c75696e743235362c627974657329416464726573733a206c6f772d6c6576656c2064656c65676174652063616c6c206661696c65646d6170537761704f75742875696e743235362c75696e743235362c627974657333322c62797465732c62797465732c62797465732c75696e743235362c627974657329a26469706673582212200d6ff3a326cb6d3bc176663104325f4e06fa78535314217a3a85d2ba56db421b64736f6c63430008070033",
  "devdoc": {
    "kind": "dev",
    "methods": {
      "paused()": {
        "details": "Returns true if the contract is paused, and false otherwise."
      },
      "upgradeTo(address)": {
        "details": "Upgrade the implementation of the proxy to `newImplementation`. Calls {_authorizeUpgrade}. Emits an {Upgraded} event."
      },
      "upgradeToAndCall(address,bytes)": {
        "details": "Upgrade the implementation of the proxy to `newImplementation`, and subsequently execute the function call encoded in `data`. Calls {_authorizeUpgrade}. Emits an {Upgraded} event."
      }
    },
    "version": 1
  },
  "userdoc": {
    "kind": "user",
    "methods": {},
    "version": 1
  },
  "storageLayout": {
    "storage": [
      {
        "astId": 1363,
        "contract": "contracts/MAPOmnichainServiceV2.sol:MAPOmnichainServiceV2",
        "label": "_status",
        "offset": 0,
        "slot": "0",
        "type": "t_uint256"
      },
      {
        "astId": 1107,
        "contract": "contracts/MAPOmnichainServiceV2.sol:MAPOmnichainServiceV2",
        "label": "_initialized",
        "offset": 0,
        "slot": "1",
        "type": "t_bool"
      },
      {
        "astId": 1110,
        "contract": "contracts/MAPOmnichainServiceV2.sol:MAPOmnichainServiceV2",
        "label": "_initializing",
        "offset": 1,
        "slot": "1",
        "type": "t_bool"
      },
      {
        "astId": 1278,
        "contract": "contracts/MAPOmnichainServiceV2.sol:MAPOmnichainServiceV2",
        "label": "_paused",
        "offset": 2,
        "slot": "1",
        "type": "t_bool"
      },
      {
        "astId": 6481,
        "contract": "contracts/MAPOmnichainServiceV2.sol:MAPOmnichainServiceV2",
        "label": "nonce",
        "offset": 0,
        "slot": "2",
        "type": "t_uint256"
      },
      {
        "astId": 6483,
        "contract": "contracts/MAPOmnichainServiceV2.sol:MAPOmnichainServiceV2",
        "label": "wToken",
        "offset": 0,
        "slot": "3",
        "type": "t_address"
      },
      {
        "astId": 6485,
        "contract": "contracts/MAPOmnichainServiceV2.sol:MAPOmnichainServiceV2",
        "label": "relayContract",
        "offset": 0,
        "slot": "4",
        "type": "t_address"
      },
      {
        "astId": 6487,
        "contract": "contracts/MAPOmnichainServiceV2.sol:MAPOmnichainServiceV2",
        "label": "relayChainId",
        "offset": 0,
        "slot": "5",
        "type": "t_uint256"
      },
      {
        "astId": 6490,
        "contract": "contracts/MAPOmnichainServiceV2.sol:MAPOmnichainServiceV2",
        "label": "lightNode",
        "offset": 0,
        "slot": "6",
        "type": "t_contract(ILightNode)8767"
      },
      {
        "astId": 6494,
        "contract": "contracts/MAPOmnichainServiceV2.sol:MAPOmnichainServiceV2",
        "label": "orderList",
        "offset": 0,
        "slot": "7",
        "type": "t_mapping(t_bytes32,t_bool)"
      },
      {
        "astId": 6498,
        "contract": "contracts/MAPOmnichainServiceV2.sol:MAPOmnichainServiceV2",
        "label": "mintableTokens",
        "offset": 0,
        "slot": "8",
        "type": "t_mapping(t_address,t_bool)"
      },
      {
        "astId": 6504,
        "contract": "contracts/MAPOmnichainServiceV2.sol:MAPOmnichainServiceV2",
        "label": "tokenMappingList",
        "offset": 0,
        "slot": "9",
        "type": "t_mapping(t_uint256,t_mapping(t_address,t_bool))"
      },
      {
        "astId": 6506,
        "contract": "contracts/MAPOmnichainServiceV2.sol:MAPOmnichainServiceV2",
        "label": "butterCore",
        "offset": 0,
        "slot": "10",
        "type": "t_address"
      }
    ],
    "types": {
      "t_address": {
        "encoding": "inplace",
        "label": "address",
        "numberOfBytes": "20"
      },
      "t_bool": {
        "encoding": "inplace",
        "label": "bool",
        "numberOfBytes": "1"
      },
      "t_bytes32": {
        "encoding": "inplace",
        "label": "bytes32",
        "numberOfBytes": "32"
      },
      "t_contract(ILightNode)8767": {
        "encoding": "inplace",
        "label": "contract ILightNode",
        "numberOfBytes": "20"
      },
      "t_mapping(t_address,t_bool)": {
        "encoding": "mapping",
        "key": "t_address",
        "label": "mapping(address => bool)",
        "numberOfBytes": "32",
        "value": "t_bool"
      },
      "t_mapping(t_bytes32,t_bool)": {
        "encoding": "mapping",
        "key": "t_bytes32",
        "label": "mapping(bytes32 => bool)",
        "numberOfBytes": "32",
        "value": "t_bool"
      },
      "t_mapping(t_uint256,t_mapping(t_address,t_bool))": {
        "encoding": "mapping",
        "key": "t_uint256",
        "label": "mapping(uint256 => mapping(address => bool))",
        "numberOfBytes": "32",
        "value": "t_mapping(t_address,t_bool)"
      },
      "t_uint256": {
        "encoding": "inplace",
        "label": "uint256",
        "numberOfBytes": "32"
      }
    }
  }
}