{
  "address": "0x27A51306c2b727d068c1B6E9895c6d160Edd21B3",
  "abi": [
    {
      "anonymous": false,
      "inputs": [
        {
          "indexed": false,
          "internalType": "address",
          "name": "account",
          "type": "address"
        }
      ],
      "name": "Paused",
      "type": "event"
    },
    {
      "anonymous": false,
      "inputs": [
        {
          "indexed": true,
          "internalType": "bytes32",
          "name": "role",
          "type": "bytes32"
        },
        {
          "indexed": true,
          "internalType": "bytes32",
          "name": "previousAdminRole",
          "type": "bytes32"
        },
        {
          "indexed": true,
          "internalType": "bytes32",
          "name": "newAdminRole",
          "type": "bytes32"
        }
      ],
      "name": "RoleAdminChanged",
      "type": "event"
    },
    {
      "anonymous": false,
      "inputs": [
        {
          "indexed": true,
          "internalType": "bytes32",
          "name": "role",
          "type": "bytes32"
        },
        {
          "indexed": true,
          "internalType": "address",
          "name": "account",
          "type": "address"
        },
        {
          "indexed": true,
          "internalType": "address",
          "name": "sender",
          "type": "address"
        }
      ],
      "name": "RoleGranted",
      "type": "event"
    },
    {
      "anonymous": false,
      "inputs": [
        {
          "indexed": true,
          "internalType": "bytes32",
          "name": "role",
          "type": "bytes32"
        },
        {
          "indexed": true,
          "internalType": "address",
          "name": "account",
          "type": "address"
        },
        {
          "indexed": true,
          "internalType": "address",
          "name": "sender",
          "type": "address"
        }
      ],
      "name": "RoleRevoked",
      "type": "event"
    },
    {
      "anonymous": false,
      "inputs": [
        {
          "indexed": false,
          "internalType": "address",
          "name": "account",
          "type": "address"
        }
      ],
      "name": "Unpaused",
      "type": "event"
    },
    {
      "anonymous": false,
      "inputs": [
        {
          "indexed": false,
          "internalType": "address",
          "name": "token",
          "type": "address"
        },
        {
          "indexed": false,
          "internalType": "bytes",
          "name": "from",
          "type": "bytes"
        },
        {
          "indexed": false,
          "internalType": "address",
          "name": "to",
          "type": "address"
        },
        {
          "indexed": false,
          "internalType": "bytes32",
          "name": "orderId",
          "type": "bytes32"
        },
        {
          "indexed": false,
          "internalType": "uint256",
          "name": "amount",
          "type": "uint256"
        }
      ],
      "name": "mapDepositOut",
      "type": "event"
    },
    {
      "anonymous": false,
      "inputs": [
        {
          "indexed": false,
          "internalType": "bytes32",
          "name": "tokenID",
          "type": "bytes32"
        },
        {
          "indexed": false,
          "internalType": "address",
          "name": "token",
          "type": "address"
        }
      ],
      "name": "mapTokenRegister",
      "type": "event"
    },
    {
      "anonymous": false,
      "inputs": [
        {
          "indexed": true,
          "internalType": "address",
          "name": "token",
          "type": "address"
        },
        {
          "indexed": true,
          "internalType": "bytes",
          "name": "from",
          "type": "bytes"
        },
        {
          "indexed": true,
          "internalType": "bytes32",
          "name": "orderId",
          "type": "bytes32"
        },
        {
          "indexed": false,
          "internalType": "uint256",
          "name": "fromChain",
          "type": "uint256"
        },
        {
          "indexed": false,
          "internalType": "uint256",
          "name": "toChain",
          "type": "uint256"
        },
        {
          "indexed": false,
          "internalType": "address",
          "name": "to",
          "type": "address"
        },
        {
          "indexed": false,
          "internalType": "uint256",
          "name": "amount",
          "type": "uint256"
        }
      ],
      "name": "mapTransferIn",
      "type": "event"
    },
    {
      "anonymous": false,
      "inputs": [
        {
          "indexed": true,
          "internalType": "bytes",
          "name": "toContract",
          "type": "bytes"
        },
        {
          "indexed": true,
          "internalType": "address",
          "name": "from",
          "type": "address"
        },
        {
          "indexed": true,
          "internalType": "bytes32",
          "name": "orderId",
          "type": "bytes32"
        },
        {
          "indexed": false,
          "internalType": "uint256",
          "name": "fromChain",
          "type": "uint256"
        },
        {
          "indexed": false,
          "internalType": "uint256",
          "name": "toChain",
          "type": "uint256"
        },
        {
          "indexed": false,
          "internalType": "bytes",
          "name": "data",
          "type": "bytes"
        }
      ],
      "name": "mapTransferInData",
      "type": "event"
    },
    {
      "anonymous": false,
      "inputs": [
        {
          "indexed": false,
          "internalType": "bytes",
          "name": "token",
          "type": "bytes"
        },
        {
          "indexed": false,
          "internalType": "bytes",
          "name": "from",
          "type": "bytes"
        },
        {
          "indexed": false,
          "internalType": "bytes32",
          "name": "orderId",
          "type": "bytes32"
        },
        {
          "indexed": false,
          "internalType": "uint256",
          "name": "fromChain",
          "type": "uint256"
        },
        {
          "indexed": false,
          "internalType": "uint256",
          "name": "toChain",
          "type": "uint256"
        },
        {
          "indexed": false,
          "internalType": "bytes",
          "name": "to",
          "type": "bytes"
        },
        {
          "indexed": false,
          "internalType": "uint256",
          "name": "amount",
          "type": "uint256"
        },
        {
          "indexed": false,
          "internalType": "bytes",
          "name": "toChainToken",
          "type": "bytes"
        }
      ],
      "name": "mapTransferOut",
      "type": "event"
    },
    {
      "anonymous": false,
      "inputs": [
        {
          "indexed": true,
          "internalType": "bytes",
          "name": "toContract",
          "type": "bytes"
        },
        {
          "indexed": true,
          "internalType": "address",
          "name": "from",
          "type": "address"
        },
        {
          "indexed": true,
          "internalType": "bytes32",
          "name": "orderId",
          "type": "bytes32"
        },
        {
          "indexed": false,
          "internalType": "uint256",
          "name": "fromChain",
          "type": "uint256"
        },
        {
          "indexed": false,
          "internalType": "uint256",
          "name": "toChain",
          "type": "uint256"
        },
        {
          "indexed": false,
          "internalType": "bytes",
          "name": "data",
          "type": "bytes"
        }
      ],
      "name": "mapTransferOutData",
      "type": "event"
    },
    {
      "inputs": [],
      "name": "DEFAULT_ADMIN_ROLE",
      "outputs": [
        {
          "internalType": "bytes32",
          "name": "",
          "type": "bytes32"
        }
      ],
      "stateMutability": "view",
      "type": "function"
    },
    {
      "inputs": [],
      "name": "MANAGER_ROLE",
      "outputs": [
        {
          "internalType": "bytes32",
          "name": "",
          "type": "bytes32"
        }
      ],
      "stateMutability": "view",
      "type": "function"
    },
    {
      "inputs": [
        {
          "internalType": "address",
          "name": "self",
          "type": "address"
        }
      ],
      "name": "_addressToBytes",
      "outputs": [
        {
          "internalType": "bytes",
          "name": "b",
          "type": "bytes"
        }
      ],
      "stateMutability": "pure",
      "type": "function"
    },
    {
      "inputs": [
        {
          "internalType": "address[]",
          "name": "token",
          "type": "address[]"
        }
      ],
      "name": "addAuthToken",
      "outputs": [],
      "stateMutability": "nonpayable",
      "type": "function"
    },
    {
      "inputs": [
        {
          "internalType": "address",
          "name": "manager",
          "type": "address"
        }
      ],
      "name": "addManager",
      "outputs": [],
      "stateMutability": "nonpayable",
      "type": "function"
    },
    {
      "inputs": [
        {
          "internalType": "address",
          "name": "",
          "type": "address"
        }
      ],
      "name": "authToken",
      "outputs": [
        {
          "internalType": "bool",
          "name": "",
          "type": "bool"
        }
      ],
      "stateMutability": "view",
      "type": "function"
    },
    {
      "inputs": [
        {
          "internalType": "address",
          "name": "",
          "type": "address"
        }
      ],
      "name": "bridgeAddress",
      "outputs": [
        {
          "internalType": "uint256",
          "name": "",
          "type": "uint256"
        }
      ],
      "stateMutability": "view",
      "type": "function"
    },
    {
      "inputs": [
        {
          "internalType": "uint256",
          "name": "",
          "type": "uint256"
        }
      ],
      "name": "chainGasFee",
      "outputs": [
        {
          "internalType": "uint256",
          "name": "",
          "type": "uint256"
        }
      ],
      "stateMutability": "view",
      "type": "function"
    },
    {
      "inputs": [],
      "name": "chainGasFees",
      "outputs": [
        {
          "internalType": "uint256",
          "name": "",
          "type": "uint256"
        }
      ],
      "stateMutability": "view",
      "type": "function"
    },
    {
      "inputs": [
        {
          "internalType": "address",
          "name": "token",
          "type": "address"
        }
      ],
      "name": "checkAuthToken",
      "outputs": [
        {
          "internalType": "bool",
          "name": "",
          "type": "bool"
        }
      ],
      "stateMutability": "view",
      "type": "function"
    },
    {
      "inputs": [
        {
          "internalType": "address",
          "name": "from",
          "type": "address"
        },
        {
          "internalType": "address",
          "name": "to",
          "type": "address"
        }
      ],
      "name": "depositOutNative",
      "outputs": [],
      "stateMutability": "payable",
      "type": "function"
    },
    {
      "inputs": [
        {
          "internalType": "address",
          "name": "token",
          "type": "address"
        },
        {
          "internalType": "address",
          "name": "from",
          "type": "address"
        },
        {
          "internalType": "address",
          "name": "to",
          "type": "address"
        },
        {
          "internalType": "uint256",
          "name": "amount",
          "type": "uint256"
        }
      ],
      "name": "depositOutToken",
      "outputs": [],
      "stateMutability": "payable",
      "type": "function"
    },
    {
      "inputs": [
        {
          "internalType": "address",
          "name": "token",
          "type": "address"
        },
        {
          "internalType": "address",
          "name": "from",
          "type": "address"
        },
        {
          "internalType": "bytes",
          "name": "to",
          "type": "bytes"
        },
        {
          "internalType": "uint256",
          "name": "amount",
          "type": "uint256"
        },
        {
          "internalType": "uint256",
          "name": "toChainID",
          "type": "uint256"
        }
      ],
      "name": "getOrderID",
      "outputs": [
        {
          "internalType": "bytes32",
          "name": "",
          "type": "bytes32"
        }
      ],
      "stateMutability": "nonpayable",
      "type": "function"
    },
    {
      "inputs": [
        {
          "internalType": "bytes32",
          "name": "role",
          "type": "bytes32"
        }
      ],
      "name": "getRoleAdmin",
      "outputs": [
        {
          "internalType": "bytes32",
          "name": "",
          "type": "bytes32"
        }
      ],
      "stateMutability": "view",
      "type": "function"
    },
    {
      "inputs": [
        {
          "internalType": "bytes32",
          "name": "role",
          "type": "bytes32"
        },
        {
          "internalType": "address",
          "name": "account",
          "type": "address"
        }
      ],
      "name": "grantRole",
      "outputs": [],
      "stateMutability": "nonpayable",
      "type": "function"
    },
    {
      "inputs": [
        {
          "internalType": "bytes32",
          "name": "role",
          "type": "bytes32"
        },
        {
          "internalType": "address",
          "name": "account",
          "type": "address"
        }
      ],
      "name": "hasRole",
      "outputs": [
        {
          "internalType": "bool",
          "name": "",
          "type": "bool"
        }
      ],
      "stateMutability": "view",
      "type": "function"
    },
    {
      "inputs": [
        {
          "internalType": "address",
          "name": "_wToken",
          "type": "address"
        },
        {
          "internalType": "address",
          "name": "_mapToken",
          "type": "address"
        },
        {
          "internalType": "address",
          "name": "_lightNode",
          "type": "address"
        }
      ],
      "name": "initialize",
      "outputs": [],
      "stateMutability": "nonpayable",
      "type": "function"
    },
    {
      "inputs": [],
      "name": "lightNode",
      "outputs": [
        {
          "internalType": "contract ILightNode",
          "name": "",
          "type": "address"
        }
      ],
      "stateMutability": "view",
      "type": "function"
    },
    {
      "inputs": [],
      "name": "mapToken",
      "outputs": [
        {
          "internalType": "contract IERC20",
          "name": "",
          "type": "address"
        }
      ],
      "stateMutability": "view",
      "type": "function"
    },
    {
      "inputs": [],
      "name": "mapTransferOutTopic",
      "outputs": [
        {
          "internalType": "bytes32",
          "name": "",
          "type": "bytes32"
        }
      ],
      "stateMutability": "view",
      "type": "function"
    },
    {
      "inputs": [],
      "name": "nonce",
      "outputs": [
        {
          "internalType": "uint256",
          "name": "",
          "type": "uint256"
        }
      ],
      "stateMutability": "view",
      "type": "function"
    },
    {
      "inputs": [
        {
          "internalType": "bytes32",
          "name": "",
          "type": "bytes32"
        }
      ],
      "name": "orderList",
      "outputs": [
        {
          "internalType": "bool",
          "name": "",
          "type": "bool"
        }
      ],
      "stateMutability": "view",
      "type": "function"
    },
    {
      "inputs": [],
      "name": "paused",
      "outputs": [
        {
          "internalType": "bool",
          "name": "",
          "type": "bool"
        }
      ],
      "stateMutability": "view",
      "type": "function"
    },
    {
      "inputs": [
        {
          "internalType": "address[]",
          "name": "token",
          "type": "address[]"
        }
      ],
      "name": "removeAuthToken",
      "outputs": [],
      "stateMutability": "nonpayable",
      "type": "function"
    },
    {
      "inputs": [
        {
          "internalType": "address",
          "name": "manager",
          "type": "address"
        }
      ],
      "name": "removeManager",
      "outputs": [],
      "stateMutability": "nonpayable",
      "type": "function"
    },
    {
      "inputs": [
        {
          "internalType": "bytes32",
          "name": "role",
          "type": "bytes32"
        },
        {
          "internalType": "address",
          "name": "account",
          "type": "address"
        }
      ],
      "name": "renounceRole",
      "outputs": [],
      "stateMutability": "nonpayable",
      "type": "function"
    },
    {
      "inputs": [
        {
          "internalType": "bytes32",
          "name": "role",
          "type": "bytes32"
        },
        {
          "internalType": "address",
          "name": "account",
          "type": "address"
        }
      ],
      "name": "revokeRole",
      "outputs": [],
      "stateMutability": "nonpayable",
      "type": "function"
    },
    {
      "inputs": [],
      "name": "selfChainId",
      "outputs": [
        {
          "internalType": "uint256",
          "name": "",
          "type": "uint256"
        }
      ],
      "stateMutability": "view",
      "type": "function"
    },
    {
      "inputs": [
        {
          "internalType": "address",
          "name": "_bridge",
          "type": "address"
        },
        {
          "internalType": "uint256",
          "name": "_num",
          "type": "uint256"
        }
      ],
      "name": "setBridge",
      "outputs": [],
      "stateMutability": "nonpayable",
      "type": "function"
    },
    {
      "inputs": [
        {
          "internalType": "address",
          "name": "token",
          "type": "address"
        },
        {
          "internalType": "uint256",
          "name": "chainId",
          "type": "uint256"
        },
        {
          "internalType": "bool",
          "name": "canBridge",
          "type": "bool"
        }
      ],
      "name": "setCanBridgeToken",
      "outputs": [],
      "stateMutability": "nonpayable",
      "type": "function"
    },
    {
      "inputs": [],
      "name": "setPause",
      "outputs": [],
      "stateMutability": "nonpayable",
      "type": "function"
    },
    {
      "inputs": [],
      "name": "setUnpause",
      "outputs": [],
      "stateMutability": "nonpayable",
      "type": "function"
    },
    {
      "inputs": [
        {
          "internalType": "bytes4",
          "name": "interfaceId",
          "type": "bytes4"
        }
      ],
      "name": "supportsInterface",
      "outputs": [
        {
          "internalType": "bool",
          "name": "",
          "type": "bool"
        }
      ],
      "stateMutability": "view",
      "type": "function"
    },
    {
      "inputs": [
        {
          "internalType": "bytes32",
          "name": "",
          "type": "bytes32"
        }
      ],
      "name": "tokenRegister",
      "outputs": [
        {
          "internalType": "address",
          "name": "",
          "type": "address"
        }
      ],
      "stateMutability": "view",
      "type": "function"
    },
    {
      "inputs": [
        {
          "internalType": "uint256",
          "name": "",
          "type": "uint256"
        },
        {
          "internalType": "bytes",
          "name": "receiptProof",
          "type": "bytes"
        }
      ],
      "name": "transferIn",
      "outputs": [],
      "stateMutability": "nonpayable",
      "type": "function"
    },
    {
      "inputs": [
        {
          "internalType": "address",
          "name": "token",
          "type": "address"
        },
        {
          "internalType": "bytes",
          "name": "from",
          "type": "bytes"
        },
        {
          "internalType": "address payable",
          "name": "to",
          "type": "address"
        },
        {
          "internalType": "uint256",
          "name": "amount",
          "type": "uint256"
        },
        {
          "internalType": "bytes32",
          "name": "orderId",
          "type": "bytes32"
        },
        {
          "internalType": "uint256",
          "name": "fromChain",
          "type": "uint256"
        },
        {
          "internalType": "uint256",
          "name": "toChain",
          "type": "uint256"
        }
      ],
      "name": "transferInVault",
      "outputs": [],
      "stateMutability": "nonpayable",
      "type": "function"
    },
    {
      "inputs": [
        {
          "internalType": "address",
          "name": "toContract",
          "type": "address"
        },
        {
          "internalType": "uint256",
          "name": "toChain",
          "type": "uint256"
        },
        {
          "internalType": "bytes",
          "name": "data",
          "type": "bytes"
        }
      ],
      "name": "transferOut",
      "outputs": [],
      "stateMutability": "nonpayable",
      "type": "function"
    },
    {
      "inputs": [
        {
          "internalType": "bytes",
          "name": "toAddress",
          "type": "bytes"
        },
        {
          "internalType": "uint256",
          "name": "toChain",
          "type": "uint256"
        }
      ],
      "name": "transferOutNative",
      "outputs": [],
      "stateMutability": "payable",
      "type": "function"
    },
    {
      "inputs": [
        {
          "internalType": "address",
          "name": "token",
          "type": "address"
        },
        {
          "internalType": "bytes",
          "name": "toAddress",
          "type": "bytes"
        },
        {
          "internalType": "uint256",
          "name": "amount",
          "type": "uint256"
        },
        {
          "internalType": "uint256",
          "name": "toChain",
          "type": "uint256"
        }
      ],
      "name": "transferOutToken",
      "outputs": [],
      "stateMutability": "nonpayable",
      "type": "function"
    },
    {
      "inputs": [],
      "name": "wToken",
      "outputs": [
        {
          "internalType": "address",
          "name": "",
          "type": "address"
        }
      ],
      "stateMutability": "view",
      "type": "function"
    },
    {
      "inputs": [
        {
          "internalType": "address",
          "name": "token",
          "type": "address"
        },
        {
          "internalType": "address payable",
          "name": "receiver",
          "type": "address"
        },
        {
          "internalType": "uint256",
          "name": "amount",
          "type": "uint256"
        }
      ],
      "name": "withdraw",
      "outputs": [],
      "stateMutability": "nonpayable",
      "type": "function"
    },
    {
      "stateMutability": "payable",
      "type": "receive"
    }
  ],
  "transactionHash": "0x081be3a01895749dc5b2ebe0518c6faff2095321b695db88bce7d56e094d6b9e",
  "args": [],
  "numDeployments": 2,
  "solcInputHash": "633dea12f4451977e2251a48fcfd8749",
  "bytecode": "0x7f6d61705472616e736665724f75742862797465732c62797465732c627974657360a0527f33322c75696e743235362c75696e743235362c62797465732c75696e7432353660c052662c62797465732960c81b60e052604760805260e76040527faca0a1067548270e80c1209ec69b5381d80bdaf345ad70cf7f00af9c6ed3f9b4600f553480156200009057600080fd5b5060016000908155620000a49033620000e2565b620000d07f241ecf16d79d0f8dbfb92cbc07fe17840425976cf0667f022fe9877caa831b0833620000e2565b6002805462ff0000191690556200017a565b620000ee8282620000f2565b5050565b60008281526001602090815260408083206001600160a01b038516845290915290205460ff16620000ee5760008281526001602081815260408084206001600160a01b0386168086529252808420805460ff19169093179092559051339285917f2f8788117e7eff1d82e926ec794901d17c78024a50270940304540a733656f0d9190a45050565b613718806200018a6000396000f3fe60806040526004361061024a5760003560e01c806391d1485411610139578063c0c53b8b116100b6578063d431b1ac1161007a578063d431b1ac14610787578063d547741f1461079c578063d9caed12146107bc578063dc3aff90146107dc578063e6984f8d146107ef578063ec87621c1461080557600080fd5b8063c0c53b8b146106ee578063c3543b5c1461070e578063cb0ff83414610724578063cc9e3e8914610751578063d24c69441461076757600080fd5b8063af653636116100fd578063af6536361461063b578063affed0e01461066b578063b2f177b314610681578063bbe35948146106ae578063bf5765ff146106ce57600080fd5b806391d14854146105a65780639485d293146105c6578063981aff4e146105e6578063a217fddf14610606578063ac18de431461061b57600080fd5b806347397cd7116101c75780636af6400d1161018b5780636af6400d146104f45780637d42fd2d14610524578063848cb5c6146105515780638bc67517146105665780638d2e68151461058657600080fd5b806347397cd7146104635780635062cac5146104835780635b6edeea146104a35780635c975abb146104b65780635f670bd3146104d457600080fd5b80632d06177a1161020e5780632d06177a146103d05780632f2ff15d146103f057806336568abe14610410578063367cf0d4146104305780633d4a2f6e1461045057600080fd5b806301ffc9a7146102b55780630babd864146102ea5780630bf1b36a1461032257806315e652c71461035b578063248a9ca31461039157600080fd5b366102b0576006546001600160a01b031633146102ae5760405162461bcd60e51b815260206004820152601760248201527f6f6e6c792063616e20726563656976652077546f6b656e00000000000000000060448201526064015b60405180910390fd5b005b600080fd5b3480156102c157600080fd5b506102d56102d036600461304f565b610827565b60405190151581526020015b60405180910390f35b3480156102f657600080fd5b5060065461030a906001600160a01b031681565b6040516001600160a01b0390911681526020016102e1565b34801561032e57600080fd5b506102d561033d366004612b5a565b6001600160a01b03166000908152600c602052604090205460ff1690565b34801561036757600080fd5b5061030a610376366004612ff8565b6008602052600090815260409020546001600160a01b031681565b34801561039d57600080fd5b506103c26103ac366004612ff8565b6000908152600160208190526040909120015490565b6040519081526020016102e1565b3480156103dc57600080fd5b506102ae6103eb366004612b5a565b61085e565b3480156103fc57600080fd5b506102ae61040b36600461302a565b610886565b34801561041c57600080fd5b506102ae61042b36600461302a565b6108b2565b34801561043c57600080fd5b506103c261044b366004612c8d565b61092c565b6102ae61045e36600461314c565b610980565b34801561046f57600080fd5b506102ae61047e366004612d00565b610b43565b34801561048f57600080fd5b506102ae61049e366004612e11565b610d68565b6102ae6104b1366004612c3c565b610dd1565b3480156104c257600080fd5b5060025462010000900460ff166102d5565b3480156104e057600080fd5b5060055461030a906001600160a01b031681565b34801561050057600080fd5b506102d561050f366004612ff8565b600a6020526000908152604090205460ff1681565b34801561053057600080fd5b506103c261053f366004612b5a565b600d6020526000908152604090205481565b34801561055d57600080fd5b506102ae610f07565b34801561057257600080fd5b506102ae610581366004612ea0565b610f45565b34801561059257600080fd5b506102ae6105a1366004612de5565b610fe1565b3480156105b257600080fd5b506102d56105c136600461302a565b611031565b3480156105d257600080fd5b5060045461030a906001600160a01b031681565b3480156105f257600080fd5b506102ae610601366004612d86565b61105c565b34801561061257600080fd5b506103c2600081565b34801561062757600080fd5b506102ae610636366004612b5a565b611297565b34801561064757600080fd5b506102d5610656366004612b5a565b600c6020526000908152604090205460ff1681565b34801561067757600080fd5b506103c260035481565b34801561068d57600080fd5b506103c261069c366004612ff8565b60096020526000908152604090205481565b3480156106ba57600080fd5b506102ae6106c9366004612ea0565b6112bb565b3480156106da57600080fd5b506102ae6106e9366004612e48565b611357565b3480156106fa57600080fd5b506102ae610709366004612bf1565b611380565b34801561071a57600080fd5b506103c2600f5481565b34801561073057600080fd5b5061074461073f366004612b5a565b6114a3565b6040516102e19190613335565b34801561075d57600080fd5b506103c260075481565b34801561077357600080fd5b506102ae610782366004613190565b6114d9565b34801561079357600080fd5b506102ae611775565b3480156107a857600080fd5b506102ae6107b736600461302a565b6117b1565b3480156107c857600080fd5b506102ae6107d7366004612bb0565b6117d8565b6102ae6107ea366004612b77565b611930565b3480156107fb57600080fd5b506103c2600b5481565b34801561081157600080fd5b506103c26000805160206136c383398151915281565b60006001600160e01b03198216637965db0b60e01b148061085857506301ffc9a760e01b6001600160e01b03198316145b92915050565b600061086a81336119da565b6108826000805160206136c383398151915283611a3e565b5050565b600082815260016020819052604090912001546108a381336119da565b6108ad8383611a44565b505050565b6001600160a01b03811633146109225760405162461bcd60e51b815260206004820152602f60248201527f416363657373436f6e74726f6c3a2063616e206f6e6c792072656e6f756e636560448201526e103937b632b9903337b91039b2b63360891b60648201526084016102a5565b6108828282611aaf565b600380546000918261093d8361363f565b91905055858588866007548760405160200161095f9796959493929190613293565b60405160208183030381529060405280519060200120905095945050505050565b60025462010000900460ff16156109a95760405162461bcd60e51b81526004016102a59061341f565b60008181527fe710864318d4a32f37d6ce54cb3fadbef648dd12d8dbdf53973564d56b7f881c6020526040812054829060ff16610a1f5760405162461bcd60e51b8152602060048201526014602482015273746f6b656e206e6f742063616e2062726964676560601b60448201526064016102a5565b3480610a5f5760405162461bcd60e51b815260206004820152600f60248201526e62616c616e6365206973207a65726f60881b60448201526064016102a5565b6000610a6f60003388858961092c565b9050600660009054906101000a90046001600160a01b03166001600160a01b031663d0e30db0836040518263ffffffff1660e01b81526004016000604051808303818588803b158015610ac157600080fd5b505af1158015610ad5573d6000803e3d6000fd5b50505050507faca0a1067548270e80c1209ec69b5381d80bdaf345ad70cf7f00af9c6ed3f9b4610b0560006114a3565b610b0e336114a3565b83600754898b88610b1f60006114a3565b604051610b33989796959493929190613348565b60405180910390a1505050505050565b6000838152600a6020526040902054839060ff1615610b925760405162461bcd60e51b815260206004820152600b60248201526a1bdc99195c88195e1a5cdd60aa1b60448201526064016102a5565b6000818152600a60205260408120805460ff191660011790555460021415610bfc5760405162461bcd60e51b815260206004820152601f60248201527f5265656e7472616e637947756172643a207265656e7472616e742063616c6c0060448201526064016102a5565b600260008190555462010000900460ff1615610c2a5760405162461bcd60e51b81526004016102a59061341f565b6001600160a01b038816610c5d57600654610c4e906001600160a01b031686611b16565b610c588686611c2c565b610cf0565b6001600160a01b0388166000908152600c602052604090205460ff1615610ce5576040516340c10f1960e01b81526001600160a01b038781166004830152602482018790528916906340c10f1990604401600060405180830381600087803b158015610cc857600080fd5b505af1158015610cdc573d6000803e3d6000fd5b50505050610cf0565b610cf0888787611cf5565b8387604051610cff9190613202565b60408051918290038220868352602083018690526001600160a01b038a168383015260608301899052905190916000917fd9fedc891b9a6aebd6a4e09cedbcbb83091a18befe79e2f5a26ec3409469cc8d9181900360800190a450506001600055505050505050565b610d806000805160206136c383398151915233611031565b610d9c5760405162461bcd60e51b81526004016102a5906133e8565b6001600160a01b03929092166000908152600e6020908152604080832093835292905220805460ff1916911515919091179055565b60025462010000900460ff1615610dfa5760405162461bcd60e51b81526004016102a59061341f565b6000610e138533610e0a866114a3565b856158f861092c565b6040516370a0823160e01b815233600482015290915082906001600160a01b038716906370a082319060240160206040518083038186803b158015610e5757600080fd5b505afa158015610e6b573d6000803e3d6000fd5b505050506040513d601f19601f82011682018060405250810190610e8f9190613011565b1015610ead5760405162461bcd60e51b81526004016102a5906133bf565b610eb985853085611e10565b7f4b8d975c8ba7569b7af88d44a3f4756798777473e8d62263f0df37ff8560588d85610ee4866114a3565b858486604051610ef89594939291906132f7565b60405180910390a15050505050565b610f1f6000805160206136c383398151915233611031565b610f3b5760405162461bcd60e51b81526004016102a5906133e8565b610f43611f40565b565b610f5d6000805160206136c383398151915233611031565b610f795760405162461bcd60e51b81526004016102a5906133e8565b60005b8151811015610882576000600c6000848481518110610f9d57610f9d613670565b6020908102919091018101516001600160a01b03168252810191909152604001600020805460ff191691151591909117905580610fd98161363f565b915050610f7c565b610ff96000805160206136c383398151915233611031565b6110155760405162461bcd60e51b81526004016102a5906133e8565b6001600160a01b039091166000908152600d6020526040902055565b60009182526001602090815260408084206001600160a01b0393909316845291905290205460ff1690565b60025462010000900460ff16156110855760405162461bcd60e51b81526004016102a59061341f565b6001600160a01b0384166000908152600e602090815260408083208484529091529020548490829060ff166110f35760405162461bcd60e51b8152602060048201526014602482015273746f6b656e206e6f742063616e2062726964676560601b60448201526064016102a5565b6000611102873388888861092c565b6040516370a0823160e01b815233600482015290915085906001600160a01b038916906370a082319060240160206040518083038186803b15801561114657600080fd5b505afa15801561115a573d6000803e3d6000fd5b505050506040513d601f19601f8201168201806040525081019061117e9190613011565b101561119c5760405162461bcd60e51b81526004016102a5906133bf565b6001600160a01b0387166000908152600c602052604090205460ff16156112225760405163079cc67960e41b8152336004820152602481018690526001600160a01b038816906379cc679090604401600060405180830381600087803b15801561120557600080fd5b505af1158015611219573d6000803e3d6000fd5b5050505061122e565b61122e87333088611e10565b7faca0a1067548270e80c1209ec69b5381d80bdaf345ad70cf7f00af9c6ed3f9b4611258886114a3565b611261336114a3565b83600754888b8b61127260006114a3565b604051611286989796959493929190613348565b60405180910390a150505050505050565b60006112a381336119da565b6108826000805160206136c383398151915283611aaf565b6112d36000805160206136c383398151915233611031565b6112ef5760405162461bcd60e51b81526004016102a5906133e8565b60005b8151811015610882576001600c600084848151811061131357611313613670565b6020908102919091018101516001600160a01b03168252810191909152604001600020805460ff19169115159190911790558061134f8161363f565b9150506112f2565b60025462010000900460ff16156108ad5760405162461bcd60e51b81526004016102a59061341f565b600254610100900460ff1661139b5760025460ff161561139f565b303b155b6114025760405162461bcd60e51b815260206004820152602e60248201527f496e697469616c697a61626c653a20636f6e747261637420697320616c72656160448201526d191e481a5b9a5d1a585b1a5e995960921b60648201526084016102a5565b600254610100900460ff16158015611424576002805461ffff19166101011790555b466007819055600680546001600160a01b038088166001600160a01b031992831617909255600480548784169083161790556005805492861692909116919091179055611472600033611a3e565b61148a6000805160206136c383398151915233611a3e565b50801561149d576002805461ff00191690555b50505050565b604051606082811b6bffffffffffffffffffffffff19166020830152906034016040516020818303038152906040529050919050565b6002600054141561152c5760405162461bcd60e51b815260206004820152601f60248201527f5265656e7472616e637947756172643a207265656e7472616e742063616c6c0060448201526064016102a5565b600260008190555462010000900460ff161561155a5760405162461bcd60e51b81526004016102a59061341f565b60055460405163016dc52760e41b8152600091829182916001600160a01b0316906316dc52709061158f908790600401613335565b600060405180830381600087803b1580156115a957600080fd5b505af11580156115bd573d6000803e3d6000fd5b505050506040513d6000823e601f3d908101601f191682016040526115e59190810190612f75565b92509250925082829061160b5760405162461bcd60e51b81526004016102a59190613335565b50600061161782611fdb565b905060005b815181101561176757600082828151811061163957611639613670565b602002602001015190506000816020015160008151811061165c5761165c613670565b60200260200101518060200190518101906116779190613011565b9050600f548114156117525781516001600160a01b03166000908152600d60205260409020546116e95760405162461bcd60e51b815260206004820152601860248201527f496c6c6567616c206163726f73732074686520636861696e000000000000000060448201526064016102a5565b6000806000806000806000886040015180602001905181019061170c9190613079565b9750975097509750975097509750506000611728826014015190565b90506000611737856014015190565b9050611748828a83878c8c8c61226f565b5050505050505050505b5050808061175f9061363f565b91505061161c565b505060016000555050505050565b61178d6000805160206136c383398151915233611031565b6117a95760405162461bcd60e51b81526004016102a5906133e8565b610f43612410565b600082815260016020819052604090912001546117ce81336119da565b6108ad8383611aaf565b6117f06000805160206136c383398151915233611031565b61180c5760405162461bcd60e51b81526004016102a5906133e8565b6001600160a01b0383166118ae57600654604051632e1a7d4d60e01b8152600481018390526001600160a01b0390911690632e1a7d4d90602401600060405180830381600087803b15801561186057600080fd5b505af1158015611874573d6000803e3d6000fd5b50506040516001600160a01b038516925083156108fc02915083906000818181858888f1935050505015801561149d573d6000803e3d6000fd5b60405163a9059cbb60e01b81526001600160a01b0383811660048301526024820183905284169063a9059cbb90604401602060405180830381600087803b1580156118f857600080fd5b505af115801561190c573d6000803e3d6000fd5b505050506040513d601f19601f8201168201806040525081019061149d9190612f58565b60025462010000900460ff16156119595760405162461bcd60e51b81526004016102a59061341f565b34600061196a8133610e0a866114a3565b90508134101561198c5760405162461bcd60e51b81526004016102a5906133bf565b7f4b8d975c8ba7569b7af88d44a3f4756798777473e8d62263f0df37ff8560588d60006119b8866114a3565b8584866040516119cc9594939291906132f7565b60405180910390a150505050565b6119e48282611031565b610882576119fc816001600160a01b03166014612472565b611a07836020612472565b604051602001611a1892919061321e565b60408051601f198184030181529082905262461bcd60e51b82526102a591600401613335565b61088282825b611a4e8282611031565b6108825760008281526001602081815260408084206001600160a01b0386168086529252808420805460ff19169093179092559051339285917f2f8788117e7eff1d82e926ec794901d17c78024a50270940304540a733656f0d9190a45050565b611ab98282611031565b156108825760008281526001602090815260408083206001600160a01b0385168085529252808320805460ff1916905551339285917ff6391f5c32d9c69d2a47ea670b442974b53935d1edc7fd64eb21e047a839171b9190a45050565b600080836001600160a01b0316632e1a7d4d84604051602401611b3b91815260200190565b6040516020818303038152906040529060e01b6020820180516001600160e01b038381831617835250505050604051611b749190613202565b6000604051808303816000865af19150503d8060008114611bb1576040519150601f19603f3d011682016040523d82523d6000602084013e611bb6565b606091505b5091509150818015611be0575080511580611be0575080806020019051810190611be09190612f58565b61149d5760405162461bcd60e51b815260206004820152601f60248201527f5472616e7366657248656c7065723a2057695448445241575f4641494c45440060448201526064016102a5565b604080516000808252602082019092526001600160a01b038416908390604051611c569190613202565b60006040518083038185875af1925050503d8060008114611c93576040519150601f19603f3d011682016040523d82523d6000602084013e611c98565b606091505b50509050806108ad5760405162461bcd60e51b815260206004820152602360248201527f5472616e7366657248656c7065723a204554485f5452414e534645525f46414960448201526213115160ea1b60648201526084016102a5565b604080516001600160a01b038481166024830152604480830185905283518084039091018152606490920183526020820180516001600160e01b031663a9059cbb60e01b1790529151600092839290871691611d519190613202565b6000604051808303816000865af19150503d8060008114611d8e576040519150601f19603f3d011682016040523d82523d6000602084013e611d93565b606091505b5091509150818015611dbd575080511580611dbd575080806020019051810190611dbd9190612f58565b611e095760405162461bcd60e51b815260206004820152601f60248201527f5472616e7366657248656c7065723a205452414e534645525f4641494c45440060448201526064016102a5565b5050505050565b604080516001600160a01b0385811660248301528481166044830152606480830185905283518084039091018152608490920183526020820180516001600160e01b03166323b872dd60e01b1790529151600092839290881691611e749190613202565b6000604051808303816000865af19150503d8060008114611eb1576040519150601f19603f3d011682016040523d82523d6000602084013e611eb6565b606091505b5091509150818015611ee0575080511580611ee0575080806020019051810190611ee09190612f58565b611f385760405162461bcd60e51b8152602060048201526024808201527f5472616e7366657248656c7065723a205452414e534645525f46524f4d5f46416044820152631253115160e21b60648201526084016102a5565b505050505050565b60025462010000900460ff16611f8f5760405162461bcd60e51b815260206004820152601460248201527314185d5cd8589b194e881b9bdd081c185d5cd95960621b60448201526064016102a5565b6002805462ff0000191690557f5db9ee0a495bf2e6ff9c91a7834c1ba4fdd244a5e8aa4e537bd38aeae4b073aa335b6040516001600160a01b03909116815260200160405180910390a1565b606060006120186120138460408051808201825260008082526020918201528151808301909252825182529182019181019190915290565b612614565b905080516001600160401b0381111561203357612033613686565b60405190808252806020026020018201604052801561209157816020015b61207e604051806060016040528060006001600160a01b0316815260200160608152602001606081525090565b8152602001906001900390816120515790505b50915060005b81518110156122685760006120d96120c78484815181106120ba576120ba613670565b6020026020010151612614565b6001815181106120ba576120ba613670565b516001600160401b038111156120f1576120f1613686565b60405190808252806020026020018201604052801561212457816020015b606081526020019060019003908161210f5790505b50905060005b6121426120c78585815181106120ba576120ba613670565b518110156121b3576121836121656120c78686815181106120ba576120ba613670565b828151811061217657612176613670565b6020026020010151612729565b82828151811061219557612195613670565b602002602001018190525080806121ab9061363f565b91505061212a565b5060405180606001604052806121f66121d78686815181106120ba576120ba613670565b6000815181106121e9576121e9613670565b60200260200101516127a6565b6001600160a01b031681526020018281526020016122346122228686815181106120ba576120ba613670565b60028151811061217657612176613670565b81525084838151811061224957612249613670565b60200260200101819052505080806122609061363f565b915050612097565b5050919050565b6000838152600a6020526040902054839060ff16156122be5760405162461bcd60e51b815260206004820152600b60248201526a1bdc99195c88195e1a5cdd60aa1b60448201526064016102a5565b6000818152600a60205260409020805460ff191660011790556001600160a01b03881661230a576006546122fb906001600160a01b031686611b16565b6123058686611c2c565b61239d565b6001600160a01b0388166000908152600c602052604090205460ff1615612392576040516340c10f1960e01b81526001600160a01b038781166004830152602482018790528916906340c10f1990604401600060405180830381600087803b15801561237557600080fd5b505af1158015612389573d6000803e3d6000fd5b5050505061239d565b61239d888787611cf5565b83876040516123ac9190613202565b60408051918290038220868352602083018690526001600160a01b038a168383015260608301899052905190916000917fd9fedc891b9a6aebd6a4e09cedbcbb83091a18befe79e2f5a26ec3409469cc8d9181900360800190a45050505050505050565b60025462010000900460ff16156124395760405162461bcd60e51b81526004016102a59061341f565b6002805462ff00001916620100001790557f62e78cea01bee320cd4e420270b5ea74000d11b0c9f74754ebdbfc544b05a258611fbe3390565b606060006124818360026135a3565b61248c9060026134a0565b6001600160401b038111156124a3576124a3613686565b6040519080825280601f01601f1916602001820160405280156124cd576020820181803683370190505b509050600360fc1b816000815181106124e8576124e8613670565b60200101906001600160f81b031916908160001a905350600f60fb1b8160018151811061251757612517613670565b60200101906001600160f81b031916908160001a905350600061253b8460026135a3565b6125469060016134a0565b90505b60018111156125be576f181899199a1a9b1b9c1cb0b131b232b360811b85600f166010811061257a5761257a613670565b1a60f81b82828151811061259057612590613670565b60200101906001600160f81b031916908160001a90535060049490941c936125b781613628565b9050612549565b50831561260d5760405162461bcd60e51b815260206004820181905260248201527f537472696e67733a20686578206c656e67746820696e73756666696369656e7460448201526064016102a5565b9392505050565b606061261f826127c0565b61262857600080fd5b6000612633836127f9565b90506000816001600160401b0381111561264f5761264f613686565b60405190808252806020026020018201604052801561269457816020015b604080518082019091526000808252602082015281526020019060019003908161266d5790505b50905060006126a6856020015161287c565b85602001516126b591906134a0565b90506000805b8481101561271e576126cc836128f7565b91506040518060400160405280838152602001848152508482815181106126f5576126f5613670565b602090810291909101015261270a82846134a0565b9250806127168161363f565b9150506126bb565b509195945050505050565b805160609061273757600080fd5b600080612743846129a0565b915091506000816001600160401b0381111561276157612761613686565b6040519080825280601f01601f19166020018201604052801561278b576020820181803683370190505b5090506020810161279d8482856129e7565b50949350505050565b80516000906015146127b757600080fd5b61085882612a66565b80516000906127d157506000919050565b6020820151805160001a9060c08210156127ef575060009392505050565b5060019392505050565b805160009061280a57506000919050565b60008061281a846020015161287c565b846020015161282991906134a0565b905060008460000151856020015161284191906134a0565b90505b8082101561287357612855826128f7565b61285f90836134a0565b91508261286b8161363f565b935050612844565b50909392505050565b8051600090811a60808110156128955750600092915050565b60b88110806128b0575060c081108015906128b0575060f881105b156128be5750600192915050565b60c08110156128eb576128d3600160b86135d9565b6128e09060ff16826135c2565b61260d9060016134a0565b6128d3600160f86135d9565b80516000908190811a60808110156129125760019150612999565b60b8811015612938576129266080826135c2565b6129319060016134a0565b9150612999565b60c08110156129655760b78103600185019450806020036101000a85510460018201810193505050612999565b60f88110156129795761292660c0826135c2565b60f78103600185019450806020036101000a855104600182018101935050505b5092915050565b60008060006129b2846020015161287c565b905060008185602001516129c691906134a0565b905060008286600001516129da91906135c2565b9196919550909350505050565b806129f157505050565b60208110612a295782518252612a086020846134a0565b9250612a156020836134a0565b9150612a226020826135c2565b90506129f1565b80156108ad5760006001612a3e8360206135c2565b612a4a906101006134fb565b612a5491906135c2565b84518451821691191617835250505050565b805160009015801590612a7b57508151602110155b612a8457600080fd5b600080612a90846129a0565b815191935091506020821015612aac5760208290036101000a90045b949350505050565b6000612ac7612ac284613479565b613449565b9050828152838383011115612adb57600080fd5b61260d8360208301846135fc565b600082601f830112612afa57600080fd5b8135612b08612ac282613479565b818152846020838601011115612b1d57600080fd5b816020850160208301376000918101602001919091529392505050565b600082601f830112612b4b57600080fd5b61260d83835160208501612ab4565b600060208284031215612b6c57600080fd5b813561260d8161369c565b60008060408385031215612b8a57600080fd5b8235612b958161369c565b91506020830135612ba58161369c565b809150509250929050565b600080600060608486031215612bc557600080fd5b8335612bd08161369c565b92506020840135612be08161369c565b929592945050506040919091013590565b600080600060608486031215612c0657600080fd5b8335612c118161369c565b92506020840135612c218161369c565b91506040840135612c318161369c565b809150509250925092565b60008060008060808587031215612c5257600080fd5b8435612c5d8161369c565b93506020850135612c6d8161369c565b92506040850135612c7d8161369c565b9396929550929360600135925050565b600080600080600060a08688031215612ca557600080fd5b8535612cb08161369c565b94506020860135612cc08161369c565b935060408601356001600160401b03811115612cdb57600080fd5b612ce788828901612ae9565b9598949750949560608101359550608001359392505050565b600080600080600080600060e0888a031215612d1b57600080fd5b8735612d268161369c565b965060208801356001600160401b03811115612d4157600080fd5b612d4d8a828b01612ae9565b9650506040880135612d5e8161369c565b969995985095966060810135965060808101359560a0820135955060c0909101359350915050565b60008060008060808587031215612d9c57600080fd5b8435612da78161369c565b935060208501356001600160401b03811115612dc257600080fd5b612dce87828801612ae9565b949794965050505060408301359260600135919050565b60008060408385031215612df857600080fd5b8235612e038161369c565b946020939093013593505050565b600080600060608486031215612e2657600080fd5b8335612e318161369c565b9250602084013591506040840135612c31816136b4565b600080600060608486031215612e5d57600080fd5b8335612e688161369c565b92506020840135915060408401356001600160401b03811115612e8a57600080fd5b612e9686828701612ae9565b9150509250925092565b60006020808385031215612eb357600080fd5b82356001600160401b0380821115612eca57600080fd5b818501915085601f830112612ede57600080fd5b813581811115612ef057612ef0613686565b8060051b9150612f01848301613449565b8181528481019084860184860187018a1015612f1c57600080fd5b600095505b83861015612f4b5780359450612f368561369c565b84835260019590950194918601918601612f21565b5098975050505050505050565b600060208284031215612f6a57600080fd5b815161260d816136b4565b600080600060608486031215612f8a57600080fd5b8351612f95816136b4565b60208501519093506001600160401b0380821115612fb257600080fd5b818601915086601f830112612fc657600080fd5b612fd587835160208501612ab4565b93506040860151915080821115612feb57600080fd5b50612e9686828701612b3a565b60006020828403121561300a57600080fd5b5035919050565b60006020828403121561302357600080fd5b5051919050565b6000806040838503121561303d57600080fd5b823591506020830135612ba58161369c565b60006020828403121561306157600080fd5b81356001600160e01b03198116811461260d57600080fd5b600080600080600080600080610100898b03121561309657600080fd5b88516001600160401b03808211156130ad57600080fd5b6130b98c838d01612b3a565b995060208b01519150808211156130cf57600080fd5b6130db8c838d01612b3a565b985060408b0151975060608b0151965060808b0151955060a08b015191508082111561310657600080fd5b6131128c838d01612b3a565b945060c08b0151935060e08b015191508082111561312f57600080fd5b5061313c8b828c01612b3a565b9150509295985092959890939650565b6000806040838503121561315f57600080fd5b82356001600160401b0381111561317557600080fd5b61318185828601612ae9565b95602094909401359450505050565b600080604083850312156131a357600080fd5b8235915060208301356001600160401b038111156131c057600080fd5b6131cc85828601612ae9565b9150509250929050565b600081518084526131ee8160208601602086016135fc565b601f01601f19169290920160200192915050565b600082516132148184602087016135fc565b9190910192915050565b7f416363657373436f6e74726f6c3a206163636f756e74200000000000000000008152600083516132568160178501602088016135fc565b7001034b99036b4b9b9b4b733903937b6329607d1b60179184019182015283516132878160288401602088016135fc565b01602801949350505050565b87815260006bffffffffffffffffffffffff19808960601b16602084015287516132c4816034860160208c016135fc565b60609790971b1691909501603481019190915260488101939093526068830191909152608882015260a801949350505050565b600060018060a01b03808816835260a0602084015261331960a08401886131d6565b9516604083015250606081019290925260809091015292915050565b60208152600061260d60208301846131d6565b600061010080835261335c8184018c6131d6565b90508281036020840152613370818b6131d6565b905088604084015287606084015286608084015282810360a084015261339681876131d6565b90508460c084015282810360e08401526133b081856131d6565b9b9a5050505050505050505050565b6020808252600f908201526e62616c616e636520746f6f206c6f7760881b604082015260600190565b60208082526017908201527f43616c6c6572206973206e6f742061206d616e61676572000000000000000000604082015260600190565b60208082526010908201526f14185d5cd8589b194e881c185d5cd95960821b604082015260600190565b604051601f8201601f191681016001600160401b038111828210171561347157613471613686565b604052919050565b60006001600160401b0382111561349257613492613686565b50601f01601f191660200190565b600082198211156134b3576134b361365a565b500190565b600181815b808511156134f35781600019048211156134d9576134d961365a565b808516156134e657918102915b93841c93908002906134bd565b509250929050565b600061260d838360008261351157506001610858565b8161351e57506000610858565b8160018114613534576002811461353e5761355a565b6001915050610858565b60ff84111561354f5761354f61365a565b50506001821b610858565b5060208310610133831016604e8410600b841016171561357d575081810a610858565b61358783836134b8565b806000190482111561359b5761359b61365a565b029392505050565b60008160001904831182151516156135bd576135bd61365a565b500290565b6000828210156135d4576135d461365a565b500390565b600060ff821660ff8416808210156135f3576135f361365a565b90039392505050565b60005b838110156136175781810151838201526020016135ff565b8381111561149d5750506000910152565b6000816136375761363761365a565b506000190190565b60006000198214156136535761365361365a565b5060010190565b634e487b7160e01b600052601160045260246000fd5b634e487b7160e01b600052603260045260246000fd5b634e487b7160e01b600052604160045260246000fd5b6001600160a01b03811681146136b157600080fd5b50565b80151581146136b157600080fdfe241ecf16d79d0f8dbfb92cbc07fe17840425976cf0667f022fe9877caa831b08a2646970667358221220e5236bca4cc7d2c9a8225a23d7478e8639748e8b19a3c2f10da20577f65a1d2464736f6c63430008070033",
  "devdoc": {
    "kind": "dev",
    "methods": {
      "getRoleAdmin(bytes32)": {
        "details": "Returns the admin role that controls `role`. See {grantRole} and {revokeRole}. To change a role's admin, use {_setRoleAdmin}."
      },
      "grantRole(bytes32,address)": {
        "details": "Grants `role` to `account`. If `account` had not been already granted `role`, emits a {RoleGranted} event. Requirements: - the caller must have ``role``'s admin role."
      },
      "hasRole(bytes32,address)": {
        "details": "Returns `true` if `account` has been granted `role`."
      },
      "paused()": {
        "details": "Returns true if the contract is paused, and false otherwise."
      },
      "renounceRole(bytes32,address)": {
        "details": "Revokes `role` from the calling account. Roles are often managed via {grantRole} and {revokeRole}: this function's purpose is to provide a mechanism for accounts to lose their privileges if they are compromised (such as when a trusted device is misplaced). If the calling account had been revoked `role`, emits a {RoleRevoked} event. Requirements: - the caller must be `account`."
      },
      "revokeRole(bytes32,address)": {
        "details": "Revokes `role` from `account`. If `account` had been granted `role`, emits a {RoleRevoked} event. Requirements: - the caller must have ``role``'s admin role."
      },
      "supportsInterface(bytes4)": {
        "details": "See {IERC165-supportsInterface}."
      }
    },
    "version": 1
  },
  "userdoc": {
    "kind": "user",
    "methods": {},
    "version": 1
  },
  "storageLayout": {
    "storage": [
      {
        "astId": 558,
        "contract": "contracts/MapCrossChainService.sol:MapCrossChainService",
        "label": "_status",
        "offset": 0,
        "slot": "0",
        "type": "t_uint256"
      },
      {
        "astId": 24,
        "contract": "contracts/MapCrossChainService.sol:MapCrossChainService",
        "label": "_roles",
        "offset": 0,
        "slot": "1",
        "type": "t_mapping(t_bytes32,t_struct(RoleData)19_storage)"
      },
      {
        "astId": 388,
        "contract": "contracts/MapCrossChainService.sol:MapCrossChainService",
        "label": "_initialized",
        "offset": 0,
        "slot": "2",
        "type": "t_bool"
      },
      {
        "astId": 391,
        "contract": "contracts/MapCrossChainService.sol:MapCrossChainService",
        "label": "_initializing",
        "offset": 1,
        "slot": "2",
        "type": "t_bool"
      },
      {
        "astId": 473,
        "contract": "contracts/MapCrossChainService.sol:MapCrossChainService",
        "label": "_paused",
        "offset": 2,
        "slot": "2",
        "type": "t_bool"
      },
      {
        "astId": 2146,
        "contract": "contracts/MapCrossChainService.sol:MapCrossChainService",
        "label": "nonce",
        "offset": 0,
        "slot": "3",
        "type": "t_uint256"
      },
      {
        "astId": 2149,
        "contract": "contracts/MapCrossChainService.sol:MapCrossChainService",
        "label": "mapToken",
        "offset": 0,
        "slot": "4",
        "type": "t_contract(IERC20)1211"
      },
      {
        "astId": 2152,
        "contract": "contracts/MapCrossChainService.sol:MapCrossChainService",
        "label": "lightNode",
        "offset": 0,
        "slot": "5",
        "type": "t_contract(ILightNode)3403"
      },
      {
        "astId": 2154,
        "contract": "contracts/MapCrossChainService.sol:MapCrossChainService",
        "label": "wToken",
        "offset": 0,
        "slot": "6",
        "type": "t_address"
      },
      {
        "astId": 2156,
        "contract": "contracts/MapCrossChainService.sol:MapCrossChainService",
        "label": "selfChainId",
        "offset": 0,
        "slot": "7",
        "type": "t_uint256"
      },
      {
        "astId": 2160,
        "contract": "contracts/MapCrossChainService.sol:MapCrossChainService",
        "label": "tokenRegister",
        "offset": 0,
        "slot": "8",
        "type": "t_mapping(t_bytes32,t_address)"
      },
      {
        "astId": 2164,
        "contract": "contracts/MapCrossChainService.sol:MapCrossChainService",
        "label": "chainGasFee",
        "offset": 0,
        "slot": "9",
        "type": "t_mapping(t_uint256,t_uint256)"
      },
      {
        "astId": 2168,
        "contract": "contracts/MapCrossChainService.sol:MapCrossChainService",
        "label": "orderList",
        "offset": 0,
        "slot": "10",
        "type": "t_mapping(t_bytes32,t_bool)"
      },
      {
        "astId": 2170,
        "contract": "contracts/MapCrossChainService.sol:MapCrossChainService",
        "label": "chainGasFees",
        "offset": 0,
        "slot": "11",
        "type": "t_uint256"
      },
      {
        "astId": 2174,
        "contract": "contracts/MapCrossChainService.sol:MapCrossChainService",
        "label": "authToken",
        "offset": 0,
        "slot": "12",
        "type": "t_mapping(t_address,t_bool)"
      },
      {
        "astId": 2178,
        "contract": "contracts/MapCrossChainService.sol:MapCrossChainService",
        "label": "bridgeAddress",
        "offset": 0,
        "slot": "13",
        "type": "t_mapping(t_address,t_uint256)"
      },
      {
        "astId": 2184,
        "contract": "contracts/MapCrossChainService.sol:MapCrossChainService",
        "label": "canBridgeToken",
        "offset": 0,
        "slot": "14",
        "type": "t_mapping(t_address,t_mapping(t_uint256,t_bool))"
      },
      {
        "astId": 2280,
        "contract": "contracts/MapCrossChainService.sol:MapCrossChainService",
        "label": "mapTransferOutTopic",
        "offset": 0,
        "slot": "15",
        "type": "t_bytes32"
      }
    ],
    "types": {
      "t_address": {
        "encoding": "inplace",
        "label": "address",
        "numberOfBytes": "20"
      },
      "t_bool": {
        "encoding": "inplace",
        "label": "bool",
        "numberOfBytes": "1"
      },
      "t_bytes32": {
        "encoding": "inplace",
        "label": "bytes32",
        "numberOfBytes": "32"
      },
      "t_contract(IERC20)1211": {
        "encoding": "inplace",
        "label": "contract IERC20",
        "numberOfBytes": "20"
      },
      "t_contract(ILightNode)3403": {
        "encoding": "inplace",
        "label": "contract ILightNode",
        "numberOfBytes": "20"
      },
      "t_mapping(t_address,t_bool)": {
        "encoding": "mapping",
        "key": "t_address",
        "label": "mapping(address => bool)",
        "numberOfBytes": "32",
        "value": "t_bool"
      },
      "t_mapping(t_address,t_mapping(t_uint256,t_bool))": {
        "encoding": "mapping",
        "key": "t_address",
        "label": "mapping(address => mapping(uint256 => bool))",
        "numberOfBytes": "32",
        "value": "t_mapping(t_uint256,t_bool)"
      },
      "t_mapping(t_address,t_uint256)": {
        "encoding": "mapping",
        "key": "t_address",
        "label": "mapping(address => uint256)",
        "numberOfBytes": "32",
        "value": "t_uint256"
      },
      "t_mapping(t_bytes32,t_address)": {
        "encoding": "mapping",
        "key": "t_bytes32",
        "label": "mapping(bytes32 => address)",
        "numberOfBytes": "32",
        "value": "t_address"
      },
      "t_mapping(t_bytes32,t_bool)": {
        "encoding": "mapping",
        "key": "t_bytes32",
        "label": "mapping(bytes32 => bool)",
        "numberOfBytes": "32",
        "value": "t_bool"
      },
      "t_mapping(t_bytes32,t_struct(RoleData)19_storage)": {
        "encoding": "mapping",
        "key": "t_bytes32",
        "label": "mapping(bytes32 => struct AccessControl.RoleData)",
        "numberOfBytes": "32",
        "value": "t_struct(RoleData)19_storage"
      },
      "t_mapping(t_uint256,t_bool)": {
        "encoding": "mapping",
        "key": "t_uint256",
        "label": "mapping(uint256 => bool)",
        "numberOfBytes": "32",
        "value": "t_bool"
      },
      "t_mapping(t_uint256,t_uint256)": {
        "encoding": "mapping",
        "key": "t_uint256",
        "label": "mapping(uint256 => uint256)",
        "numberOfBytes": "32",
        "value": "t_uint256"
      },
      "t_struct(RoleData)19_storage": {
        "encoding": "inplace",
        "label": "struct AccessControl.RoleData",
        "members": [
          {
            "astId": 16,
            "contract": "contracts/MapCrossChainService.sol:MapCrossChainService",
            "label": "members",
            "offset": 0,
            "slot": "0",
            "type": "t_mapping(t_address,t_bool)"
          },
          {
            "astId": 18,
            "contract": "contracts/MapCrossChainService.sol:MapCrossChainService",
            "label": "adminRole",
            "offset": 0,
            "slot": "1",
            "type": "t_bytes32"
          }
        ],
        "numberOfBytes": "64"
      },
      "t_uint256": {
        "encoding": "inplace",
        "label": "uint256",
        "numberOfBytes": "32"
      }
    }
  }
}